{
  "contractName": "BuyInvoicesMainAPp",
  "abi": [
    {
      "inputs": [
        {
          "internalType": "contract Token",
          "name": "_token",
          "type": "address"
        }
      ],
      "stateMutability": "nonpayable",
      "type": "constructor"
    },
    {
      "inputs": [],
      "name": "name",
      "outputs": [
        {
          "internalType": "string",
          "name": "",
          "type": "string"
        }
      ],
      "stateMutability": "view",
      "type": "function",
      "constant": true
    },
    {
      "inputs": [
        {
          "internalType": "uint256",
          "name": "",
          "type": "uint256"
        }
      ],
      "name": "stakeholders",
      "outputs": [
        {
          "internalType": "address",
          "name": "user",
          "type": "address"
        }
      ],
      "stateMutability": "view",
      "type": "function",
      "constant": true
    },
    {
      "inputs": [
        {
          "internalType": "uint256",
          "name": "",
          "type": "uint256"
        }
      ],
      "name": "stakers",
      "outputs": [
        {
          "internalType": "address",
          "name": "",
          "type": "address"
        }
      ],
      "stateMutability": "view",
      "type": "function",
      "constant": true
    },
    {
      "inputs": [
        {
          "internalType": "address",
          "name": "",
          "type": "address"
        }
      ],
      "name": "stakes",
      "outputs": [
        {
          "internalType": "uint256",
          "name": "",
          "type": "uint256"
        }
      ],
      "stateMutability": "view",
      "type": "function",
      "constant": true
    },
    {
      "inputs": [],
      "name": "token",
      "outputs": [
        {
          "internalType": "contract Token",
          "name": "",
          "type": "address"
        }
      ],
      "stateMutability": "view",
      "type": "function",
      "constant": true
    },
    {
      "inputs": [],
      "name": "getBalance",
      "outputs": [
        {
          "internalType": "uint256",
          "name": "",
          "type": "uint256"
        }
      ],
      "stateMutability": "view",
      "type": "function",
      "constant": true
    },
    {
      "inputs": [],
      "name": "exchangeHistoryOfStake",
      "outputs": [
        {
          "components": [
            {
              "internalType": "address",
              "name": "user",
              "type": "address"
            },
            {
              "components": [
                {
                  "internalType": "uint32",
                  "name": "_orderId",
                  "type": "uint32"
                },
                {
                  "internalType": "uint256",
                  "name": "_amount",
                  "type": "uint256"
                },
                {
                  "internalType": "string",
                  "name": "_termsAndCondition",
                  "type": "string"
                },
                {
                  "internalType": "string",
                  "name": "_warrantyFile",
                  "type": "string"
                },
                {
                  "internalType": "uint32",
                  "name": "_apealTime",
                  "type": "uint32"
                },
                {
                  "internalType": "string",
                  "name": "_sellerWalletAddress",
                  "type": "string"
                },
                {
                  "internalType": "string",
                  "name": "_invoiceFile",
                  "type": "string"
                },
                {
                  "internalType": "string",
                  "name": "_customerEmail",
                  "type": "string"
                },
                {
                  "internalType": "uint32",
                  "name": "_mediatorId",
                  "type": "uint32"
                },
                {
                  "internalType": "bool",
                  "name": "_medAccepted",
                  "type": "bool"
                },
                {
                  "internalType": "string",
                  "name": "_friendsEmail",
                  "type": "string"
                }
              ],
              "internalType": "struct BuyInvoicesMainAPp.OrderData[]",
              "name": "address_stakes",
              "type": "tuple[]"
            }
          ],
          "internalType": "struct BuyInvoicesMainAPp.Stakeholder[]",
          "name": "",
          "type": "tuple[]"
        }
      ],
      "stateMutability": "view",
      "type": "function",
      "constant": true
    },
    {
      "inputs": [
        {
          "internalType": "uint32",
          "name": "_orderId",
          "type": "uint32"
        }
      ],
      "name": "medAcceptNewCases",
      "outputs": [
        {
          "components": [
            {
              "internalType": "uint32",
              "name": "_orderId",
              "type": "uint32"
            },
            {
              "internalType": "uint256",
              "name": "_amount",
              "type": "uint256"
            },
            {
              "internalType": "string",
              "name": "_termsAndCondition",
              "type": "string"
            },
            {
              "internalType": "string",
              "name": "_warrantyFile",
              "type": "string"
            },
            {
              "internalType": "uint32",
              "name": "_apealTime",
              "type": "uint32"
            },
            {
              "internalType": "string",
              "name": "_sellerWalletAddress",
              "type": "string"
            },
            {
              "internalType": "string",
              "name": "_invoiceFile",
              "type": "string"
            },
            {
              "internalType": "string",
              "name": "_customerEmail",
              "type": "string"
            },
            {
              "internalType": "uint32",
              "name": "_mediatorId",
              "type": "uint32"
            },
            {
              "internalType": "bool",
              "name": "_medAccepted",
              "type": "bool"
            },
            {
              "internalType": "string",
              "name": "_friendsEmail",
              "type": "string"
            }
          ],
          "internalType": "struct BuyInvoicesMainAPp.OrderData[]",
          "name": "",
          "type": "tuple[]"
        }
      ],
      "stateMutability": "nonpayable",
      "type": "function"
    },
    {
      "inputs": [
        {
          "internalType": "address",
          "name": "_userAddress",
          "type": "address"
        }
      ],
      "name": "getAllOrdersOfOneUser",
      "outputs": [
        {
          "components": [
            {
              "internalType": "uint32",
              "name": "_orderId",
              "type": "uint32"
            },
            {
              "internalType": "uint256",
              "name": "_amount",
              "type": "uint256"
            },
            {
              "internalType": "string",
              "name": "_termsAndCondition",
              "type": "string"
            },
            {
              "internalType": "string",
              "name": "_warrantyFile",
              "type": "string"
            },
            {
              "internalType": "uint32",
              "name": "_apealTime",
              "type": "uint32"
            },
            {
              "internalType": "string",
              "name": "_sellerWalletAddress",
              "type": "string"
            },
            {
              "internalType": "string",
              "name": "_invoiceFile",
              "type": "string"
            },
            {
              "internalType": "string",
              "name": "_customerEmail",
              "type": "string"
            },
            {
              "internalType": "uint32",
              "name": "_mediatorId",
              "type": "uint32"
            },
            {
              "internalType": "bool",
              "name": "_medAccepted",
              "type": "bool"
            },
            {
              "internalType": "string",
              "name": "_friendsEmail",
              "type": "string"
            }
          ],
          "internalType": "struct BuyInvoicesMainAPp.OrderData[]",
          "name": "",
          "type": "tuple[]"
        }
      ],
      "stateMutability": "view",
      "type": "function",
      "constant": true
    },
    {
      "inputs": [
        {
          "internalType": "uint32",
          "name": "_orderId",
          "type": "uint32"
        },
        {
          "internalType": "uint256",
          "name": "_amount",
          "type": "uint256"
        },
        {
          "internalType": "string",
          "name": "_termsAndCondition",
          "type": "string"
        },
        {
          "internalType": "string",
          "name": "_warrantyFile",
          "type": "string"
        },
        {
          "internalType": "uint32",
          "name": "_apealTime",
          "type": "uint32"
        },
        {
          "internalType": "string",
          "name": "_sellerWalletAddress",
          "type": "string"
        },
        {
          "internalType": "string",
          "name": "_invoiceFile",
          "type": "string"
        },
        {
          "internalType": "string",
          "name": "_customerEmail",
          "type": "string"
        },
        {
          "internalType": "uint32",
          "name": "_mediatorId",
          "type": "uint32"
        },
        {
          "internalType": "bool",
          "name": "_medAccepted",
          "type": "bool"
        },
        {
          "internalType": "string",
          "name": "_friendsEmail",
          "type": "string"
        }
      ],
      "name": "_saveOrdersDataOfUser",
      "outputs": [],
      "stateMutability": "nonpayable",
      "type": "function"
    },
    {
      "inputs": [
        {
          "internalType": "uint32",
          "name": "_orderId",
          "type": "uint32"
        },
        {
          "internalType": "uint256",
          "name": "_amount",
          "type": "uint256"
        },
        {
          "internalType": "string",
          "name": "_termsAndCondition",
          "type": "string"
        },
        {
          "internalType": "string",
          "name": "_warrantyFile",
          "type": "string"
        },
        {
          "internalType": "uint32",
          "name": "_apealTime",
          "type": "uint32"
        },
        {
          "internalType": "string",
          "name": "_sellerWalletAddress",
          "type": "string"
        },
        {
          "internalType": "string",
          "name": "_invoiceFile",
          "type": "string"
        },
        {
          "internalType": "string",
          "name": "_customerEmail",
          "type": "string"
        },
        {
          "internalType": "uint32",
          "name": "_mediatorId",
          "type": "uint32"
        },
        {
          "internalType": "bool",
          "name": "_medAccepted",
          "type": "bool"
        },
        {
          "internalType": "string",
          "name": "_friendsEmail",
          "type": "string"
        }
      ],
      "name": "buyWithFTP",
      "outputs": [],
      "stateMutability": "nonpayable",
      "type": "function"
    },
    {
      "inputs": [
        {
          "internalType": "uint32",
          "name": "_orderId",
          "type": "uint32"
        },
        {
          "internalType": "string",
          "name": "_termsAndCondition",
          "type": "string"
        },
        {
          "internalType": "string",
          "name": "_warrantyFile",
          "type": "string"
        },
        {
          "internalType": "uint32",
          "name": "_apealTime",
          "type": "uint32"
        },
        {
          "internalType": "string",
          "name": "_sellerWalletAddress",
          "type": "string"
        },
        {
          "internalType": "string",
          "name": "_invoiceFile",
          "type": "string"
        },
        {
          "internalType": "string",
          "name": "_customerEmail",
          "type": "string"
        },
        {
          "internalType": "uint32",
          "name": "_mediatorId",
          "type": "uint32"
        },
        {
          "internalType": "bool",
          "name": "_medAccepted",
          "type": "bool"
        },
        {
          "internalType": "string",
          "name": "_friendsEmail",
          "type": "string"
        }
      ],
      "name": "buyWithBNB",
      "outputs": [],
      "stateMutability": "payable",
      "type": "function",
      "payable": true
    }
  ],
  "bytecode": "0x608060405260405180606001604052806023815260200162002a06602391396000908051906020019062000035929190620000cf565b503480156200004357600080fd5b5060405162002a2938038062002a29833981810160405281019062000069919062000196565b60046001816001815401808255809150500390600052602060002090505080600160006101000a81548173ffffffffffffffffffffffffffffffffffffffff021916908373ffffffffffffffffffffffffffffffffffffffff1602179055505062000289565b828054620000dd906200020a565b90600052602060002090601f0160209004810192826200010157600085556200014d565b82601f106200011c57805160ff19168380011785556200014d565b828001600101855582156200014d579182015b828111156200014c5782518255916020019190600101906200012f565b5b5090506200015c919062000160565b5090565b5b808211156200017b57600081600090555060010162000161565b5090565b60008151905062000190816200026f565b92915050565b600060208284031215620001a957600080fd5b6000620001b9848285016200017f565b91505092915050565b6000620001cf82620001ea565b9050919050565b6000620001e382620001c2565b9050919050565b600073ffffffffffffffffffffffffffffffffffffffff82169050919050565b600060028204905060018216806200022357607f821691505b602082108114156200023a576200023962000240565b5b50919050565b7f4e487b7100000000000000000000000000000000000000000000000000000000600052602260045260246000fd5b6200027a81620001d6565b81146200028657600080fd5b50565b61276d80620002996000396000f3fe6080604052600436106100a75760003560e01c806355dac7f11161006457806355dac7f1146101e25780639401230b1461021f5780639529441e14610248578063bb22816814610273578063fc0c546a1461028f578063fd5e6dd1146102ba576100a7565b8063038d4ffa146100ac57806306fdde03146100d557806312065fe01461010057806316934fc41461012b5780631d6b8b721461016857806347f3d0c0146101a5575b600080fd5b3480156100b857600080fd5b506100d360048036038101906100ce9190611dc3565b6102f7565b005b3480156100e157600080fd5b506100ea610480565b6040516100f791906123a5565b60405180910390f35b34801561010c57600080fd5b5061011561050e565b60405161012291906123c7565b60405180910390f35b34801561013757600080fd5b50610152600480360381019061014d9190611b8b565b610516565b60405161015f91906123c7565b60405180910390f35b34801561017457600080fd5b5061018f600480360381019061018a9190611bdd565b61052e565b60405161019c91906122f4565b60405180910390f35b3480156101b157600080fd5b506101cc60048036038101906101c79190611b8b565b61057c565b6040516101d99190612346565b60405180910390f35b3480156101ee57600080fd5b5061020960048036038101906102049190611c2f565b610a6f565b6040516102169190612346565b60405180910390f35b34801561022b57600080fd5b5061024660048036038101906102419190611dc3565b611015565b005b34801561025457600080fd5b5061025d6112a2565b60405161026a9190612368565b60405180910390f35b61028d60048036038101906102889190611c58565b6117ba565b005b34801561029b57600080fd5b506102a4611890565b6040516102b1919061238a565b60405180910390f35b3480156102c657600080fd5b506102e160048036038101906102dc9190611bdd565b6118b6565b6040516102ee91906122f4565b60405180910390f35b89600160009054906101000a900473ffffffffffffffffffffffffffffffffffffffff1673ffffffffffffffffffffffffffffffffffffffff166370a08231336040518263ffffffff1660e01b815260040161035391906122f4565b60206040518083038186803b15801561036b57600080fd5b505afa15801561037f573d6000803e3d6000fd5b505050506040513d601f19601f820116820180604052508101906103a39190611c06565b10156103ae57600080fd5b600160009054906101000a900473ffffffffffffffffffffffffffffffffffffffff1673ffffffffffffffffffffffffffffffffffffffff166323b872dd33308d6040518463ffffffff1660e01b815260040161040d9392919061230f565b602060405180830381600087803b15801561042757600080fd5b505af115801561043b573d6000803e3d6000fd5b505050506040513d601f19601f8201168201806040525081019061045f9190611bb4565b506104738b8b8b8b8b8b8b8b8b8b8b611015565b5050505050505050505050565b6000805461048d906125da565b80601f01602080910402602001604051908101604052809291908181526020018280546104b9906125da565b80156105065780601f106104db57610100808354040283529160200191610506565b820191906000526020600020905b8154815290600101906020018083116104e957829003601f168201915b505050505081565b600047905090565b60026020528060005260406000206000915090505481565b6004818154811061053e57600080fd5b90600052602060002090600202016000915090508060000160009054906101000a900473ffffffffffffffffffffffffffffffffffffffff16905081565b60606000600260008473ffffffffffffffffffffffffffffffffffffffff1673ffffffffffffffffffffffffffffffffffffffff168152602001908152602001600020549050600481815481106105fc577f4e487b7100000000000000000000000000000000000000000000000000000000600052603260045260246000fd5b9060005260206000209060020201600101805480602002602001604051908101604052809291908181526020016000905b82821015610a6357838290600052602060002090600a0201604051806101600160405290816000820160009054906101000a900463ffffffff1663ffffffff1663ffffffff16815260200160018201548152602001600282018054610691906125da565b80601f01602080910402602001604051908101604052809291908181526020018280546106bd906125da565b801561070a5780601f106106df5761010080835404028352916020019161070a565b820191906000526020600020905b8154815290600101906020018083116106ed57829003601f168201915b50505050508152602001600382018054610723906125da565b80601f016020809104026020016040519081016040528092919081815260200182805461074f906125da565b801561079c5780601f106107715761010080835404028352916020019161079c565b820191906000526020600020905b81548152906001019060200180831161077f57829003601f168201915b505050505081526020016004820160009054906101000a900463ffffffff1663ffffffff1663ffffffff1681526020016005820180546107db906125da565b80601f0160208091040260200160405190810160405280929190818152602001828054610807906125da565b80156108545780601f1061082957610100808354040283529160200191610854565b820191906000526020600020905b81548152906001019060200180831161083757829003601f168201915b5050505050815260200160068201805461086d906125da565b80601f0160208091040260200160405190810160405280929190818152602001828054610899906125da565b80156108e65780601f106108bb576101008083540402835291602001916108e6565b820191906000526020600020905b8154815290600101906020018083116108c957829003601f168201915b505050505081526020016007820180546108ff906125da565b80601f016020809104026020016040519081016040528092919081815260200182805461092b906125da565b80156109785780601f1061094d57610100808354040283529160200191610978565b820191906000526020600020905b81548152906001019060200180831161095b57829003601f168201915b505050505081526020016008820160009054906101000a900463ffffffff1663ffffffff1663ffffffff1681526020016008820160049054906101000a900460ff161515151581526020016009820180546109d2906125da565b80601f01602080910402602001604051908101604052809291908181526020018280546109fe906125da565b8015610a4b5780601f10610a2057610100808354040283529160200191610a4b565b820191906000526020600020905b815481529060010190602001808311610a2e57829003601f168201915b5050505050815250508152602001906001019061062d565b50505050915050919050565b60606000600260003373ffffffffffffffffffffffffffffffffffffffff1673ffffffffffffffffffffffffffffffffffffffff168152602001908152602001600020549050600160048281548110610af1577f4e487b7100000000000000000000000000000000000000000000000000000000600052603260045260246000fd5b90600052602060002090600202016001018463ffffffff1681548110610b40577f4e487b7100000000000000000000000000000000000000000000000000000000600052603260045260246000fd5b90600052602060002090600a020160080160046101000a81548160ff02191690831515021790555060048181548110610ba2577f4e487b7100000000000000000000000000000000000000000000000000000000600052603260045260246000fd5b9060005260206000209060020201600101805480602002602001604051908101604052809291908181526020016000905b8282101561100957838290600052602060002090600a0201604051806101600160405290816000820160009054906101000a900463ffffffff1663ffffffff1663ffffffff16815260200160018201548152602001600282018054610c37906125da565b80601f0160208091040260200160405190810160405280929190818152602001828054610c63906125da565b8015610cb05780601f10610c8557610100808354040283529160200191610cb0565b820191906000526020600020905b815481529060010190602001808311610c9357829003601f168201915b50505050508152602001600382018054610cc9906125da565b80601f0160208091040260200160405190810160405280929190818152602001828054610cf5906125da565b8015610d425780601f10610d1757610100808354040283529160200191610d42565b820191906000526020600020905b815481529060010190602001808311610d2557829003601f168201915b505050505081526020016004820160009054906101000a900463ffffffff1663ffffffff1663ffffffff168152602001600582018054610d81906125da565b80601f0160208091040260200160405190810160405280929190818152602001828054610dad906125da565b8015610dfa5780601f10610dcf57610100808354040283529160200191610dfa565b820191906000526020600020905b815481529060010190602001808311610ddd57829003601f168201915b50505050508152602001600682018054610e13906125da565b80601f0160208091040260200160405190810160405280929190818152602001828054610e3f906125da565b8015610e8c5780601f10610e6157610100808354040283529160200191610e8c565b820191906000526020600020905b815481529060010190602001808311610e6f57829003601f168201915b50505050508152602001600782018054610ea5906125da565b80601f0160208091040260200160405190810160405280929190818152602001828054610ed1906125da565b8015610f1e5780601f10610ef357610100808354040283529160200191610f1e565b820191906000526020600020905b815481529060010190602001808311610f0157829003601f168201915b505050505081526020016008820160009054906101000a900463ffffffff1663ffffffff1663ffffffff1681526020016008820160049054906101000a900460ff16151515158152602001600982018054610f78906125da565b80601f0160208091040260200160405190810160405280929190818152602001828054610fa4906125da565b8015610ff15780601f10610fc657610100808354040283529160200191610ff1565b820191906000526020600020905b815481529060010190602001808311610fd457829003601f168201915b50505050508152505081526020019060010190610bd3565b50505050915050919050565b6000600260003373ffffffffffffffffffffffffffffffffffffffff1673ffffffffffffffffffffffffffffffffffffffff168152602001908152602001600020549050600081141561106e5761106b336118f5565b90505b600481815481106110a8577f4e487b7100000000000000000000000000000000000000000000000000000000600052603260045260246000fd5b90600052602060002090600202016001016040518061016001604052808e63ffffffff1681526020018d81526020018c81526020018b81526020018a63ffffffff1681526020018981526020018881526020018781526020018663ffffffff16815260200185151581526020018481525090806001815401808255809150506001900390600052602060002090600a020160009091909190915060008201518160000160006101000a81548163ffffffff021916908363ffffffff16021790555060208201518160010155604082015181600201908051906020019061118f929190611a02565b5060608201518160030190805190602001906111ac929190611a02565b5060808201518160040160006101000a81548163ffffffff021916908363ffffffff16021790555060a08201518160050190805190602001906111f0929190611a02565b5060c082015181600601908051906020019061120d929190611a02565b5060e082015181600701908051906020019061122a929190611a02565b506101008201518160080160006101000a81548163ffffffff021916908363ffffffff1602179055506101208201518160080160046101000a81548160ff021916908315150217905550610140820151816009019080519060200190611291929190611a02565b505050505050505050505050505050565b60606004805480602002602001604051908101604052809291908181526020016000905b828210156117b157838290600052602060002090600202016040518060400160405290816000820160009054906101000a900473ffffffffffffffffffffffffffffffffffffffff1673ffffffffffffffffffffffffffffffffffffffff1673ffffffffffffffffffffffffffffffffffffffff16815260200160018201805480602002602001604051908101604052809291908181526020016000905b8282101561179a57838290600052602060002090600a0201604051806101600160405290816000820160009054906101000a900463ffffffff1663ffffffff1663ffffffff168152602001600182015481526020016002820180546113c8906125da565b80601f01602080910402602001604051908101604052809291908181526020018280546113f4906125da565b80156114415780601f1061141657610100808354040283529160200191611441565b820191906000526020600020905b81548152906001019060200180831161142457829003601f168201915b5050505050815260200160038201805461145a906125da565b80601f0160208091040260200160405190810160405280929190818152602001828054611486906125da565b80156114d35780601f106114a8576101008083540402835291602001916114d3565b820191906000526020600020905b8154815290600101906020018083116114b657829003601f168201915b505050505081526020016004820160009054906101000a900463ffffffff1663ffffffff1663ffffffff168152602001600582018054611512906125da565b80601f016020809104026020016040519081016040528092919081815260200182805461153e906125da565b801561158b5780601f106115605761010080835404028352916020019161158b565b820191906000526020600020905b81548152906001019060200180831161156e57829003601f168201915b505050505081526020016006820180546115a4906125da565b80601f01602080910402602001604051908101604052809291908181526020018280546115d0906125da565b801561161d5780601f106115f25761010080835404028352916020019161161d565b820191906000526020600020905b81548152906001019060200180831161160057829003601f168201915b50505050508152602001600782018054611636906125da565b80601f0160208091040260200160405190810160405280929190818152602001828054611662906125da565b80156116af5780601f10611684576101008083540402835291602001916116af565b820191906000526020600020905b81548152906001019060200180831161169257829003601f168201915b505050505081526020016008820160009054906101000a900463ffffffff1663ffffffff1663ffffffff1681526020016008820160049054906101000a900460ff16151515158152602001600982018054611709906125da565b80601f0160208091040260200160405190810160405280929190818152602001828054611735906125da565b80156117825780601f1061175757610100808354040283529160200191611782565b820191906000526020600020905b81548152906001019060200180831161176557829003601f168201915b50505050508152505081526020019060010190611364565b5050505081525050815260200190600101906112c6565b50505050905090565b34600160009054906101000a900473ffffffffffffffffffffffffffffffffffffffff1673ffffffffffffffffffffffffffffffffffffffff166370a08231336040518263ffffffff1660e01b815260040161181691906122f4565b60206040518083038186803b15801561182e57600080fd5b505afa158015611842573d6000803e3d6000fd5b505050506040513d601f19601f820116820180604052508101906118669190611c06565b101561187157600080fd5b6118848a348b8b8b8b8b8b8b8b8b611015565b50505050505050505050565b600160009054906101000a900473ffffffffffffffffffffffffffffffffffffffff1681565b600381815481106118c657600080fd5b906000526020600020016000915054906101000a900473ffffffffffffffffffffffffffffffffffffffff1681565b60006004600181600181540180825580915050039060005260206000209050506000600160048054905061192991906124e8565b90508260048281548110611966577f4e487b7100000000000000000000000000000000000000000000000000000000600052603260045260246000fd5b906000526020600020906002020160000160006101000a81548173ffffffffffffffffffffffffffffffffffffffff021916908373ffffffffffffffffffffffffffffffffffffffff16021790555080600260008573ffffffffffffffffffffffffffffffffffffffff1673ffffffffffffffffffffffffffffffffffffffff1681526020019081526020016000208190555080915050919050565b828054611a0e906125da565b90600052602060002090601f016020900481019282611a305760008555611a77565b82601f10611a4957805160ff1916838001178555611a77565b82800160010185558215611a77579182015b82811115611a76578251825591602001919060010190611a5b565b5b509050611a849190611a88565b5090565b5b80821115611aa1576000816000905550600101611a89565b5090565b6000611ab8611ab384612407565b6123e2565b905082815260208101848484011115611ad057600080fd5b611adb848285612598565b509392505050565b600081359050611af2816126db565b92915050565b600081359050611b07816126f2565b92915050565b600081519050611b1c816126f2565b92915050565b600082601f830112611b3357600080fd5b8135611b43848260208601611aa5565b91505092915050565b600081359050611b5b81612709565b92915050565b600081519050611b7081612709565b92915050565b600081359050611b8581612720565b92915050565b600060208284031215611b9d57600080fd5b6000611bab84828501611ae3565b91505092915050565b600060208284031215611bc657600080fd5b6000611bd484828501611b0d565b91505092915050565b600060208284031215611bef57600080fd5b6000611bfd84828501611b4c565b91505092915050565b600060208284031215611c1857600080fd5b6000611c2684828501611b61565b91505092915050565b600060208284031215611c4157600080fd5b6000611c4f84828501611b76565b91505092915050565b6000806000806000806000806000806101408b8d031215611c7857600080fd5b6000611c868d828e01611b76565b9a505060208b013567ffffffffffffffff811115611ca357600080fd5b611caf8d828e01611b22565b99505060408b013567ffffffffffffffff811115611ccc57600080fd5b611cd88d828e01611b22565b9850506060611ce98d828e01611b76565b97505060808b013567ffffffffffffffff811115611d0657600080fd5b611d128d828e01611b22565b96505060a08b013567ffffffffffffffff811115611d2f57600080fd5b611d3b8d828e01611b22565b95505060c08b013567ffffffffffffffff811115611d5857600080fd5b611d648d828e01611b22565b94505060e0611d758d828e01611b76565b935050610100611d878d828e01611af8565b9250506101208b013567ffffffffffffffff811115611da557600080fd5b611db18d828e01611b22565b9150509295989b9194979a5092959850565b60008060008060008060008060008060006101608c8e031215611de557600080fd5b6000611df38e828f01611b76565b9b50506020611e048e828f01611b4c565b9a505060408c013567ffffffffffffffff811115611e2157600080fd5b611e2d8e828f01611b22565b99505060608c013567ffffffffffffffff811115611e4a57600080fd5b611e568e828f01611b22565b9850506080611e678e828f01611b76565b97505060a08c013567ffffffffffffffff811115611e8457600080fd5b611e908e828f01611b22565b96505060c08c013567ffffffffffffffff811115611ead57600080fd5b611eb98e828f01611b22565b95505060e08c013567ffffffffffffffff811115611ed657600080fd5b611ee28e828f01611b22565b945050610100611ef48e828f01611b76565b935050610120611f068e828f01611af8565b9250506101408c013567ffffffffffffffff811115611f2457600080fd5b611f308e828f01611b22565b9150509295989b509295989b9093969950565b6000611f4f8383612178565b905092915050565b6000611f63838361228a565b905092915050565b611f748161251c565b82525050565b611f838161251c565b82525050565b6000611f9482612458565b611f9e8185612493565b935083602082028501611fb085612438565b8060005b85811015611fec5784840389528151611fcd8582611f43565b9450611fd883612479565b925060208a01995050600181019050611fb4565b50829750879550505050505092915050565b600061200982612458565b61201381856124a4565b93508360208202850161202585612438565b8060005b8581101561206157848403895281516120428582611f43565b945061204d83612479565b925060208a01995050600181019050612029565b50829750879550505050505092915050565b600061207e82612463565b61208881856124b5565b93508360208202850161209a85612448565b8060005b858110156120d657848403895281516120b78582611f57565b94506120c283612486565b925060208a0199505060018101905061209e565b50829750879550505050505092915050565b6120f18161252e565b82525050565b61210081612574565b82525050565b60006121118261246e565b61211b81856124c6565b935061212b8185602086016125a7565b612134816126ca565b840191505092915050565b600061214a8261246e565b61215481856124d7565b93506121648185602086016125a7565b61216d816126ca565b840191505092915050565b60006101608301600083015161219160008601826122e5565b5060208301516121a460208601826122c7565b50604083015184820360408601526121bc8282612106565b915050606083015184820360608601526121d68282612106565b91505060808301516121eb60808601826122e5565b5060a083015184820360a08601526122038282612106565b91505060c083015184820360c086015261221d8282612106565b91505060e083015184820360e08601526122378282612106565b91505061010083015161224e6101008601826122e5565b506101208301516122636101208601826120e8565b5061014083015184820361014086015261227d8282612106565b9150508091505092915050565b60006040830160008301516122a26000860182611f6b565b50602083015184820360208601526122ba8282611f89565b9150508091505092915050565b6122d08161255a565b82525050565b6122df8161255a565b82525050565b6122ee81612564565b82525050565b60006020820190506123096000830184611f7a565b92915050565b60006060820190506123246000830186611f7a565b6123316020830185611f7a565b61233e60408301846122d6565b949350505050565b600060208201905081810360008301526123608184611ffe565b905092915050565b600060208201905081810360008301526123828184612073565b905092915050565b600060208201905061239f60008301846120f7565b92915050565b600060208201905081810360008301526123bf818461213f565b905092915050565b60006020820190506123dc60008301846122d6565b92915050565b60006123ec6123fd565b90506123f8828261260c565b919050565b6000604051905090565b600067ffffffffffffffff8211156124225761242161269b565b5b61242b826126ca565b9050602081019050919050565b6000819050602082019050919050565b6000819050602082019050919050565b600081519050919050565b600081519050919050565b600081519050919050565b6000602082019050919050565b6000602082019050919050565b600082825260208201905092915050565b600082825260208201905092915050565b600082825260208201905092915050565b600082825260208201905092915050565b600082825260208201905092915050565b60006124f38261255a565b91506124fe8361255a565b9250828210156125115761251061263d565b5b828203905092915050565b60006125278261253a565b9050919050565b60008115159050919050565b600073ffffffffffffffffffffffffffffffffffffffff82169050919050565b6000819050919050565b600063ffffffff82169050919050565b600061257f82612586565b9050919050565b60006125918261253a565b9050919050565b82818337600083830152505050565b60005b838110156125c55780820151818401526020810190506125aa565b838111156125d4576000848401525b50505050565b600060028204905060018216806125f257607f821691505b602082108114156126065761260561266c565b5b50919050565b612615826126ca565b810181811067ffffffffffffffff821117156126345761263361269b565b5b80604052505050565b7f4e487b7100000000000000000000000000000000000000000000000000000000600052601160045260246000fd5b7f4e487b7100000000000000000000000000000000000000000000000000000000600052602260045260246000fd5b7f4e487b7100000000000000000000000000000000000000000000000000000000600052604160045260246000fd5b6000601f19601f8301169050919050565b6126e48161251c565b81146126ef57600080fd5b50565b6126fb8161252e565b811461270657600080fd5b50565b6127128161255a565b811461271d57600080fd5b50565b61272981612564565b811461273457600080fd5b5056fea2646970667358221220ca48aac59df7ae9a2367adada2f502d1de9ff7e9dbbe6a770305b947ad3deb3e64736f6c63430008030033457468537761702046616972747261646572204d61696e204150702054657374696e67",
  "immutableReferences": {},
  "source": "// SPDX-License-Identifier: MIT\npragma solidity ^0.8.3;\n\nimport \"./Token.sol\";\n\ncontract BuyInvoicesMainAPp {\n    string public name = \"EthSwap Fairtrader Main APp Testing\";\n    Token public token;\n    //\n    mapping(address => uint256) public stakes;\n\n    address[] public stakers;\n    Stakeholder[] public stakeholders;\n\n    // event SmartContractOpenedBuyer(\n    //     uint32 _id,\n    //     string _termsAndCondition,\n    //     string _warrantyFile,\n    //     uint32 _apealTime,\n    //     string _sellerWalletAddress,\n    //     string _invoiceFile,\n    //     string _customerEmail,\n    //     uint32 _mediatorId,\n    //     bool _medAccepted,\n    //     string _friendsEmail\n    // );\n    // event ContractCompletedSeller(\n    //     address indexed user,\n    //     uint256 userIndex,\n    //     address sellerOrUser\n    // );\n\n    struct OrderData {\n        uint32 _orderId;\n        uint256 _amount;\n        string _termsAndCondition;\n        string _warrantyFile;\n        uint32 _apealTime;\n        string _sellerWalletAddress;\n        string _invoiceFile;\n        string _customerEmail;\n        uint32 _mediatorId;\n        bool _medAccepted;\n        string _friendsEmail;\n    }\n\n    struct Stakeholder {\n        address user;\n        OrderData[] address_stakes;\n    }\n\n    constructor(Token _token) public {\n        // constructor() public {\n        stakeholders.push();\n        token = _token;\n    }\n\n    function getBalance() external view returns (uint256) {\n        return address(this).balance;\n    }\n\n    function exchangeHistoryOfStake()\n        external\n        view\n        returns (Stakeholder[] memory)\n    {\n        return stakeholders;\n    }\n\n    // function medAcceptNewCases(uint32 _orderId, address _sellerAddress)\n    function medAcceptNewCases(uint32 _orderId)\n        external\n        returns (OrderData[] memory)\n    {\n        // require(/* mediator is calling not any other person for security purpose*/);\n        // uint256 index = stakes[_sellerAddress];\n        uint256 index = stakes[msg.sender];\n        stakeholders[index].address_stakes[_orderId]._medAccepted = true;\n\n        return stakeholders[index].address_stakes;\n    }\n\n    function getAllOrdersOfOneUser(address _userAddress)\n        external\n        view\n        returns (OrderData[] memory)\n    {\n        uint256 index = stakes[_userAddress];\n        return stakeholders[index].address_stakes;\n    }\n\n    function _addStakeholder(address staker) internal returns (uint256) {\n        stakeholders.push();\n        uint256 userIndex = stakeholders.length - 1;\n        stakeholders[userIndex].user = staker;\n        stakes[staker] = userIndex;\n        return userIndex;\n    }\n\n    function _saveOrdersDataOfUser(\n        uint32 _orderId,\n        uint256 _amount,\n        string memory _termsAndCondition,\n        string memory _warrantyFile,\n        uint32 _apealTime,\n        string memory _sellerWalletAddress,\n        string memory _invoiceFile,\n        string memory _customerEmail,\n        uint32 _mediatorId,\n        bool _medAccepted,\n        string memory _friendsEmail\n    ) public {\n        // Check that the requested amount of tokens to sell is more than 0\n        // require(_sellerWalletAddress == '', \"seller Wallet Address Cannot nothing\");\n\n        uint256 index = stakes[msg.sender];\n        if (index == 0) {\n            index = _addStakeholder(msg.sender);\n        }\n\n        stakeholders[index].address_stakes.push(\n            OrderData(\n                _orderId,\n                _amount,\n                _termsAndCondition,\n                _warrantyFile,\n                _apealTime,\n                _sellerWalletAddress,\n                _invoiceFile,\n                _customerEmail,\n                _mediatorId,\n                _medAccepted,\n                _friendsEmail\n            )\n        );\n    }\n\n    function buyWithFTP(\n        uint32 _orderId,\n        uint256 _amount,\n        string memory _termsAndCondition,\n        string memory _warrantyFile,\n        uint32 _apealTime,\n        string memory _sellerWalletAddress,\n        string memory _invoiceFile,\n        string memory _customerEmail,\n        uint32 _mediatorId,\n        bool _medAccepted,\n        string memory _friendsEmail\n    ) public {\n        // User can't sell more tokens than they have\n        require(token.balanceOf(msg.sender) >= _amount);\n\n        // Perform sale\n        token.transferFrom(msg.sender, address(this), _amount);\n\n        _saveOrdersDataOfUser(\n            _orderId,\n            _amount,\n            _termsAndCondition,\n            _warrantyFile,\n            _apealTime,\n            _sellerWalletAddress,\n            _invoiceFile,\n            _customerEmail,\n            _mediatorId,\n            _medAccepted,\n            _friendsEmail\n        );\n    }\n\n    // function buyWithUsdt(\n    //     uint32 _orderId,\n    //     uint256 _amount,\n    //     string memory _termsAndCondition,\n    //     string memory _warrantyFile,\n    //     uint32 _apealTime,\n    //     string memory _sellerWalletAddress,\n    //     string memory _invoiceFile,\n    //     string memory _customerEmail,\n    // uint32 _mediatorId,\n    // bool _medAccepted,\n    //     string memory _friendsEmail\n    // ) public {\n    //     // User can't sell more tokens than they have\n    //     require(usdtToken.balanceOf(msg.sender) >= _amount);\n\n    //     // Perform sale\n    //     usdtToken.transferFrom(msg.sender, address(this), _amount);\n\n    //     _saveOrdersDataOfUser(\n    //         _orderId,\n    //          _amount,\n    //         _termsAndCondition,\n    //         _warrantyFile,\n    //         _apealTime,\n    //         _sellerWalletAddress,\n    //         _invoiceFile,\n    //         _customerEmail,\n    // _mediatorId,\n    // _medAccepted,\n    //         _friendsEmail\n    //     );\n    // }\n\n    function buyWithBNB(\n        uint32 _orderId,\n        string memory _termsAndCondition,\n        string memory _warrantyFile,\n        uint32 _apealTime,\n        string memory _sellerWalletAddress,\n        string memory _invoiceFile,\n        string memory _customerEmail,\n        uint32 _mediatorId,\n        bool _medAccepted,\n        string memory _friendsEmail\n    ) public payable {\n        // User can't sell more tokens than they have\n        require(token.balanceOf(msg.sender) >= msg.value);\n\n        // Perform sale\n        // token.transferFrom(msg.sender, address(this), _amount);\n        // address(address(this).transfer(_amount));\n        // token.transfer(address(this), _amount);\n        // token.transferFrom(msg.sender, address(this), _amount);\n\n        _saveOrdersDataOfUser(\n            _orderId,\n            msg.value,\n            _termsAndCondition,\n            _warrantyFile,\n            _apealTime,\n            _sellerWalletAddress,\n            _invoiceFile,\n            _customerEmail,\n            _mediatorId,\n            _medAccepted,\n            _friendsEmail\n        );\n    }\n}\n",
  "sourcePath": "/home/abdullah/Desktop/Fairtrader/FairTrader Main App Smart_Contract/UPGRADECONTRACT...(buy Invoice Main APp)/contracts/BuyInvoicesMainAPp.sol",
  "compiler": {
    "name": "solc",
    "version": "0.8.3+commit.8d00100c.Emscripten.clang"
  },
  "schemaVersion": "3.4.10",
  "updatedAt": "2022-10-16T07:06:57.165Z",
  "networkType": "ethereum",
  "devdoc": {
    "kind": "dev",
    "methods": {},
    "version": 1
  },
  "userdoc": {
    "kind": "user",
    "methods": {},
    "version": 1
  }
}