{
  "contractName": "BuyInvoicesMainAPp",
  "abi": [
    {
      "inputs": [
        {
          "internalType": "contract Token",
          "name": "_token",
          "type": "address"
        }
      ],
      "stateMutability": "nonpayable",
      "type": "constructor"
    },
    {
      "inputs": [],
      "name": "name",
      "outputs": [
        {
          "internalType": "string",
          "name": "",
          "type": "string"
        }
      ],
      "stateMutability": "view",
      "type": "function",
      "constant": true
    },
    {
      "inputs": [
        {
          "internalType": "uint256",
          "name": "",
          "type": "uint256"
        }
      ],
      "name": "stakeholders",
      "outputs": [
        {
          "internalType": "address",
          "name": "user",
          "type": "address"
        }
      ],
      "stateMutability": "view",
      "type": "function",
      "constant": true
    },
    {
      "inputs": [
        {
          "internalType": "uint256",
          "name": "",
          "type": "uint256"
        }
      ],
      "name": "stakers",
      "outputs": [
        {
          "internalType": "address",
          "name": "",
          "type": "address"
        }
      ],
      "stateMutability": "view",
      "type": "function",
      "constant": true
    },
    {
      "inputs": [
        {
          "internalType": "address",
          "name": "",
          "type": "address"
        }
      ],
      "name": "stakes",
      "outputs": [
        {
          "internalType": "uint256",
          "name": "",
          "type": "uint256"
        }
      ],
      "stateMutability": "view",
      "type": "function",
      "constant": true
    },
    {
      "inputs": [],
      "name": "token",
      "outputs": [
        {
          "internalType": "contract Token",
          "name": "",
          "type": "address"
        }
      ],
      "stateMutability": "view",
      "type": "function",
      "constant": true
    },
    {
      "inputs": [],
      "name": "getBalance",
      "outputs": [
        {
          "internalType": "uint256",
          "name": "",
          "type": "uint256"
        }
      ],
      "stateMutability": "view",
      "type": "function",
      "constant": true
    },
    {
      "inputs": [],
      "name": "exchangeHistoryOfStake",
      "outputs": [
        {
          "components": [
            {
              "internalType": "address",
              "name": "user",
              "type": "address"
            },
            {
              "components": [
                {
                  "internalType": "uint32",
                  "name": "_orderId",
                  "type": "uint32"
                },
                {
                  "internalType": "uint256",
                  "name": "_amount",
                  "type": "uint256"
                },
                {
                  "internalType": "string",
                  "name": "_termsAndCondition",
                  "type": "string"
                },
                {
                  "internalType": "string",
                  "name": "_warrantyFile",
                  "type": "string"
                },
                {
                  "internalType": "uint32",
                  "name": "_apealTime",
                  "type": "uint32"
                },
                {
                  "internalType": "address",
                  "name": "_sellerWalletAddress",
                  "type": "address"
                },
                {
                  "internalType": "string",
                  "name": "_invoiceFile",
                  "type": "string"
                },
                {
                  "internalType": "string",
                  "name": "_customerEmail",
                  "type": "string"
                },
                {
                  "internalType": "uint32",
                  "name": "_mediatorId",
                  "type": "uint32"
                },
                {
                  "internalType": "bool",
                  "name": "_medAccepted",
                  "type": "bool"
                },
                {
                  "internalType": "string",
                  "name": "_superMedAcceptedEmail",
                  "type": "string"
                },
                {
                  "internalType": "string",
                  "name": "_judgeReport",
                  "type": "string"
                },
                {
                  "internalType": "string",
                  "name": "_judgeReportFile",
                  "type": "string"
                },
                {
                  "internalType": "string",
                  "name": "_judgeReportFileSuperMed",
                  "type": "string"
                },
                {
                  "internalType": "string",
                  "name": "_judgeReportSuperMed",
                  "type": "string"
                },
                {
                  "internalType": "uint32",
                  "name": "_buyerTakeAmountInPercentSuperMed",
                  "type": "uint32"
                },
                {
                  "internalType": "uint32",
                  "name": "_buyerTakeAmountInPercent",
                  "type": "uint32"
                },
                {
                  "internalType": "string",
                  "name": "_friendsEmail",
                  "type": "string"
                },
                {
                  "internalType": "string",
                  "name": "_appealTime",
                  "type": "string"
                },
                {
                  "internalType": "string",
                  "name": "_whoCalled",
                  "type": "string"
                },
                {
                  "internalType": "string",
                  "name": "_whoPaidMediatorFee",
                  "type": "string"
                },
                {
                  "internalType": "uint256",
                  "name": "_mediatorFee",
                  "type": "uint256"
                },
                {
                  "internalType": "address",
                  "name": "_mediatorWalletAddress",
                  "type": "address"
                }
              ],
              "internalType": "struct BuyInvoicesMainAPp.OrderData[]",
              "name": "address_stakes",
              "type": "tuple[]"
            }
          ],
          "internalType": "struct BuyInvoicesMainAPp.Stakeholder[]",
          "name": "",
          "type": "tuple[]"
        }
      ],
      "stateMutability": "view",
      "type": "function",
      "constant": true
    },
    {
      "inputs": [
        {
          "internalType": "address",
          "name": "_userAddress",
          "type": "address"
        }
      ],
      "name": "getAllOrdersOfOneUser",
      "outputs": [
        {
          "components": [
            {
              "internalType": "uint32",
              "name": "_orderId",
              "type": "uint32"
            },
            {
              "internalType": "uint256",
              "name": "_amount",
              "type": "uint256"
            },
            {
              "internalType": "string",
              "name": "_termsAndCondition",
              "type": "string"
            },
            {
              "internalType": "string",
              "name": "_warrantyFile",
              "type": "string"
            },
            {
              "internalType": "uint32",
              "name": "_apealTime",
              "type": "uint32"
            },
            {
              "internalType": "address",
              "name": "_sellerWalletAddress",
              "type": "address"
            },
            {
              "internalType": "string",
              "name": "_invoiceFile",
              "type": "string"
            },
            {
              "internalType": "string",
              "name": "_customerEmail",
              "type": "string"
            },
            {
              "internalType": "uint32",
              "name": "_mediatorId",
              "type": "uint32"
            },
            {
              "internalType": "bool",
              "name": "_medAccepted",
              "type": "bool"
            },
            {
              "internalType": "string",
              "name": "_superMedAcceptedEmail",
              "type": "string"
            },
            {
              "internalType": "string",
              "name": "_judgeReport",
              "type": "string"
            },
            {
              "internalType": "string",
              "name": "_judgeReportFile",
              "type": "string"
            },
            {
              "internalType": "string",
              "name": "_judgeReportFileSuperMed",
              "type": "string"
            },
            {
              "internalType": "string",
              "name": "_judgeReportSuperMed",
              "type": "string"
            },
            {
              "internalType": "uint32",
              "name": "_buyerTakeAmountInPercentSuperMed",
              "type": "uint32"
            },
            {
              "internalType": "uint32",
              "name": "_buyerTakeAmountInPercent",
              "type": "uint32"
            },
            {
              "internalType": "string",
              "name": "_friendsEmail",
              "type": "string"
            },
            {
              "internalType": "string",
              "name": "_appealTime",
              "type": "string"
            },
            {
              "internalType": "string",
              "name": "_whoCalled",
              "type": "string"
            },
            {
              "internalType": "string",
              "name": "_whoPaidMediatorFee",
              "type": "string"
            },
            {
              "internalType": "uint256",
              "name": "_mediatorFee",
              "type": "uint256"
            },
            {
              "internalType": "address",
              "name": "_mediatorWalletAddress",
              "type": "address"
            }
          ],
          "internalType": "struct BuyInvoicesMainAPp.OrderData[]",
          "name": "",
          "type": "tuple[]"
        }
      ],
      "stateMutability": "view",
      "type": "function",
      "constant": true
    },
    {
      "inputs": [
        {
          "internalType": "uint32",
          "name": "_index",
          "type": "uint32"
        },
        {
          "internalType": "address",
          "name": "buyerWalletAddress",
          "type": "address"
        }
      ],
      "name": "medAcceptNewCases",
      "outputs": [
        {
          "components": [
            {
              "internalType": "uint32",
              "name": "_orderId",
              "type": "uint32"
            },
            {
              "internalType": "uint256",
              "name": "_amount",
              "type": "uint256"
            },
            {
              "internalType": "string",
              "name": "_termsAndCondition",
              "type": "string"
            },
            {
              "internalType": "string",
              "name": "_warrantyFile",
              "type": "string"
            },
            {
              "internalType": "uint32",
              "name": "_apealTime",
              "type": "uint32"
            },
            {
              "internalType": "address",
              "name": "_sellerWalletAddress",
              "type": "address"
            },
            {
              "internalType": "string",
              "name": "_invoiceFile",
              "type": "string"
            },
            {
              "internalType": "string",
              "name": "_customerEmail",
              "type": "string"
            },
            {
              "internalType": "uint32",
              "name": "_mediatorId",
              "type": "uint32"
            },
            {
              "internalType": "bool",
              "name": "_medAccepted",
              "type": "bool"
            },
            {
              "internalType": "string",
              "name": "_superMedAcceptedEmail",
              "type": "string"
            },
            {
              "internalType": "string",
              "name": "_judgeReport",
              "type": "string"
            },
            {
              "internalType": "string",
              "name": "_judgeReportFile",
              "type": "string"
            },
            {
              "internalType": "string",
              "name": "_judgeReportFileSuperMed",
              "type": "string"
            },
            {
              "internalType": "string",
              "name": "_judgeReportSuperMed",
              "type": "string"
            },
            {
              "internalType": "uint32",
              "name": "_buyerTakeAmountInPercentSuperMed",
              "type": "uint32"
            },
            {
              "internalType": "uint32",
              "name": "_buyerTakeAmountInPercent",
              "type": "uint32"
            },
            {
              "internalType": "string",
              "name": "_friendsEmail",
              "type": "string"
            },
            {
              "internalType": "string",
              "name": "_appealTime",
              "type": "string"
            },
            {
              "internalType": "string",
              "name": "_whoCalled",
              "type": "string"
            },
            {
              "internalType": "string",
              "name": "_whoPaidMediatorFee",
              "type": "string"
            },
            {
              "internalType": "uint256",
              "name": "_mediatorFee",
              "type": "uint256"
            },
            {
              "internalType": "address",
              "name": "_mediatorWalletAddress",
              "type": "address"
            }
          ],
          "internalType": "struct BuyInvoicesMainAPp.OrderData[]",
          "name": "",
          "type": "tuple[]"
        }
      ],
      "stateMutability": "nonpayable",
      "type": "function"
    },
    {
      "inputs": [
        {
          "internalType": "uint32",
          "name": "_index",
          "type": "uint32"
        },
        {
          "internalType": "address",
          "name": "buyerWalletAddress",
          "type": "address"
        },
        {
          "internalType": "string",
          "name": "_whoPaidMediatorFee",
          "type": "string"
        },
        {
          "internalType": "uint256",
          "name": "_mediatorFee",
          "type": "uint256"
        },
        {
          "internalType": "address",
          "name": "mediatorWalletAddress",
          "type": "address"
        }
      ],
      "name": "payMediatorFee",
      "outputs": [],
      "stateMutability": "payable",
      "type": "function",
      "payable": true
    },
    {
      "inputs": [
        {
          "internalType": "uint32",
          "name": "_index",
          "type": "uint32"
        },
        {
          "internalType": "address",
          "name": "buyerWalletAddress",
          "type": "address"
        },
        {
          "internalType": "string",
          "name": "_superMediatorEmail",
          "type": "string"
        }
      ],
      "name": "superMedAcceptNewCases",
      "outputs": [],
      "stateMutability": "nonpayable",
      "type": "function"
    },
    {
      "inputs": [
        {
          "internalType": "string",
          "name": "_judgeReport",
          "type": "string"
        },
        {
          "internalType": "string",
          "name": "_judgeReportFile",
          "type": "string"
        },
        {
          "internalType": "address",
          "name": "buyerWalletAddress",
          "type": "address"
        },
        {
          "internalType": "uint32",
          "name": "_index",
          "type": "uint32"
        },
        {
          "internalType": "uint32",
          "name": "_buyerTakeAmountInPercent",
          "type": "uint32"
        }
      ],
      "name": "medJudgeCaseReportSuperMed",
      "outputs": [],
      "stateMutability": "nonpayable",
      "type": "function"
    },
    {
      "inputs": [
        {
          "internalType": "string",
          "name": "_judgeReport",
          "type": "string"
        },
        {
          "internalType": "string",
          "name": "_judgeReportFile",
          "type": "string"
        },
        {
          "internalType": "address",
          "name": "buyerWalletAddress",
          "type": "address"
        },
        {
          "internalType": "uint32",
          "name": "_index",
          "type": "uint32"
        },
        {
          "internalType": "uint32",
          "name": "_buyerTakeAmountInPercent",
          "type": "uint32"
        },
        {
          "internalType": "string",
          "name": "_appealTime",
          "type": "string"
        }
      ],
      "name": "medJudgeCaseReport",
      "outputs": [
        {
          "components": [
            {
              "internalType": "uint32",
              "name": "_orderId",
              "type": "uint32"
            },
            {
              "internalType": "uint256",
              "name": "_amount",
              "type": "uint256"
            },
            {
              "internalType": "string",
              "name": "_termsAndCondition",
              "type": "string"
            },
            {
              "internalType": "string",
              "name": "_warrantyFile",
              "type": "string"
            },
            {
              "internalType": "uint32",
              "name": "_apealTime",
              "type": "uint32"
            },
            {
              "internalType": "address",
              "name": "_sellerWalletAddress",
              "type": "address"
            },
            {
              "internalType": "string",
              "name": "_invoiceFile",
              "type": "string"
            },
            {
              "internalType": "string",
              "name": "_customerEmail",
              "type": "string"
            },
            {
              "internalType": "uint32",
              "name": "_mediatorId",
              "type": "uint32"
            },
            {
              "internalType": "bool",
              "name": "_medAccepted",
              "type": "bool"
            },
            {
              "internalType": "string",
              "name": "_superMedAcceptedEmail",
              "type": "string"
            },
            {
              "internalType": "string",
              "name": "_judgeReport",
              "type": "string"
            },
            {
              "internalType": "string",
              "name": "_judgeReportFile",
              "type": "string"
            },
            {
              "internalType": "string",
              "name": "_judgeReportFileSuperMed",
              "type": "string"
            },
            {
              "internalType": "string",
              "name": "_judgeReportSuperMed",
              "type": "string"
            },
            {
              "internalType": "uint32",
              "name": "_buyerTakeAmountInPercentSuperMed",
              "type": "uint32"
            },
            {
              "internalType": "uint32",
              "name": "_buyerTakeAmountInPercent",
              "type": "uint32"
            },
            {
              "internalType": "string",
              "name": "_friendsEmail",
              "type": "string"
            },
            {
              "internalType": "string",
              "name": "_appealTime",
              "type": "string"
            },
            {
              "internalType": "string",
              "name": "_whoCalled",
              "type": "string"
            },
            {
              "internalType": "string",
              "name": "_whoPaidMediatorFee",
              "type": "string"
            },
            {
              "internalType": "uint256",
              "name": "_mediatorFee",
              "type": "uint256"
            },
            {
              "internalType": "address",
              "name": "_mediatorWalletAddress",
              "type": "address"
            }
          ],
          "internalType": "struct BuyInvoicesMainAPp.OrderData[]",
          "name": "",
          "type": "tuple[]"
        }
      ],
      "stateMutability": "nonpayable",
      "type": "function"
    },
    {
      "inputs": [
        {
          "internalType": "uint256",
          "name": "_amount",
          "type": "uint256"
        },
        {
          "internalType": "string",
          "name": "_whoIsCalling",
          "type": "string"
        },
        {
          "internalType": "uint32",
          "name": "_index",
          "type": "uint32"
        },
        {
          "internalType": "address",
          "name": "buyerWalletAddress",
          "type": "address"
        }
      ],
      "name": "payFeeForSuperMediator",
      "outputs": [
        {
          "components": [
            {
              "internalType": "uint32",
              "name": "_orderId",
              "type": "uint32"
            },
            {
              "internalType": "uint256",
              "name": "_amount",
              "type": "uint256"
            },
            {
              "internalType": "string",
              "name": "_termsAndCondition",
              "type": "string"
            },
            {
              "internalType": "string",
              "name": "_warrantyFile",
              "type": "string"
            },
            {
              "internalType": "uint32",
              "name": "_apealTime",
              "type": "uint32"
            },
            {
              "internalType": "address",
              "name": "_sellerWalletAddress",
              "type": "address"
            },
            {
              "internalType": "string",
              "name": "_invoiceFile",
              "type": "string"
            },
            {
              "internalType": "string",
              "name": "_customerEmail",
              "type": "string"
            },
            {
              "internalType": "uint32",
              "name": "_mediatorId",
              "type": "uint32"
            },
            {
              "internalType": "bool",
              "name": "_medAccepted",
              "type": "bool"
            },
            {
              "internalType": "string",
              "name": "_superMedAcceptedEmail",
              "type": "string"
            },
            {
              "internalType": "string",
              "name": "_judgeReport",
              "type": "string"
            },
            {
              "internalType": "string",
              "name": "_judgeReportFile",
              "type": "string"
            },
            {
              "internalType": "string",
              "name": "_judgeReportFileSuperMed",
              "type": "string"
            },
            {
              "internalType": "string",
              "name": "_judgeReportSuperMed",
              "type": "string"
            },
            {
              "internalType": "uint32",
              "name": "_buyerTakeAmountInPercentSuperMed",
              "type": "uint32"
            },
            {
              "internalType": "uint32",
              "name": "_buyerTakeAmountInPercent",
              "type": "uint32"
            },
            {
              "internalType": "string",
              "name": "_friendsEmail",
              "type": "string"
            },
            {
              "internalType": "string",
              "name": "_appealTime",
              "type": "string"
            },
            {
              "internalType": "string",
              "name": "_whoCalled",
              "type": "string"
            },
            {
              "internalType": "string",
              "name": "_whoPaidMediatorFee",
              "type": "string"
            },
            {
              "internalType": "uint256",
              "name": "_mediatorFee",
              "type": "uint256"
            },
            {
              "internalType": "address",
              "name": "_mediatorWalletAddress",
              "type": "address"
            }
          ],
          "internalType": "struct BuyInvoicesMainAPp.OrderData[]",
          "name": "",
          "type": "tuple[]"
        }
      ],
      "stateMutability": "nonpayable",
      "type": "function"
    },
    {
      "inputs": [
        {
          "internalType": "uint256",
          "name": "_amount",
          "type": "uint256"
        }
      ],
      "name": "payFeeForSuperMediatorr",
      "outputs": [],
      "stateMutability": "nonpayable",
      "type": "function"
    },
    {
      "inputs": [
        {
          "internalType": "uint256",
          "name": "amount",
          "type": "uint256"
        }
      ],
      "name": "mediatorWithDrawFees",
      "outputs": [],
      "stateMutability": "nonpayable",
      "type": "function"
    },
    {
      "inputs": [
        {
          "internalType": "address",
          "name": "buyerWalletAddress",
          "type": "address"
        },
        {
          "internalType": "uint32",
          "name": "_index",
          "type": "uint32"
        }
      ],
      "name": "userWithdrawTheirDisputesOrdersCash",
      "outputs": [
        {
          "components": [
            {
              "internalType": "uint32",
              "name": "_orderId",
              "type": "uint32"
            },
            {
              "internalType": "uint256",
              "name": "_amount",
              "type": "uint256"
            },
            {
              "internalType": "string",
              "name": "_termsAndCondition",
              "type": "string"
            },
            {
              "internalType": "string",
              "name": "_warrantyFile",
              "type": "string"
            },
            {
              "internalType": "uint32",
              "name": "_apealTime",
              "type": "uint32"
            },
            {
              "internalType": "address",
              "name": "_sellerWalletAddress",
              "type": "address"
            },
            {
              "internalType": "string",
              "name": "_invoiceFile",
              "type": "string"
            },
            {
              "internalType": "string",
              "name": "_customerEmail",
              "type": "string"
            },
            {
              "internalType": "uint32",
              "name": "_mediatorId",
              "type": "uint32"
            },
            {
              "internalType": "bool",
              "name": "_medAccepted",
              "type": "bool"
            },
            {
              "internalType": "string",
              "name": "_superMedAcceptedEmail",
              "type": "string"
            },
            {
              "internalType": "string",
              "name": "_judgeReport",
              "type": "string"
            },
            {
              "internalType": "string",
              "name": "_judgeReportFile",
              "type": "string"
            },
            {
              "internalType": "string",
              "name": "_judgeReportFileSuperMed",
              "type": "string"
            },
            {
              "internalType": "string",
              "name": "_judgeReportSuperMed",
              "type": "string"
            },
            {
              "internalType": "uint32",
              "name": "_buyerTakeAmountInPercentSuperMed",
              "type": "uint32"
            },
            {
              "internalType": "uint32",
              "name": "_buyerTakeAmountInPercent",
              "type": "uint32"
            },
            {
              "internalType": "string",
              "name": "_friendsEmail",
              "type": "string"
            },
            {
              "internalType": "string",
              "name": "_appealTime",
              "type": "string"
            },
            {
              "internalType": "string",
              "name": "_whoCalled",
              "type": "string"
            },
            {
              "internalType": "string",
              "name": "_whoPaidMediatorFee",
              "type": "string"
            },
            {
              "internalType": "uint256",
              "name": "_mediatorFee",
              "type": "uint256"
            },
            {
              "internalType": "address",
              "name": "_mediatorWalletAddress",
              "type": "address"
            }
          ],
          "internalType": "struct BuyInvoicesMainAPp.OrderData[]",
          "name": "",
          "type": "tuple[]"
        }
      ],
      "stateMutability": "nonpayable",
      "type": "function"
    },
    {
      "inputs": [
        {
          "internalType": "uint32",
          "name": "_orderId",
          "type": "uint32"
        },
        {
          "internalType": "uint256",
          "name": "_amount",
          "type": "uint256"
        },
        {
          "internalType": "string",
          "name": "_termsAndCondition",
          "type": "string"
        },
        {
          "internalType": "string",
          "name": "_warrantyFile",
          "type": "string"
        },
        {
          "internalType": "uint32",
          "name": "_apealTime",
          "type": "uint32"
        },
        {
          "internalType": "address",
          "name": "_sellerWalletAddress",
          "type": "address"
        },
        {
          "internalType": "string",
          "name": "_invoiceFile",
          "type": "string"
        },
        {
          "internalType": "string",
          "name": "_customerEmail",
          "type": "string"
        },
        {
          "internalType": "uint32",
          "name": "_mediatorId",
          "type": "uint32"
        },
        {
          "internalType": "bool",
          "name": "_medAccepted",
          "type": "bool"
        },
        {
          "internalType": "string",
          "name": "_friendsEmail",
          "type": "string"
        }
      ],
      "name": "_saveOrdersDataOfUser",
      "outputs": [],
      "stateMutability": "nonpayable",
      "type": "function"
    },
    {
      "inputs": [
        {
          "internalType": "uint32",
          "name": "_orderId",
          "type": "uint32"
        },
        {
          "internalType": "uint256",
          "name": "_amount",
          "type": "uint256"
        },
        {
          "internalType": "string",
          "name": "_termsAndCondition",
          "type": "string"
        },
        {
          "internalType": "string",
          "name": "_warrantyFile",
          "type": "string"
        },
        {
          "internalType": "uint32",
          "name": "_apealTime",
          "type": "uint32"
        },
        {
          "internalType": "address",
          "name": "_sellerWalletAddress",
          "type": "address"
        },
        {
          "internalType": "string",
          "name": "_invoiceFile",
          "type": "string"
        },
        {
          "internalType": "string",
          "name": "_customerEmail",
          "type": "string"
        },
        {
          "internalType": "uint32",
          "name": "_mediatorId",
          "type": "uint32"
        },
        {
          "internalType": "bool",
          "name": "_medAccepted",
          "type": "bool"
        },
        {
          "internalType": "string",
          "name": "_friendsEmail",
          "type": "string"
        }
      ],
      "name": "buyWithFTP",
      "outputs": [],
      "stateMutability": "nonpayable",
      "type": "function"
    },
    {
      "inputs": [
        {
          "internalType": "uint32",
          "name": "_orderId",
          "type": "uint32"
        },
        {
          "internalType": "string",
          "name": "_termsAndCondition",
          "type": "string"
        },
        {
          "internalType": "string",
          "name": "_warrantyFile",
          "type": "string"
        },
        {
          "internalType": "uint32",
          "name": "_apealTime",
          "type": "uint32"
        },
        {
          "internalType": "address",
          "name": "_sellerWalletAddress",
          "type": "address"
        },
        {
          "internalType": "string",
          "name": "_invoiceFile",
          "type": "string"
        },
        {
          "internalType": "string",
          "name": "_customerEmail",
          "type": "string"
        },
        {
          "internalType": "uint32",
          "name": "_mediatorId",
          "type": "uint32"
        },
        {
          "internalType": "bool",
          "name": "_medAccepted",
          "type": "bool"
        },
        {
          "internalType": "string",
          "name": "_friendsEmail",
          "type": "string"
        }
      ],
      "name": "buyWithBNB",
      "outputs": [],
      "stateMutability": "payable",
      "type": "function",
      "payable": true
    }
  ],
  "bytecode": "0x60e0604052602360808181529062005ec360a039805162000029916000916020909101906200008f565b503480156200003757600080fd5b5060405162005ee638038062005ee68339810160408190526200005a9162000135565b600480546001908101825560009190915280546001600160a01b0319166001600160a01b0392909216919091179055620001a2565b8280546200009d9062000165565b90600052602060002090601f016020900481019282620000c157600085556200010c565b82601f10620000dc57805160ff19168380011785556200010c565b828001600101855582156200010c579182015b828111156200010c578251825591602001919060010190620000ef565b506200011a9291506200011e565b5090565b5b808211156200011a57600081556001016200011f565b60006020828403121562000147578081fd5b81516001600160a01b03811681146200015e578182fd5b9392505050565b600181811c908216806200017a57607f821691505b602082108114156200019c57634e487b7160e01b600052602260045260246000fd5b50919050565b615d1180620001b26000396000f3fe60806040526004361061011f5760003560e01c80639529441e116100a0578063bea4e5b811610064578063bea4e5b814610328578063cf591db514610348578063f2b8e5ba14610368578063fc0c546a14610388578063fd5e6dd1146103a85761011f565b80639529441e14610293578063abf940c8146102b5578063b506c2a2146102d5578063b8e2de71146102f5578063be9cb51a146103155761011f565b80632f3726c3116100e75780632f3726c3146101fe5780633b07c9871461022057806342c518891461024057806347f3d0c0146102535780638cf04ae4146102735761011f565b806306fdde031461012457806312065fe01461014f57806316934fc41461016c5780631d601be2146101995780631d6b8b72146101c6575b600080fd5b34801561013057600080fd5b506101396103c8565b6040516101469190615bfa565b60405180910390f35b34801561015b57600080fd5b50475b604051908152602001610146565b34801561017857600080fd5b5061015e6101873660046150d9565b60026020526000908152604090205481565b3480156101a557600080fd5b506101b96101b43660046152c0565b610456565b60405161014691906156b5565b3480156101d257600080fd5b506101e66101e1366004615290565b610eb7565b6040516001600160a01b039091168152602001610146565b34801561020a57600080fd5b5061021e610219366004615537565b610ee6565b005b34801561022c57600080fd5b506101b961023b3660046151db565b611017565b61021e61024e366004615416565b611ae8565b34801561025f57600080fd5b506101b961026e3660046150d9565b611b07565b34801561027f57600080fd5b5061021e61028e366004615290565b6123d6565b34801561029f57600080fd5b506102a8612407565b6040516101469190615931565b3480156102c157600080fd5b506101b96102d03660046150fa565b612cee565b3480156102e157600080fd5b5061021e6102f036600461534f565b6138a7565b34801561030157600080fd5b5061021e610310366004615537565b613946565b61021e6103233660046153ab565b613dac565b34801561033457600080fd5b506101b9610343366004615326565b613f47565b34801561035457600080fd5b5061021e610363366004615148565b614897565b34801561037457600080fd5b5061021e610383366004615290565b614dcb565b34801561039457600080fd5b506001546101e6906001600160a01b031681565b3480156103b457600080fd5b506101e66103c3366004615290565b614edb565b600080546103d590615c63565b80601f016020809104026020016040519081016040528092919081815260200182805461040190615c63565b801561044e5780601f106104235761010080835404028352916020019161044e565b820191906000526020600020905b81548152906001019060200180831161043157829003601f168201915b505050505081565b6001546040516370a0823160e01b815233600482015260609186916001600160a01b03909116906370a082319060240160206040518083038186803b15801561049e57600080fd5b505afa1580156104b2573d6000803e3d6000fd5b505050506040513d601f19601f820116820180604052508101906104d691906152a8565b10156104e157600080fd5b6001600160a01b038216600090815260026020526040902054600480548691908390811061051f57634e487b7160e01b600052603260045260246000fd5b90600052602060002090600202016001018563ffffffff168154811061055557634e487b7160e01b600052603260045260246000fd5b90600052602060002090601402016010019080519060200190610579929190614f83565b506001546040516323b872dd60e01b8152336004820152306024820152604481018890526001600160a01b03909116906323b872dd90606401602060405180830381600087803b1580156105cc57600080fd5b505af11580156105e0573d6000803e3d6000fd5b505050506040513d601f19601f82011682018060405250810190610604919061512c565b506004818154811061062657634e487b7160e01b600052603260045260246000fd5b9060005260206000209060020201600101805480602002602001604051908101604052809291908181526020016000905b82821015610ea8576000848152602090819020604080516102e08101825260148602909201805463ffffffff168352600181015493830193909352600283018054929392918401916106a890615c63565b80601f01602080910402602001604051908101604052809291908181526020018280546106d490615c63565b80156107215780601f106106f657610100808354040283529160200191610721565b820191906000526020600020905b81548152906001019060200180831161070457829003601f168201915b5050505050815260200160038201805461073a90615c63565b80601f016020809104026020016040519081016040528092919081815260200182805461076690615c63565b80156107b35780601f10610788576101008083540402835291602001916107b3565b820191906000526020600020905b81548152906001019060200180831161079657829003601f168201915b5050509183525050600482015463ffffffff81166020830152600160201b90046001600160a01b031660408201526005820180546060909201916107f690615c63565b80601f016020809104026020016040519081016040528092919081815260200182805461082290615c63565b801561086f5780601f106108445761010080835404028352916020019161086f565b820191906000526020600020905b81548152906001019060200180831161085257829003601f168201915b5050505050815260200160068201805461088890615c63565b80601f01602080910402602001604051908101604052809291908181526020018280546108b490615c63565b80156109015780601f106108d657610100808354040283529160200191610901565b820191906000526020600020905b8154815290600101906020018083116108e457829003601f168201915b5050509183525050600782015463ffffffff81166020830152600160201b900460ff161515604082015260088201805460609092019161094090615c63565b80601f016020809104026020016040519081016040528092919081815260200182805461096c90615c63565b80156109b95780601f1061098e576101008083540402835291602001916109b9565b820191906000526020600020905b81548152906001019060200180831161099c57829003601f168201915b505050505081526020016009820180546109d290615c63565b80601f01602080910402602001604051908101604052809291908181526020018280546109fe90615c63565b8015610a4b5780601f10610a2057610100808354040283529160200191610a4b565b820191906000526020600020905b815481529060010190602001808311610a2e57829003601f168201915b50505050508152602001600a82018054610a6490615c63565b80601f0160208091040260200160405190810160405280929190818152602001828054610a9090615c63565b8015610add5780601f10610ab257610100808354040283529160200191610add565b820191906000526020600020905b815481529060010190602001808311610ac057829003601f168201915b50505050508152602001600b82018054610af690615c63565b80601f0160208091040260200160405190810160405280929190818152602001828054610b2290615c63565b8015610b6f5780601f10610b4457610100808354040283529160200191610b6f565b820191906000526020600020905b815481529060010190602001808311610b5257829003601f168201915b50505050508152602001600c82018054610b8890615c63565b80601f0160208091040260200160405190810160405280929190818152602001828054610bb490615c63565b8015610c015780601f10610bd657610100808354040283529160200191610c01565b820191906000526020600020905b815481529060010190602001808311610be457829003601f168201915b5050509183525050600d82015463ffffffff8082166020840152600160201b909104166040820152600e82018054606090920191610c3e90615c63565b80601f0160208091040260200160405190810160405280929190818152602001828054610c6a90615c63565b8015610cb75780601f10610c8c57610100808354040283529160200191610cb7565b820191906000526020600020905b815481529060010190602001808311610c9a57829003601f168201915b50505050508152602001600f82018054610cd090615c63565b80601f0160208091040260200160405190810160405280929190818152602001828054610cfc90615c63565b8015610d495780601f10610d1e57610100808354040283529160200191610d49565b820191906000526020600020905b815481529060010190602001808311610d2c57829003601f168201915b50505050508152602001601082018054610d6290615c63565b80601f0160208091040260200160405190810160405280929190818152602001828054610d8e90615c63565b8015610ddb5780601f10610db057610100808354040283529160200191610ddb565b820191906000526020600020905b815481529060010190602001808311610dbe57829003601f168201915b50505050508152602001601182018054610df490615c63565b80601f0160208091040260200160405190810160405280929190818152602001828054610e2090615c63565b8015610e6d5780601f10610e4257610100808354040283529160200191610e6d565b820191906000526020600020905b815481529060010190602001808311610e5057829003601f168201915b505050918352505060128201546020808301919091526013909201546001600160a01b03166040909101529082526001929092019101610657565b50505050915050949350505050565b60048181548110610ec757600080fd5b60009182526020909120600290910201546001600160a01b0316905081565b6001546040516370a0823160e01b81523360048201528b916001600160a01b0316906370a082319060240160206040518083038186803b158015610f2957600080fd5b505afa158015610f3d573d6000803e3d6000fd5b505050506040513d601f19601f82011682018060405250810190610f6191906152a8565b1015610f6c57600080fd5b6001546040516323b872dd60e01b8152336004820152306024820152604481018c90526001600160a01b03909116906323b872dd90606401602060405180830381600087803b158015610fbe57600080fd5b505af1158015610fd2573d6000803e3d6000fd5b505050506040513d601f19601f82011682018060405250810190610ff6919061512c565b5061100a8b8b8b8b8b8b8b8b8b8b8b613946565b5050505050505050505050565b6001600160a01b038416600090815260026020526040902054600480546060929189918390811061105857634e487b7160e01b600052603260045260246000fd5b90600052602060002090600202016001018663ffffffff168154811061108e57634e487b7160e01b600052603260045260246000fd5b906000526020600020906014020160090190805190602001906110b2929190614f83565b5086600482815481106110d557634e487b7160e01b600052603260045260246000fd5b90600052602060002090600202016001018663ffffffff168154811061110b57634e487b7160e01b600052603260045260246000fd5b9060005260206000209060140201600a01908051906020019061112f929190614f83565b50836004828154811061115257634e487b7160e01b600052603260045260246000fd5b90600052602060002090600202016001018663ffffffff168154811061118857634e487b7160e01b600052603260045260246000fd5b9060005260206000209060140201600d0160046101000a81548163ffffffff021916908363ffffffff16021790555082600482815481106111d957634e487b7160e01b600052603260045260246000fd5b90600052602060002090600202016001018663ffffffff168154811061120f57634e487b7160e01b600052603260045260246000fd5b9060005260206000209060140201600f019080519060200190611233929190614f83565b506004818154811061125557634e487b7160e01b600052603260045260246000fd5b9060005260206000209060020201600101805480602002602001604051908101604052809291908181526020016000905b82821015611ad7576000848152602090819020604080516102e08101825260148602909201805463ffffffff168352600181015493830193909352600283018054929392918401916112d790615c63565b80601f016020809104026020016040519081016040528092919081815260200182805461130390615c63565b80156113505780601f1061132557610100808354040283529160200191611350565b820191906000526020600020905b81548152906001019060200180831161133357829003601f168201915b5050505050815260200160038201805461136990615c63565b80601f016020809104026020016040519081016040528092919081815260200182805461139590615c63565b80156113e25780601f106113b7576101008083540402835291602001916113e2565b820191906000526020600020905b8154815290600101906020018083116113c557829003601f168201915b5050509183525050600482015463ffffffff81166020830152600160201b90046001600160a01b0316604082015260058201805460609092019161142590615c63565b80601f016020809104026020016040519081016040528092919081815260200182805461145190615c63565b801561149e5780601f106114735761010080835404028352916020019161149e565b820191906000526020600020905b81548152906001019060200180831161148157829003601f168201915b505050505081526020016006820180546114b790615c63565b80601f01602080910402602001604051908101604052809291908181526020018280546114e390615c63565b80156115305780601f1061150557610100808354040283529160200191611530565b820191906000526020600020905b81548152906001019060200180831161151357829003601f168201915b5050509183525050600782015463ffffffff81166020830152600160201b900460ff161515604082015260088201805460609092019161156f90615c63565b80601f016020809104026020016040519081016040528092919081815260200182805461159b90615c63565b80156115e85780601f106115bd576101008083540402835291602001916115e8565b820191906000526020600020905b8154815290600101906020018083116115cb57829003601f168201915b5050505050815260200160098201805461160190615c63565b80601f016020809104026020016040519081016040528092919081815260200182805461162d90615c63565b801561167a5780601f1061164f5761010080835404028352916020019161167a565b820191906000526020600020905b81548152906001019060200180831161165d57829003601f168201915b50505050508152602001600a8201805461169390615c63565b80601f01602080910402602001604051908101604052809291908181526020018280546116bf90615c63565b801561170c5780601f106116e15761010080835404028352916020019161170c565b820191906000526020600020905b8154815290600101906020018083116116ef57829003601f168201915b50505050508152602001600b8201805461172590615c63565b80601f016020809104026020016040519081016040528092919081815260200182805461175190615c63565b801561179e5780601f106117735761010080835404028352916020019161179e565b820191906000526020600020905b81548152906001019060200180831161178157829003601f168201915b50505050508152602001600c820180546117b790615c63565b80601f01602080910402602001604051908101604052809291908181526020018280546117e390615c63565b80156118305780601f1061180557610100808354040283529160200191611830565b820191906000526020600020905b81548152906001019060200180831161181357829003601f168201915b5050509183525050600d82015463ffffffff8082166020840152600160201b909104166040820152600e8201805460609092019161186d90615c63565b80601f016020809104026020016040519081016040528092919081815260200182805461189990615c63565b80156118e65780601f106118bb576101008083540402835291602001916118e6565b820191906000526020600020905b8154815290600101906020018083116118c957829003601f168201915b50505050508152602001600f820180546118ff90615c63565b80601f016020809104026020016040519081016040528092919081815260200182805461192b90615c63565b80156119785780601f1061194d57610100808354040283529160200191611978565b820191906000526020600020905b81548152906001019060200180831161195b57829003601f168201915b5050505050815260200160108201805461199190615c63565b80601f01602080910402602001604051908101604052809291908181526020018280546119bd90615c63565b8015611a0a5780601f106119df57610100808354040283529160200191611a0a565b820191906000526020600020905b8154815290600101906020018083116119ed57829003601f168201915b50505050508152602001601182018054611a2390615c63565b80601f0160208091040260200160405190810160405280929190818152602001828054611a4f90615c63565b8015611a9c5780601f10611a7157610100808354040283529160200191611a9c565b820191906000526020600020905b815481529060010190602001808311611a7f57829003601f168201915b505050918352505060128201546020808301919091526013909201546001600160a01b03166040909101529082526001929092019101611286565b505050509150509695505050505050565b611afb8a348b8b8b8b8b8b8b8b8b613946565b50505050505050505050565b6001600160a01b03811660009081526002602052604090205460048054606092919082908110611b4757634e487b7160e01b600052603260045260246000fd5b9060005260206000209060020201600101805480602002602001604051908101604052809291908181526020016000905b828210156123c9576000848152602090819020604080516102e08101825260148602909201805463ffffffff16835260018101549383019390935260028301805492939291840191611bc990615c63565b80601f0160208091040260200160405190810160405280929190818152602001828054611bf590615c63565b8015611c425780601f10611c1757610100808354040283529160200191611c42565b820191906000526020600020905b815481529060010190602001808311611c2557829003601f168201915b50505050508152602001600382018054611c5b90615c63565b80601f0160208091040260200160405190810160405280929190818152602001828054611c8790615c63565b8015611cd45780601f10611ca957610100808354040283529160200191611cd4565b820191906000526020600020905b815481529060010190602001808311611cb757829003601f168201915b5050509183525050600482015463ffffffff81166020830152600160201b90046001600160a01b03166040820152600582018054606090920191611d1790615c63565b80601f0160208091040260200160405190810160405280929190818152602001828054611d4390615c63565b8015611d905780601f10611d6557610100808354040283529160200191611d90565b820191906000526020600020905b815481529060010190602001808311611d7357829003601f168201915b50505050508152602001600682018054611da990615c63565b80601f0160208091040260200160405190810160405280929190818152602001828054611dd590615c63565b8015611e225780601f10611df757610100808354040283529160200191611e22565b820191906000526020600020905b815481529060010190602001808311611e0557829003601f168201915b5050509183525050600782015463ffffffff81166020830152600160201b900460ff1615156040820152600882018054606090920191611e6190615c63565b80601f0160208091040260200160405190810160405280929190818152602001828054611e8d90615c63565b8015611eda5780601f10611eaf57610100808354040283529160200191611eda565b820191906000526020600020905b815481529060010190602001808311611ebd57829003601f168201915b50505050508152602001600982018054611ef390615c63565b80601f0160208091040260200160405190810160405280929190818152602001828054611f1f90615c63565b8015611f6c5780601f10611f4157610100808354040283529160200191611f6c565b820191906000526020600020905b815481529060010190602001808311611f4f57829003601f168201915b50505050508152602001600a82018054611f8590615c63565b80601f0160208091040260200160405190810160405280929190818152602001828054611fb190615c63565b8015611ffe5780601f10611fd357610100808354040283529160200191611ffe565b820191906000526020600020905b815481529060010190602001808311611fe157829003601f168201915b50505050508152602001600b8201805461201790615c63565b80601f016020809104026020016040519081016040528092919081815260200182805461204390615c63565b80156120905780601f1061206557610100808354040283529160200191612090565b820191906000526020600020905b81548152906001019060200180831161207357829003601f168201915b50505050508152602001600c820180546120a990615c63565b80601f01602080910402602001604051908101604052809291908181526020018280546120d590615c63565b80156121225780601f106120f757610100808354040283529160200191612122565b820191906000526020600020905b81548152906001019060200180831161210557829003601f168201915b5050509183525050600d82015463ffffffff8082166020840152600160201b909104166040820152600e8201805460609092019161215f90615c63565b80601f016020809104026020016040519081016040528092919081815260200182805461218b90615c63565b80156121d85780601f106121ad576101008083540402835291602001916121d8565b820191906000526020600020905b8154815290600101906020018083116121bb57829003601f168201915b50505050508152602001600f820180546121f190615c63565b80601f016020809104026020016040519081016040528092919081815260200182805461221d90615c63565b801561226a5780601f1061223f5761010080835404028352916020019161226a565b820191906000526020600020905b81548152906001019060200180831161224d57829003601f168201915b5050505050815260200160108201805461228390615c63565b80601f01602080910402602001604051908101604052809291908181526020018280546122af90615c63565b80156122fc5780601f106122d1576101008083540402835291602001916122fc565b820191906000526020600020905b8154815290600101906020018083116122df57829003601f168201915b5050505050815260200160118201805461231590615c63565b80601f016020809104026020016040519081016040528092919081815260200182805461234190615c63565b801561238e5780601f106123635761010080835404028352916020019161238e565b820191906000526020600020905b81548152906001019060200180831161237157829003601f168201915b505050918352505060128201546020808301919091526013909201546001600160a01b03166040909101529082526001929092019101611b78565b505050509150505b919050565b604051339082156108fc029083906000818181858888f19350505050158015612403573d6000803e3d6000fd5b5050565b60606004805480602002602001604051908101604052809291908181526020016000905b82821015612ce557600084815260208082206040805180820182526002870290920180546001600160a01b03168352600181018054835181870281018701909452808452939591948681019491929084015b82821015612cce576000848152602090819020604080516102e08101825260148602909201805463ffffffff168352600181015493830193909352600283018054929392918401916124ce90615c63565b80601f01602080910402602001604051908101604052809291908181526020018280546124fa90615c63565b80156125475780601f1061251c57610100808354040283529160200191612547565b820191906000526020600020905b81548152906001019060200180831161252a57829003601f168201915b5050505050815260200160038201805461256090615c63565b80601f016020809104026020016040519081016040528092919081815260200182805461258c90615c63565b80156125d95780601f106125ae576101008083540402835291602001916125d9565b820191906000526020600020905b8154815290600101906020018083116125bc57829003601f168201915b5050509183525050600482015463ffffffff81166020830152600160201b90046001600160a01b0316604082015260058201805460609092019161261c90615c63565b80601f016020809104026020016040519081016040528092919081815260200182805461264890615c63565b80156126955780601f1061266a57610100808354040283529160200191612695565b820191906000526020600020905b81548152906001019060200180831161267857829003601f168201915b505050505081526020016006820180546126ae90615c63565b80601f01602080910402602001604051908101604052809291908181526020018280546126da90615c63565b80156127275780601f106126fc57610100808354040283529160200191612727565b820191906000526020600020905b81548152906001019060200180831161270a57829003601f168201915b5050509183525050600782015463ffffffff81166020830152600160201b900460ff161515604082015260088201805460609092019161276690615c63565b80601f016020809104026020016040519081016040528092919081815260200182805461279290615c63565b80156127df5780601f106127b4576101008083540402835291602001916127df565b820191906000526020600020905b8154815290600101906020018083116127c257829003601f168201915b505050505081526020016009820180546127f890615c63565b80601f016020809104026020016040519081016040528092919081815260200182805461282490615c63565b80156128715780601f1061284657610100808354040283529160200191612871565b820191906000526020600020905b81548152906001019060200180831161285457829003601f168201915b50505050508152602001600a8201805461288a90615c63565b80601f01602080910402602001604051908101604052809291908181526020018280546128b690615c63565b80156129035780601f106128d857610100808354040283529160200191612903565b820191906000526020600020905b8154815290600101906020018083116128e657829003601f168201915b50505050508152602001600b8201805461291c90615c63565b80601f016020809104026020016040519081016040528092919081815260200182805461294890615c63565b80156129955780601f1061296a57610100808354040283529160200191612995565b820191906000526020600020905b81548152906001019060200180831161297857829003601f168201915b50505050508152602001600c820180546129ae90615c63565b80601f01602080910402602001604051908101604052809291908181526020018280546129da90615c63565b8015612a275780601f106129fc57610100808354040283529160200191612a27565b820191906000526020600020905b815481529060010190602001808311612a0a57829003601f168201915b5050509183525050600d82015463ffffffff8082166020840152600160201b909104166040820152600e82018054606090920191612a6490615c63565b80601f0160208091040260200160405190810160405280929190818152602001828054612a9090615c63565b8015612add5780601f10612ab257610100808354040283529160200191612add565b820191906000526020600020905b815481529060010190602001808311612ac057829003601f168201915b50505050508152602001600f82018054612af690615c63565b80601f0160208091040260200160405190810160405280929190818152602001828054612b2290615c63565b8015612b6f5780601f10612b4457610100808354040283529160200191612b6f565b820191906000526020600020905b815481529060010190602001808311612b5257829003601f168201915b50505050508152602001601082018054612b8890615c63565b80601f0160208091040260200160405190810160405280929190818152602001828054612bb490615c63565b8015612c015780601f10612bd657610100808354040283529160200191612c01565b820191906000526020600020905b815481529060010190602001808311612be457829003601f168201915b50505050508152602001601182018054612c1a90615c63565b80601f0160208091040260200160405190810160405280929190818152602001828054612c4690615c63565b8015612c935780601f10612c6857610100808354040283529160200191612c93565b820191906000526020600020905b815481529060010190602001808311612c7657829003601f168201915b505050918352505060128201546020808301919091526013909201546001600160a01b0316604090910152908252600192909201910161247d565b50505050815250508152602001906001019061242b565b50505050905090565b6001600160a01b03821660009081526002602052604081205460048054606093919083908110612d2e57634e487b7160e01b600052603260045260246000fd5b90600052602060002090600202016001018463ffffffff1681548110612d6457634e487b7160e01b600052603260045260246000fd5b9060005260206000209060140201600101549050600060048381548110612d9b57634e487b7160e01b600052603260045260246000fd5b90600052602060002090600202016001018563ffffffff1681548110612dd157634e487b7160e01b600052603260045260246000fd5b9060005260206000209060140201600d0160049054906101000a900463ffffffff1663ffffffff169050600060048481548110612e1e57634e487b7160e01b600052603260045260246000fd5b90600052602060002090600202016001018663ffffffff1681548110612e5457634e487b7160e01b600052603260045260246000fd5b6000918252602090912060149091020160040154600160201b90046001600160a01b0390811691508716331415612f65578160641415612eca576040516001600160a01b0388169084156108fc029085906000818181858888f19350505050158015612ec4573d6000803e3d6000fd5b50612f60565b8160321415612f13576001600160a01b0387166108fc612eeb600286615c0d565b6040518115909202916000818181858888f19350505050158015612ec4573d6000803e3d6000fd5b6001600160a01b0387166108fc6064612f2c8587615c2d565b612f369190615c0d565b6040518115909202916000818181858888f19350505050158015612f5e573d6000803e3d6000fd5b505b612ff4565b336001600160a01b0382161415612ff4578160321415612f97576001600160a01b0381166108fc612f36600286615c0d565b6000612fa4836064615c4c565b90506001600160a01b0382166108fc6064612fbf8488615c2d565b612fc99190615c0d565b6040518115909202916000818181858888f19350505050158015612ff1573d6000803e3d6000fd5b50505b6004848154811061301557634e487b7160e01b600052603260045260246000fd5b9060005260206000209060020201600101805480602002602001604051908101604052809291908181526020016000905b82821015613897576000848152602090819020604080516102e08101825260148602909201805463ffffffff1683526001810154938301939093526002830180549293929184019161309790615c63565b80601f01602080910402602001604051908101604052809291908181526020018280546130c390615c63565b80156131105780601f106130e557610100808354040283529160200191613110565b820191906000526020600020905b8154815290600101906020018083116130f357829003601f168201915b5050505050815260200160038201805461312990615c63565b80601f016020809104026020016040519081016040528092919081815260200182805461315590615c63565b80156131a25780601f10613177576101008083540402835291602001916131a2565b820191906000526020600020905b81548152906001019060200180831161318557829003601f168201915b5050509183525050600482015463ffffffff81166020830152600160201b90046001600160a01b031660408201526005820180546060909201916131e590615c63565b80601f016020809104026020016040519081016040528092919081815260200182805461321190615c63565b801561325e5780601f106132335761010080835404028352916020019161325e565b820191906000526020600020905b81548152906001019060200180831161324157829003601f168201915b5050505050815260200160068201805461327790615c63565b80601f01602080910402602001604051908101604052809291908181526020018280546132a390615c63565b80156132f05780601f106132c5576101008083540402835291602001916132f0565b820191906000526020600020905b8154815290600101906020018083116132d357829003601f168201915b5050509183525050600782015463ffffffff81166020830152600160201b900460ff161515604082015260088201805460609092019161332f90615c63565b80601f016020809104026020016040519081016040528092919081815260200182805461335b90615c63565b80156133a85780601f1061337d576101008083540402835291602001916133a8565b820191906000526020600020905b81548152906001019060200180831161338b57829003601f168201915b505050505081526020016009820180546133c190615c63565b80601f01602080910402602001604051908101604052809291908181526020018280546133ed90615c63565b801561343a5780601f1061340f5761010080835404028352916020019161343a565b820191906000526020600020905b81548152906001019060200180831161341d57829003601f168201915b50505050508152602001600a8201805461345390615c63565b80601f016020809104026020016040519081016040528092919081815260200182805461347f90615c63565b80156134cc5780601f106134a1576101008083540402835291602001916134cc565b820191906000526020600020905b8154815290600101906020018083116134af57829003601f168201915b50505050508152602001600b820180546134e590615c63565b80601f016020809104026020016040519081016040528092919081815260200182805461351190615c63565b801561355e5780601f106135335761010080835404028352916020019161355e565b820191906000526020600020905b81548152906001019060200180831161354157829003601f168201915b50505050508152602001600c8201805461357790615c63565b80601f01602080910402602001604051908101604052809291908181526020018280546135a390615c63565b80156135f05780601f106135c5576101008083540402835291602001916135f0565b820191906000526020600020905b8154815290600101906020018083116135d357829003601f168201915b5050509183525050600d82015463ffffffff8082166020840152600160201b909104166040820152600e8201805460609092019161362d90615c63565b80601f016020809104026020016040519081016040528092919081815260200182805461365990615c63565b80156136a65780601f1061367b576101008083540402835291602001916136a6565b820191906000526020600020905b81548152906001019060200180831161368957829003601f168201915b50505050508152602001600f820180546136bf90615c63565b80601f01602080910402602001604051908101604052809291908181526020018280546136eb90615c63565b80156137385780601f1061370d57610100808354040283529160200191613738565b820191906000526020600020905b81548152906001019060200180831161371b57829003601f168201915b5050505050815260200160108201805461375190615c63565b80601f016020809104026020016040519081016040528092919081815260200182805461377d90615c63565b80156137ca5780601f1061379f576101008083540402835291602001916137ca565b820191906000526020600020905b8154815290600101906020018083116137ad57829003601f168201915b505050505081526020016011820180546137e390615c63565b80601f016020809104026020016040519081016040528092919081815260200182805461380f90615c63565b801561385c5780601f106138315761010080835404028352916020019161385c565b820191906000526020600020905b81548152906001019060200180831161383f57829003601f168201915b505050918352505060128201546020808301919091526013909201546001600160a01b03166040909101529082526001929092019101613046565b5050505094505050505092915050565b6001600160a01b03821660009081526002602052604090205460048054839190839081106138e557634e487b7160e01b600052603260045260246000fd5b90600052602060002090600202016001018563ffffffff168154811061391b57634e487b7160e01b600052603260045260246000fd5b9060005260206000209060140201600801908051906020019061393f929190614f83565b5050505050565b33600090815260026020526040902054806139675761396433614f05565b90505b6004818154811061398857634e487b7160e01b600052603260045260246000fd5b9060005260206000209060020201600101604051806102e001604052808e63ffffffff1681526020018d81526020018c81526020018b81526020018a63ffffffff168152602001896001600160a01b031681526020018881526020018781526020018663ffffffff1681526020018515158152602001604051806020016040528060008152508152602001604051806020016040528060008152508152602001604051806020016040528060008152508152602001604051806020016040528060008152508152602001604051806020016040528060008152508152602001600063ffffffff168152602001600063ffffffff16815260200184815260200160405180602001604052806000815250815260200160405180602001604052806000815250815260200160405180602001604052806000815250815260200160008152602001732e50a8e498912ef9818f080a43f849c4a58c1a666001600160a01b0316815250908060018154018082558091505060019003906000526020600020906014020160009091909190915060008201518160000160006101000a81548163ffffffff021916908363ffffffff160217905550602082015181600101556040820151816002019080519060200190613b64929190614f83565b5060608201518051613b80916003840191602090910190614f83565b50608082015160048201805460a08501516001600160a01b0316600160201b026001600160c01b031990911663ffffffff9093169290921791909117905560c08201518051613bd9916005840191602090910190614f83565b5060e08201518051613bf5916006840191602090910190614f83565b506101008201516007820180546101208501511515600160201b0264ffffffffff1990911663ffffffff909316929092179190911790556101408201518051613c48916008840191602090910190614f83565b506101608201518051613c65916009840191602090910190614f83565b506101808201518051613c8291600a840191602090910190614f83565b506101a08201518051613c9f91600b840191602090910190614f83565b506101c08201518051613cbc91600c840191602090910190614f83565b506101e0820151600d8201805461020085015163ffffffff908116600160201b0267ffffffffffffffff199092169316929092179190911790556102208201518051613d1291600e840191602090910190614f83565b506102408201518051613d2f91600f840191602090910190614f83565b506102608201518051613d4c916010840191602090910190614f83565b506102808201518051613d69916011840191602090910190614f83565b506102a082015160128201556102c090910151601390910180546001600160a01b0319166001600160a01b03909216919091179055505050505050505050505050565b6001600160a01b0384166000908152600260205260409020546004805485919083908110613dea57634e487b7160e01b600052603260045260246000fd5b90600052602060002090600202016001018763ffffffff1681548110613e2057634e487b7160e01b600052603260045260246000fd5b90600052602060002090601402016011019080519060200190613e44929190614f83565b508260048281548110613e6757634e487b7160e01b600052603260045260246000fd5b90600052602060002090600202016001018763ffffffff1681548110613e9d57634e487b7160e01b600052603260045260246000fd5b9060005260206000209060140201601201819055508160048281548110613ed457634e487b7160e01b600052603260045260246000fd5b90600052602060002090600202016001018763ffffffff1681548110613f0a57634e487b7160e01b600052603260045260246000fd5b906000526020600020906014020160130160006101000a8154816001600160a01b0302191690836001600160a01b03160217905550505050505050565b6001600160a01b038116600090815260026020526040902054600480546060929160019183908110613f8957634e487b7160e01b600052603260045260246000fd5b90600052602060002090600202016001018563ffffffff1681548110613fbf57634e487b7160e01b600052603260045260246000fd5b906000526020600020906014020160070160046101000a81548160ff0219169083151502179055506004818154811061400857634e487b7160e01b600052603260045260246000fd5b9060005260206000209060020201600101805480602002602001604051908101604052809291908181526020016000905b8282101561488a576000848152602090819020604080516102e08101825260148602909201805463ffffffff1683526001810154938301939093526002830180549293929184019161408a90615c63565b80601f01602080910402602001604051908101604052809291908181526020018280546140b690615c63565b80156141035780601f106140d857610100808354040283529160200191614103565b820191906000526020600020905b8154815290600101906020018083116140e657829003601f168201915b5050505050815260200160038201805461411c90615c63565b80601f016020809104026020016040519081016040528092919081815260200182805461414890615c63565b80156141955780601f1061416a57610100808354040283529160200191614195565b820191906000526020600020905b81548152906001019060200180831161417857829003601f168201915b5050509183525050600482015463ffffffff81166020830152600160201b90046001600160a01b031660408201526005820180546060909201916141d890615c63565b80601f016020809104026020016040519081016040528092919081815260200182805461420490615c63565b80156142515780601f1061422657610100808354040283529160200191614251565b820191906000526020600020905b81548152906001019060200180831161423457829003601f168201915b5050505050815260200160068201805461426a90615c63565b80601f016020809104026020016040519081016040528092919081815260200182805461429690615c63565b80156142e35780601f106142b8576101008083540402835291602001916142e3565b820191906000526020600020905b8154815290600101906020018083116142c657829003601f168201915b5050509183525050600782015463ffffffff81166020830152600160201b900460ff161515604082015260088201805460609092019161432290615c63565b80601f016020809104026020016040519081016040528092919081815260200182805461434e90615c63565b801561439b5780601f106143705761010080835404028352916020019161439b565b820191906000526020600020905b81548152906001019060200180831161437e57829003601f168201915b505050505081526020016009820180546143b490615c63565b80601f01602080910402602001604051908101604052809291908181526020018280546143e090615c63565b801561442d5780601f106144025761010080835404028352916020019161442d565b820191906000526020600020905b81548152906001019060200180831161441057829003601f168201915b50505050508152602001600a8201805461444690615c63565b80601f016020809104026020016040519081016040528092919081815260200182805461447290615c63565b80156144bf5780601f10614494576101008083540402835291602001916144bf565b820191906000526020600020905b8154815290600101906020018083116144a257829003601f168201915b50505050508152602001600b820180546144d890615c63565b80601f016020809104026020016040519081016040528092919081815260200182805461450490615c63565b80156145515780601f1061452657610100808354040283529160200191614551565b820191906000526020600020905b81548152906001019060200180831161453457829003601f168201915b50505050508152602001600c8201805461456a90615c63565b80601f016020809104026020016040519081016040528092919081815260200182805461459690615c63565b80156145e35780601f106145b8576101008083540402835291602001916145e3565b820191906000526020600020905b8154815290600101906020018083116145c657829003601f168201915b5050509183525050600d82015463ffffffff8082166020840152600160201b909104166040820152600e8201805460609092019161462090615c63565b80601f016020809104026020016040519081016040528092919081815260200182805461464c90615c63565b80156146995780601f1061466e57610100808354040283529160200191614699565b820191906000526020600020905b81548152906001019060200180831161467c57829003601f168201915b50505050508152602001600f820180546146b290615c63565b80601f01602080910402602001604051908101604052809291908181526020018280546146de90615c63565b801561472b5780601f106147005761010080835404028352916020019161472b565b820191906000526020600020905b81548152906001019060200180831161470e57829003601f168201915b5050505050815260200160108201805461474490615c63565b80601f016020809104026020016040519081016040528092919081815260200182805461477090615c63565b80156147bd5780601f10614792576101008083540402835291602001916147bd565b820191906000526020600020905b8154815290600101906020018083116147a057829003601f168201915b505050505081526020016011820180546147d690615c63565b80601f016020809104026020016040519081016040528092919081815260200182805461480290615c63565b801561484f5780601f106148245761010080835404028352916020019161484f565b820191906000526020600020905b81548152906001019060200180831161483257829003601f168201915b505050918352505060128201546020808301919091526013909201546001600160a01b03166040909101529082526001929092019101614039565b5050505091505092915050565b6001600160a01b03831660009081526002602052604090205460048054879190839081106148d557634e487b7160e01b600052603260045260246000fd5b90600052602060002090600202016001018463ffffffff168154811061490b57634e487b7160e01b600052603260045260246000fd5b9060005260206000209060140201600c01908051906020019061492f929190614f83565b50846004828154811061495257634e487b7160e01b600052603260045260246000fd5b90600052602060002090600202016001018463ffffffff168154811061498857634e487b7160e01b600052603260045260246000fd5b9060005260206000209060140201600b0190805190602001906149ac929190614f83565b5081600482815481106149cf57634e487b7160e01b600052603260045260246000fd5b90600052602060002090600202016001018463ffffffff1681548110614a0557634e487b7160e01b600052603260045260246000fd5b9060005260206000209060140201600d0160006101000a81548163ffffffff021916908363ffffffff160217905550600060048281548110614a5757634e487b7160e01b600052603260045260246000fd5b90600052602060002090600202016001018463ffffffff1681548110614a8d57634e487b7160e01b600052603260045260246000fd5b9060005260206000209060140201600101549050600060048381548110614ac457634e487b7160e01b600052603260045260246000fd5b90600052602060002090600202016001018563ffffffff1681548110614afa57634e487b7160e01b600052603260045260246000fd5b9060005260206000209060140201601201549050600060048481548110614b3157634e487b7160e01b600052603260045260246000fd5b90600052602060002090600202016001018663ffffffff1681548110614b6757634e487b7160e01b600052603260045260246000fd5b60009182526020822060136014909202010154600480546001600160a01b03909216935063ffffffff8816929187908110614bb257634e487b7160e01b600052603260045260246000fd5b90600052602060002090600202016001018863ffffffff1681548110614be857634e487b7160e01b600052603260045260246000fd5b906000526020600020906014020160040160049054906101000a90046001600160a01b031690508160641415614c54576040516001600160a01b038a169086156108fc029087906000818181858888f19350505050158015614c4e573d6000803e3d6000fd5b50614d87565b8160321415614cde576001600160a01b0389166108fc614c75600288615c0d565b6040518115909202916000818181858888f19350505050158015614c9d573d6000803e3d6000fd5b506001600160a01b0381166108fc614cb6600288615c0d565b6040518115909202916000818181858888f19350505050158015614c4e573d6000803e3d6000fd5b6000614ceb836064615c4c565b90506001600160a01b038a166108fc6064614d06868a615c2d565b614d109190615c0d565b6040518115909202916000818181858888f19350505050158015614d38573d6000803e3d6000fd5b506001600160a01b0382166108fc6064614d52848a615c2d565b614d5c9190615c0d565b6040518115909202916000818181858888f19350505050158015614d84573d6000803e3d6000fd5b50505b6040516001600160a01b0384169085156108fc029086906000818181858888f19350505050158015614dbd573d6000803e3d6000fd5b505050505050505050505050565b6001546040516370a0823160e01b815233600482015282916001600160a01b0316906370a082319060240160206040518083038186803b158015614e0e57600080fd5b505afa158015614e22573d6000803e3d6000fd5b505050506040513d601f19601f82011682018060405250810190614e4691906152a8565b1015614e5157600080fd5b6001546040516323b872dd60e01b8152336004820152306024820152604481018390526001600160a01b03909116906323b872dd90606401602060405180830381600087803b158015614ea357600080fd5b505af1158015614eb7573d6000803e3d6000fd5b505050506040513d601f19601f82011682018060405250810190612403919061512c565b60038181548110614eeb57600080fd5b6000918252602090912001546001600160a01b0316905081565b60048054600190810180835560009283528291614f2191615c4c565b90508260048281548110614f4557634e487b7160e01b600052603260045260246000fd5b6000918252602080832060029283020180546001600160a01b0319166001600160a01b03958616179055959092168152935260409092208290555090565b828054614f8f90615c63565b90600052602060002090601f016020900481019282614fb15760008555614ff7565b82601f10614fca57805160ff1916838001178555614ff7565b82800160010185558215614ff7579182015b82811115614ff7578251825591602001919060010190614fdc565b50615003929150615007565b5090565b5b808211156150035760008155600101615008565b80356001600160a01b03811681146123d157600080fd5b80356123d181615cca565b600082601f83011261504e578081fd5b813567ffffffffffffffff8082111561506957615069615cb4565b604051601f8301601f19908116603f0116810190828211818310171561509157615091615cb4565b816040528381528660208588010111156150a9578485fd5b8360208701602083013792830160200193909352509392505050565b803563ffffffff811681146123d157600080fd5b6000602082840312156150ea578081fd5b6150f38261501c565b9392505050565b6000806040838503121561510c578081fd5b6151158361501c565b9150615123602084016150c5565b90509250929050565b60006020828403121561513d578081fd5b81516150f381615cca565b600080600080600060a0868803121561515f578081fd5b853567ffffffffffffffff80821115615176578283fd5b61518289838a0161503e565b96506020880135915080821115615197578283fd5b506151a48882890161503e565b9450506151b36040870161501c565b92506151c1606087016150c5565b91506151cf608087016150c5565b90509295509295909350565b60008060008060008060c087890312156151f3578081fd5b863567ffffffffffffffff8082111561520a578283fd5b6152168a838b0161503e565b9750602089013591508082111561522b578283fd5b6152378a838b0161503e565b965061524560408a0161501c565b955061525360608a016150c5565b945061526160808a016150c5565b935060a0890135915080821115615276578283fd5b5061528389828a0161503e565b9150509295509295509295565b6000602082840312156152a1578081fd5b5035919050565b6000602082840312156152b9578081fd5b5051919050565b600080600080608085870312156152d5578384fd5b84359350602085013567ffffffffffffffff8111156152f2578384fd5b6152fe8782880161503e565b93505061530d604086016150c5565b915061531b6060860161501c565b905092959194509250565b60008060408385031215615338578182fd5b615341836150c5565b91506151236020840161501c565b600080600060608486031215615363578283fd5b61536c846150c5565b925061537a6020850161501c565b9150604084013567ffffffffffffffff811115615395578182fd5b6153a18682870161503e565b9150509250925092565b600080600080600060a086880312156153c2578081fd5b6153cb866150c5565b94506153d96020870161501c565b9350604086013567ffffffffffffffff8111156153f4578182fd5b6154008882890161503e565b935050606086013591506151cf6080870161501c565b6000806000806000806000806000806101408b8d031215615435578788fd5b61543e8b6150c5565b995060208b013567ffffffffffffffff8082111561545a57898afd5b6154668e838f0161503e565b9a5060408d013591508082111561547b57898afd5b6154878e838f0161503e565b995061549560608e016150c5565b98506154a360808e0161501c565b975060a08d01359150808211156154b8578586fd5b6154c48e838f0161503e565b965060c08d01359150808211156154d9578586fd5b6154e58e838f0161503e565b95506154f360e08e016150c5565b94506155026101008e01615033565b93506101208d0135915080821115615518578283fd5b506155258d828e0161503e565b9150509295989b9194979a5092959850565b60008060008060008060008060008060006101608c8e031215615558578485fd5b6155618c6150c5565b9a5060208c0135995067ffffffffffffffff8060408e01351115615583578586fd5b6155938e60408f01358f0161503e565b99508060608e013511156155a5578586fd5b6155b58e60608f01358f0161503e565b98506155c360808e016150c5565b97506155d160a08e0161501c565b96508060c08e013511156155e3578586fd5b6155f38e60c08f01358f0161503e565b95508060e08e01351115615605578182fd5b6156158e60e08f01358f0161503e565b94506156246101008e016150c5565b93506156336101208e01615033565b9250806101408e01351115615646578182fd5b506156588d6101408e01358e0161503e565b90509295989b509295989b9093969950565b60008151808452815b8181101561568f57602081850181015186830182015201615673565b818111156156a05782602083870101525b50601f01601f19169290920160200192915050565b60006020808301818452808551808352604092508286019150828160051b870101848801865b8381101561592357888303603f190185528151805163ffffffff1684526102e088820151898601528782015181898701526157188287018261566a565b91505060608083015186830382880152615732838261566a565b9250505060808083015161574d8288018263ffffffff169052565b505060a0828101516001600160a01b03169086015260c08083015186830382880152615779838261566a565b9250505060e08083015186830382880152615794838261566a565b92505050610100808301516157b08288018263ffffffff169052565b50506101208281015115159086015261014080830151868303828801526157d7838261566a565b9250505061016080830151868303828801526157f3838261566a565b92505050610180808301518683038288015261580f838261566a565b925050506101a0808301518683038288015261582b838261566a565b925050506101c08083015186830382880152615847838261566a565b925050506101e0808301516158638288018263ffffffff169052565b50506102008281015163ffffffff1690860152610220808301518683038288015261588e838261566a565b9250505061024080830151868303828801526158aa838261566a565b9250505061026080830151868303828801526158c6838261566a565b9250505061028080830151868303828801526158e2838261566a565b925050506102a08083015181870152506102c080830151925061590f818701846001600160a01b03169052565b5095880195935050908601906001016156db565b509098975050505050505050565b60006020808301818452808551808352604092508286019150828160051b870101848801865b8381101561592357888303603f19018552815180516001600160a01b0316845287015187840187905280518785018190529088019060609081860190600581901b870183018c5b82811015615be357888203605f190184528551805163ffffffff1683526102e08e8201518f8501528d820151818f8601526159db8286018261566a565b91505086820151848203888601526159f3828261566a565b915050608080830151615a0d8287018263ffffffff169052565b505060a0828101516001600160a01b03169085015260c08083015185830382870152615a39838261566a565b9250505060e08083015185830382870152615a54838261566a565b9250505061010080830151615a708287018263ffffffff169052565b5050610120828101511515908501526101408083015185830382870152615a97838261566a565b925050506101608083015185830382870152615ab3838261566a565b925050506101808083015185830382870152615acf838261566a565b925050506101a08083015185830382870152615aeb838261566a565b925050506101c08083015185830382870152615b07838261566a565b925050506101e080830151615b238287018263ffffffff169052565b50506102008281015163ffffffff16908501526102208083015185830382870152615b4e838261566a565b925050506102408083015185830382870152615b6a838261566a565b925050506102608083015185830382870152615b86838261566a565b925050506102808083015185830382870152615ba2838261566a565b925050506102a08083015181860152506102c0808301519250615bcf818601846001600160a01b03169052565b50968e0196948e019492505060010161599e565b50988b019896505050928801925050600101615957565b6000602082526150f3602083018461566a565b600082615c2857634e487b7160e01b81526012600452602481fd5b500490565b6000816000190483118215151615615c4757615c47615c9e565b500290565b600082821015615c5e57615c5e615c9e565b500390565b600181811c90821680615c7757607f821691505b60208210811415615c9857634e487b7160e01b600052602260045260246000fd5b50919050565b634e487b7160e01b600052601160045260246000fd5b634e487b7160e01b600052604160045260246000fd5b8015158114615cd857600080fd5b5056fea2646970667358221220290524aef88134a4b2b43758e42c0a728f4893c5f64e2c42bd9fb4f5cbaead5d64736f6c63430008030033457468537761702046616972747261646572204d61696e204150702054657374696e67",
  "immutableReferences": {},
  "source": "// SPDX-License-Identifier: MIT\npragma solidity ^0.8.3;\n\nimport \"./Token.sol\";\n\ncontract BuyInvoicesMainAPp {\n    string public name = \"EthSwap Fairtrader Main APp Testing\";\n    Token public token;\n    //\n    mapping(address => uint256) public stakes;\n\n    address[] public stakers;\n    Stakeholder[] public stakeholders;\n\n    // event SmartContractOpenedBuyer(\n    //     uint32 _id,\n    //     string _termsAndCondition,\n    //     string _warrantyFile,\n    //     uint32 _apealTime,\n    //     string _sellerWalletAddress,\n    //     string _invoiceFile,\n    //     string _customerEmail,\n    //     uint32 _mediatorId,\n    //     bool _medAccepted,\n    //     string _friendsEmail\n    // );\n    // event ContractCompletedSeller(\n    //     address indexed user,\n    //     uint256 userIndex,\n    //     address sellerOrUser\n    // );\n\n    struct OrderData {\n        uint32 _orderId;\n        uint256 _amount;\n        string _termsAndCondition;\n        string _warrantyFile;\n        uint32 _apealTime;\n        address _sellerWalletAddress;\n        string _invoiceFile;\n        string _customerEmail;\n        uint32 _mediatorId;\n        bool _medAccepted;\n        string _superMedAcceptedEmail;\n        string _judgeReport;\n        string _judgeReportFile;\n        string _judgeReportFileSuperMed;\n        string _judgeReportSuperMed;\n        uint32 _buyerTakeAmountInPercentSuperMed;\n        uint32 _buyerTakeAmountInPercent;\n        string _friendsEmail;\n        string _appealTime;\n        string _whoCalled;\n        string _whoPaidMediatorFee;\n        uint256 _mediatorFee;\n        address _mediatorWalletAddress;\n    }\n\n    struct Stakeholder {\n        address user;\n        OrderData[] address_stakes;\n    }\n\n    constructor(Token _token) public {\n        // constructor() public {\n        stakeholders.push();\n        token = _token;\n    }\n\n    function getBalance() external view returns (uint256) {\n        return address(this).balance;\n    }\n\n    function exchangeHistoryOfStake()\n        external\n        view\n        returns (Stakeholder[] memory)\n    {\n        return stakeholders;\n    }\n\n    function getAllOrdersOfOneUser(address _userAddress)\n        external\n        view\n        returns (OrderData[] memory)\n    {\n        // require(/* mediator is calling not any other person for security purpose*/);\n        uint256 index = stakes[_userAddress];\n        return stakeholders[index].address_stakes;\n    }\n\n    function medAcceptNewCases(uint32 _index, address buyerWalletAddress)\n        external\n        returns (OrderData[] memory)\n    {\n        // require(/* mediator is calling not any other person for security purpose*/);\n        uint256 index = stakes[buyerWalletAddress];\n        stakeholders[index].address_stakes[_index]._medAccepted = true;\n\n        return stakeholders[index].address_stakes;\n    }\n\n    function payMediatorFee(\n        uint32 _index,\n        address buyerWalletAddress,\n        string memory _whoPaidMediatorFee,\n        uint256 _mediatorFee,\n        address mediatorWalletAddress\n    ) public payable {\n        // returns (OrderData[] memory)\n        uint256 index = stakes[buyerWalletAddress];\n        stakeholders[index]\n            .address_stakes[_index]\n            ._whoPaidMediatorFee = _whoPaidMediatorFee;\n        stakeholders[index].address_stakes[_index]._mediatorFee = _mediatorFee;\n        stakeholders[index].address_stakes[_index]._mediatorWalletAddress = mediatorWalletAddress;\n        // return stakeholders[index].address_stakes;\n    }\n\n    function superMedAcceptNewCases(\n        uint32 _index,\n        address buyerWalletAddress,\n        string memory _superMediatorEmail\n    ) external {\n        // require(/* mediator is calling not any other person for security purpose*/);\n        uint256 index = stakes[buyerWalletAddress];\n        stakeholders[index]\n            .address_stakes[_index]\n            ._superMedAcceptedEmail = _superMediatorEmail;\n    }\n\n    function medJudgeCaseReportSuperMed(\n        string memory _judgeReport,\n        string memory _judgeReportFile,\n        address buyerWalletAddress,\n        uint32 _index,\n        uint32 _buyerTakeAmountInPercent\n    ) external {\n        // returns (OrderData[] memory)\n        // require(/* mediator is calling not any other person for security purpose*/);\n        uint256 index = stakes[buyerWalletAddress];\n        stakeholders[index]\n            .address_stakes[_index]\n            ._judgeReportSuperMed = _judgeReport;\n        stakeholders[index]\n            .address_stakes[_index]\n            ._judgeReportFileSuperMed = _judgeReportFile;\n        stakeholders[index]\n            .address_stakes[_index]\n            ._buyerTakeAmountInPercentSuperMed = _buyerTakeAmountInPercent;\n\n        uint256 amount = stakeholders[index].address_stakes[_index]._amount;\n        uint256 mediatorFee = stakeholders[index].address_stakes[_index]._mediatorFee;\n        address mediatorWalletAddress = stakeholders[index].address_stakes[_index]._mediatorWalletAddress;\n        uint256 buyerTakeAmountInPercent = _buyerTakeAmountInPercent;\n        address sellerWalletAddressOfContract = stakeholders[index]\n            .address_stakes[_index]\n            ._sellerWalletAddress;\n\n        // ADDING CHECK THAT ONLY SELLER ADDRESS IS SAME IN CONTRACT OR SOMEOEN ELSE IS TRYING\n        // string memory sellerAddress = stakeholders[index].address_stakes[_index]._sellerWalletAddress;\n        // require(string(sellerWalletAddress) == sellerAddress);\n\n        if (buyerTakeAmountInPercent == 100) {\n            payable(buyerWalletAddress).transfer(amount);\n        } else if (buyerTakeAmountInPercent == 50) {\n            payable(buyerWalletAddress).transfer(amount / 2);\n            payable(sellerWalletAddressOfContract).transfer(amount / 2);\n        } else {\n            uint256 sellerTakePercent = 100 - buyerTakeAmountInPercent;\n            payable(buyerWalletAddress).transfer(\n                (amount * buyerTakeAmountInPercent) / 100\n            );\n            payable(sellerWalletAddressOfContract).transfer(\n                (amount * sellerTakePercent) / 100\n            );\n        }\n            payable(mediatorWalletAddress).transfer(mediatorFee);\n\n\n        // return stakeholders[index].address_stakes;\n    }\n\n    function medJudgeCaseReport(\n        string memory _judgeReport,\n        string memory _judgeReportFile,\n        address buyerWalletAddress,\n        uint32 _index,\n        uint32 _buyerTakeAmountInPercent,\n        string memory _appealTime\n    ) external returns (OrderData[] memory) {\n        // require(/* mediator is calling not any other person for security purpose*/);\n        uint256 index = stakes[buyerWalletAddress];\n        stakeholders[index].address_stakes[_index]._judgeReport = _judgeReport;\n        stakeholders[index]\n            .address_stakes[_index]\n            ._judgeReportFile = _judgeReportFile;\n        stakeholders[index]\n            .address_stakes[_index]\n            ._buyerTakeAmountInPercent = _buyerTakeAmountInPercent;\n        stakeholders[index].address_stakes[_index]._appealTime = _appealTime;\n\n        return stakeholders[index].address_stakes;\n    }\n\n    function payFeeForSuperMediator(\n        uint256 _amount,\n        string memory _whoIsCalling,\n        uint32 _index,\n        address buyerWalletAddress\n    ) public returns (OrderData[] memory) {\n        // User can't sell more tokens than they have\n        require(token.balanceOf(msg.sender) >= _amount);\n\n        uint256 index = stakes[buyerWalletAddress];\n        stakeholders[index].address_stakes[_index]._whoCalled = _whoIsCalling;\n\n        // Perform sale\n        token.transferFrom(msg.sender, address(this), _amount);\n\n        return stakeholders[index].address_stakes;\n    }\n\n    function payFeeForSuperMediatorr(uint256 _amount) public {\n        // User can't sell more tokens than they have\n        require(token.balanceOf(msg.sender) >= _amount);\n\n        // Perform sale\n        token.transferFrom(msg.sender, address(this), _amount);\n    }\n\n    function mediatorWithDrawFees(uint256 amount)\n        external\n    {\n        payable(msg.sender).transfer(amount);\n    }\n\n    function userWithdrawTheirDisputesOrdersCash(\n        address buyerWalletAddress,\n        uint32 _index\n    ) external returns (OrderData[] memory) {\n        // require(/* mediator is calling not any other person for security purpose*/);\n        uint256 index = stakes[buyerWalletAddress];\n\n        uint256 amount = stakeholders[index].address_stakes[_index]._amount;\n        uint256 buyerTakeAmountInPercent = stakeholders[index]\n            .address_stakes[_index]\n            ._buyerTakeAmountInPercent;\n        address sellerWalletAddressOfContract = stakeholders[index]\n            .address_stakes[_index]\n            ._sellerWalletAddress;\n\n        // ADDING CHECK THAT ONLY SELLER ADDRESS IS SAME IN CONTRACT OR SOMEOEN ELSE IS TRYING\n        // string memory sellerAddress = stakeholders[index].address_stakes[_index]._sellerWalletAddress;\n        // require(string(sellerWalletAddress) == sellerAddress);\n\n        if (msg.sender == buyerWalletAddress) {\n            if (buyerTakeAmountInPercent == 100) {\n                payable(buyerWalletAddress).transfer(amount);\n            } else if (buyerTakeAmountInPercent == 50) {\n                payable(buyerWalletAddress).transfer(amount / 2);\n            } else {\n                payable(buyerWalletAddress).transfer(\n                    (amount * buyerTakeAmountInPercent) / 100\n                );\n            }\n        } else if (msg.sender == sellerWalletAddressOfContract) {\n            if (buyerTakeAmountInPercent == 50) {\n                payable(sellerWalletAddressOfContract).transfer(amount / 2);\n            } else {\n                uint256 sellerTakePercent = 100 - buyerTakeAmountInPercent;\n                payable(sellerWalletAddressOfContract).transfer(\n                    (amount * sellerTakePercent) / 100\n                );\n            }\n        }\n\n        return stakeholders[index].address_stakes;\n    }\n\n    function _addStakeholder(address staker) internal returns (uint256) {\n        stakeholders.push();\n        uint256 userIndex = stakeholders.length - 1;\n        stakeholders[userIndex].user = staker;\n        stakes[staker] = userIndex;\n        return userIndex;\n    }\n\n    function _saveOrdersDataOfUser(\n        uint32 _orderId,\n        uint256 _amount,\n        string memory _termsAndCondition,\n        string memory _warrantyFile,\n        uint32 _apealTime,\n        address _sellerWalletAddress,\n        string memory _invoiceFile,\n        string memory _customerEmail,\n        uint32 _mediatorId,\n        bool _medAccepted,\n        string memory _friendsEmail\n    ) public {\n        // Check that the requested amount of tokens to sell is more than 0\n        // require(_sellerWalletAddress == '', \"seller Wallet Address Cannot nothing\");\n\n        uint256 index = stakes[msg.sender];\n        if (index == 0) {\n            index = _addStakeholder(msg.sender);\n        }\n\n        stakeholders[index].address_stakes.push(\n            OrderData(\n                _orderId,\n                _amount,\n                _termsAndCondition,\n                _warrantyFile,\n                _apealTime,\n                _sellerWalletAddress,\n                _invoiceFile,\n                _customerEmail,\n                _mediatorId,\n                _medAccepted,\n                \"\",\n                \"\",\n                \"\",\n                \"\",\n                \"\",\n                0,\n                0,\n                _friendsEmail,\n                \"\",\n                \"\",\n                \"\",\n                0,\n                // dummy Address of mediator\n                0x2e50a8e498912EF9818F080A43f849C4a58c1A66\n            )\n        );\n    }\n\n    function buyWithFTP(\n        uint32 _orderId,\n        uint256 _amount,\n        string memory _termsAndCondition,\n        string memory _warrantyFile,\n        uint32 _apealTime,\n        address _sellerWalletAddress,\n        string memory _invoiceFile,\n        string memory _customerEmail,\n        uint32 _mediatorId,\n        bool _medAccepted,\n        string memory _friendsEmail\n    ) public {\n        // User can't sell more tokens than they have\n        require(token.balanceOf(msg.sender) >= _amount);\n\n        // Perform sale\n        token.transferFrom(msg.sender, address(this), _amount);\n\n        _saveOrdersDataOfUser(\n            _orderId,\n            _amount,\n            _termsAndCondition,\n            _warrantyFile,\n            _apealTime,\n            _sellerWalletAddress,\n            _invoiceFile,\n            _customerEmail,\n            _mediatorId,\n            _medAccepted,\n            _friendsEmail\n        );\n    }\n\n    // function buyWithUsdt(\n    //     uint32 _orderId,\n    //     uint256 _amount,\n    //     string memory _termsAndCondition,\n    //     string memory _warrantyFile,\n    //     uint32 _apealTime,\n    //     address _sellerWalletAddress,\n    //     string memory _invoiceFile,\n    //     string memory _customerEmail,\n    // uint32 _mediatorId,\n    // bool _medAccepted,\n    //     string memory _friendsEmail\n    // ) public {\n    //     // User can't sell more tokens than they have\n    //     require(usdtToken.balanceOf(msg.sender) >= _amount);\n\n    //     // Perform sale\n    //     usdtToken.transferFrom(msg.sender, address(this), _amount);\n\n    //     _saveOrdersDataOfUser(\n    //         _orderId,\n    //          _amount,\n    //         _termsAndCondition,\n    //         _warrantyFile,\n    //         _apealTime,\n    //         _sellerWalletAddress,\n    //         _invoiceFile,\n    //         _customerEmail,\n    // _mediatorId,\n    // _medAccepted,\n    //         _friendsEmail\n    //     );\n    // }\n\n    function buyWithBNB(\n        uint32 _orderId,\n        string memory _termsAndCondition,\n        string memory _warrantyFile,\n        uint32 _apealTime,\n        address _sellerWalletAddress,\n        string memory _invoiceFile,\n        string memory _customerEmail,\n        uint32 _mediatorId,\n        bool _medAccepted,\n        string memory _friendsEmail\n    ) public payable {\n        // User can't sell more tokens than they have\n        // require(token.balanceOf(msg.sender) >= msg.value);\n\n        // Perform sale\n        // token.transferFrom(msg.sender, address(this), _amount);\n        // address(address(this).transfer(_amount));\n        // token.transfer(address(this), _amount);\n        // token.transferFrom(msg.sender, address(this), _amount);\n\n        _saveOrdersDataOfUser(\n            _orderId,\n            msg.value,\n            _termsAndCondition,\n            _warrantyFile,\n            _apealTime,\n            _sellerWalletAddress,\n            _invoiceFile,\n            _customerEmail,\n            _mediatorId,\n            _medAccepted,\n            _friendsEmail\n        );\n    }\n}\n",
  "sourcePath": "/home/abdullah/Desktop/Fairtrader/FairTrader Main App Smart_Contract/UPGRADECONTRACT...(buy Invoice Main APp)/contracts/BuyInvoicesMainAPp.sol",
  "compiler": {
    "name": "solc",
    "version": "0.8.3+commit.8d00100c.Emscripten.clang"
  },
  "schemaVersion": "3.4.10",
  "updatedAt": "2022-11-10T08:43:32.123Z",
  "networkType": "ethereum",
  "devdoc": {
    "kind": "dev",
    "methods": {},
    "version": 1
  },
  "userdoc": {
    "kind": "user",
    "methods": {},
    "version": 1
  }
}