{
  "contractName": "BuyInvoicesMainAPp",
  "abi": [
    {
      "inputs": [
        {
          "internalType": "contract Token",
          "name": "_token",
          "type": "address"
        }
      ],
      "stateMutability": "nonpayable",
      "type": "constructor"
    },
    {
      "inputs": [],
      "name": "name",
      "outputs": [
        {
          "internalType": "string",
          "name": "",
          "type": "string"
        }
      ],
      "stateMutability": "view",
      "type": "function",
      "constant": true
    },
    {
      "inputs": [
        {
          "internalType": "uint256",
          "name": "",
          "type": "uint256"
        }
      ],
      "name": "stakeholders",
      "outputs": [
        {
          "internalType": "address",
          "name": "user",
          "type": "address"
        }
      ],
      "stateMutability": "view",
      "type": "function",
      "constant": true
    },
    {
      "inputs": [
        {
          "internalType": "uint256",
          "name": "",
          "type": "uint256"
        }
      ],
      "name": "stakers",
      "outputs": [
        {
          "internalType": "address",
          "name": "",
          "type": "address"
        }
      ],
      "stateMutability": "view",
      "type": "function",
      "constant": true
    },
    {
      "inputs": [
        {
          "internalType": "address",
          "name": "",
          "type": "address"
        }
      ],
      "name": "stakes",
      "outputs": [
        {
          "internalType": "uint256",
          "name": "",
          "type": "uint256"
        }
      ],
      "stateMutability": "view",
      "type": "function",
      "constant": true
    },
    {
      "inputs": [],
      "name": "token",
      "outputs": [
        {
          "internalType": "contract Token",
          "name": "",
          "type": "address"
        }
      ],
      "stateMutability": "view",
      "type": "function",
      "constant": true
    },
    {
      "inputs": [],
      "name": "getBalance",
      "outputs": [
        {
          "internalType": "uint256",
          "name": "",
          "type": "uint256"
        }
      ],
      "stateMutability": "view",
      "type": "function",
      "constant": true
    },
    {
      "inputs": [],
      "name": "exchangeHistoryOfStake",
      "outputs": [
        {
          "components": [
            {
              "internalType": "address",
              "name": "user",
              "type": "address"
            },
            {
              "components": [
                {
                  "internalType": "uint32",
                  "name": "_orderId",
                  "type": "uint32"
                },
                {
                  "internalType": "uint256",
                  "name": "_amount",
                  "type": "uint256"
                },
                {
                  "internalType": "string",
                  "name": "_termsAndCondition",
                  "type": "string"
                },
                {
                  "internalType": "string",
                  "name": "_warrantyFile",
                  "type": "string"
                },
                {
                  "internalType": "uint32",
                  "name": "_apealTime",
                  "type": "uint32"
                },
                {
                  "internalType": "string",
                  "name": "_sellerWalletAddress",
                  "type": "string"
                },
                {
                  "internalType": "string",
                  "name": "_invoiceFile",
                  "type": "string"
                },
                {
                  "internalType": "string",
                  "name": "_customerEmail",
                  "type": "string"
                },
                {
                  "internalType": "uint32",
                  "name": "_mediatorId",
                  "type": "uint32"
                },
                {
                  "internalType": "bool",
                  "name": "_medAccepted",
                  "type": "bool"
                },
                {
                  "internalType": "string",
                  "name": "_judgeReport",
                  "type": "string"
                },
                {
                  "internalType": "string",
                  "name": "_judgeReportFile",
                  "type": "string"
                },
                {
                  "internalType": "uint32",
                  "name": "_buyerTakeAmountInPercent",
                  "type": "uint32"
                },
                {
                  "internalType": "string",
                  "name": "_friendsEmail",
                  "type": "string"
                }
              ],
              "internalType": "struct BuyInvoicesMainAPp.OrderData[]",
              "name": "address_stakes",
              "type": "tuple[]"
            }
          ],
          "internalType": "struct BuyInvoicesMainAPp.Stakeholder[]",
          "name": "",
          "type": "tuple[]"
        }
      ],
      "stateMutability": "view",
      "type": "function",
      "constant": true
    },
    {
      "inputs": [
        {
          "internalType": "address",
          "name": "_userAddress",
          "type": "address"
        }
      ],
      "name": "getAllOrdersOfOneUser",
      "outputs": [
        {
          "components": [
            {
              "internalType": "uint32",
              "name": "_orderId",
              "type": "uint32"
            },
            {
              "internalType": "uint256",
              "name": "_amount",
              "type": "uint256"
            },
            {
              "internalType": "string",
              "name": "_termsAndCondition",
              "type": "string"
            },
            {
              "internalType": "string",
              "name": "_warrantyFile",
              "type": "string"
            },
            {
              "internalType": "uint32",
              "name": "_apealTime",
              "type": "uint32"
            },
            {
              "internalType": "string",
              "name": "_sellerWalletAddress",
              "type": "string"
            },
            {
              "internalType": "string",
              "name": "_invoiceFile",
              "type": "string"
            },
            {
              "internalType": "string",
              "name": "_customerEmail",
              "type": "string"
            },
            {
              "internalType": "uint32",
              "name": "_mediatorId",
              "type": "uint32"
            },
            {
              "internalType": "bool",
              "name": "_medAccepted",
              "type": "bool"
            },
            {
              "internalType": "string",
              "name": "_judgeReport",
              "type": "string"
            },
            {
              "internalType": "string",
              "name": "_judgeReportFile",
              "type": "string"
            },
            {
              "internalType": "uint32",
              "name": "_buyerTakeAmountInPercent",
              "type": "uint32"
            },
            {
              "internalType": "string",
              "name": "_friendsEmail",
              "type": "string"
            }
          ],
          "internalType": "struct BuyInvoicesMainAPp.OrderData[]",
          "name": "",
          "type": "tuple[]"
        }
      ],
      "stateMutability": "view",
      "type": "function",
      "constant": true
    },
    {
      "inputs": [
        {
          "internalType": "uint32",
          "name": "_orderId",
          "type": "uint32"
        },
        {
          "internalType": "address",
          "name": "buyerWalletAddress",
          "type": "address"
        }
      ],
      "name": "medAcceptNewCases",
      "outputs": [
        {
          "components": [
            {
              "internalType": "uint32",
              "name": "_orderId",
              "type": "uint32"
            },
            {
              "internalType": "uint256",
              "name": "_amount",
              "type": "uint256"
            },
            {
              "internalType": "string",
              "name": "_termsAndCondition",
              "type": "string"
            },
            {
              "internalType": "string",
              "name": "_warrantyFile",
              "type": "string"
            },
            {
              "internalType": "uint32",
              "name": "_apealTime",
              "type": "uint32"
            },
            {
              "internalType": "string",
              "name": "_sellerWalletAddress",
              "type": "string"
            },
            {
              "internalType": "string",
              "name": "_invoiceFile",
              "type": "string"
            },
            {
              "internalType": "string",
              "name": "_customerEmail",
              "type": "string"
            },
            {
              "internalType": "uint32",
              "name": "_mediatorId",
              "type": "uint32"
            },
            {
              "internalType": "bool",
              "name": "_medAccepted",
              "type": "bool"
            },
            {
              "internalType": "string",
              "name": "_judgeReport",
              "type": "string"
            },
            {
              "internalType": "string",
              "name": "_judgeReportFile",
              "type": "string"
            },
            {
              "internalType": "uint32",
              "name": "_buyerTakeAmountInPercent",
              "type": "uint32"
            },
            {
              "internalType": "string",
              "name": "_friendsEmail",
              "type": "string"
            }
          ],
          "internalType": "struct BuyInvoicesMainAPp.OrderData[]",
          "name": "",
          "type": "tuple[]"
        }
      ],
      "stateMutability": "nonpayable",
      "type": "function"
    },
    {
      "inputs": [
        {
          "internalType": "string",
          "name": "_judgeReport",
          "type": "string"
        },
        {
          "internalType": "string",
          "name": "_judgeReportFile",
          "type": "string"
        },
        {
          "internalType": "address",
          "name": "buyerWalletAddress",
          "type": "address"
        },
        {
          "internalType": "address",
          "name": "sellerWalletAddress",
          "type": "address"
        },
        {
          "internalType": "uint32",
          "name": "_orderId",
          "type": "uint32"
        },
        {
          "internalType": "uint32",
          "name": "_buyerTakeAmountInPercent",
          "type": "uint32"
        }
      ],
      "name": "medJudgeCaseReport",
      "outputs": [
        {
          "components": [
            {
              "internalType": "uint32",
              "name": "_orderId",
              "type": "uint32"
            },
            {
              "internalType": "uint256",
              "name": "_amount",
              "type": "uint256"
            },
            {
              "internalType": "string",
              "name": "_termsAndCondition",
              "type": "string"
            },
            {
              "internalType": "string",
              "name": "_warrantyFile",
              "type": "string"
            },
            {
              "internalType": "uint32",
              "name": "_apealTime",
              "type": "uint32"
            },
            {
              "internalType": "string",
              "name": "_sellerWalletAddress",
              "type": "string"
            },
            {
              "internalType": "string",
              "name": "_invoiceFile",
              "type": "string"
            },
            {
              "internalType": "string",
              "name": "_customerEmail",
              "type": "string"
            },
            {
              "internalType": "uint32",
              "name": "_mediatorId",
              "type": "uint32"
            },
            {
              "internalType": "bool",
              "name": "_medAccepted",
              "type": "bool"
            },
            {
              "internalType": "string",
              "name": "_judgeReport",
              "type": "string"
            },
            {
              "internalType": "string",
              "name": "_judgeReportFile",
              "type": "string"
            },
            {
              "internalType": "uint32",
              "name": "_buyerTakeAmountInPercent",
              "type": "uint32"
            },
            {
              "internalType": "string",
              "name": "_friendsEmail",
              "type": "string"
            }
          ],
          "internalType": "struct BuyInvoicesMainAPp.OrderData[]",
          "name": "",
          "type": "tuple[]"
        }
      ],
      "stateMutability": "nonpayable",
      "type": "function"
    },
    {
      "inputs": [
        {
          "internalType": "uint32",
          "name": "_orderId",
          "type": "uint32"
        },
        {
          "internalType": "uint256",
          "name": "_amount",
          "type": "uint256"
        },
        {
          "internalType": "string",
          "name": "_termsAndCondition",
          "type": "string"
        },
        {
          "internalType": "string",
          "name": "_warrantyFile",
          "type": "string"
        },
        {
          "internalType": "uint32",
          "name": "_apealTime",
          "type": "uint32"
        },
        {
          "internalType": "string",
          "name": "_sellerWalletAddress",
          "type": "string"
        },
        {
          "internalType": "string",
          "name": "_invoiceFile",
          "type": "string"
        },
        {
          "internalType": "string",
          "name": "_customerEmail",
          "type": "string"
        },
        {
          "internalType": "uint32",
          "name": "_mediatorId",
          "type": "uint32"
        },
        {
          "internalType": "bool",
          "name": "_medAccepted",
          "type": "bool"
        },
        {
          "internalType": "string",
          "name": "_friendsEmail",
          "type": "string"
        }
      ],
      "name": "_saveOrdersDataOfUser",
      "outputs": [],
      "stateMutability": "nonpayable",
      "type": "function"
    },
    {
      "inputs": [
        {
          "internalType": "uint32",
          "name": "_orderId",
          "type": "uint32"
        },
        {
          "internalType": "uint256",
          "name": "_amount",
          "type": "uint256"
        },
        {
          "internalType": "string",
          "name": "_termsAndCondition",
          "type": "string"
        },
        {
          "internalType": "string",
          "name": "_warrantyFile",
          "type": "string"
        },
        {
          "internalType": "uint32",
          "name": "_apealTime",
          "type": "uint32"
        },
        {
          "internalType": "string",
          "name": "_sellerWalletAddress",
          "type": "string"
        },
        {
          "internalType": "string",
          "name": "_invoiceFile",
          "type": "string"
        },
        {
          "internalType": "string",
          "name": "_customerEmail",
          "type": "string"
        },
        {
          "internalType": "uint32",
          "name": "_mediatorId",
          "type": "uint32"
        },
        {
          "internalType": "bool",
          "name": "_medAccepted",
          "type": "bool"
        },
        {
          "internalType": "string",
          "name": "_friendsEmail",
          "type": "string"
        }
      ],
      "name": "buyWithFTP",
      "outputs": [],
      "stateMutability": "nonpayable",
      "type": "function"
    },
    {
      "inputs": [
        {
          "internalType": "uint32",
          "name": "_orderId",
          "type": "uint32"
        },
        {
          "internalType": "string",
          "name": "_termsAndCondition",
          "type": "string"
        },
        {
          "internalType": "string",
          "name": "_warrantyFile",
          "type": "string"
        },
        {
          "internalType": "uint32",
          "name": "_apealTime",
          "type": "uint32"
        },
        {
          "internalType": "string",
          "name": "_sellerWalletAddress",
          "type": "string"
        },
        {
          "internalType": "string",
          "name": "_invoiceFile",
          "type": "string"
        },
        {
          "internalType": "string",
          "name": "_customerEmail",
          "type": "string"
        },
        {
          "internalType": "uint32",
          "name": "_mediatorId",
          "type": "uint32"
        },
        {
          "internalType": "bool",
          "name": "_medAccepted",
          "type": "bool"
        },
        {
          "internalType": "string",
          "name": "_friendsEmail",
          "type": "string"
        }
      ],
      "name": "buyWithBNB",
      "outputs": [],
      "stateMutability": "payable",
      "type": "function",
      "payable": true
    }
  ],
  "bytecode": "0x608060405260405180606001604052806023815260200162003b7c602391396000908051906020019062000035929190620000cf565b503480156200004357600080fd5b5060405162003b9f38038062003b9f833981810160405281019062000069919062000196565b60046001816001815401808255809150500390600052602060002090505080600160006101000a81548173ffffffffffffffffffffffffffffffffffffffff021916908373ffffffffffffffffffffffffffffffffffffffff1602179055505062000289565b828054620000dd906200020a565b90600052602060002090601f0160209004810192826200010157600085556200014d565b82601f106200011c57805160ff19168380011785556200014d565b828001600101855582156200014d579182015b828111156200014c5782518255916020019190600101906200012f565b5b5090506200015c919062000160565b5090565b5b808211156200017b57600081600090555060010162000161565b5090565b60008151905062000190816200026f565b92915050565b600060208284031215620001a957600080fd5b6000620001b9848285016200017f565b91505092915050565b6000620001cf82620001ea565b9050919050565b6000620001e382620001c2565b9050919050565b600073ffffffffffffffffffffffffffffffffffffffff82169050919050565b600060028204905060018216806200022357607f821691505b602082108114156200023a576200023962000240565b5b50919050565b7f4e487b7100000000000000000000000000000000000000000000000000000000600052602260045260246000fd5b6200027a81620001d6565b81146200028657600080fd5b50565b6138e380620002996000396000f3fe6080604052600436106100c25760003560e01c80639401230b1161007f578063bb22816811610059578063bb2281681461028e578063bea4e5b8146102aa578063fc0c546a146102e7578063fd5e6dd114610312576100c2565b80639401230b146101fd5780639529441e146102265780639e58f38614610251576100c2565b8063038d4ffa146100c757806306fdde03146100f057806312065fe01461011b57806316934fc4146101465780631d6b8b721461018357806347f3d0c0146101c0575b600080fd5b3480156100d357600080fd5b506100ee60048036038101906100e99190612e32565b61034f565b005b3480156100fc57600080fd5b506101056104d8565b6040516101129190613461565b60405180910390f35b34801561012757600080fd5b50610130610566565b60405161013d9190613483565b60405180910390f35b34801561015257600080fd5b5061016d60048036038101906101689190612b2e565b61056e565b60405161017a9190613483565b60405180910390f35b34801561018f57600080fd5b506101aa60048036038101906101a59190612c39565b610586565b6040516101b791906133b0565b60405180910390f35b3480156101cc57600080fd5b506101e760048036038101906101e29190612b2e565b6105d4565b6040516101f49190613402565b60405180910390f35b34801561020957600080fd5b50610224600480360381019061021f9190612e32565b610c11565b005b34801561023257600080fd5b5061023b610f39565b6040516102489190613424565b60405180910390f35b34801561025d57600080fd5b5061027860048036038101906102739190612b80565b61159b565b6040516102859190613402565b60405180910390f35b6102a860048036038101906102a39190612cc7565b612123565b005b3480156102b657600080fd5b506102d160048036038101906102cc9190612c8b565b612142565b6040516102de9190613402565b60405180910390f35b3480156102f357600080fd5b506102fc612833565b6040516103099190613446565b60405180910390f35b34801561031e57600080fd5b5061033960048036038101906103349190612c39565b612859565b60405161034691906133b0565b60405180910390f35b89600160009054906101000a900473ffffffffffffffffffffffffffffffffffffffff1673ffffffffffffffffffffffffffffffffffffffff166370a08231336040518263ffffffff1660e01b81526004016103ab91906133b0565b60206040518083038186803b1580156103c357600080fd5b505afa1580156103d7573d6000803e3d6000fd5b505050506040513d601f19601f820116820180604052508101906103fb9190612c62565b101561040657600080fd5b600160009054906101000a900473ffffffffffffffffffffffffffffffffffffffff1673ffffffffffffffffffffffffffffffffffffffff166323b872dd33308d6040518463ffffffff1660e01b8152600401610465939291906133cb565b602060405180830381600087803b15801561047f57600080fd5b505af1158015610493573d6000803e3d6000fd5b505050506040513d601f19601f820116820180604052508101906104b79190612b57565b506104cb8b8b8b8b8b8b8b8b8b8b8b610c11565b5050505050505050505050565b600080546104e590613721565b80601f016020809104026020016040519081016040528092919081815260200182805461051190613721565b801561055e5780601f106105335761010080835404028352916020019161055e565b820191906000526020600020905b81548152906001019060200180831161054157829003601f168201915b505050505081565b600047905090565b60026020528060005260406000206000915090505481565b6004818154811061059657600080fd5b90600052602060002090600202016000915090508060000160009054906101000a900473ffffffffffffffffffffffffffffffffffffffff16905081565b60606000600260008473ffffffffffffffffffffffffffffffffffffffff1673ffffffffffffffffffffffffffffffffffffffff16815260200190815260200160002054905060048181548110610654577f4e487b7100000000000000000000000000000000000000000000000000000000600052603260045260246000fd5b9060005260206000209060020201600101805480602002602001604051908101604052809291908181526020016000905b82821015610c0557838290600052602060002090600d0201604051806101c00160405290816000820160009054906101000a900463ffffffff1663ffffffff1663ffffffff168152602001600182015481526020016002820180546106e990613721565b80601f016020809104026020016040519081016040528092919081815260200182805461071590613721565b80156107625780601f1061073757610100808354040283529160200191610762565b820191906000526020600020905b81548152906001019060200180831161074557829003601f168201915b5050505050815260200160038201805461077b90613721565b80601f01602080910402602001604051908101604052809291908181526020018280546107a790613721565b80156107f45780601f106107c9576101008083540402835291602001916107f4565b820191906000526020600020905b8154815290600101906020018083116107d757829003601f168201915b505050505081526020016004820160009054906101000a900463ffffffff1663ffffffff1663ffffffff16815260200160058201805461083390613721565b80601f016020809104026020016040519081016040528092919081815260200182805461085f90613721565b80156108ac5780601f10610881576101008083540402835291602001916108ac565b820191906000526020600020905b81548152906001019060200180831161088f57829003601f168201915b505050505081526020016006820180546108c590613721565b80601f01602080910402602001604051908101604052809291908181526020018280546108f190613721565b801561093e5780601f106109135761010080835404028352916020019161093e565b820191906000526020600020905b81548152906001019060200180831161092157829003601f168201915b5050505050815260200160078201805461095790613721565b80601f016020809104026020016040519081016040528092919081815260200182805461098390613721565b80156109d05780601f106109a5576101008083540402835291602001916109d0565b820191906000526020600020905b8154815290600101906020018083116109b357829003601f168201915b505050505081526020016008820160009054906101000a900463ffffffff1663ffffffff1663ffffffff1681526020016008820160049054906101000a900460ff16151515158152602001600982018054610a2a90613721565b80601f0160208091040260200160405190810160405280929190818152602001828054610a5690613721565b8015610aa35780601f10610a7857610100808354040283529160200191610aa3565b820191906000526020600020905b815481529060010190602001808311610a8657829003601f168201915b50505050508152602001600a82018054610abc90613721565b80601f0160208091040260200160405190810160405280929190818152602001828054610ae890613721565b8015610b355780601f10610b0a57610100808354040283529160200191610b35565b820191906000526020600020905b815481529060010190602001808311610b1857829003601f168201915b50505050508152602001600b820160009054906101000a900463ffffffff1663ffffffff1663ffffffff168152602001600c82018054610b7490613721565b80601f0160208091040260200160405190810160405280929190818152602001828054610ba090613721565b8015610bed5780601f10610bc257610100808354040283529160200191610bed565b820191906000526020600020905b815481529060010190602001808311610bd057829003601f168201915b50505050508152505081526020019060010190610685565b50505050915050919050565b6000600260003373ffffffffffffffffffffffffffffffffffffffff1673ffffffffffffffffffffffffffffffffffffffff1681526020019081526020016000205490506000811415610c6a57610c6733612898565b90505b60048181548110610ca4577f4e487b7100000000000000000000000000000000000000000000000000000000600052603260045260246000fd5b9060005260206000209060020201600101604051806101c001604052808e63ffffffff1681526020018d81526020018c81526020018b81526020018a63ffffffff1681526020018981526020018881526020018781526020018663ffffffff1681526020018515158152602001604051806020016040528060008152508152602001604051806020016040528060008152508152602001600063ffffffff1681526020018481525090806001815401808255809150506001900390600052602060002090600d020160009091909190915060008201518160000160006101000a81548163ffffffff021916908363ffffffff160217905550602082015181600101556040820151816002019080519060200190610dc29291906129a5565b506060820151816003019080519060200190610ddf9291906129a5565b5060808201518160040160006101000a81548163ffffffff021916908363ffffffff16021790555060a0820151816005019080519060200190610e239291906129a5565b5060c0820151816006019080519060200190610e409291906129a5565b5060e0820151816007019080519060200190610e5d9291906129a5565b506101008201518160080160006101000a81548163ffffffff021916908363ffffffff1602179055506101208201518160080160046101000a81548160ff021916908315150217905550610140820151816009019080519060200190610ec49291906129a5565b5061016082015181600a019080519060200190610ee29291906129a5565b5061018082015181600b0160006101000a81548163ffffffff021916908363ffffffff1602179055506101a082015181600c019080519060200190610f289291906129a5565b505050505050505050505050505050565b60606004805480602002602001604051908101604052809291908181526020016000905b8282101561159257838290600052602060002090600202016040518060400160405290816000820160009054906101000a900473ffffffffffffffffffffffffffffffffffffffff1673ffffffffffffffffffffffffffffffffffffffff1673ffffffffffffffffffffffffffffffffffffffff16815260200160018201805480602002602001604051908101604052809291908181526020016000905b8282101561157b57838290600052602060002090600d0201604051806101c00160405290816000820160009054906101000a900463ffffffff1663ffffffff1663ffffffff1681526020016001820154815260200160028201805461105f90613721565b80601f016020809104026020016040519081016040528092919081815260200182805461108b90613721565b80156110d85780601f106110ad576101008083540402835291602001916110d8565b820191906000526020600020905b8154815290600101906020018083116110bb57829003601f168201915b505050505081526020016003820180546110f190613721565b80601f016020809104026020016040519081016040528092919081815260200182805461111d90613721565b801561116a5780601f1061113f5761010080835404028352916020019161116a565b820191906000526020600020905b81548152906001019060200180831161114d57829003601f168201915b505050505081526020016004820160009054906101000a900463ffffffff1663ffffffff1663ffffffff1681526020016005820180546111a990613721565b80601f01602080910402602001604051908101604052809291908181526020018280546111d590613721565b80156112225780601f106111f757610100808354040283529160200191611222565b820191906000526020600020905b81548152906001019060200180831161120557829003601f168201915b5050505050815260200160068201805461123b90613721565b80601f016020809104026020016040519081016040528092919081815260200182805461126790613721565b80156112b45780601f10611289576101008083540402835291602001916112b4565b820191906000526020600020905b81548152906001019060200180831161129757829003601f168201915b505050505081526020016007820180546112cd90613721565b80601f01602080910402602001604051908101604052809291908181526020018280546112f990613721565b80156113465780601f1061131b57610100808354040283529160200191611346565b820191906000526020600020905b81548152906001019060200180831161132957829003601f168201915b505050505081526020016008820160009054906101000a900463ffffffff1663ffffffff1663ffffffff1681526020016008820160049054906101000a900460ff161515151581526020016009820180546113a090613721565b80601f01602080910402602001604051908101604052809291908181526020018280546113cc90613721565b80156114195780601f106113ee57610100808354040283529160200191611419565b820191906000526020600020905b8154815290600101906020018083116113fc57829003601f168201915b50505050508152602001600a8201805461143290613721565b80601f016020809104026020016040519081016040528092919081815260200182805461145e90613721565b80156114ab5780601f10611480576101008083540402835291602001916114ab565b820191906000526020600020905b81548152906001019060200180831161148e57829003601f168201915b50505050508152602001600b820160009054906101000a900463ffffffff1663ffffffff1663ffffffff168152602001600c820180546114ea90613721565b80601f016020809104026020016040519081016040528092919081815260200182805461151690613721565b80156115635780601f1061153857610100808354040283529160200191611563565b820191906000526020600020905b81548152906001019060200180831161154657829003601f168201915b50505050508152505081526020019060010190610ffb565b505050508152505081526020019060010190610f5d565b50505050905090565b60606000600260008773ffffffffffffffffffffffffffffffffffffffff1673ffffffffffffffffffffffffffffffffffffffff168152602001908152602001600020549050876004828154811061161c577f4e487b7100000000000000000000000000000000000000000000000000000000600052603260045260246000fd5b90600052602060002090600202016001018563ffffffff168154811061166b577f4e487b7100000000000000000000000000000000000000000000000000000000600052603260045260246000fd5b90600052602060002090600d0201600901908051906020019061168f9291906129a5565b5086600482815481106116cb577f4e487b7100000000000000000000000000000000000000000000000000000000600052603260045260246000fd5b90600052602060002090600202016001018563ffffffff168154811061171a577f4e487b7100000000000000000000000000000000000000000000000000000000600052603260045260246000fd5b90600052602060002090600d0201600a01908051906020019061173e9291906129a5565b50826004828154811061177a577f4e487b7100000000000000000000000000000000000000000000000000000000600052603260045260246000fd5b90600052602060002090600202016001018563ffffffff16815481106117c9577f4e487b7100000000000000000000000000000000000000000000000000000000600052603260045260246000fd5b90600052602060002090600d0201600b0160006101000a81548163ffffffff021916908363ffffffff160217905550600060048281548110611834577f4e487b7100000000000000000000000000000000000000000000000000000000600052603260045260246000fd5b90600052602060002090600202016001018563ffffffff1681548110611883577f4e487b7100000000000000000000000000000000000000000000000000000000600052603260045260246000fd5b90600052602060002090600d02016001015490506000600483815481106118d3577f4e487b7100000000000000000000000000000000000000000000000000000000600052603260045260246000fd5b90600052602060002090600202016001018663ffffffff1681548110611922577f4e487b7100000000000000000000000000000000000000000000000000000000600052603260045260246000fd5b90600052602060002090600d0201600b0160009054906101000a900463ffffffff1663ffffffff16905060648114156119a1578773ffffffffffffffffffffffffffffffffffffffff166108fc839081150290604051600060405180830381858888f1935050505015801561199b573d6000803e3d6000fd5b50611b25565b6032811415611a55578773ffffffffffffffffffffffffffffffffffffffff166108fc6002846119d191906135a4565b9081150290604051600060405180830381858888f193505050501580156119fc573d6000803e3d6000fd5b508673ffffffffffffffffffffffffffffffffffffffff166108fc600284611a2491906135a4565b9081150290604051600060405180830381858888f19350505050158015611a4f573d6000803e3d6000fd5b50611b24565b6000816064611a64919061362f565b90508873ffffffffffffffffffffffffffffffffffffffff166108fc60648486611a8e91906135d5565b611a9891906135a4565b9081150290604051600060405180830381858888f19350505050158015611ac3573d6000803e3d6000fd5b508773ffffffffffffffffffffffffffffffffffffffff166108fc60648386611aec91906135d5565b611af691906135a4565b9081150290604051600060405180830381858888f19350505050158015611b21573d6000803e3d6000fd5b50505b5b60048381548110611b5f577f4e487b7100000000000000000000000000000000000000000000000000000000600052603260045260246000fd5b9060005260206000209060020201600101805480602002602001604051908101604052809291908181526020016000905b8282101561211057838290600052602060002090600d0201604051806101c00160405290816000820160009054906101000a900463ffffffff1663ffffffff1663ffffffff16815260200160018201548152602001600282018054611bf490613721565b80601f0160208091040260200160405190810160405280929190818152602001828054611c2090613721565b8015611c6d5780601f10611c4257610100808354040283529160200191611c6d565b820191906000526020600020905b815481529060010190602001808311611c5057829003601f168201915b50505050508152602001600382018054611c8690613721565b80601f0160208091040260200160405190810160405280929190818152602001828054611cb290613721565b8015611cff5780601f10611cd457610100808354040283529160200191611cff565b820191906000526020600020905b815481529060010190602001808311611ce257829003601f168201915b505050505081526020016004820160009054906101000a900463ffffffff1663ffffffff1663ffffffff168152602001600582018054611d3e90613721565b80601f0160208091040260200160405190810160405280929190818152602001828054611d6a90613721565b8015611db75780601f10611d8c57610100808354040283529160200191611db7565b820191906000526020600020905b815481529060010190602001808311611d9a57829003601f168201915b50505050508152602001600682018054611dd090613721565b80601f0160208091040260200160405190810160405280929190818152602001828054611dfc90613721565b8015611e495780601f10611e1e57610100808354040283529160200191611e49565b820191906000526020600020905b815481529060010190602001808311611e2c57829003601f168201915b50505050508152602001600782018054611e6290613721565b80601f0160208091040260200160405190810160405280929190818152602001828054611e8e90613721565b8015611edb5780601f10611eb057610100808354040283529160200191611edb565b820191906000526020600020905b815481529060010190602001808311611ebe57829003601f168201915b505050505081526020016008820160009054906101000a900463ffffffff1663ffffffff1663ffffffff1681526020016008820160049054906101000a900460ff16151515158152602001600982018054611f3590613721565b80601f0160208091040260200160405190810160405280929190818152602001828054611f6190613721565b8015611fae5780601f10611f8357610100808354040283529160200191611fae565b820191906000526020600020905b815481529060010190602001808311611f9157829003601f168201915b50505050508152602001600a82018054611fc790613721565b80601f0160208091040260200160405190810160405280929190818152602001828054611ff390613721565b80156120405780601f1061201557610100808354040283529160200191612040565b820191906000526020600020905b81548152906001019060200180831161202357829003601f168201915b50505050508152602001600b820160009054906101000a900463ffffffff1663ffffffff1663ffffffff168152602001600c8201805461207f90613721565b80601f01602080910402602001604051908101604052809291908181526020018280546120ab90613721565b80156120f85780601f106120cd576101008083540402835291602001916120f8565b820191906000526020600020905b8154815290600101906020018083116120db57829003601f168201915b50505050508152505081526020019060010190611b90565b5050505093505050509695505050505050565b6121368a348b8b8b8b8b8b8b8b8b610c11565b50505050505050505050565b60606000600260008473ffffffffffffffffffffffffffffffffffffffff1673ffffffffffffffffffffffffffffffffffffffff1681526020019081526020016000205490506001600482815481106121c4577f4e487b7100000000000000000000000000000000000000000000000000000000600052603260045260246000fd5b90600052602060002090600202016001018563ffffffff1681548110612213577f4e487b7100000000000000000000000000000000000000000000000000000000600052603260045260246000fd5b90600052602060002090600d020160080160046101000a81548160ff02191690831515021790555060048181548110612275577f4e487b7100000000000000000000000000000000000000000000000000000000600052603260045260246000fd5b9060005260206000209060020201600101805480602002602001604051908101604052809291908181526020016000905b8282101561282657838290600052602060002090600d0201604051806101c00160405290816000820160009054906101000a900463ffffffff1663ffffffff1663ffffffff1681526020016001820154815260200160028201805461230a90613721565b80601f016020809104026020016040519081016040528092919081815260200182805461233690613721565b80156123835780601f1061235857610100808354040283529160200191612383565b820191906000526020600020905b81548152906001019060200180831161236657829003601f168201915b5050505050815260200160038201805461239c90613721565b80601f01602080910402602001604051908101604052809291908181526020018280546123c890613721565b80156124155780601f106123ea57610100808354040283529160200191612415565b820191906000526020600020905b8154815290600101906020018083116123f857829003601f168201915b505050505081526020016004820160009054906101000a900463ffffffff1663ffffffff1663ffffffff16815260200160058201805461245490613721565b80601f016020809104026020016040519081016040528092919081815260200182805461248090613721565b80156124cd5780601f106124a2576101008083540402835291602001916124cd565b820191906000526020600020905b8154815290600101906020018083116124b057829003601f168201915b505050505081526020016006820180546124e690613721565b80601f016020809104026020016040519081016040528092919081815260200182805461251290613721565b801561255f5780601f106125345761010080835404028352916020019161255f565b820191906000526020600020905b81548152906001019060200180831161254257829003601f168201915b5050505050815260200160078201805461257890613721565b80601f01602080910402602001604051908101604052809291908181526020018280546125a490613721565b80156125f15780601f106125c6576101008083540402835291602001916125f1565b820191906000526020600020905b8154815290600101906020018083116125d457829003601f168201915b505050505081526020016008820160009054906101000a900463ffffffff1663ffffffff1663ffffffff1681526020016008820160049054906101000a900460ff1615151515815260200160098201805461264b90613721565b80601f016020809104026020016040519081016040528092919081815260200182805461267790613721565b80156126c45780601f10612699576101008083540402835291602001916126c4565b820191906000526020600020905b8154815290600101906020018083116126a757829003601f168201915b50505050508152602001600a820180546126dd90613721565b80601f016020809104026020016040519081016040528092919081815260200182805461270990613721565b80156127565780601f1061272b57610100808354040283529160200191612756565b820191906000526020600020905b81548152906001019060200180831161273957829003601f168201915b50505050508152602001600b820160009054906101000a900463ffffffff1663ffffffff1663ffffffff168152602001600c8201805461279590613721565b80601f01602080910402602001604051908101604052809291908181526020018280546127c190613721565b801561280e5780601f106127e35761010080835404028352916020019161280e565b820191906000526020600020905b8154815290600101906020018083116127f157829003601f168201915b505050505081525050815260200190600101906122a6565b5050505091505092915050565b600160009054906101000a900473ffffffffffffffffffffffffffffffffffffffff1681565b6003818154811061286957600080fd5b906000526020600020016000915054906101000a900473ffffffffffffffffffffffffffffffffffffffff1681565b6000600460018160018154018082558091505003906000526020600020905050600060016004805490506128cc919061362f565b90508260048281548110612909577f4e487b7100000000000000000000000000000000000000000000000000000000600052603260045260246000fd5b906000526020600020906002020160000160006101000a81548173ffffffffffffffffffffffffffffffffffffffff021916908373ffffffffffffffffffffffffffffffffffffffff16021790555080600260008573ffffffffffffffffffffffffffffffffffffffff1673ffffffffffffffffffffffffffffffffffffffff1681526020019081526020016000208190555080915050919050565b8280546129b190613721565b90600052602060002090601f0160209004810192826129d35760008555612a1a565b82601f106129ec57805160ff1916838001178555612a1a565b82800160010185558215612a1a579182015b82811115612a195782518255916020019190600101906129fe565b5b509050612a279190612a2b565b5090565b5b80821115612a44576000816000905550600101612a2c565b5090565b6000612a5b612a56846134c3565b61349e565b905082815260208101848484011115612a7357600080fd5b612a7e8482856136df565b509392505050565b600081359050612a9581613851565b92915050565b600081359050612aaa81613868565b92915050565b600081519050612abf81613868565b92915050565b600082601f830112612ad657600080fd5b8135612ae6848260208601612a48565b91505092915050565b600081359050612afe8161387f565b92915050565b600081519050612b138161387f565b92915050565b600081359050612b2881613896565b92915050565b600060208284031215612b4057600080fd5b6000612b4e84828501612a86565b91505092915050565b600060208284031215612b6957600080fd5b6000612b7784828501612ab0565b91505092915050565b60008060008060008060c08789031215612b9957600080fd5b600087013567ffffffffffffffff811115612bb357600080fd5b612bbf89828a01612ac5565b965050602087013567ffffffffffffffff811115612bdc57600080fd5b612be889828a01612ac5565b9550506040612bf989828a01612a86565b9450506060612c0a89828a01612a86565b9350506080612c1b89828a01612b19565b92505060a0612c2c89828a01612b19565b9150509295509295509295565b600060208284031215612c4b57600080fd5b6000612c5984828501612aef565b91505092915050565b600060208284031215612c7457600080fd5b6000612c8284828501612b04565b91505092915050565b60008060408385031215612c9e57600080fd5b6000612cac85828601612b19565b9250506020612cbd85828601612a86565b9150509250929050565b6000806000806000806000806000806101408b8d031215612ce757600080fd5b6000612cf58d828e01612b19565b9a505060208b013567ffffffffffffffff811115612d1257600080fd5b612d1e8d828e01612ac5565b99505060408b013567ffffffffffffffff811115612d3b57600080fd5b612d478d828e01612ac5565b9850506060612d588d828e01612b19565b97505060808b013567ffffffffffffffff811115612d7557600080fd5b612d818d828e01612ac5565b96505060a08b013567ffffffffffffffff811115612d9e57600080fd5b612daa8d828e01612ac5565b95505060c08b013567ffffffffffffffff811115612dc757600080fd5b612dd38d828e01612ac5565b94505060e0612de48d828e01612b19565b935050610100612df68d828e01612a9b565b9250506101208b013567ffffffffffffffff811115612e1457600080fd5b612e208d828e01612ac5565b9150509295989b9194979a5092959850565b60008060008060008060008060008060006101608c8e031215612e5457600080fd5b6000612e628e828f01612b19565b9b50506020612e738e828f01612aef565b9a505060408c013567ffffffffffffffff811115612e9057600080fd5b612e9c8e828f01612ac5565b99505060608c013567ffffffffffffffff811115612eb957600080fd5b612ec58e828f01612ac5565b9850506080612ed68e828f01612b19565b97505060a08c013567ffffffffffffffff811115612ef357600080fd5b612eff8e828f01612ac5565b96505060c08c013567ffffffffffffffff811115612f1c57600080fd5b612f288e828f01612ac5565b95505060e08c013567ffffffffffffffff811115612f4557600080fd5b612f518e828f01612ac5565b945050610100612f638e828f01612b19565b935050610120612f758e828f01612a9b565b9250506101408c013567ffffffffffffffff811115612f9357600080fd5b612f9f8e828f01612ac5565b9150509295989b509295989b9093969950565b6000612fbe83836131e7565b905092915050565b6000612fd28383613346565b905092915050565b612fe381613663565b82525050565b612ff281613663565b82525050565b600061300382613514565b61300d818561354f565b93508360208202850161301f856134f4565b8060005b8581101561305b578484038952815161303c8582612fb2565b945061304783613535565b925060208a01995050600181019050613023565b50829750879550505050505092915050565b600061307882613514565b6130828185613560565b935083602082028501613094856134f4565b8060005b858110156130d057848403895281516130b18582612fb2565b94506130bc83613535565b925060208a01995050600181019050613098565b50829750879550505050505092915050565b60006130ed8261351f565b6130f78185613571565b93508360208202850161310985613504565b8060005b8581101561314557848403895281516131268582612fc6565b945061313183613542565b925060208a0199505060018101905061310d565b50829750879550505050505092915050565b61316081613675565b82525050565b61316f816136bb565b82525050565b60006131808261352a565b61318a8185613582565b935061319a8185602086016136ee565b6131a381613840565b840191505092915050565b60006131b98261352a565b6131c38185613593565b93506131d38185602086016136ee565b6131dc81613840565b840191505092915050565b60006101c08301600083015161320060008601826133a1565b5060208301516132136020860182613383565b506040830151848203604086015261322b8282613175565b915050606083015184820360608601526132458282613175565b915050608083015161325a60808601826133a1565b5060a083015184820360a08601526132728282613175565b91505060c083015184820360c086015261328c8282613175565b91505060e083015184820360e08601526132a68282613175565b9150506101008301516132bd6101008601826133a1565b506101208301516132d2610120860182613157565b506101408301518482036101408601526132ec8282613175565b9150506101608301518482036101608601526133088282613175565b91505061018083015161331f6101808601826133a1565b506101a08301518482036101a08601526133398282613175565b9150508091505092915050565b600060408301600083015161335e6000860182612fda565b50602083015184820360208601526133768282612ff8565b9150508091505092915050565b61338c816136a1565b82525050565b61339b816136a1565b82525050565b6133aa816136ab565b82525050565b60006020820190506133c56000830184612fe9565b92915050565b60006060820190506133e06000830186612fe9565b6133ed6020830185612fe9565b6133fa6040830184613392565b949350505050565b6000602082019050818103600083015261341c818461306d565b905092915050565b6000602082019050818103600083015261343e81846130e2565b905092915050565b600060208201905061345b6000830184613166565b92915050565b6000602082019050818103600083015261347b81846131ae565b905092915050565b60006020820190506134986000830184613392565b92915050565b60006134a86134b9565b90506134b48282613753565b919050565b6000604051905090565b600067ffffffffffffffff8211156134de576134dd613811565b5b6134e782613840565b9050602081019050919050565b6000819050602082019050919050565b6000819050602082019050919050565b600081519050919050565b600081519050919050565b600081519050919050565b6000602082019050919050565b6000602082019050919050565b600082825260208201905092915050565b600082825260208201905092915050565b600082825260208201905092915050565b600082825260208201905092915050565b600082825260208201905092915050565b60006135af826136a1565b91506135ba836136a1565b9250826135ca576135c96137b3565b5b828204905092915050565b60006135e0826136a1565b91506135eb836136a1565b9250817fffffffffffffffffffffffffffffffffffffffffffffffffffffffffffffffff048311821515161561362457613623613784565b5b828202905092915050565b600061363a826136a1565b9150613645836136a1565b92508282101561365857613657613784565b5b828203905092915050565b600061366e82613681565b9050919050565b60008115159050919050565b600073ffffffffffffffffffffffffffffffffffffffff82169050919050565b6000819050919050565b600063ffffffff82169050919050565b60006136c6826136cd565b9050919050565b60006136d882613681565b9050919050565b82818337600083830152505050565b60005b8381101561370c5780820151818401526020810190506136f1565b8381111561371b576000848401525b50505050565b6000600282049050600182168061373957607f821691505b6020821081141561374d5761374c6137e2565b5b50919050565b61375c82613840565b810181811067ffffffffffffffff8211171561377b5761377a613811565b5b80604052505050565b7f4e487b7100000000000000000000000000000000000000000000000000000000600052601160045260246000fd5b7f4e487b7100000000000000000000000000000000000000000000000000000000600052601260045260246000fd5b7f4e487b7100000000000000000000000000000000000000000000000000000000600052602260045260246000fd5b7f4e487b7100000000000000000000000000000000000000000000000000000000600052604160045260246000fd5b6000601f19601f8301169050919050565b61385a81613663565b811461386557600080fd5b50565b61387181613675565b811461387c57600080fd5b50565b613888816136a1565b811461389357600080fd5b50565b61389f816136ab565b81146138aa57600080fd5b5056fea26469706673582212200eb63919dec14a5fcc163cc49b64d8ab838dc31fba485c9beaee501eb0a86f0d64736f6c63430008030033457468537761702046616972747261646572204d61696e204150702054657374696e67",
  "immutableReferences": {},
  "source": "// SPDX-License-Identifier: MIT\npragma solidity ^0.8.3;\n\nimport \"./Token.sol\";\n\ncontract BuyInvoicesMainAPp {\n    string public name = \"EthSwap Fairtrader Main APp Testing\";\n    Token public token;\n    //\n    mapping(address => uint256) public stakes;\n\n    address[] public stakers;\n    Stakeholder[] public stakeholders;\n\n    // event SmartContractOpenedBuyer(\n    //     uint32 _id,\n    //     string _termsAndCondition,\n    //     string _warrantyFile,\n    //     uint32 _apealTime,\n    //     string _sellerWalletAddress,\n    //     string _invoiceFile,\n    //     string _customerEmail,\n    //     uint32 _mediatorId,\n    //     bool _medAccepted,\n    //     string _friendsEmail\n    // );\n    // event ContractCompletedSeller(\n    //     address indexed user,\n    //     uint256 userIndex,\n    //     address sellerOrUser\n    // );\n\n    struct OrderData {\n        uint32 _orderId;\n        uint256 _amount;\n        string _termsAndCondition;\n        string _warrantyFile;\n        uint32 _apealTime;\n        string _sellerWalletAddress;\n        string _invoiceFile;\n        string _customerEmail;\n        uint32 _mediatorId;\n        bool _medAccepted;\n        string _judgeReport;\n        string _judgeReportFile;\n        uint32 _buyerTakeAmountInPercent;\n        string _friendsEmail;\n    }\n\n    struct Stakeholder {\n        address user;\n        OrderData[] address_stakes;\n    }\n\n    constructor(Token _token) public {\n        // constructor() public {\n        stakeholders.push();\n        token = _token;\n    }\n\n    function getBalance() external view returns (uint256) {\n        return address(this).balance;\n    }\n\n    function exchangeHistoryOfStake()\n        external\n        view\n        returns (Stakeholder[] memory)\n    {\n        return stakeholders;\n    }\n\n    function getAllOrdersOfOneUser(address _userAddress)\n        external\n        view\n        returns (OrderData[] memory)\n    {\n        // require(/* mediator is calling not any other person for security purpose*/);\n        uint256 index = stakes[_userAddress];\n        return stakeholders[index].address_stakes;\n    }\n\n    function medAcceptNewCases(uint32 _orderId, address buyerWalletAddress)\n        external\n        returns (OrderData[] memory)\n    {\n        // require(/* mediator is calling not any other person for security purpose*/);\n        uint256 index = stakes[buyerWalletAddress];\n        stakeholders[index].address_stakes[_orderId]._medAccepted = true;\n\n        return stakeholders[index].address_stakes;\n    }\n    \n     function medJudgeCaseReport(string memory _judgeReport, string memory _judgeReportFile, address buyerWalletAddress, address sellerWalletAddress, uint32 _orderId, uint32 _buyerTakeAmountInPercent)\n        external\n        returns (OrderData[] memory)\n    {\n        // require(/* mediator is calling not any other person for security purpose*/);\n        uint256 index = stakes[buyerWalletAddress];\n        stakeholders[index].address_stakes[_orderId]._judgeReport = _judgeReport;\n        stakeholders[index].address_stakes[_orderId]._judgeReportFile = _judgeReportFile;\n        stakeholders[index].address_stakes[_orderId]._buyerTakeAmountInPercent = _buyerTakeAmountInPercent;\n\n        uint amount =  stakeholders[index].address_stakes[_orderId]._amount;\n        uint buyerTakeAmountInPercent = stakeholders[index].address_stakes[_orderId]._buyerTakeAmountInPercent;\n\n        // ADDING CHECK THAT ONLY SELLER ADDRESS IS SAME IN CONTRACT OR SOMEOEN ELSE IS TRYING\n        // string memory sellerAddress = stakeholders[index].address_stakes[_orderId]._sellerWalletAddress;\n        // require(string(sellerWalletAddress) == sellerAddress);\n\n        if (buyerTakeAmountInPercent == 100) {\n            payable(buyerWalletAddress).transfer(amount);\n            \n        } else if(buyerTakeAmountInPercent == 50) {\n            payable(buyerWalletAddress).transfer(amount / 2);\n            payable(sellerWalletAddress).transfer(amount / 2);\n        } else {\n            uint256 sellerTakePercent = 100 - buyerTakeAmountInPercent;\n            payable(buyerWalletAddress).transfer(amount * buyerTakeAmountInPercent / 100);\n            payable(sellerWalletAddress).transfer(amount * sellerTakePercent / 100);\n        }\n\n        return stakeholders[index].address_stakes;\n    }\n\n    function _addStakeholder(address staker) internal returns (uint256) {\n        stakeholders.push();\n        uint256 userIndex = stakeholders.length - 1;\n        stakeholders[userIndex].user = staker;\n        stakes[staker] = userIndex;\n        return userIndex;\n    }\n\n    function _saveOrdersDataOfUser(\n        uint32 _orderId,\n        uint256 _amount,\n        string memory _termsAndCondition,\n        string memory _warrantyFile,\n        uint32 _apealTime,\n        string memory _sellerWalletAddress,\n        string memory _invoiceFile,\n        string memory _customerEmail,\n        uint32 _mediatorId,\n        bool _medAccepted,\n        string memory _friendsEmail\n    ) public {\n        // Check that the requested amount of tokens to sell is more than 0\n        // require(_sellerWalletAddress == '', \"seller Wallet Address Cannot nothing\");\n\n        uint256 index = stakes[msg.sender];\n        if (index == 0) {\n            index = _addStakeholder(msg.sender);\n        }\n\n        stakeholders[index].address_stakes.push(\n            OrderData(\n                _orderId,\n                _amount,\n                _termsAndCondition,\n                _warrantyFile,\n                _apealTime,\n                _sellerWalletAddress,\n                _invoiceFile,\n                _customerEmail,\n                _mediatorId,\n                _medAccepted,\n                \"\",\n                \"\",\n                0,\n                _friendsEmail\n            )\n        );\n    }\n\n    function buyWithFTP(\n        uint32 _orderId,\n        uint256 _amount,\n        string memory _termsAndCondition,\n        string memory _warrantyFile,\n        uint32 _apealTime,\n        string memory _sellerWalletAddress,\n        string memory _invoiceFile,\n        string memory _customerEmail,\n        uint32 _mediatorId,\n        bool _medAccepted,\n        string memory _friendsEmail\n    ) public {\n        // User can't sell more tokens than they have\n        require(token.balanceOf(msg.sender) >= _amount);\n\n        // Perform sale\n        token.transferFrom(msg.sender, address(this), _amount);\n\n        _saveOrdersDataOfUser(\n            _orderId,\n            _amount,\n            _termsAndCondition,\n            _warrantyFile,\n            _apealTime,\n            _sellerWalletAddress,\n            _invoiceFile,\n            _customerEmail,\n            _mediatorId,\n            _medAccepted,\n            _friendsEmail\n        );\n    }\n\n    // function buyWithUsdt(\n    //     uint32 _orderId,\n    //     uint256 _amount,\n    //     string memory _termsAndCondition,\n    //     string memory _warrantyFile,\n    //     uint32 _apealTime,\n    //     string memory _sellerWalletAddress,\n    //     string memory _invoiceFile,\n    //     string memory _customerEmail,\n    // uint32 _mediatorId,\n    // bool _medAccepted,\n    //     string memory _friendsEmail\n    // ) public {\n    //     // User can't sell more tokens than they have\n    //     require(usdtToken.balanceOf(msg.sender) >= _amount);\n\n    //     // Perform sale\n    //     usdtToken.transferFrom(msg.sender, address(this), _amount);\n\n    //     _saveOrdersDataOfUser(\n    //         _orderId,\n    //          _amount,\n    //         _termsAndCondition,\n    //         _warrantyFile,\n    //         _apealTime,\n    //         _sellerWalletAddress,\n    //         _invoiceFile,\n    //         _customerEmail,\n    // _mediatorId,\n    // _medAccepted,\n    //         _friendsEmail\n    //     );\n    // }\n\n    function buyWithBNB(\n        uint32 _orderId,\n        string memory _termsAndCondition,\n        string memory _warrantyFile,\n        uint32 _apealTime,\n        string memory _sellerWalletAddress,\n        string memory _invoiceFile,\n        string memory _customerEmail,\n        uint32 _mediatorId,\n        bool _medAccepted,\n        string memory _friendsEmail\n    ) public payable {\n        // User can't sell more tokens than they have\n        // require(token.balanceOf(msg.sender) >= msg.value);\n\n        // Perform sale\n        // token.transferFrom(msg.sender, address(this), _amount);\n        // address(address(this).transfer(_amount));\n        // token.transfer(address(this), _amount);\n        // token.transferFrom(msg.sender, address(this), _amount);\n\n        _saveOrdersDataOfUser(\n            _orderId,\n            msg.value,\n            _termsAndCondition,\n            _warrantyFile,\n            _apealTime,\n            _sellerWalletAddress,\n            _invoiceFile,\n            _customerEmail,\n            _mediatorId,\n            _medAccepted,\n            _friendsEmail\n        );\n    }\n}\n",
  "sourcePath": "/home/abdullah/Desktop/Fairtrader/FairTrader Main App Smart_Contract/UPGRADECONTRACT...(buy Invoice Main APp)/contracts/BuyInvoicesMainAPp.sol",
  "compiler": {
    "name": "solc",
    "version": "0.8.3+commit.8d00100c.Emscripten.clang"
  },
  "schemaVersion": "3.4.10",
  "updatedAt": "2022-10-24T09:17:45.789Z",
  "networkType": "ethereum",
  "devdoc": {
    "kind": "dev",
    "methods": {},
    "version": 1
  },
  "userdoc": {
    "kind": "user",
    "methods": {},
    "version": 1
  }
}