{
  "contractName": "BuyInvoicesMainAPp",
  "abi": [
    {
      "inputs": [
        {
          "internalType": "contract Token",
          "name": "_token",
          "type": "address"
        }
      ],
      "stateMutability": "nonpayable",
      "type": "constructor"
    },
    {
      "inputs": [],
      "name": "name",
      "outputs": [
        {
          "internalType": "string",
          "name": "",
          "type": "string"
        }
      ],
      "stateMutability": "view",
      "type": "function",
      "constant": true
    },
    {
      "inputs": [
        {
          "internalType": "uint256",
          "name": "",
          "type": "uint256"
        }
      ],
      "name": "stakeholders",
      "outputs": [
        {
          "internalType": "address",
          "name": "user",
          "type": "address"
        }
      ],
      "stateMutability": "view",
      "type": "function",
      "constant": true
    },
    {
      "inputs": [
        {
          "internalType": "uint256",
          "name": "",
          "type": "uint256"
        }
      ],
      "name": "stakers",
      "outputs": [
        {
          "internalType": "address",
          "name": "",
          "type": "address"
        }
      ],
      "stateMutability": "view",
      "type": "function",
      "constant": true
    },
    {
      "inputs": [
        {
          "internalType": "address",
          "name": "",
          "type": "address"
        }
      ],
      "name": "stakes",
      "outputs": [
        {
          "internalType": "uint256",
          "name": "",
          "type": "uint256"
        }
      ],
      "stateMutability": "view",
      "type": "function",
      "constant": true
    },
    {
      "inputs": [],
      "name": "token",
      "outputs": [
        {
          "internalType": "contract Token",
          "name": "",
          "type": "address"
        }
      ],
      "stateMutability": "view",
      "type": "function",
      "constant": true
    },
    {
      "inputs": [],
      "name": "getBalance",
      "outputs": [
        {
          "internalType": "uint256",
          "name": "",
          "type": "uint256"
        }
      ],
      "stateMutability": "view",
      "type": "function",
      "constant": true
    },
    {
      "inputs": [],
      "name": "exchangeHistoryOfStake",
      "outputs": [
        {
          "components": [
            {
              "internalType": "address",
              "name": "user",
              "type": "address"
            },
            {
              "components": [
                {
                  "internalType": "uint32",
                  "name": "_orderId",
                  "type": "uint32"
                },
                {
                  "internalType": "uint256",
                  "name": "_amount",
                  "type": "uint256"
                },
                {
                  "internalType": "string",
                  "name": "_termsAndCondition",
                  "type": "string"
                },
                {
                  "internalType": "string",
                  "name": "_warrantyFile",
                  "type": "string"
                },
                {
                  "internalType": "uint32",
                  "name": "_apealTime",
                  "type": "uint32"
                },
                {
                  "internalType": "address",
                  "name": "_sellerWalletAddress",
                  "type": "address"
                },
                {
                  "internalType": "string",
                  "name": "_invoiceFile",
                  "type": "string"
                },
                {
                  "internalType": "string",
                  "name": "_customerEmail",
                  "type": "string"
                },
                {
                  "internalType": "uint32",
                  "name": "_mediatorId",
                  "type": "uint32"
                },
                {
                  "internalType": "bool",
                  "name": "_medAccepted",
                  "type": "bool"
                },
                {
                  "internalType": "string",
                  "name": "_superMedAcceptedEmail",
                  "type": "string"
                },
                {
                  "internalType": "string",
                  "name": "_judgeReport",
                  "type": "string"
                },
                {
                  "internalType": "string",
                  "name": "_judgeReportFile",
                  "type": "string"
                },
                {
                  "internalType": "string",
                  "name": "_judgeReportFileSuperMed",
                  "type": "string"
                },
                {
                  "internalType": "string",
                  "name": "_judgeReportSuperMed",
                  "type": "string"
                },
                {
                  "internalType": "uint32",
                  "name": "_buyerTakeAmountInPercentSuperMed",
                  "type": "uint32"
                },
                {
                  "internalType": "uint32",
                  "name": "_buyerTakeAmountInPercent",
                  "type": "uint32"
                },
                {
                  "internalType": "string",
                  "name": "_friendsEmail",
                  "type": "string"
                },
                {
                  "internalType": "string",
                  "name": "_appealTime",
                  "type": "string"
                },
                {
                  "internalType": "string",
                  "name": "_whoCalled",
                  "type": "string"
                },
                {
                  "internalType": "string",
                  "name": "_whoPaidMediatorFee",
                  "type": "string"
                },
                {
                  "internalType": "uint32",
                  "name": "_mediatorFee",
                  "type": "uint32"
                }
              ],
              "internalType": "struct BuyInvoicesMainAPp.OrderData[]",
              "name": "address_stakes",
              "type": "tuple[]"
            }
          ],
          "internalType": "struct BuyInvoicesMainAPp.Stakeholder[]",
          "name": "",
          "type": "tuple[]"
        }
      ],
      "stateMutability": "view",
      "type": "function",
      "constant": true
    },
    {
      "inputs": [
        {
          "internalType": "address",
          "name": "_userAddress",
          "type": "address"
        }
      ],
      "name": "getAllOrdersOfOneUser",
      "outputs": [
        {
          "components": [
            {
              "internalType": "uint32",
              "name": "_orderId",
              "type": "uint32"
            },
            {
              "internalType": "uint256",
              "name": "_amount",
              "type": "uint256"
            },
            {
              "internalType": "string",
              "name": "_termsAndCondition",
              "type": "string"
            },
            {
              "internalType": "string",
              "name": "_warrantyFile",
              "type": "string"
            },
            {
              "internalType": "uint32",
              "name": "_apealTime",
              "type": "uint32"
            },
            {
              "internalType": "address",
              "name": "_sellerWalletAddress",
              "type": "address"
            },
            {
              "internalType": "string",
              "name": "_invoiceFile",
              "type": "string"
            },
            {
              "internalType": "string",
              "name": "_customerEmail",
              "type": "string"
            },
            {
              "internalType": "uint32",
              "name": "_mediatorId",
              "type": "uint32"
            },
            {
              "internalType": "bool",
              "name": "_medAccepted",
              "type": "bool"
            },
            {
              "internalType": "string",
              "name": "_superMedAcceptedEmail",
              "type": "string"
            },
            {
              "internalType": "string",
              "name": "_judgeReport",
              "type": "string"
            },
            {
              "internalType": "string",
              "name": "_judgeReportFile",
              "type": "string"
            },
            {
              "internalType": "string",
              "name": "_judgeReportFileSuperMed",
              "type": "string"
            },
            {
              "internalType": "string",
              "name": "_judgeReportSuperMed",
              "type": "string"
            },
            {
              "internalType": "uint32",
              "name": "_buyerTakeAmountInPercentSuperMed",
              "type": "uint32"
            },
            {
              "internalType": "uint32",
              "name": "_buyerTakeAmountInPercent",
              "type": "uint32"
            },
            {
              "internalType": "string",
              "name": "_friendsEmail",
              "type": "string"
            },
            {
              "internalType": "string",
              "name": "_appealTime",
              "type": "string"
            },
            {
              "internalType": "string",
              "name": "_whoCalled",
              "type": "string"
            },
            {
              "internalType": "string",
              "name": "_whoPaidMediatorFee",
              "type": "string"
            },
            {
              "internalType": "uint32",
              "name": "_mediatorFee",
              "type": "uint32"
            }
          ],
          "internalType": "struct BuyInvoicesMainAPp.OrderData[]",
          "name": "",
          "type": "tuple[]"
        }
      ],
      "stateMutability": "view",
      "type": "function",
      "constant": true
    },
    {
      "inputs": [
        {
          "internalType": "uint32",
          "name": "_index",
          "type": "uint32"
        },
        {
          "internalType": "address",
          "name": "buyerWalletAddress",
          "type": "address"
        }
      ],
      "name": "medAcceptNewCases",
      "outputs": [
        {
          "components": [
            {
              "internalType": "uint32",
              "name": "_orderId",
              "type": "uint32"
            },
            {
              "internalType": "uint256",
              "name": "_amount",
              "type": "uint256"
            },
            {
              "internalType": "string",
              "name": "_termsAndCondition",
              "type": "string"
            },
            {
              "internalType": "string",
              "name": "_warrantyFile",
              "type": "string"
            },
            {
              "internalType": "uint32",
              "name": "_apealTime",
              "type": "uint32"
            },
            {
              "internalType": "address",
              "name": "_sellerWalletAddress",
              "type": "address"
            },
            {
              "internalType": "string",
              "name": "_invoiceFile",
              "type": "string"
            },
            {
              "internalType": "string",
              "name": "_customerEmail",
              "type": "string"
            },
            {
              "internalType": "uint32",
              "name": "_mediatorId",
              "type": "uint32"
            },
            {
              "internalType": "bool",
              "name": "_medAccepted",
              "type": "bool"
            },
            {
              "internalType": "string",
              "name": "_superMedAcceptedEmail",
              "type": "string"
            },
            {
              "internalType": "string",
              "name": "_judgeReport",
              "type": "string"
            },
            {
              "internalType": "string",
              "name": "_judgeReportFile",
              "type": "string"
            },
            {
              "internalType": "string",
              "name": "_judgeReportFileSuperMed",
              "type": "string"
            },
            {
              "internalType": "string",
              "name": "_judgeReportSuperMed",
              "type": "string"
            },
            {
              "internalType": "uint32",
              "name": "_buyerTakeAmountInPercentSuperMed",
              "type": "uint32"
            },
            {
              "internalType": "uint32",
              "name": "_buyerTakeAmountInPercent",
              "type": "uint32"
            },
            {
              "internalType": "string",
              "name": "_friendsEmail",
              "type": "string"
            },
            {
              "internalType": "string",
              "name": "_appealTime",
              "type": "string"
            },
            {
              "internalType": "string",
              "name": "_whoCalled",
              "type": "string"
            },
            {
              "internalType": "string",
              "name": "_whoPaidMediatorFee",
              "type": "string"
            },
            {
              "internalType": "uint32",
              "name": "_mediatorFee",
              "type": "uint32"
            }
          ],
          "internalType": "struct BuyInvoicesMainAPp.OrderData[]",
          "name": "",
          "type": "tuple[]"
        }
      ],
      "stateMutability": "nonpayable",
      "type": "function"
    },
    {
      "inputs": [
        {
          "internalType": "uint32",
          "name": "_index",
          "type": "uint32"
        },
        {
          "internalType": "address",
          "name": "buyerWalletAddress",
          "type": "address"
        },
        {
          "internalType": "string",
          "name": "_whoPaidMediatorFee",
          "type": "string"
        },
        {
          "internalType": "uint32",
          "name": "_mediatorFee",
          "type": "uint32"
        }
      ],
      "name": "payMediatorFee",
      "outputs": [],
      "stateMutability": "payable",
      "type": "function",
      "payable": true
    },
    {
      "inputs": [
        {
          "internalType": "uint32",
          "name": "_index",
          "type": "uint32"
        },
        {
          "internalType": "address",
          "name": "buyerWalletAddress",
          "type": "address"
        },
        {
          "internalType": "string",
          "name": "_superMediatorEmail",
          "type": "string"
        }
      ],
      "name": "superMedAcceptNewCases",
      "outputs": [],
      "stateMutability": "nonpayable",
      "type": "function"
    },
    {
      "inputs": [
        {
          "internalType": "string",
          "name": "_judgeReport",
          "type": "string"
        },
        {
          "internalType": "string",
          "name": "_judgeReportFile",
          "type": "string"
        },
        {
          "internalType": "address",
          "name": "buyerWalletAddress",
          "type": "address"
        },
        {
          "internalType": "uint32",
          "name": "_index",
          "type": "uint32"
        },
        {
          "internalType": "uint32",
          "name": "_buyerTakeAmountInPercent",
          "type": "uint32"
        }
      ],
      "name": "medJudgeCaseReportSuperMed",
      "outputs": [],
      "stateMutability": "nonpayable",
      "type": "function"
    },
    {
      "inputs": [
        {
          "internalType": "string",
          "name": "_judgeReport",
          "type": "string"
        },
        {
          "internalType": "string",
          "name": "_judgeReportFile",
          "type": "string"
        },
        {
          "internalType": "address",
          "name": "buyerWalletAddress",
          "type": "address"
        },
        {
          "internalType": "uint32",
          "name": "_index",
          "type": "uint32"
        },
        {
          "internalType": "uint32",
          "name": "_buyerTakeAmountInPercent",
          "type": "uint32"
        },
        {
          "internalType": "string",
          "name": "_appealTime",
          "type": "string"
        }
      ],
      "name": "medJudgeCaseReport",
      "outputs": [
        {
          "components": [
            {
              "internalType": "uint32",
              "name": "_orderId",
              "type": "uint32"
            },
            {
              "internalType": "uint256",
              "name": "_amount",
              "type": "uint256"
            },
            {
              "internalType": "string",
              "name": "_termsAndCondition",
              "type": "string"
            },
            {
              "internalType": "string",
              "name": "_warrantyFile",
              "type": "string"
            },
            {
              "internalType": "uint32",
              "name": "_apealTime",
              "type": "uint32"
            },
            {
              "internalType": "address",
              "name": "_sellerWalletAddress",
              "type": "address"
            },
            {
              "internalType": "string",
              "name": "_invoiceFile",
              "type": "string"
            },
            {
              "internalType": "string",
              "name": "_customerEmail",
              "type": "string"
            },
            {
              "internalType": "uint32",
              "name": "_mediatorId",
              "type": "uint32"
            },
            {
              "internalType": "bool",
              "name": "_medAccepted",
              "type": "bool"
            },
            {
              "internalType": "string",
              "name": "_superMedAcceptedEmail",
              "type": "string"
            },
            {
              "internalType": "string",
              "name": "_judgeReport",
              "type": "string"
            },
            {
              "internalType": "string",
              "name": "_judgeReportFile",
              "type": "string"
            },
            {
              "internalType": "string",
              "name": "_judgeReportFileSuperMed",
              "type": "string"
            },
            {
              "internalType": "string",
              "name": "_judgeReportSuperMed",
              "type": "string"
            },
            {
              "internalType": "uint32",
              "name": "_buyerTakeAmountInPercentSuperMed",
              "type": "uint32"
            },
            {
              "internalType": "uint32",
              "name": "_buyerTakeAmountInPercent",
              "type": "uint32"
            },
            {
              "internalType": "string",
              "name": "_friendsEmail",
              "type": "string"
            },
            {
              "internalType": "string",
              "name": "_appealTime",
              "type": "string"
            },
            {
              "internalType": "string",
              "name": "_whoCalled",
              "type": "string"
            },
            {
              "internalType": "string",
              "name": "_whoPaidMediatorFee",
              "type": "string"
            },
            {
              "internalType": "uint32",
              "name": "_mediatorFee",
              "type": "uint32"
            }
          ],
          "internalType": "struct BuyInvoicesMainAPp.OrderData[]",
          "name": "",
          "type": "tuple[]"
        }
      ],
      "stateMutability": "nonpayable",
      "type": "function"
    },
    {
      "inputs": [
        {
          "internalType": "uint256",
          "name": "_amount",
          "type": "uint256"
        },
        {
          "internalType": "string",
          "name": "_whoIsCalling",
          "type": "string"
        },
        {
          "internalType": "uint32",
          "name": "_index",
          "type": "uint32"
        },
        {
          "internalType": "address",
          "name": "buyerWalletAddress",
          "type": "address"
        }
      ],
      "name": "payFeeForSuperMediator",
      "outputs": [
        {
          "components": [
            {
              "internalType": "uint32",
              "name": "_orderId",
              "type": "uint32"
            },
            {
              "internalType": "uint256",
              "name": "_amount",
              "type": "uint256"
            },
            {
              "internalType": "string",
              "name": "_termsAndCondition",
              "type": "string"
            },
            {
              "internalType": "string",
              "name": "_warrantyFile",
              "type": "string"
            },
            {
              "internalType": "uint32",
              "name": "_apealTime",
              "type": "uint32"
            },
            {
              "internalType": "address",
              "name": "_sellerWalletAddress",
              "type": "address"
            },
            {
              "internalType": "string",
              "name": "_invoiceFile",
              "type": "string"
            },
            {
              "internalType": "string",
              "name": "_customerEmail",
              "type": "string"
            },
            {
              "internalType": "uint32",
              "name": "_mediatorId",
              "type": "uint32"
            },
            {
              "internalType": "bool",
              "name": "_medAccepted",
              "type": "bool"
            },
            {
              "internalType": "string",
              "name": "_superMedAcceptedEmail",
              "type": "string"
            },
            {
              "internalType": "string",
              "name": "_judgeReport",
              "type": "string"
            },
            {
              "internalType": "string",
              "name": "_judgeReportFile",
              "type": "string"
            },
            {
              "internalType": "string",
              "name": "_judgeReportFileSuperMed",
              "type": "string"
            },
            {
              "internalType": "string",
              "name": "_judgeReportSuperMed",
              "type": "string"
            },
            {
              "internalType": "uint32",
              "name": "_buyerTakeAmountInPercentSuperMed",
              "type": "uint32"
            },
            {
              "internalType": "uint32",
              "name": "_buyerTakeAmountInPercent",
              "type": "uint32"
            },
            {
              "internalType": "string",
              "name": "_friendsEmail",
              "type": "string"
            },
            {
              "internalType": "string",
              "name": "_appealTime",
              "type": "string"
            },
            {
              "internalType": "string",
              "name": "_whoCalled",
              "type": "string"
            },
            {
              "internalType": "string",
              "name": "_whoPaidMediatorFee",
              "type": "string"
            },
            {
              "internalType": "uint32",
              "name": "_mediatorFee",
              "type": "uint32"
            }
          ],
          "internalType": "struct BuyInvoicesMainAPp.OrderData[]",
          "name": "",
          "type": "tuple[]"
        }
      ],
      "stateMutability": "nonpayable",
      "type": "function"
    },
    {
      "inputs": [
        {
          "internalType": "uint256",
          "name": "_amount",
          "type": "uint256"
        }
      ],
      "name": "payFeeForSuperMediatorr",
      "outputs": [],
      "stateMutability": "nonpayable",
      "type": "function"
    },
    {
      "inputs": [
        {
          "internalType": "uint256",
          "name": "amount",
          "type": "uint256"
        }
      ],
      "name": "mediatorWithDrawFees",
      "outputs": [],
      "stateMutability": "nonpayable",
      "type": "function"
    },
    {
      "inputs": [
        {
          "internalType": "address",
          "name": "buyerWalletAddress",
          "type": "address"
        },
        {
          "internalType": "uint32",
          "name": "_index",
          "type": "uint32"
        }
      ],
      "name": "userWithdrawTheirDisputesOrdersCash",
      "outputs": [
        {
          "components": [
            {
              "internalType": "uint32",
              "name": "_orderId",
              "type": "uint32"
            },
            {
              "internalType": "uint256",
              "name": "_amount",
              "type": "uint256"
            },
            {
              "internalType": "string",
              "name": "_termsAndCondition",
              "type": "string"
            },
            {
              "internalType": "string",
              "name": "_warrantyFile",
              "type": "string"
            },
            {
              "internalType": "uint32",
              "name": "_apealTime",
              "type": "uint32"
            },
            {
              "internalType": "address",
              "name": "_sellerWalletAddress",
              "type": "address"
            },
            {
              "internalType": "string",
              "name": "_invoiceFile",
              "type": "string"
            },
            {
              "internalType": "string",
              "name": "_customerEmail",
              "type": "string"
            },
            {
              "internalType": "uint32",
              "name": "_mediatorId",
              "type": "uint32"
            },
            {
              "internalType": "bool",
              "name": "_medAccepted",
              "type": "bool"
            },
            {
              "internalType": "string",
              "name": "_superMedAcceptedEmail",
              "type": "string"
            },
            {
              "internalType": "string",
              "name": "_judgeReport",
              "type": "string"
            },
            {
              "internalType": "string",
              "name": "_judgeReportFile",
              "type": "string"
            },
            {
              "internalType": "string",
              "name": "_judgeReportFileSuperMed",
              "type": "string"
            },
            {
              "internalType": "string",
              "name": "_judgeReportSuperMed",
              "type": "string"
            },
            {
              "internalType": "uint32",
              "name": "_buyerTakeAmountInPercentSuperMed",
              "type": "uint32"
            },
            {
              "internalType": "uint32",
              "name": "_buyerTakeAmountInPercent",
              "type": "uint32"
            },
            {
              "internalType": "string",
              "name": "_friendsEmail",
              "type": "string"
            },
            {
              "internalType": "string",
              "name": "_appealTime",
              "type": "string"
            },
            {
              "internalType": "string",
              "name": "_whoCalled",
              "type": "string"
            },
            {
              "internalType": "string",
              "name": "_whoPaidMediatorFee",
              "type": "string"
            },
            {
              "internalType": "uint32",
              "name": "_mediatorFee",
              "type": "uint32"
            }
          ],
          "internalType": "struct BuyInvoicesMainAPp.OrderData[]",
          "name": "",
          "type": "tuple[]"
        }
      ],
      "stateMutability": "nonpayable",
      "type": "function"
    },
    {
      "inputs": [
        {
          "internalType": "uint32",
          "name": "_orderId",
          "type": "uint32"
        },
        {
          "internalType": "uint256",
          "name": "_amount",
          "type": "uint256"
        },
        {
          "internalType": "string",
          "name": "_termsAndCondition",
          "type": "string"
        },
        {
          "internalType": "string",
          "name": "_warrantyFile",
          "type": "string"
        },
        {
          "internalType": "uint32",
          "name": "_apealTime",
          "type": "uint32"
        },
        {
          "internalType": "address",
          "name": "_sellerWalletAddress",
          "type": "address"
        },
        {
          "internalType": "string",
          "name": "_invoiceFile",
          "type": "string"
        },
        {
          "internalType": "string",
          "name": "_customerEmail",
          "type": "string"
        },
        {
          "internalType": "uint32",
          "name": "_mediatorId",
          "type": "uint32"
        },
        {
          "internalType": "bool",
          "name": "_medAccepted",
          "type": "bool"
        },
        {
          "internalType": "string",
          "name": "_friendsEmail",
          "type": "string"
        }
      ],
      "name": "_saveOrdersDataOfUser",
      "outputs": [],
      "stateMutability": "nonpayable",
      "type": "function"
    },
    {
      "inputs": [
        {
          "internalType": "uint32",
          "name": "_orderId",
          "type": "uint32"
        },
        {
          "internalType": "uint256",
          "name": "_amount",
          "type": "uint256"
        },
        {
          "internalType": "string",
          "name": "_termsAndCondition",
          "type": "string"
        },
        {
          "internalType": "string",
          "name": "_warrantyFile",
          "type": "string"
        },
        {
          "internalType": "uint32",
          "name": "_apealTime",
          "type": "uint32"
        },
        {
          "internalType": "address",
          "name": "_sellerWalletAddress",
          "type": "address"
        },
        {
          "internalType": "string",
          "name": "_invoiceFile",
          "type": "string"
        },
        {
          "internalType": "string",
          "name": "_customerEmail",
          "type": "string"
        },
        {
          "internalType": "uint32",
          "name": "_mediatorId",
          "type": "uint32"
        },
        {
          "internalType": "bool",
          "name": "_medAccepted",
          "type": "bool"
        },
        {
          "internalType": "string",
          "name": "_friendsEmail",
          "type": "string"
        }
      ],
      "name": "buyWithFTP",
      "outputs": [],
      "stateMutability": "nonpayable",
      "type": "function"
    },
    {
      "inputs": [
        {
          "internalType": "uint32",
          "name": "_orderId",
          "type": "uint32"
        },
        {
          "internalType": "string",
          "name": "_termsAndCondition",
          "type": "string"
        },
        {
          "internalType": "string",
          "name": "_warrantyFile",
          "type": "string"
        },
        {
          "internalType": "uint32",
          "name": "_apealTime",
          "type": "uint32"
        },
        {
          "internalType": "address",
          "name": "_sellerWalletAddress",
          "type": "address"
        },
        {
          "internalType": "string",
          "name": "_invoiceFile",
          "type": "string"
        },
        {
          "internalType": "string",
          "name": "_customerEmail",
          "type": "string"
        },
        {
          "internalType": "uint32",
          "name": "_mediatorId",
          "type": "uint32"
        },
        {
          "internalType": "bool",
          "name": "_medAccepted",
          "type": "bool"
        },
        {
          "internalType": "string",
          "name": "_friendsEmail",
          "type": "string"
        }
      ],
      "name": "buyWithBNB",
      "outputs": [],
      "stateMutability": "payable",
      "type": "function",
      "payable": true
    }
  ],
  "bytecode": "0x60e0604052602360808181529062005c7c60a039805162000029916000916020909101906200008f565b503480156200003757600080fd5b5060405162005c9f38038062005c9f8339810160408190526200005a9162000135565b600480546001908101825560009190915280546001600160a01b0319166001600160a01b0392909216919091179055620001a2565b8280546200009d9062000165565b90600052602060002090601f016020900481019282620000c157600085556200010c565b82601f10620000dc57805160ff19168380011785556200010c565b828001600101855582156200010c579182015b828111156200010c578251825591602001919060010190620000ef565b506200011a9291506200011e565b5090565b5b808211156200011a57600081556001016200011f565b60006020828403121562000147578081fd5b81516001600160a01b03811681146200015e578182fd5b9392505050565b600181811c908216806200017a57607f821691505b602082108114156200019c57634e487b7160e01b600052602260045260246000fd5b50919050565b615aca80620001b26000396000f3fe60806040526004361061011f5760003560e01c80638cf04ae4116100a0578063bea4e5b811610064578063bea4e5b814610328578063cf591db514610348578063f2b8e5ba14610368578063fc0c546a14610388578063fd5e6dd1146103a85761011f565b80638cf04ae4146102865780639529441e146102a6578063abf940c8146102c8578063b506c2a2146102e8578063b8e2de71146103085761011f565b80632f3726c3116100e75780632f3726c3146101fe5780633b07c9871461022057806342c518891461024057806347f3d0c014610253578063495ee7c1146102735761011f565b806306fdde031461012457806312065fe01461014f57806316934fc41461016c5780631d601be2146101995780631d6b8b72146101c6575b600080fd5b34801561013057600080fd5b506101396103c8565b60405161014691906159b3565b60405180910390f35b34801561015b57600080fd5b50475b604051908152602001610146565b34801561017857600080fd5b5061015e610187366004614eb9565b60026020526000908152604090205481565b3480156101a557600080fd5b506101b96101b43660046150a0565b610456565b604051610146919061548c565b3480156101d257600080fd5b506101e66101e1366004615070565b610ea7565b6040516001600160a01b039091168152602001610146565b34801561020a57600080fd5b5061021e61021936600461530e565b610ed6565b005b34801561022c57600080fd5b506101b961023b366004614fbb565b611007565b61021e61024e3660046151ed565b611ac8565b34801561025f57600080fd5b506101b961026e366004614eb9565b611ae7565b61021e61028136600461518b565b6123a6565b34801561029257600080fd5b5061021e6102a1366004615070565b6124cd565b3480156102b257600080fd5b506102bb6124fe565b60405161014691906156f9565b3480156102d457600080fd5b506101b96102e3366004614eda565b612dd5565b3480156102f457600080fd5b5061021e61030336600461512f565b61397e565b34801561031457600080fd5b5061021e61032336600461530e565b613a1d565b34801561033457600080fd5b506101b9610343366004615106565b613e56565b34801561035457600080fd5b5061021e610363366004614f28565b614796565b34801561037457600080fd5b5061021e610383366004615070565b614bab565b34801561039457600080fd5b506001546101e6906001600160a01b031681565b3480156103b457600080fd5b506101e66103c3366004615070565b614cbb565b600080546103d590615a1c565b80601f016020809104026020016040519081016040528092919081815260200182805461040190615a1c565b801561044e5780601f106104235761010080835404028352916020019161044e565b820191906000526020600020905b81548152906001019060200180831161043157829003601f168201915b505050505081565b6001546040516370a0823160e01b815233600482015260609186916001600160a01b03909116906370a082319060240160206040518083038186803b15801561049e57600080fd5b505afa1580156104b2573d6000803e3d6000fd5b505050506040513d601f19601f820116820180604052508101906104d69190615088565b10156104e157600080fd5b6001600160a01b038216600090815260026020526040902054600480548691908390811061051f57634e487b7160e01b600052603260045260246000fd5b90600052602060002090600202016001018563ffffffff168154811061055557634e487b7160e01b600052603260045260246000fd5b90600052602060002090601302016010019080519060200190610579929190614d63565b506001546040516323b872dd60e01b8152336004820152306024820152604481018890526001600160a01b03909116906323b872dd90606401602060405180830381600087803b1580156105cc57600080fd5b505af11580156105e0573d6000803e3d6000fd5b505050506040513d601f19601f820116820180604052508101906106049190614f0c565b506004818154811061062657634e487b7160e01b600052603260045260246000fd5b9060005260206000209060020201600101805480602002602001604051908101604052809291908181526020016000905b82821015610e98576000848152602090819020604080516102c08101825260138602909201805463ffffffff168352600181015493830193909352600283018054929392918401916106a890615a1c565b80601f01602080910402602001604051908101604052809291908181526020018280546106d490615a1c565b80156107215780601f106106f657610100808354040283529160200191610721565b820191906000526020600020905b81548152906001019060200180831161070457829003601f168201915b5050505050815260200160038201805461073a90615a1c565b80601f016020809104026020016040519081016040528092919081815260200182805461076690615a1c565b80156107b35780601f10610788576101008083540402835291602001916107b3565b820191906000526020600020905b81548152906001019060200180831161079657829003601f168201915b5050509183525050600482015463ffffffff81166020830152600160201b90046001600160a01b031660408201526005820180546060909201916107f690615a1c565b80601f016020809104026020016040519081016040528092919081815260200182805461082290615a1c565b801561086f5780601f106108445761010080835404028352916020019161086f565b820191906000526020600020905b81548152906001019060200180831161085257829003601f168201915b5050505050815260200160068201805461088890615a1c565b80601f01602080910402602001604051908101604052809291908181526020018280546108b490615a1c565b80156109015780601f106108d657610100808354040283529160200191610901565b820191906000526020600020905b8154815290600101906020018083116108e457829003601f168201915b5050509183525050600782015463ffffffff81166020830152600160201b900460ff161515604082015260088201805460609092019161094090615a1c565b80601f016020809104026020016040519081016040528092919081815260200182805461096c90615a1c565b80156109b95780601f1061098e576101008083540402835291602001916109b9565b820191906000526020600020905b81548152906001019060200180831161099c57829003601f168201915b505050505081526020016009820180546109d290615a1c565b80601f01602080910402602001604051908101604052809291908181526020018280546109fe90615a1c565b8015610a4b5780601f10610a2057610100808354040283529160200191610a4b565b820191906000526020600020905b815481529060010190602001808311610a2e57829003601f168201915b50505050508152602001600a82018054610a6490615a1c565b80601f0160208091040260200160405190810160405280929190818152602001828054610a9090615a1c565b8015610add5780601f10610ab257610100808354040283529160200191610add565b820191906000526020600020905b815481529060010190602001808311610ac057829003601f168201915b50505050508152602001600b82018054610af690615a1c565b80601f0160208091040260200160405190810160405280929190818152602001828054610b2290615a1c565b8015610b6f5780601f10610b4457610100808354040283529160200191610b6f565b820191906000526020600020905b815481529060010190602001808311610b5257829003601f168201915b50505050508152602001600c82018054610b8890615a1c565b80601f0160208091040260200160405190810160405280929190818152602001828054610bb490615a1c565b8015610c015780601f10610bd657610100808354040283529160200191610c01565b820191906000526020600020905b815481529060010190602001808311610be457829003601f168201915b5050509183525050600d82015463ffffffff8082166020840152600160201b909104166040820152600e82018054606090920191610c3e90615a1c565b80601f0160208091040260200160405190810160405280929190818152602001828054610c6a90615a1c565b8015610cb75780601f10610c8c57610100808354040283529160200191610cb7565b820191906000526020600020905b815481529060010190602001808311610c9a57829003601f168201915b50505050508152602001600f82018054610cd090615a1c565b80601f0160208091040260200160405190810160405280929190818152602001828054610cfc90615a1c565b8015610d495780601f10610d1e57610100808354040283529160200191610d49565b820191906000526020600020905b815481529060010190602001808311610d2c57829003601f168201915b50505050508152602001601082018054610d6290615a1c565b80601f0160208091040260200160405190810160405280929190818152602001828054610d8e90615a1c565b8015610ddb5780601f10610db057610100808354040283529160200191610ddb565b820191906000526020600020905b815481529060010190602001808311610dbe57829003601f168201915b50505050508152602001601182018054610df490615a1c565b80601f0160208091040260200160405190810160405280929190818152602001828054610e2090615a1c565b8015610e6d5780601f10610e4257610100808354040283529160200191610e6d565b820191906000526020600020905b815481529060010190602001808311610e5057829003601f168201915b50505091835250506012919091015463ffffffff166020918201529082526001929092019101610657565b50505050915050949350505050565b60048181548110610eb757600080fd5b60009182526020909120600290910201546001600160a01b0316905081565b6001546040516370a0823160e01b81523360048201528b916001600160a01b0316906370a082319060240160206040518083038186803b158015610f1957600080fd5b505afa158015610f2d573d6000803e3d6000fd5b505050506040513d601f19601f82011682018060405250810190610f519190615088565b1015610f5c57600080fd5b6001546040516323b872dd60e01b8152336004820152306024820152604481018c90526001600160a01b03909116906323b872dd90606401602060405180830381600087803b158015610fae57600080fd5b505af1158015610fc2573d6000803e3d6000fd5b505050506040513d601f19601f82011682018060405250810190610fe69190614f0c565b50610ffa8b8b8b8b8b8b8b8b8b8b8b613a1d565b5050505050505050505050565b6001600160a01b038416600090815260026020526040902054600480546060929189918390811061104857634e487b7160e01b600052603260045260246000fd5b90600052602060002090600202016001018663ffffffff168154811061107e57634e487b7160e01b600052603260045260246000fd5b906000526020600020906013020160090190805190602001906110a2929190614d63565b5086600482815481106110c557634e487b7160e01b600052603260045260246000fd5b90600052602060002090600202016001018663ffffffff16815481106110fb57634e487b7160e01b600052603260045260246000fd5b9060005260206000209060130201600a01908051906020019061111f929190614d63565b50836004828154811061114257634e487b7160e01b600052603260045260246000fd5b90600052602060002090600202016001018663ffffffff168154811061117857634e487b7160e01b600052603260045260246000fd5b9060005260206000209060130201600d0160046101000a81548163ffffffff021916908363ffffffff16021790555082600482815481106111c957634e487b7160e01b600052603260045260246000fd5b90600052602060002090600202016001018663ffffffff16815481106111ff57634e487b7160e01b600052603260045260246000fd5b9060005260206000209060130201600f019080519060200190611223929190614d63565b506004818154811061124557634e487b7160e01b600052603260045260246000fd5b9060005260206000209060020201600101805480602002602001604051908101604052809291908181526020016000905b82821015611ab7576000848152602090819020604080516102c08101825260138602909201805463ffffffff168352600181015493830193909352600283018054929392918401916112c790615a1c565b80601f01602080910402602001604051908101604052809291908181526020018280546112f390615a1c565b80156113405780601f1061131557610100808354040283529160200191611340565b820191906000526020600020905b81548152906001019060200180831161132357829003601f168201915b5050505050815260200160038201805461135990615a1c565b80601f016020809104026020016040519081016040528092919081815260200182805461138590615a1c565b80156113d25780601f106113a7576101008083540402835291602001916113d2565b820191906000526020600020905b8154815290600101906020018083116113b557829003601f168201915b5050509183525050600482015463ffffffff81166020830152600160201b90046001600160a01b0316604082015260058201805460609092019161141590615a1c565b80601f016020809104026020016040519081016040528092919081815260200182805461144190615a1c565b801561148e5780601f106114635761010080835404028352916020019161148e565b820191906000526020600020905b81548152906001019060200180831161147157829003601f168201915b505050505081526020016006820180546114a790615a1c565b80601f01602080910402602001604051908101604052809291908181526020018280546114d390615a1c565b80156115205780601f106114f557610100808354040283529160200191611520565b820191906000526020600020905b81548152906001019060200180831161150357829003601f168201915b5050509183525050600782015463ffffffff81166020830152600160201b900460ff161515604082015260088201805460609092019161155f90615a1c565b80601f016020809104026020016040519081016040528092919081815260200182805461158b90615a1c565b80156115d85780601f106115ad576101008083540402835291602001916115d8565b820191906000526020600020905b8154815290600101906020018083116115bb57829003601f168201915b505050505081526020016009820180546115f190615a1c565b80601f016020809104026020016040519081016040528092919081815260200182805461161d90615a1c565b801561166a5780601f1061163f5761010080835404028352916020019161166a565b820191906000526020600020905b81548152906001019060200180831161164d57829003601f168201915b50505050508152602001600a8201805461168390615a1c565b80601f01602080910402602001604051908101604052809291908181526020018280546116af90615a1c565b80156116fc5780601f106116d1576101008083540402835291602001916116fc565b820191906000526020600020905b8154815290600101906020018083116116df57829003601f168201915b50505050508152602001600b8201805461171590615a1c565b80601f016020809104026020016040519081016040528092919081815260200182805461174190615a1c565b801561178e5780601f106117635761010080835404028352916020019161178e565b820191906000526020600020905b81548152906001019060200180831161177157829003601f168201915b50505050508152602001600c820180546117a790615a1c565b80601f01602080910402602001604051908101604052809291908181526020018280546117d390615a1c565b80156118205780601f106117f557610100808354040283529160200191611820565b820191906000526020600020905b81548152906001019060200180831161180357829003601f168201915b5050509183525050600d82015463ffffffff8082166020840152600160201b909104166040820152600e8201805460609092019161185d90615a1c565b80601f016020809104026020016040519081016040528092919081815260200182805461188990615a1c565b80156118d65780601f106118ab576101008083540402835291602001916118d6565b820191906000526020600020905b8154815290600101906020018083116118b957829003601f168201915b50505050508152602001600f820180546118ef90615a1c565b80601f016020809104026020016040519081016040528092919081815260200182805461191b90615a1c565b80156119685780601f1061193d57610100808354040283529160200191611968565b820191906000526020600020905b81548152906001019060200180831161194b57829003601f168201915b5050505050815260200160108201805461198190615a1c565b80601f01602080910402602001604051908101604052809291908181526020018280546119ad90615a1c565b80156119fa5780601f106119cf576101008083540402835291602001916119fa565b820191906000526020600020905b8154815290600101906020018083116119dd57829003601f168201915b50505050508152602001601182018054611a1390615a1c565b80601f0160208091040260200160405190810160405280929190818152602001828054611a3f90615a1c565b8015611a8c5780601f10611a6157610100808354040283529160200191611a8c565b820191906000526020600020905b815481529060010190602001808311611a6f57829003601f168201915b50505091835250506012919091015463ffffffff166020918201529082526001929092019101611276565b505050509150509695505050505050565b611adb8a348b8b8b8b8b8b8b8b8b613a1d565b50505050505050505050565b6001600160a01b03811660009081526002602052604090205460048054606092919082908110611b2757634e487b7160e01b600052603260045260246000fd5b9060005260206000209060020201600101805480602002602001604051908101604052809291908181526020016000905b82821015612399576000848152602090819020604080516102c08101825260138602909201805463ffffffff16835260018101549383019390935260028301805492939291840191611ba990615a1c565b80601f0160208091040260200160405190810160405280929190818152602001828054611bd590615a1c565b8015611c225780601f10611bf757610100808354040283529160200191611c22565b820191906000526020600020905b815481529060010190602001808311611c0557829003601f168201915b50505050508152602001600382018054611c3b90615a1c565b80601f0160208091040260200160405190810160405280929190818152602001828054611c6790615a1c565b8015611cb45780601f10611c8957610100808354040283529160200191611cb4565b820191906000526020600020905b815481529060010190602001808311611c9757829003601f168201915b5050509183525050600482015463ffffffff81166020830152600160201b90046001600160a01b03166040820152600582018054606090920191611cf790615a1c565b80601f0160208091040260200160405190810160405280929190818152602001828054611d2390615a1c565b8015611d705780601f10611d4557610100808354040283529160200191611d70565b820191906000526020600020905b815481529060010190602001808311611d5357829003601f168201915b50505050508152602001600682018054611d8990615a1c565b80601f0160208091040260200160405190810160405280929190818152602001828054611db590615a1c565b8015611e025780601f10611dd757610100808354040283529160200191611e02565b820191906000526020600020905b815481529060010190602001808311611de557829003601f168201915b5050509183525050600782015463ffffffff81166020830152600160201b900460ff1615156040820152600882018054606090920191611e4190615a1c565b80601f0160208091040260200160405190810160405280929190818152602001828054611e6d90615a1c565b8015611eba5780601f10611e8f57610100808354040283529160200191611eba565b820191906000526020600020905b815481529060010190602001808311611e9d57829003601f168201915b50505050508152602001600982018054611ed390615a1c565b80601f0160208091040260200160405190810160405280929190818152602001828054611eff90615a1c565b8015611f4c5780601f10611f2157610100808354040283529160200191611f4c565b820191906000526020600020905b815481529060010190602001808311611f2f57829003601f168201915b50505050508152602001600a82018054611f6590615a1c565b80601f0160208091040260200160405190810160405280929190818152602001828054611f9190615a1c565b8015611fde5780601f10611fb357610100808354040283529160200191611fde565b820191906000526020600020905b815481529060010190602001808311611fc157829003601f168201915b50505050508152602001600b82018054611ff790615a1c565b80601f016020809104026020016040519081016040528092919081815260200182805461202390615a1c565b80156120705780601f1061204557610100808354040283529160200191612070565b820191906000526020600020905b81548152906001019060200180831161205357829003601f168201915b50505050508152602001600c8201805461208990615a1c565b80601f01602080910402602001604051908101604052809291908181526020018280546120b590615a1c565b80156121025780601f106120d757610100808354040283529160200191612102565b820191906000526020600020905b8154815290600101906020018083116120e557829003601f168201915b5050509183525050600d82015463ffffffff8082166020840152600160201b909104166040820152600e8201805460609092019161213f90615a1c565b80601f016020809104026020016040519081016040528092919081815260200182805461216b90615a1c565b80156121b85780601f1061218d576101008083540402835291602001916121b8565b820191906000526020600020905b81548152906001019060200180831161219b57829003601f168201915b50505050508152602001600f820180546121d190615a1c565b80601f01602080910402602001604051908101604052809291908181526020018280546121fd90615a1c565b801561224a5780601f1061221f5761010080835404028352916020019161224a565b820191906000526020600020905b81548152906001019060200180831161222d57829003601f168201915b5050505050815260200160108201805461226390615a1c565b80601f016020809104026020016040519081016040528092919081815260200182805461228f90615a1c565b80156122dc5780601f106122b1576101008083540402835291602001916122dc565b820191906000526020600020905b8154815290600101906020018083116122bf57829003601f168201915b505050505081526020016011820180546122f590615a1c565b80601f016020809104026020016040519081016040528092919081815260200182805461232190615a1c565b801561236e5780601f106123435761010080835404028352916020019161236e565b820191906000526020600020905b81548152906001019060200180831161235157829003601f168201915b50505091835250506012919091015463ffffffff166020918201529082526001929092019101611b58565b505050509150505b919050565b6001600160a01b03831660009081526002602052604090205460048054849190839081106123e457634e487b7160e01b600052603260045260246000fd5b90600052602060002090600202016001018663ffffffff168154811061241a57634e487b7160e01b600052603260045260246000fd5b9060005260206000209060130201601101908051906020019061243e929190614d63565b50816004828154811061246157634e487b7160e01b600052603260045260246000fd5b90600052602060002090600202016001018663ffffffff168154811061249757634e487b7160e01b600052603260045260246000fd5b906000526020600020906013020160120160006101000a81548163ffffffff021916908363ffffffff1602179055505050505050565b604051339082156108fc029083906000818181858888f193505050501580156124fa573d6000803e3d6000fd5b5050565b60606004805480602002602001604051908101604052809291908181526020016000905b82821015612dcc57600084815260208082206040805180820182526002870290920180546001600160a01b03168352600181018054835181870281018701909452808452939591948681019491929084015b82821015612db5576000848152602090819020604080516102c08101825260138602909201805463ffffffff168352600181015493830193909352600283018054929392918401916125c590615a1c565b80601f01602080910402602001604051908101604052809291908181526020018280546125f190615a1c565b801561263e5780601f106126135761010080835404028352916020019161263e565b820191906000526020600020905b81548152906001019060200180831161262157829003601f168201915b5050505050815260200160038201805461265790615a1c565b80601f016020809104026020016040519081016040528092919081815260200182805461268390615a1c565b80156126d05780601f106126a5576101008083540402835291602001916126d0565b820191906000526020600020905b8154815290600101906020018083116126b357829003601f168201915b5050509183525050600482015463ffffffff81166020830152600160201b90046001600160a01b0316604082015260058201805460609092019161271390615a1c565b80601f016020809104026020016040519081016040528092919081815260200182805461273f90615a1c565b801561278c5780601f106127615761010080835404028352916020019161278c565b820191906000526020600020905b81548152906001019060200180831161276f57829003601f168201915b505050505081526020016006820180546127a590615a1c565b80601f01602080910402602001604051908101604052809291908181526020018280546127d190615a1c565b801561281e5780601f106127f35761010080835404028352916020019161281e565b820191906000526020600020905b81548152906001019060200180831161280157829003601f168201915b5050509183525050600782015463ffffffff81166020830152600160201b900460ff161515604082015260088201805460609092019161285d90615a1c565b80601f016020809104026020016040519081016040528092919081815260200182805461288990615a1c565b80156128d65780601f106128ab576101008083540402835291602001916128d6565b820191906000526020600020905b8154815290600101906020018083116128b957829003601f168201915b505050505081526020016009820180546128ef90615a1c565b80601f016020809104026020016040519081016040528092919081815260200182805461291b90615a1c565b80156129685780601f1061293d57610100808354040283529160200191612968565b820191906000526020600020905b81548152906001019060200180831161294b57829003601f168201915b50505050508152602001600a8201805461298190615a1c565b80601f01602080910402602001604051908101604052809291908181526020018280546129ad90615a1c565b80156129fa5780601f106129cf576101008083540402835291602001916129fa565b820191906000526020600020905b8154815290600101906020018083116129dd57829003601f168201915b50505050508152602001600b82018054612a1390615a1c565b80601f0160208091040260200160405190810160405280929190818152602001828054612a3f90615a1c565b8015612a8c5780601f10612a6157610100808354040283529160200191612a8c565b820191906000526020600020905b815481529060010190602001808311612a6f57829003601f168201915b50505050508152602001600c82018054612aa590615a1c565b80601f0160208091040260200160405190810160405280929190818152602001828054612ad190615a1c565b8015612b1e5780601f10612af357610100808354040283529160200191612b1e565b820191906000526020600020905b815481529060010190602001808311612b0157829003601f168201915b5050509183525050600d82015463ffffffff8082166020840152600160201b909104166040820152600e82018054606090920191612b5b90615a1c565b80601f0160208091040260200160405190810160405280929190818152602001828054612b8790615a1c565b8015612bd45780601f10612ba957610100808354040283529160200191612bd4565b820191906000526020600020905b815481529060010190602001808311612bb757829003601f168201915b50505050508152602001600f82018054612bed90615a1c565b80601f0160208091040260200160405190810160405280929190818152602001828054612c1990615a1c565b8015612c665780601f10612c3b57610100808354040283529160200191612c66565b820191906000526020600020905b815481529060010190602001808311612c4957829003601f168201915b50505050508152602001601082018054612c7f90615a1c565b80601f0160208091040260200160405190810160405280929190818152602001828054612cab90615a1c565b8015612cf85780601f10612ccd57610100808354040283529160200191612cf8565b820191906000526020600020905b815481529060010190602001808311612cdb57829003601f168201915b50505050508152602001601182018054612d1190615a1c565b80601f0160208091040260200160405190810160405280929190818152602001828054612d3d90615a1c565b8015612d8a5780601f10612d5f57610100808354040283529160200191612d8a565b820191906000526020600020905b815481529060010190602001808311612d6d57829003601f168201915b50505091835250506012919091015463ffffffff166020918201529082526001929092019101612574565b505050508152505081526020019060010190612522565b50505050905090565b6001600160a01b03821660009081526002602052604081205460048054606093919083908110612e1557634e487b7160e01b600052603260045260246000fd5b90600052602060002090600202016001018463ffffffff1681548110612e4b57634e487b7160e01b600052603260045260246000fd5b9060005260206000209060130201600101549050600060048381548110612e8257634e487b7160e01b600052603260045260246000fd5b90600052602060002090600202016001018563ffffffff1681548110612eb857634e487b7160e01b600052603260045260246000fd5b9060005260206000209060130201600d0160049054906101000a900463ffffffff1663ffffffff169050600060048481548110612f0557634e487b7160e01b600052603260045260246000fd5b90600052602060002090600202016001018663ffffffff1681548110612f3b57634e487b7160e01b600052603260045260246000fd5b6000918252602090912060139091020160040154600160201b90046001600160a01b039081169150871633141561304c578160641415612fb1576040516001600160a01b0388169084156108fc029085906000818181858888f19350505050158015612fab573d6000803e3d6000fd5b50613047565b8160321415612ffa576001600160a01b0387166108fc612fd26002866159c6565b6040518115909202916000818181858888f19350505050158015612fab573d6000803e3d6000fd5b6001600160a01b0387166108fc606461301385876159e6565b61301d91906159c6565b6040518115909202916000818181858888f19350505050158015613045573d6000803e3d6000fd5b505b6130db565b336001600160a01b03821614156130db57816032141561307e576001600160a01b0381166108fc61301d6002866159c6565b600061308b836064615a05565b90506001600160a01b0382166108fc60646130a684886159e6565b6130b091906159c6565b6040518115909202916000818181858888f193505050501580156130d8573d6000803e3d6000fd5b50505b600484815481106130fc57634e487b7160e01b600052603260045260246000fd5b9060005260206000209060020201600101805480602002602001604051908101604052809291908181526020016000905b8282101561396e576000848152602090819020604080516102c08101825260138602909201805463ffffffff1683526001810154938301939093526002830180549293929184019161317e90615a1c565b80601f01602080910402602001604051908101604052809291908181526020018280546131aa90615a1c565b80156131f75780601f106131cc576101008083540402835291602001916131f7565b820191906000526020600020905b8154815290600101906020018083116131da57829003601f168201915b5050505050815260200160038201805461321090615a1c565b80601f016020809104026020016040519081016040528092919081815260200182805461323c90615a1c565b80156132895780601f1061325e57610100808354040283529160200191613289565b820191906000526020600020905b81548152906001019060200180831161326c57829003601f168201915b5050509183525050600482015463ffffffff81166020830152600160201b90046001600160a01b031660408201526005820180546060909201916132cc90615a1c565b80601f01602080910402602001604051908101604052809291908181526020018280546132f890615a1c565b80156133455780601f1061331a57610100808354040283529160200191613345565b820191906000526020600020905b81548152906001019060200180831161332857829003601f168201915b5050505050815260200160068201805461335e90615a1c565b80601f016020809104026020016040519081016040528092919081815260200182805461338a90615a1c565b80156133d75780601f106133ac576101008083540402835291602001916133d7565b820191906000526020600020905b8154815290600101906020018083116133ba57829003601f168201915b5050509183525050600782015463ffffffff81166020830152600160201b900460ff161515604082015260088201805460609092019161341690615a1c565b80601f016020809104026020016040519081016040528092919081815260200182805461344290615a1c565b801561348f5780601f106134645761010080835404028352916020019161348f565b820191906000526020600020905b81548152906001019060200180831161347257829003601f168201915b505050505081526020016009820180546134a890615a1c565b80601f01602080910402602001604051908101604052809291908181526020018280546134d490615a1c565b80156135215780601f106134f657610100808354040283529160200191613521565b820191906000526020600020905b81548152906001019060200180831161350457829003601f168201915b50505050508152602001600a8201805461353a90615a1c565b80601f016020809104026020016040519081016040528092919081815260200182805461356690615a1c565b80156135b35780601f10613588576101008083540402835291602001916135b3565b820191906000526020600020905b81548152906001019060200180831161359657829003601f168201915b50505050508152602001600b820180546135cc90615a1c565b80601f01602080910402602001604051908101604052809291908181526020018280546135f890615a1c565b80156136455780601f1061361a57610100808354040283529160200191613645565b820191906000526020600020905b81548152906001019060200180831161362857829003601f168201915b50505050508152602001600c8201805461365e90615a1c565b80601f016020809104026020016040519081016040528092919081815260200182805461368a90615a1c565b80156136d75780601f106136ac576101008083540402835291602001916136d7565b820191906000526020600020905b8154815290600101906020018083116136ba57829003601f168201915b5050509183525050600d82015463ffffffff8082166020840152600160201b909104166040820152600e8201805460609092019161371490615a1c565b80601f016020809104026020016040519081016040528092919081815260200182805461374090615a1c565b801561378d5780601f106137625761010080835404028352916020019161378d565b820191906000526020600020905b81548152906001019060200180831161377057829003601f168201915b50505050508152602001600f820180546137a690615a1c565b80601f01602080910402602001604051908101604052809291908181526020018280546137d290615a1c565b801561381f5780601f106137f45761010080835404028352916020019161381f565b820191906000526020600020905b81548152906001019060200180831161380257829003601f168201915b5050505050815260200160108201805461383890615a1c565b80601f016020809104026020016040519081016040528092919081815260200182805461386490615a1c565b80156138b15780601f10613886576101008083540402835291602001916138b1565b820191906000526020600020905b81548152906001019060200180831161389457829003601f168201915b505050505081526020016011820180546138ca90615a1c565b80601f01602080910402602001604051908101604052809291908181526020018280546138f690615a1c565b80156139435780601f1061391857610100808354040283529160200191613943565b820191906000526020600020905b81548152906001019060200180831161392657829003601f168201915b50505091835250506012919091015463ffffffff16602091820152908252600192909201910161312d565b5050505094505050505092915050565b6001600160a01b03821660009081526002602052604090205460048054839190839081106139bc57634e487b7160e01b600052603260045260246000fd5b90600052602060002090600202016001018563ffffffff16815481106139f257634e487b7160e01b600052603260045260246000fd5b90600052602060002090601302016008019080519060200190613a16929190614d63565b5050505050565b3360009081526002602052604090205480613a3e57613a3b33614ce5565b90505b60048181548110613a5f57634e487b7160e01b600052603260045260246000fd5b9060005260206000209060020201600101604051806102c001604052808e63ffffffff1681526020018d81526020018c81526020018b81526020018a63ffffffff168152602001896001600160a01b031681526020018881526020018781526020018663ffffffff1681526020018515158152602001604051806020016040528060008152508152602001604051806020016040528060008152508152602001604051806020016040528060008152508152602001604051806020016040528060008152508152602001604051806020016040528060008152508152602001600063ffffffff168152602001600063ffffffff168152602001848152602001604051806020016040528060008152508152602001604051806020016040528060008152508152602001604051806020016040528060008152508152602001600063ffffffff16815250908060018154018082558091505060019003906000526020600020906013020160009091909190915060008201518160000160006101000a81548163ffffffff021916908363ffffffff160217905550602082015181600101556040820151816002019080519060200190613c1e929190614d63565b5060608201518051613c3a916003840191602090910190614d63565b50608082015160048201805460a08501516001600160a01b0316600160201b026001600160c01b031990911663ffffffff9093169290921791909117905560c08201518051613c93916005840191602090910190614d63565b5060e08201518051613caf916006840191602090910190614d63565b506101008201516007820180546101208501511515600160201b0264ffffffffff1990911663ffffffff909316929092179190911790556101408201518051613d02916008840191602090910190614d63565b506101608201518051613d1f916009840191602090910190614d63565b506101808201518051613d3c91600a840191602090910190614d63565b506101a08201518051613d5991600b840191602090910190614d63565b506101c08201518051613d7691600c840191602090910190614d63565b506101e0820151600d8201805461020085015163ffffffff908116600160201b0267ffffffffffffffff199092169316929092179190911790556102208201518051613dcc91600e840191602090910190614d63565b506102408201518051613de991600f840191602090910190614d63565b506102608201518051613e06916010840191602090910190614d63565b506102808201518051613e23916011840191602090910190614d63565b506102a091909101516012909101805463ffffffff191663ffffffff909216919091179055505050505050505050505050565b6001600160a01b038116600090815260026020526040902054600480546060929160019183908110613e9857634e487b7160e01b600052603260045260246000fd5b90600052602060002090600202016001018563ffffffff1681548110613ece57634e487b7160e01b600052603260045260246000fd5b906000526020600020906013020160070160046101000a81548160ff02191690831515021790555060048181548110613f1757634e487b7160e01b600052603260045260246000fd5b9060005260206000209060020201600101805480602002602001604051908101604052809291908181526020016000905b82821015614789576000848152602090819020604080516102c08101825260138602909201805463ffffffff16835260018101549383019390935260028301805492939291840191613f9990615a1c565b80601f0160208091040260200160405190810160405280929190818152602001828054613fc590615a1c565b80156140125780601f10613fe757610100808354040283529160200191614012565b820191906000526020600020905b815481529060010190602001808311613ff557829003601f168201915b5050505050815260200160038201805461402b90615a1c565b80601f016020809104026020016040519081016040528092919081815260200182805461405790615a1c565b80156140a45780601f10614079576101008083540402835291602001916140a4565b820191906000526020600020905b81548152906001019060200180831161408757829003601f168201915b5050509183525050600482015463ffffffff81166020830152600160201b90046001600160a01b031660408201526005820180546060909201916140e790615a1c565b80601f016020809104026020016040519081016040528092919081815260200182805461411390615a1c565b80156141605780601f1061413557610100808354040283529160200191614160565b820191906000526020600020905b81548152906001019060200180831161414357829003601f168201915b5050505050815260200160068201805461417990615a1c565b80601f01602080910402602001604051908101604052809291908181526020018280546141a590615a1c565b80156141f25780601f106141c7576101008083540402835291602001916141f2565b820191906000526020600020905b8154815290600101906020018083116141d557829003601f168201915b5050509183525050600782015463ffffffff81166020830152600160201b900460ff161515604082015260088201805460609092019161423190615a1c565b80601f016020809104026020016040519081016040528092919081815260200182805461425d90615a1c565b80156142aa5780601f1061427f576101008083540402835291602001916142aa565b820191906000526020600020905b81548152906001019060200180831161428d57829003601f168201915b505050505081526020016009820180546142c390615a1c565b80601f01602080910402602001604051908101604052809291908181526020018280546142ef90615a1c565b801561433c5780601f106143115761010080835404028352916020019161433c565b820191906000526020600020905b81548152906001019060200180831161431f57829003601f168201915b50505050508152602001600a8201805461435590615a1c565b80601f016020809104026020016040519081016040528092919081815260200182805461438190615a1c565b80156143ce5780601f106143a3576101008083540402835291602001916143ce565b820191906000526020600020905b8154815290600101906020018083116143b157829003601f168201915b50505050508152602001600b820180546143e790615a1c565b80601f016020809104026020016040519081016040528092919081815260200182805461441390615a1c565b80156144605780601f1061443557610100808354040283529160200191614460565b820191906000526020600020905b81548152906001019060200180831161444357829003601f168201915b50505050508152602001600c8201805461447990615a1c565b80601f01602080910402602001604051908101604052809291908181526020018280546144a590615a1c565b80156144f25780601f106144c7576101008083540402835291602001916144f2565b820191906000526020600020905b8154815290600101906020018083116144d557829003601f168201915b5050509183525050600d82015463ffffffff8082166020840152600160201b909104166040820152600e8201805460609092019161452f90615a1c565b80601f016020809104026020016040519081016040528092919081815260200182805461455b90615a1c565b80156145a85780601f1061457d576101008083540402835291602001916145a8565b820191906000526020600020905b81548152906001019060200180831161458b57829003601f168201915b50505050508152602001600f820180546145c190615a1c565b80601f01602080910402602001604051908101604052809291908181526020018280546145ed90615a1c565b801561463a5780601f1061460f5761010080835404028352916020019161463a565b820191906000526020600020905b81548152906001019060200180831161461d57829003601f168201915b5050505050815260200160108201805461465390615a1c565b80601f016020809104026020016040519081016040528092919081815260200182805461467f90615a1c565b80156146cc5780601f106146a1576101008083540402835291602001916146cc565b820191906000526020600020905b8154815290600101906020018083116146af57829003601f168201915b505050505081526020016011820180546146e590615a1c565b80601f016020809104026020016040519081016040528092919081815260200182805461471190615a1c565b801561475e5780601f106147335761010080835404028352916020019161475e565b820191906000526020600020905b81548152906001019060200180831161474157829003601f168201915b50505091835250506012919091015463ffffffff166020918201529082526001929092019101613f48565b5050505091505092915050565b6001600160a01b03831660009081526002602052604090205460048054879190839081106147d457634e487b7160e01b600052603260045260246000fd5b90600052602060002090600202016001018463ffffffff168154811061480a57634e487b7160e01b600052603260045260246000fd5b9060005260206000209060130201600c01908051906020019061482e929190614d63565b50846004828154811061485157634e487b7160e01b600052603260045260246000fd5b90600052602060002090600202016001018463ffffffff168154811061488757634e487b7160e01b600052603260045260246000fd5b9060005260206000209060130201600b0190805190602001906148ab929190614d63565b5081600482815481106148ce57634e487b7160e01b600052603260045260246000fd5b90600052602060002090600202016001018463ffffffff168154811061490457634e487b7160e01b600052603260045260246000fd5b9060005260206000209060130201600d0160006101000a81548163ffffffff021916908363ffffffff16021790555060006004828154811061495657634e487b7160e01b600052603260045260246000fd5b90600052602060002090600202016001018463ffffffff168154811061498c57634e487b7160e01b600052603260045260246000fd5b906000526020600020906013020160010154905060008363ffffffff1690506000600484815481106149ce57634e487b7160e01b600052603260045260246000fd5b90600052602060002090600202016001018663ffffffff1681548110614a0457634e487b7160e01b600052603260045260246000fd5b906000526020600020906013020160040160049054906101000a90046001600160a01b031690508160641415614a70576040516001600160a01b0388169084156108fc029085906000818181858888f19350505050158015614a6a573d6000803e3d6000fd5b50614ba0565b8160321415614afa576001600160a01b0387166108fc614a916002866159c6565b6040518115909202916000818181858888f19350505050158015614ab9573d6000803e3d6000fd5b506001600160a01b0381166108fc614ad26002866159c6565b6040518115909202916000818181858888f19350505050158015614a6a573d6000803e3d6000fd5b6000614b07836064615a05565b90506001600160a01b0388166108fc6064614b2286886159e6565b614b2c91906159c6565b6040518115909202916000818181858888f19350505050158015614b54573d6000803e3d6000fd5b506001600160a01b0382166108fc6064614b6e84886159e6565b614b7891906159c6565b6040518115909202916000818181858888f19350505050158015610ffa573d6000803e3d6000fd5b505050505050505050565b6001546040516370a0823160e01b815233600482015282916001600160a01b0316906370a082319060240160206040518083038186803b158015614bee57600080fd5b505afa158015614c02573d6000803e3d6000fd5b505050506040513d601f19601f82011682018060405250810190614c269190615088565b1015614c3157600080fd5b6001546040516323b872dd60e01b8152336004820152306024820152604481018390526001600160a01b03909116906323b872dd90606401602060405180830381600087803b158015614c8357600080fd5b505af1158015614c97573d6000803e3d6000fd5b505050506040513d601f19601f820116820180604052508101906124fa9190614f0c565b60038181548110614ccb57600080fd5b6000918252602090912001546001600160a01b0316905081565b60048054600190810180835560009283528291614d0191615a05565b90508260048281548110614d2557634e487b7160e01b600052603260045260246000fd5b6000918252602080832060029283020180546001600160a01b0319166001600160a01b03958616179055959092168152935260409092208290555090565b828054614d6f90615a1c565b90600052602060002090601f016020900481019282614d915760008555614dd7565b82601f10614daa57805160ff1916838001178555614dd7565b82800160010185558215614dd7579182015b82811115614dd7578251825591602001919060010190614dbc565b50614de3929150614de7565b5090565b5b80821115614de35760008155600101614de8565b80356001600160a01b03811681146123a157600080fd5b80356123a181615a83565b600082601f830112614e2e578081fd5b813567ffffffffffffffff80821115614e4957614e49615a6d565b604051601f8301601f19908116603f01168101908282118183101715614e7157614e71615a6d565b81604052838152866020858801011115614e89578485fd5b8360208701602083013792830160200193909352509392505050565b803563ffffffff811681146123a157600080fd5b600060208284031215614eca578081fd5b614ed382614dfc565b9392505050565b60008060408385031215614eec578081fd5b614ef583614dfc565b9150614f0360208401614ea5565b90509250929050565b600060208284031215614f1d578081fd5b8151614ed381615a83565b600080600080600060a08688031215614f3f578081fd5b853567ffffffffffffffff80821115614f56578283fd5b614f6289838a01614e1e565b96506020880135915080821115614f77578283fd5b50614f8488828901614e1e565b945050614f9360408701614dfc565b9250614fa160608701614ea5565b9150614faf60808701614ea5565b90509295509295909350565b60008060008060008060c08789031215614fd3578081fd5b863567ffffffffffffffff80821115614fea578283fd5b614ff68a838b01614e1e565b9750602089013591508082111561500b578283fd5b6150178a838b01614e1e565b965061502560408a01614dfc565b955061503360608a01614ea5565b945061504160808a01614ea5565b935060a0890135915080821115615056578283fd5b5061506389828a01614e1e565b9150509295509295509295565b600060208284031215615081578081fd5b5035919050565b600060208284031215615099578081fd5b5051919050565b600080600080608085870312156150b5578384fd5b84359350602085013567ffffffffffffffff8111156150d2578384fd5b6150de87828801614e1e565b9350506150ed60408601614ea5565b91506150fb60608601614dfc565b905092959194509250565b60008060408385031215615118578182fd5b61512183614ea5565b9150614f0360208401614dfc565b600080600060608486031215615143578283fd5b61514c84614ea5565b925061515a60208501614dfc565b9150604084013567ffffffffffffffff811115615175578182fd5b61518186828701614e1e565b9150509250925092565b600080600080608085870312156151a0578384fd5b6151a985614ea5565b93506151b760208601614dfc565b9250604085013567ffffffffffffffff8111156151d2578283fd5b6151de87828801614e1e565b9250506150fb60608601614ea5565b6000806000806000806000806000806101408b8d03121561520c578384fd5b6152158b614ea5565b995060208b013567ffffffffffffffff80821115615231578586fd5b61523d8e838f01614e1e565b9a5060408d0135915080821115615252578586fd5b61525e8e838f01614e1e565b995061526c60608e01614ea5565b985061527a60808e01614dfc565b975060a08d013591508082111561528f578586fd5b61529b8e838f01614e1e565b965060c08d01359150808211156152b0578586fd5b6152bc8e838f01614e1e565b95506152ca60e08e01614ea5565b94506152d96101008e01614e13565b93506101208d01359150808211156152ef578283fd5b506152fc8d828e01614e1e565b9150509295989b9194979a5092959850565b60008060008060008060008060008060006101608c8e03121561532f578485fd5b6153388c614ea5565b9a5060208c0135995067ffffffffffffffff8060408e0135111561535a578586fd5b61536a8e60408f01358f01614e1e565b99508060608e0135111561537c578586fd5b61538c8e60608f01358f01614e1e565b985061539a60808e01614ea5565b97506153a860a08e01614dfc565b96508060c08e013511156153ba578586fd5b6153ca8e60c08f01358f01614e1e565b95508060e08e013511156153dc578182fd5b6153ec8e60e08f01358f01614e1e565b94506153fb6101008e01614ea5565b935061540a6101208e01614e13565b9250806101408e0135111561541d578182fd5b5061542f8d6101408e01358e01614e1e565b90509295989b509295989b9093969950565b60008151808452815b818110156154665760208185018101518683018201520161544a565b818111156154775782602083870101525b50601f01601f19169290920160200192915050565b60006020808301818452808551808352604092508286019150828160051b870101848801865b838110156156eb57888303603f190185528151805163ffffffff1684526102c088820151898601528782015181898701526154ef82870182615441565b915050606080830151868303828801526155098382615441565b925050506080808301516155248288018263ffffffff169052565b505060a0828101516001600160a01b03169086015260c080830151868303828801526155508382615441565b9250505060e0808301518683038288015261556b8382615441565b92505050610100808301516155878288018263ffffffff169052565b50506101208281015115159086015261014080830151868303828801526155ae8382615441565b9250505061016080830151868303828801526155ca8382615441565b9250505061018080830151868303828801526155e68382615441565b925050506101a080830151868303828801526156028382615441565b925050506101c0808301518683038288015261561e8382615441565b925050506101e08083015161563a8288018263ffffffff169052565b50506102008281015163ffffffff169086015261022080830151868303828801526156658382615441565b9250505061024080830151868303828801526156818382615441565b92505050610260808301518683038288015261569d8382615441565b9250505061028080830151868303828801526156b98382615441565b925050506102a08083015192506156d78187018463ffffffff169052565b5095880195935050908601906001016154b2565b509098975050505050505050565b60006020808301818452808551808352604092508286019150828160051b870101848801865b838110156156eb57888303603f19018552815180516001600160a01b0316845287015187840187905280518785018190529088019060609081860190600581901b870183018c5b8281101561599c57888203605f190184528551805163ffffffff1683526102c08e8201518f8501528d820151818f8601526157a382860182615441565b91505086820151848203888601526157bb8282615441565b9150506080808301516157d58287018263ffffffff169052565b505060a0828101516001600160a01b03169085015260c080830151858303828701526158018382615441565b9250505060e0808301518583038287015261581c8382615441565b92505050610100808301516158388287018263ffffffff169052565b505061012082810151151590850152610140808301518583038287015261585f8382615441565b92505050610160808301518583038287015261587b8382615441565b9250505061018080830151858303828701526158978382615441565b925050506101a080830151858303828701526158b38382615441565b925050506101c080830151858303828701526158cf8382615441565b925050506101e0808301516158eb8287018263ffffffff169052565b50506102008281015163ffffffff169085015261022080830151858303828701526159168382615441565b9250505061024080830151858303828701526159328382615441565b92505050610260808301518583038287015261594e8382615441565b92505050610280808301518583038287015261596a8382615441565b925050506102a08083015192506159888186018463ffffffff169052565b50968e0196948e0194925050600101615766565b50988b01989650505092880192505060010161571f565b600060208252614ed36020830184615441565b6000826159e157634e487b7160e01b81526012600452602481fd5b500490565b6000816000190483118215151615615a0057615a00615a57565b500290565b600082821015615a1757615a17615a57565b500390565b600181811c90821680615a3057607f821691505b60208210811415615a5157634e487b7160e01b600052602260045260246000fd5b50919050565b634e487b7160e01b600052601160045260246000fd5b634e487b7160e01b600052604160045260246000fd5b8015158114615a9157600080fd5b5056fea264697066735822122077162e6d0ba7ae103d3bff5b3dbba8292c556718e490216b25db73533553349664736f6c63430008030033457468537761702046616972747261646572204d61696e204150702054657374696e67",
  "immutableReferences": {},
  "source": "// SPDX-License-Identifier: MIT\npragma solidity ^0.8.3;\n\nimport \"./Token.sol\";\n\ncontract BuyInvoicesMainAPp {\n    string public name = \"EthSwap Fairtrader Main APp Testing\";\n    Token public token;\n    //\n    mapping(address => uint256) public stakes;\n\n    address[] public stakers;\n    Stakeholder[] public stakeholders;\n\n    // event SmartContractOpenedBuyer(\n    //     uint32 _id,\n    //     string _termsAndCondition,\n    //     string _warrantyFile,\n    //     uint32 _apealTime,\n    //     string _sellerWalletAddress,\n    //     string _invoiceFile,\n    //     string _customerEmail,\n    //     uint32 _mediatorId,\n    //     bool _medAccepted,\n    //     string _friendsEmail\n    // );\n    // event ContractCompletedSeller(\n    //     address indexed user,\n    //     uint256 userIndex,\n    //     address sellerOrUser\n    // );\n\n    struct OrderData {\n        uint32 _orderId;\n        uint256 _amount;\n        string _termsAndCondition;\n        string _warrantyFile;\n        uint32 _apealTime;\n        address _sellerWalletAddress;\n        string _invoiceFile;\n        string _customerEmail;\n        uint32 _mediatorId;\n        bool _medAccepted;\n        string _superMedAcceptedEmail;\n        string _judgeReport;\n        string _judgeReportFile;\n        string _judgeReportFileSuperMed;\n        string _judgeReportSuperMed;\n        uint32 _buyerTakeAmountInPercentSuperMed;\n        uint32 _buyerTakeAmountInPercent;\n        string _friendsEmail;\n        string _appealTime;\n        string _whoCalled;\n        string _whoPaidMediatorFee;\n        uint32 _mediatorFee;\n    }\n\n    struct Stakeholder {\n        address user;\n        OrderData[] address_stakes;\n    }\n\n    constructor(Token _token) public {\n        // constructor() public {\n        stakeholders.push();\n        token = _token;\n    }\n\n    function getBalance() external view returns (uint256) {\n        return address(this).balance;\n    }\n\n    function exchangeHistoryOfStake()\n        external\n        view\n        returns (Stakeholder[] memory)\n    {\n        return stakeholders;\n    }\n\n    function getAllOrdersOfOneUser(address _userAddress)\n        external\n        view\n        returns (OrderData[] memory)\n    {\n        // require(/* mediator is calling not any other person for security purpose*/);\n        uint256 index = stakes[_userAddress];\n        return stakeholders[index].address_stakes;\n    }\n\n    function medAcceptNewCases(uint32 _index, address buyerWalletAddress)\n        external\n        returns (OrderData[] memory)\n    {\n        // require(/* mediator is calling not any other person for security purpose*/);\n        uint256 index = stakes[buyerWalletAddress];\n        stakeholders[index].address_stakes[_index]._medAccepted = true;\n\n        return stakeholders[index].address_stakes;\n    }\n\n    function payMediatorFee(\n        uint32 _index,\n        address buyerWalletAddress,\n        string memory _whoPaidMediatorFee,\n        uint32 _mediatorFee\n    ) public payable {\n        // returns (OrderData[] memory)\n        uint256 index = stakes[buyerWalletAddress];\n        stakeholders[index]\n            .address_stakes[_index]\n            ._whoPaidMediatorFee = _whoPaidMediatorFee;\n        stakeholders[index].address_stakes[_index]._mediatorFee = _mediatorFee;\n\n        // return stakeholders[index].address_stakes;\n    }\n\n    function superMedAcceptNewCases(\n        uint32 _index,\n        address buyerWalletAddress,\n        string memory _superMediatorEmail\n    ) external {\n        // require(/* mediator is calling not any other person for security purpose*/);\n        uint256 index = stakes[buyerWalletAddress];\n        stakeholders[index]\n            .address_stakes[_index]\n            ._superMedAcceptedEmail = _superMediatorEmail;\n    }\n\n    function medJudgeCaseReportSuperMed(\n        string memory _judgeReport,\n        string memory _judgeReportFile,\n        address buyerWalletAddress,\n        uint32 _index,\n        uint32 _buyerTakeAmountInPercent\n    ) external {\n        // returns (OrderData[] memory)\n        // require(/* mediator is calling not any other person for security purpose*/);\n        uint256 index = stakes[buyerWalletAddress];\n        stakeholders[index]\n            .address_stakes[_index]\n            ._judgeReportSuperMed = _judgeReport;\n        stakeholders[index]\n            .address_stakes[_index]\n            ._judgeReportFileSuperMed = _judgeReportFile;\n        stakeholders[index]\n            .address_stakes[_index]\n            ._buyerTakeAmountInPercentSuperMed = _buyerTakeAmountInPercent;\n\n        uint256 amount = stakeholders[index].address_stakes[_index]._amount;\n        uint256 buyerTakeAmountInPercent = _buyerTakeAmountInPercent;\n        address sellerWalletAddressOfContract = stakeholders[index]\n            .address_stakes[_index]\n            ._sellerWalletAddress;\n\n        // ADDING CHECK THAT ONLY SELLER ADDRESS IS SAME IN CONTRACT OR SOMEOEN ELSE IS TRYING\n        // string memory sellerAddress = stakeholders[index].address_stakes[_index]._sellerWalletAddress;\n        // require(string(sellerWalletAddress) == sellerAddress);\n\n        if (buyerTakeAmountInPercent == 100) {\n            payable(buyerWalletAddress).transfer(amount);\n        } else if (buyerTakeAmountInPercent == 50) {\n            payable(buyerWalletAddress).transfer(amount / 2);\n            payable(sellerWalletAddressOfContract).transfer(amount / 2);\n        } else {\n            uint256 sellerTakePercent = 100 - buyerTakeAmountInPercent;\n            payable(buyerWalletAddress).transfer(\n                (amount * buyerTakeAmountInPercent) / 100\n            );\n            payable(sellerWalletAddressOfContract).transfer(\n                (amount * sellerTakePercent) / 100\n            );\n        }\n\n        // return stakeholders[index].address_stakes;\n    }\n\n    function medJudgeCaseReport(\n        string memory _judgeReport,\n        string memory _judgeReportFile,\n        address buyerWalletAddress,\n        uint32 _index,\n        uint32 _buyerTakeAmountInPercent,\n        string memory _appealTime\n    ) external returns (OrderData[] memory) {\n        // require(/* mediator is calling not any other person for security purpose*/);\n        uint256 index = stakes[buyerWalletAddress];\n        stakeholders[index].address_stakes[_index]._judgeReport = _judgeReport;\n        stakeholders[index]\n            .address_stakes[_index]\n            ._judgeReportFile = _judgeReportFile;\n        stakeholders[index]\n            .address_stakes[_index]\n            ._buyerTakeAmountInPercent = _buyerTakeAmountInPercent;\n        stakeholders[index].address_stakes[_index]._appealTime = _appealTime;\n\n        return stakeholders[index].address_stakes;\n    }\n\n    function payFeeForSuperMediator(\n        uint256 _amount,\n        string memory _whoIsCalling,\n        uint32 _index,\n        address buyerWalletAddress\n    ) public returns (OrderData[] memory) {\n        // User can't sell more tokens than they have\n        require(token.balanceOf(msg.sender) >= _amount);\n\n        uint256 index = stakes[buyerWalletAddress];\n        stakeholders[index].address_stakes[_index]._whoCalled = _whoIsCalling;\n\n        // Perform sale\n        token.transferFrom(msg.sender, address(this), _amount);\n\n        return stakeholders[index].address_stakes;\n    }\n\n    function payFeeForSuperMediatorr(uint256 _amount) public {\n        // User can't sell more tokens than they have\n        require(token.balanceOf(msg.sender) >= _amount);\n\n        // Perform sale\n        token.transferFrom(msg.sender, address(this), _amount);\n    }\n\n    function mediatorWithDrawFees(uint256 amount)\n        external\n    {\n        payable(msg.sender).transfer(amount);\n    }\n\n    function userWithdrawTheirDisputesOrdersCash(\n        address buyerWalletAddress,\n        uint32 _index\n    ) external returns (OrderData[] memory) {\n        // require(/* mediator is calling not any other person for security purpose*/);\n        uint256 index = stakes[buyerWalletAddress];\n\n        uint256 amount = stakeholders[index].address_stakes[_index]._amount;\n        uint256 buyerTakeAmountInPercent = stakeholders[index]\n            .address_stakes[_index]\n            ._buyerTakeAmountInPercent;\n        address sellerWalletAddressOfContract = stakeholders[index]\n            .address_stakes[_index]\n            ._sellerWalletAddress;\n\n        // ADDING CHECK THAT ONLY SELLER ADDRESS IS SAME IN CONTRACT OR SOMEOEN ELSE IS TRYING\n        // string memory sellerAddress = stakeholders[index].address_stakes[_index]._sellerWalletAddress;\n        // require(string(sellerWalletAddress) == sellerAddress);\n\n        if (msg.sender == buyerWalletAddress) {\n            if (buyerTakeAmountInPercent == 100) {\n                payable(buyerWalletAddress).transfer(amount);\n            } else if (buyerTakeAmountInPercent == 50) {\n                payable(buyerWalletAddress).transfer(amount / 2);\n            } else {\n                payable(buyerWalletAddress).transfer(\n                    (amount * buyerTakeAmountInPercent) / 100\n                );\n            }\n        } else if (msg.sender == sellerWalletAddressOfContract) {\n            if (buyerTakeAmountInPercent == 50) {\n                payable(sellerWalletAddressOfContract).transfer(amount / 2);\n            } else {\n                uint256 sellerTakePercent = 100 - buyerTakeAmountInPercent;\n                payable(sellerWalletAddressOfContract).transfer(\n                    (amount * sellerTakePercent) / 100\n                );\n            }\n        }\n\n        return stakeholders[index].address_stakes;\n    }\n\n    function _addStakeholder(address staker) internal returns (uint256) {\n        stakeholders.push();\n        uint256 userIndex = stakeholders.length - 1;\n        stakeholders[userIndex].user = staker;\n        stakes[staker] = userIndex;\n        return userIndex;\n    }\n\n    function _saveOrdersDataOfUser(\n        uint32 _orderId,\n        uint256 _amount,\n        string memory _termsAndCondition,\n        string memory _warrantyFile,\n        uint32 _apealTime,\n        address _sellerWalletAddress,\n        string memory _invoiceFile,\n        string memory _customerEmail,\n        uint32 _mediatorId,\n        bool _medAccepted,\n        string memory _friendsEmail\n    ) public {\n        // Check that the requested amount of tokens to sell is more than 0\n        // require(_sellerWalletAddress == '', \"seller Wallet Address Cannot nothing\");\n\n        uint256 index = stakes[msg.sender];\n        if (index == 0) {\n            index = _addStakeholder(msg.sender);\n        }\n\n        stakeholders[index].address_stakes.push(\n            OrderData(\n                _orderId,\n                _amount,\n                _termsAndCondition,\n                _warrantyFile,\n                _apealTime,\n                _sellerWalletAddress,\n                _invoiceFile,\n                _customerEmail,\n                _mediatorId,\n                _medAccepted,\n                \"\",\n                \"\",\n                \"\",\n                \"\",\n                \"\",\n                0,\n                0,\n                _friendsEmail,\n                \"\",\n                \"\",\n                \"\",\n                0\n            )\n        );\n    }\n\n    function buyWithFTP(\n        uint32 _orderId,\n        uint256 _amount,\n        string memory _termsAndCondition,\n        string memory _warrantyFile,\n        uint32 _apealTime,\n        address _sellerWalletAddress,\n        string memory _invoiceFile,\n        string memory _customerEmail,\n        uint32 _mediatorId,\n        bool _medAccepted,\n        string memory _friendsEmail\n    ) public {\n        // User can't sell more tokens than they have\n        require(token.balanceOf(msg.sender) >= _amount);\n\n        // Perform sale\n        token.transferFrom(msg.sender, address(this), _amount);\n\n        _saveOrdersDataOfUser(\n            _orderId,\n            _amount,\n            _termsAndCondition,\n            _warrantyFile,\n            _apealTime,\n            _sellerWalletAddress,\n            _invoiceFile,\n            _customerEmail,\n            _mediatorId,\n            _medAccepted,\n            _friendsEmail\n        );\n    }\n\n    // function buyWithUsdt(\n    //     uint32 _orderId,\n    //     uint256 _amount,\n    //     string memory _termsAndCondition,\n    //     string memory _warrantyFile,\n    //     uint32 _apealTime,\n    //     address _sellerWalletAddress,\n    //     string memory _invoiceFile,\n    //     string memory _customerEmail,\n    // uint32 _mediatorId,\n    // bool _medAccepted,\n    //     string memory _friendsEmail\n    // ) public {\n    //     // User can't sell more tokens than they have\n    //     require(usdtToken.balanceOf(msg.sender) >= _amount);\n\n    //     // Perform sale\n    //     usdtToken.transferFrom(msg.sender, address(this), _amount);\n\n    //     _saveOrdersDataOfUser(\n    //         _orderId,\n    //          _amount,\n    //         _termsAndCondition,\n    //         _warrantyFile,\n    //         _apealTime,\n    //         _sellerWalletAddress,\n    //         _invoiceFile,\n    //         _customerEmail,\n    // _mediatorId,\n    // _medAccepted,\n    //         _friendsEmail\n    //     );\n    // }\n\n    function buyWithBNB(\n        uint32 _orderId,\n        string memory _termsAndCondition,\n        string memory _warrantyFile,\n        uint32 _apealTime,\n        address _sellerWalletAddress,\n        string memory _invoiceFile,\n        string memory _customerEmail,\n        uint32 _mediatorId,\n        bool _medAccepted,\n        string memory _friendsEmail\n    ) public payable {\n        // User can't sell more tokens than they have\n        // require(token.balanceOf(msg.sender) >= msg.value);\n\n        // Perform sale\n        // token.transferFrom(msg.sender, address(this), _amount);\n        // address(address(this).transfer(_amount));\n        // token.transfer(address(this), _amount);\n        // token.transferFrom(msg.sender, address(this), _amount);\n\n        _saveOrdersDataOfUser(\n            _orderId,\n            msg.value,\n            _termsAndCondition,\n            _warrantyFile,\n            _apealTime,\n            _sellerWalletAddress,\n            _invoiceFile,\n            _customerEmail,\n            _mediatorId,\n            _medAccepted,\n            _friendsEmail\n        );\n    }\n}\n",
  "sourcePath": "/home/abdullah/Desktop/Fairtrader/FairTrader Main App Smart_Contract/UPGRADECONTRACT...(buy Invoice Main APp)/contracts/BuyInvoicesMainAPp.sol",
  "compiler": {
    "name": "solc",
    "version": "0.8.3+commit.8d00100c.Emscripten.clang"
  },
  "schemaVersion": "3.4.10",
  "updatedAt": "2022-11-09T03:37:27.211Z",
  "networkType": "ethereum",
  "devdoc": {
    "kind": "dev",
    "methods": {},
    "version": 1
  },
  "userdoc": {
    "kind": "user",
    "methods": {},
    "version": 1
  }
}