{
  "contractName": "BuyInvoicesMainAPp",
  "abi": [
    {
      "inputs": [
        {
          "internalType": "contract Token",
          "name": "_token",
          "type": "address"
        }
      ],
      "stateMutability": "nonpayable",
      "type": "constructor"
    },
    {
      "inputs": [],
      "name": "name",
      "outputs": [
        {
          "internalType": "string",
          "name": "",
          "type": "string"
        }
      ],
      "stateMutability": "view",
      "type": "function",
      "constant": true
    },
    {
      "inputs": [
        {
          "internalType": "uint256",
          "name": "",
          "type": "uint256"
        }
      ],
      "name": "stakeholders",
      "outputs": [
        {
          "internalType": "address",
          "name": "user",
          "type": "address"
        }
      ],
      "stateMutability": "view",
      "type": "function",
      "constant": true
    },
    {
      "inputs": [
        {
          "internalType": "uint256",
          "name": "",
          "type": "uint256"
        }
      ],
      "name": "stakers",
      "outputs": [
        {
          "internalType": "address",
          "name": "",
          "type": "address"
        }
      ],
      "stateMutability": "view",
      "type": "function",
      "constant": true
    },
    {
      "inputs": [
        {
          "internalType": "address",
          "name": "",
          "type": "address"
        }
      ],
      "name": "stakes",
      "outputs": [
        {
          "internalType": "uint256",
          "name": "",
          "type": "uint256"
        }
      ],
      "stateMutability": "view",
      "type": "function",
      "constant": true
    },
    {
      "inputs": [],
      "name": "token",
      "outputs": [
        {
          "internalType": "contract Token",
          "name": "",
          "type": "address"
        }
      ],
      "stateMutability": "view",
      "type": "function",
      "constant": true
    },
    {
      "inputs": [],
      "name": "getBalance",
      "outputs": [
        {
          "internalType": "uint256",
          "name": "",
          "type": "uint256"
        }
      ],
      "stateMutability": "view",
      "type": "function",
      "constant": true
    },
    {
      "inputs": [],
      "name": "exchangeHistoryOfStake",
      "outputs": [
        {
          "components": [
            {
              "internalType": "address",
              "name": "user",
              "type": "address"
            },
            {
              "components": [
                {
                  "internalType": "uint32",
                  "name": "_orderId",
                  "type": "uint32"
                },
                {
                  "internalType": "uint256",
                  "name": "_amount",
                  "type": "uint256"
                },
                {
                  "internalType": "string",
                  "name": "_termsAndCondition",
                  "type": "string"
                },
                {
                  "internalType": "string",
                  "name": "_warrantyFile",
                  "type": "string"
                },
                {
                  "internalType": "uint32",
                  "name": "_apealTime",
                  "type": "uint32"
                },
                {
                  "internalType": "address",
                  "name": "_sellerWalletAddress",
                  "type": "address"
                },
                {
                  "internalType": "string",
                  "name": "_invoiceFile",
                  "type": "string"
                },
                {
                  "internalType": "string",
                  "name": "_customerEmail",
                  "type": "string"
                },
                {
                  "internalType": "uint32",
                  "name": "_mediatorId",
                  "type": "uint32"
                },
                {
                  "internalType": "bool",
                  "name": "_medAccepted",
                  "type": "bool"
                },
                {
                  "internalType": "string",
                  "name": "_superMedAcceptedEmail",
                  "type": "string"
                },
                {
                  "internalType": "string",
                  "name": "_judgeReport",
                  "type": "string"
                },
                {
                  "internalType": "string",
                  "name": "_judgeReportFile",
                  "type": "string"
                },
                {
                  "internalType": "string",
                  "name": "_judgeReportFileSuperMed",
                  "type": "string"
                },
                {
                  "internalType": "string",
                  "name": "_judgeReportSuperMed",
                  "type": "string"
                },
                {
                  "internalType": "uint32",
                  "name": "_buyerTakeAmountInPercentSuperMed",
                  "type": "uint32"
                },
                {
                  "internalType": "uint32",
                  "name": "_buyerTakeAmountInPercent",
                  "type": "uint32"
                },
                {
                  "internalType": "string",
                  "name": "_friendsEmail",
                  "type": "string"
                },
                {
                  "internalType": "string",
                  "name": "_appealTime",
                  "type": "string"
                },
                {
                  "internalType": "string",
                  "name": "_whoCalledMed",
                  "type": "string"
                },
                {
                  "internalType": "string",
                  "name": "_whoCalledSuperMed",
                  "type": "string"
                },
                {
                  "internalType": "string",
                  "name": "_whoPaidMediatorFee",
                  "type": "string"
                },
                {
                  "internalType": "uint256",
                  "name": "_mediatorFee",
                  "type": "uint256"
                },
                {
                  "internalType": "address",
                  "name": "_mediatorWalletAddress",
                  "type": "address"
                },
                {
                  "internalType": "bool",
                  "name": "_buyerPaidWithoutMed",
                  "type": "bool"
                }
              ],
              "internalType": "struct BuyInvoicesMainAPp.OrderData[]",
              "name": "address_stakes",
              "type": "tuple[]"
            }
          ],
          "internalType": "struct BuyInvoicesMainAPp.Stakeholder[]",
          "name": "",
          "type": "tuple[]"
        }
      ],
      "stateMutability": "view",
      "type": "function",
      "constant": true
    },
    {
      "inputs": [
        {
          "internalType": "address",
          "name": "_userAddress",
          "type": "address"
        }
      ],
      "name": "getAllOrdersOfOneUser",
      "outputs": [
        {
          "components": [
            {
              "internalType": "uint32",
              "name": "_orderId",
              "type": "uint32"
            },
            {
              "internalType": "uint256",
              "name": "_amount",
              "type": "uint256"
            },
            {
              "internalType": "string",
              "name": "_termsAndCondition",
              "type": "string"
            },
            {
              "internalType": "string",
              "name": "_warrantyFile",
              "type": "string"
            },
            {
              "internalType": "uint32",
              "name": "_apealTime",
              "type": "uint32"
            },
            {
              "internalType": "address",
              "name": "_sellerWalletAddress",
              "type": "address"
            },
            {
              "internalType": "string",
              "name": "_invoiceFile",
              "type": "string"
            },
            {
              "internalType": "string",
              "name": "_customerEmail",
              "type": "string"
            },
            {
              "internalType": "uint32",
              "name": "_mediatorId",
              "type": "uint32"
            },
            {
              "internalType": "bool",
              "name": "_medAccepted",
              "type": "bool"
            },
            {
              "internalType": "string",
              "name": "_superMedAcceptedEmail",
              "type": "string"
            },
            {
              "internalType": "string",
              "name": "_judgeReport",
              "type": "string"
            },
            {
              "internalType": "string",
              "name": "_judgeReportFile",
              "type": "string"
            },
            {
              "internalType": "string",
              "name": "_judgeReportFileSuperMed",
              "type": "string"
            },
            {
              "internalType": "string",
              "name": "_judgeReportSuperMed",
              "type": "string"
            },
            {
              "internalType": "uint32",
              "name": "_buyerTakeAmountInPercentSuperMed",
              "type": "uint32"
            },
            {
              "internalType": "uint32",
              "name": "_buyerTakeAmountInPercent",
              "type": "uint32"
            },
            {
              "internalType": "string",
              "name": "_friendsEmail",
              "type": "string"
            },
            {
              "internalType": "string",
              "name": "_appealTime",
              "type": "string"
            },
            {
              "internalType": "string",
              "name": "_whoCalledMed",
              "type": "string"
            },
            {
              "internalType": "string",
              "name": "_whoCalledSuperMed",
              "type": "string"
            },
            {
              "internalType": "string",
              "name": "_whoPaidMediatorFee",
              "type": "string"
            },
            {
              "internalType": "uint256",
              "name": "_mediatorFee",
              "type": "uint256"
            },
            {
              "internalType": "address",
              "name": "_mediatorWalletAddress",
              "type": "address"
            },
            {
              "internalType": "bool",
              "name": "_buyerPaidWithoutMed",
              "type": "bool"
            }
          ],
          "internalType": "struct BuyInvoicesMainAPp.OrderData[]",
          "name": "",
          "type": "tuple[]"
        }
      ],
      "stateMutability": "view",
      "type": "function",
      "constant": true
    },
    {
      "inputs": [
        {
          "internalType": "uint32",
          "name": "_index",
          "type": "uint32"
        },
        {
          "internalType": "address",
          "name": "buyerWalletAddress",
          "type": "address"
        }
      ],
      "name": "medAcceptNewCases",
      "outputs": [
        {
          "components": [
            {
              "internalType": "uint32",
              "name": "_orderId",
              "type": "uint32"
            },
            {
              "internalType": "uint256",
              "name": "_amount",
              "type": "uint256"
            },
            {
              "internalType": "string",
              "name": "_termsAndCondition",
              "type": "string"
            },
            {
              "internalType": "string",
              "name": "_warrantyFile",
              "type": "string"
            },
            {
              "internalType": "uint32",
              "name": "_apealTime",
              "type": "uint32"
            },
            {
              "internalType": "address",
              "name": "_sellerWalletAddress",
              "type": "address"
            },
            {
              "internalType": "string",
              "name": "_invoiceFile",
              "type": "string"
            },
            {
              "internalType": "string",
              "name": "_customerEmail",
              "type": "string"
            },
            {
              "internalType": "uint32",
              "name": "_mediatorId",
              "type": "uint32"
            },
            {
              "internalType": "bool",
              "name": "_medAccepted",
              "type": "bool"
            },
            {
              "internalType": "string",
              "name": "_superMedAcceptedEmail",
              "type": "string"
            },
            {
              "internalType": "string",
              "name": "_judgeReport",
              "type": "string"
            },
            {
              "internalType": "string",
              "name": "_judgeReportFile",
              "type": "string"
            },
            {
              "internalType": "string",
              "name": "_judgeReportFileSuperMed",
              "type": "string"
            },
            {
              "internalType": "string",
              "name": "_judgeReportSuperMed",
              "type": "string"
            },
            {
              "internalType": "uint32",
              "name": "_buyerTakeAmountInPercentSuperMed",
              "type": "uint32"
            },
            {
              "internalType": "uint32",
              "name": "_buyerTakeAmountInPercent",
              "type": "uint32"
            },
            {
              "internalType": "string",
              "name": "_friendsEmail",
              "type": "string"
            },
            {
              "internalType": "string",
              "name": "_appealTime",
              "type": "string"
            },
            {
              "internalType": "string",
              "name": "_whoCalledMed",
              "type": "string"
            },
            {
              "internalType": "string",
              "name": "_whoCalledSuperMed",
              "type": "string"
            },
            {
              "internalType": "string",
              "name": "_whoPaidMediatorFee",
              "type": "string"
            },
            {
              "internalType": "uint256",
              "name": "_mediatorFee",
              "type": "uint256"
            },
            {
              "internalType": "address",
              "name": "_mediatorWalletAddress",
              "type": "address"
            },
            {
              "internalType": "bool",
              "name": "_buyerPaidWithoutMed",
              "type": "bool"
            }
          ],
          "internalType": "struct BuyInvoicesMainAPp.OrderData[]",
          "name": "",
          "type": "tuple[]"
        }
      ],
      "stateMutability": "nonpayable",
      "type": "function"
    },
    {
      "inputs": [
        {
          "internalType": "uint32",
          "name": "_index",
          "type": "uint32"
        },
        {
          "internalType": "address",
          "name": "buyerWalletAddress",
          "type": "address"
        },
        {
          "internalType": "string",
          "name": "_whoPaidMediatorFee",
          "type": "string"
        },
        {
          "internalType": "uint256",
          "name": "_mediatorFee",
          "type": "uint256"
        },
        {
          "internalType": "address",
          "name": "mediatorWalletAddress",
          "type": "address"
        }
      ],
      "name": "payMediatorFee",
      "outputs": [],
      "stateMutability": "payable",
      "type": "function",
      "payable": true
    },
    {
      "inputs": [
        {
          "internalType": "uint32",
          "name": "_index",
          "type": "uint32"
        },
        {
          "internalType": "address",
          "name": "buyerWalletAddress",
          "type": "address"
        },
        {
          "internalType": "string",
          "name": "_superMediatorEmail",
          "type": "string"
        }
      ],
      "name": "superMedAcceptNewCases",
      "outputs": [],
      "stateMutability": "nonpayable",
      "type": "function"
    },
    {
      "inputs": [
        {
          "internalType": "string",
          "name": "_judgeReport",
          "type": "string"
        },
        {
          "internalType": "string",
          "name": "_judgeReportFile",
          "type": "string"
        },
        {
          "internalType": "address",
          "name": "buyerWalletAddress",
          "type": "address"
        },
        {
          "internalType": "uint32",
          "name": "_index",
          "type": "uint32"
        },
        {
          "internalType": "uint32",
          "name": "_buyerTakeAmountInPercent",
          "type": "uint32"
        }
      ],
      "name": "medJudgeCaseReportSuperMed",
      "outputs": [],
      "stateMutability": "nonpayable",
      "type": "function"
    },
    {
      "inputs": [
        {
          "internalType": "string",
          "name": "_judgeReport",
          "type": "string"
        },
        {
          "internalType": "string",
          "name": "_judgeReportFile",
          "type": "string"
        },
        {
          "internalType": "address",
          "name": "buyerWalletAddress",
          "type": "address"
        },
        {
          "internalType": "uint32",
          "name": "_index",
          "type": "uint32"
        },
        {
          "internalType": "uint32",
          "name": "_buyerTakeAmountInPercent",
          "type": "uint32"
        },
        {
          "internalType": "string",
          "name": "_appealTime",
          "type": "string"
        }
      ],
      "name": "medJudgeCaseReport",
      "outputs": [
        {
          "components": [
            {
              "internalType": "uint32",
              "name": "_orderId",
              "type": "uint32"
            },
            {
              "internalType": "uint256",
              "name": "_amount",
              "type": "uint256"
            },
            {
              "internalType": "string",
              "name": "_termsAndCondition",
              "type": "string"
            },
            {
              "internalType": "string",
              "name": "_warrantyFile",
              "type": "string"
            },
            {
              "internalType": "uint32",
              "name": "_apealTime",
              "type": "uint32"
            },
            {
              "internalType": "address",
              "name": "_sellerWalletAddress",
              "type": "address"
            },
            {
              "internalType": "string",
              "name": "_invoiceFile",
              "type": "string"
            },
            {
              "internalType": "string",
              "name": "_customerEmail",
              "type": "string"
            },
            {
              "internalType": "uint32",
              "name": "_mediatorId",
              "type": "uint32"
            },
            {
              "internalType": "bool",
              "name": "_medAccepted",
              "type": "bool"
            },
            {
              "internalType": "string",
              "name": "_superMedAcceptedEmail",
              "type": "string"
            },
            {
              "internalType": "string",
              "name": "_judgeReport",
              "type": "string"
            },
            {
              "internalType": "string",
              "name": "_judgeReportFile",
              "type": "string"
            },
            {
              "internalType": "string",
              "name": "_judgeReportFileSuperMed",
              "type": "string"
            },
            {
              "internalType": "string",
              "name": "_judgeReportSuperMed",
              "type": "string"
            },
            {
              "internalType": "uint32",
              "name": "_buyerTakeAmountInPercentSuperMed",
              "type": "uint32"
            },
            {
              "internalType": "uint32",
              "name": "_buyerTakeAmountInPercent",
              "type": "uint32"
            },
            {
              "internalType": "string",
              "name": "_friendsEmail",
              "type": "string"
            },
            {
              "internalType": "string",
              "name": "_appealTime",
              "type": "string"
            },
            {
              "internalType": "string",
              "name": "_whoCalledMed",
              "type": "string"
            },
            {
              "internalType": "string",
              "name": "_whoCalledSuperMed",
              "type": "string"
            },
            {
              "internalType": "string",
              "name": "_whoPaidMediatorFee",
              "type": "string"
            },
            {
              "internalType": "uint256",
              "name": "_mediatorFee",
              "type": "uint256"
            },
            {
              "internalType": "address",
              "name": "_mediatorWalletAddress",
              "type": "address"
            },
            {
              "internalType": "bool",
              "name": "_buyerPaidWithoutMed",
              "type": "bool"
            }
          ],
          "internalType": "struct BuyInvoicesMainAPp.OrderData[]",
          "name": "",
          "type": "tuple[]"
        }
      ],
      "stateMutability": "nonpayable",
      "type": "function"
    },
    {
      "inputs": [
        {
          "internalType": "uint256",
          "name": "_amount",
          "type": "uint256"
        },
        {
          "internalType": "string",
          "name": "_whoIsCalling",
          "type": "string"
        },
        {
          "internalType": "uint32",
          "name": "_index",
          "type": "uint32"
        },
        {
          "internalType": "address",
          "name": "buyerWalletAddress",
          "type": "address"
        }
      ],
      "name": "payFeeForSuperMediator",
      "outputs": [],
      "stateMutability": "nonpayable",
      "type": "function"
    },
    {
      "inputs": [
        {
          "internalType": "uint256",
          "name": "_amount",
          "type": "uint256"
        },
        {
          "internalType": "string",
          "name": "_whoIsCalling",
          "type": "string"
        },
        {
          "internalType": "uint32",
          "name": "_index",
          "type": "uint32"
        },
        {
          "internalType": "address",
          "name": "buyerWalletAddress",
          "type": "address"
        }
      ],
      "name": "payFeeForMediator",
      "outputs": [],
      "stateMutability": "nonpayable",
      "type": "function"
    },
    {
      "inputs": [
        {
          "internalType": "address",
          "name": "_sellerWalletAddress",
          "type": "address"
        },
        {
          "internalType": "uint256",
          "name": "_amount",
          "type": "uint256"
        },
        {
          "internalType": "uint32",
          "name": "_index",
          "type": "uint32"
        }
      ],
      "name": "buyerPaySimple",
      "outputs": [],
      "stateMutability": "nonpayable",
      "type": "function"
    },
    {
      "inputs": [
        {
          "internalType": "uint256",
          "name": "amount",
          "type": "uint256"
        }
      ],
      "name": "mediatorWithDrawFees",
      "outputs": [],
      "stateMutability": "nonpayable",
      "type": "function"
    },
    {
      "inputs": [
        {
          "internalType": "address",
          "name": "buyerWalletAddress",
          "type": "address"
        },
        {
          "internalType": "uint32",
          "name": "_index",
          "type": "uint32"
        }
      ],
      "name": "userWithdrawTheirDisputesOrdersCash",
      "outputs": [
        {
          "components": [
            {
              "internalType": "uint32",
              "name": "_orderId",
              "type": "uint32"
            },
            {
              "internalType": "uint256",
              "name": "_amount",
              "type": "uint256"
            },
            {
              "internalType": "string",
              "name": "_termsAndCondition",
              "type": "string"
            },
            {
              "internalType": "string",
              "name": "_warrantyFile",
              "type": "string"
            },
            {
              "internalType": "uint32",
              "name": "_apealTime",
              "type": "uint32"
            },
            {
              "internalType": "address",
              "name": "_sellerWalletAddress",
              "type": "address"
            },
            {
              "internalType": "string",
              "name": "_invoiceFile",
              "type": "string"
            },
            {
              "internalType": "string",
              "name": "_customerEmail",
              "type": "string"
            },
            {
              "internalType": "uint32",
              "name": "_mediatorId",
              "type": "uint32"
            },
            {
              "internalType": "bool",
              "name": "_medAccepted",
              "type": "bool"
            },
            {
              "internalType": "string",
              "name": "_superMedAcceptedEmail",
              "type": "string"
            },
            {
              "internalType": "string",
              "name": "_judgeReport",
              "type": "string"
            },
            {
              "internalType": "string",
              "name": "_judgeReportFile",
              "type": "string"
            },
            {
              "internalType": "string",
              "name": "_judgeReportFileSuperMed",
              "type": "string"
            },
            {
              "internalType": "string",
              "name": "_judgeReportSuperMed",
              "type": "string"
            },
            {
              "internalType": "uint32",
              "name": "_buyerTakeAmountInPercentSuperMed",
              "type": "uint32"
            },
            {
              "internalType": "uint32",
              "name": "_buyerTakeAmountInPercent",
              "type": "uint32"
            },
            {
              "internalType": "string",
              "name": "_friendsEmail",
              "type": "string"
            },
            {
              "internalType": "string",
              "name": "_appealTime",
              "type": "string"
            },
            {
              "internalType": "string",
              "name": "_whoCalledMed",
              "type": "string"
            },
            {
              "internalType": "string",
              "name": "_whoCalledSuperMed",
              "type": "string"
            },
            {
              "internalType": "string",
              "name": "_whoPaidMediatorFee",
              "type": "string"
            },
            {
              "internalType": "uint256",
              "name": "_mediatorFee",
              "type": "uint256"
            },
            {
              "internalType": "address",
              "name": "_mediatorWalletAddress",
              "type": "address"
            },
            {
              "internalType": "bool",
              "name": "_buyerPaidWithoutMed",
              "type": "bool"
            }
          ],
          "internalType": "struct BuyInvoicesMainAPp.OrderData[]",
          "name": "",
          "type": "tuple[]"
        }
      ],
      "stateMutability": "nonpayable",
      "type": "function"
    },
    {
      "inputs": [
        {
          "internalType": "uint32",
          "name": "_orderId",
          "type": "uint32"
        },
        {
          "internalType": "uint256",
          "name": "_amount",
          "type": "uint256"
        },
        {
          "internalType": "string",
          "name": "_termsAndCondition",
          "type": "string"
        },
        {
          "internalType": "string",
          "name": "_warrantyFile",
          "type": "string"
        },
        {
          "internalType": "uint32",
          "name": "_apealTime",
          "type": "uint32"
        },
        {
          "internalType": "address",
          "name": "_sellerWalletAddress",
          "type": "address"
        },
        {
          "internalType": "string",
          "name": "_invoiceFile",
          "type": "string"
        },
        {
          "internalType": "string",
          "name": "_customerEmail",
          "type": "string"
        },
        {
          "internalType": "uint32",
          "name": "_mediatorId",
          "type": "uint32"
        },
        {
          "internalType": "bool",
          "name": "_medAccepted",
          "type": "bool"
        },
        {
          "internalType": "string",
          "name": "_friendsEmail",
          "type": "string"
        }
      ],
      "name": "_saveOrdersDataOfUser",
      "outputs": [],
      "stateMutability": "nonpayable",
      "type": "function"
    },
    {
      "inputs": [
        {
          "internalType": "uint32",
          "name": "_orderId",
          "type": "uint32"
        },
        {
          "internalType": "uint256",
          "name": "_amount",
          "type": "uint256"
        },
        {
          "internalType": "string",
          "name": "_termsAndCondition",
          "type": "string"
        },
        {
          "internalType": "string",
          "name": "_warrantyFile",
          "type": "string"
        },
        {
          "internalType": "uint32",
          "name": "_apealTime",
          "type": "uint32"
        },
        {
          "internalType": "address",
          "name": "_sellerWalletAddress",
          "type": "address"
        },
        {
          "internalType": "string",
          "name": "_invoiceFile",
          "type": "string"
        },
        {
          "internalType": "string",
          "name": "_customerEmail",
          "type": "string"
        },
        {
          "internalType": "uint32",
          "name": "_mediatorId",
          "type": "uint32"
        },
        {
          "internalType": "bool",
          "name": "_medAccepted",
          "type": "bool"
        },
        {
          "internalType": "string",
          "name": "_friendsEmail",
          "type": "string"
        }
      ],
      "name": "buyWithFTP",
      "outputs": [],
      "stateMutability": "nonpayable",
      "type": "function"
    },
    {
      "inputs": [
        {
          "internalType": "uint32",
          "name": "_orderId",
          "type": "uint32"
        },
        {
          "internalType": "string",
          "name": "_termsAndCondition",
          "type": "string"
        },
        {
          "internalType": "string",
          "name": "_warrantyFile",
          "type": "string"
        },
        {
          "internalType": "uint32",
          "name": "_apealTime",
          "type": "uint32"
        },
        {
          "internalType": "address",
          "name": "_sellerWalletAddress",
          "type": "address"
        },
        {
          "internalType": "string",
          "name": "_invoiceFile",
          "type": "string"
        },
        {
          "internalType": "string",
          "name": "_customerEmail",
          "type": "string"
        },
        {
          "internalType": "uint32",
          "name": "_mediatorId",
          "type": "uint32"
        },
        {
          "internalType": "bool",
          "name": "_medAccepted",
          "type": "bool"
        },
        {
          "internalType": "string",
          "name": "_friendsEmail",
          "type": "string"
        }
      ],
      "name": "buyWithBNB",
      "outputs": [],
      "stateMutability": "payable",
      "type": "function",
      "payable": true
    }
  ],
  "bytecode": "0x60e0604052602360808181529062005b2960a039805162000029916000916020909101906200008f565b503480156200003757600080fd5b5060405162005b4c38038062005b4c8339810160408190526200005a9162000135565b600480546001908101825560009190915280546001600160a01b0319166001600160a01b0392909216919091179055620001a2565b8280546200009d9062000165565b90600052602060002090601f016020900481019282620000c157600085556200010c565b82601f10620000dc57805160ff19168380011785556200010c565b828001600101855582156200010c579182015b828111156200010c578251825591602001919060010190620000ef565b506200011a9291506200011e565b5090565b5b808211156200011a57600081556001016200011f565b60006020828403121562000147578081fd5b81516001600160a01b03811681146200015e578182fd5b9392505050565b600181811c908216806200017a57607f821691505b602082108114156200019c57634e487b7160e01b600052602260045260246000fd5b50919050565b61597780620001b26000396000f3fe60806040526004361061012a5760003560e01c80638cf04ae4116100ab578063be9cb51a1161006f578063be9cb51a14610340578063bea4e5b814610353578063cf591db514610373578063d72f5aec14610393578063fc0c546a146103b3578063fd5e6dd1146103d35761012a565b80638cf04ae41461029e5780639529441e146102be578063abf940c8146102e0578063b506c2a214610300578063b8e2de71146103205761012a565b80631d6b8b72116100f25780631d6b8b72146101e65780632f3726c31461021e5780633b07c9871461023e57806342c518891461026b57806347f3d0c01461027e5761012a565b806306fdde031461012f57806312065fe01461015a57806316934fc4146101775780631c5c2a8f146101a45780631d601be2146101c6575b600080fd5b34801561013b57600080fd5b506101446103f3565b6040516101519190615860565b60405180910390f35b34801561016657600080fd5b50475b604051908152602001610151565b34801561018357600080fd5b50610169610192366004614cb2565b60026020526000908152604090205481565b3480156101b057600080fd5b506101c46101bf366004614cd3565b610481565b005b3480156101d257600080fd5b506101c46101e1366004614ed4565b610555565b3480156101f257600080fd5b50610206610201366004614ea4565b610706565b6040516001600160a01b039091168152602001610151565b34801561022a57600080fd5b506101c461023936600461514b565b610735565b34801561024a57600080fd5b5061025e610259366004614def565b610866565b60405161015191906152c9565b6101c461027936600461502a565b6113db565b34801561028a57600080fd5b5061025e610299366004614cb2565b6113fa565b3480156102aa57600080fd5b506101c46102b9366004614ea4565b611d6d565b3480156102ca57600080fd5b506102d3611d9e565b604051610151919061556e565b3480156102ec57600080fd5b5061025e6102fb366004614d0e565b612729565b34801561030c57600080fd5b506101c461031b366004614f63565b613386565b34801561032c57600080fd5b506101c461033b36600461514b565b61341e565b6101c461034e366004614fbf565b6138d3565b34801561035f57600080fd5b5061025e61036e366004614f3a565b613a6e565b34801561037f57600080fd5b506101c461038e366004614d5c565b614462565b34801561039f57600080fd5b506101c46103ae366004614ed4565b614996565b3480156103bf57600080fd5b50600154610206906001600160a01b031681565b3480156103df57600080fd5b506102066103ee366004614ea4565b614ab4565b60008054610400906158c9565b80601f016020809104026020016040519081016040528092919081815260200182805461042c906158c9565b80156104795780601f1061044e57610100808354040283529160200191610479565b820191906000526020600020905b81548152906001019060200180831161045c57829003601f168201915b505050505081565b336000908152600260205260409020546004805460019190839081106104b757634e487b7160e01b600052603260045260246000fd5b90600052602060002090600202016001018363ffffffff16815481106104ed57634e487b7160e01b600052603260045260246000fd5b6000918252602082206014601590920201018054921515600160a01b0260ff60a01b19909316929092179091556040516001600160a01b0386169185156108fc02918691818181858888f1935050505015801561054e573d6000803e3d6000fd5b5050505050565b6001546040516370a0823160e01b815233600482015285916001600160a01b0316906370a082319060240160206040518083038186803b15801561059857600080fd5b505afa1580156105ac573d6000803e3d6000fd5b505050506040513d601f19601f820116820180604052508101906105d09190614ebc565b10156105db57600080fd5b6001600160a01b038116600090815260026020526040902054600480548591908390811061061957634e487b7160e01b600052603260045260246000fd5b90600052602060002090600202016001018463ffffffff168154811061064f57634e487b7160e01b600052603260045260246000fd5b90600052602060002090601502016011019080519060200190610673929190614b5c565b506001546040516323b872dd60e01b8152336004820152306024820152604481018790526001600160a01b03909116906323b872dd90606401602060405180830381600087803b1580156106c657600080fd5b505af11580156106da573d6000803e3d6000fd5b505050506040513d601f19601f820116820180604052508101906106fe9190614d40565b505050505050565b6004818154811061071657600080fd5b60009182526020909120600290910201546001600160a01b0316905081565b6001546040516370a0823160e01b81523360048201528b916001600160a01b0316906370a082319060240160206040518083038186803b15801561077857600080fd5b505afa15801561078c573d6000803e3d6000fd5b505050506040513d601f19601f820116820180604052508101906107b09190614ebc565b10156107bb57600080fd5b6001546040516323b872dd60e01b8152336004820152306024820152604481018c90526001600160a01b03909116906323b872dd90606401602060405180830381600087803b15801561080d57600080fd5b505af1158015610821573d6000803e3d6000fd5b505050506040513d601f19601f820116820180604052508101906108459190614d40565b506108598b8b8b8b8b8b8b8b8b8b8b61341e565b5050505050505050505050565b6001600160a01b03841660009081526002602052604090205460048054606092918991839081106108a757634e487b7160e01b600052603260045260246000fd5b90600052602060002090600202016001018663ffffffff16815481106108dd57634e487b7160e01b600052603260045260246000fd5b90600052602060002090601502016009019080519060200190610901929190614b5c565b50866004828154811061092457634e487b7160e01b600052603260045260246000fd5b90600052602060002090600202016001018663ffffffff168154811061095a57634e487b7160e01b600052603260045260246000fd5b9060005260206000209060150201600a01908051906020019061097e929190614b5c565b5083600482815481106109a157634e487b7160e01b600052603260045260246000fd5b90600052602060002090600202016001018663ffffffff16815481106109d757634e487b7160e01b600052603260045260246000fd5b9060005260206000209060150201600d0160046101000a81548163ffffffff021916908363ffffffff1602179055508260048281548110610a2857634e487b7160e01b600052603260045260246000fd5b90600052602060002090600202016001018663ffffffff1681548110610a5e57634e487b7160e01b600052603260045260246000fd5b9060005260206000209060150201600f019080519060200190610a82929190614b5c565b5060048181548110610aa457634e487b7160e01b600052603260045260246000fd5b9060005260206000209060020201600101805480602002602001604051908101604052809291908181526020016000905b828210156113ca576000848152602090819020604080516103208101825260158602909201805463ffffffff16835260018101549383019390935260028301805492939291840191610b26906158c9565b80601f0160208091040260200160405190810160405280929190818152602001828054610b52906158c9565b8015610b9f5780601f10610b7457610100808354040283529160200191610b9f565b820191906000526020600020905b815481529060010190602001808311610b8257829003601f168201915b50505050508152602001600382018054610bb8906158c9565b80601f0160208091040260200160405190810160405280929190818152602001828054610be4906158c9565b8015610c315780601f10610c0657610100808354040283529160200191610c31565b820191906000526020600020905b815481529060010190602001808311610c1457829003601f168201915b5050509183525050600482015463ffffffff81166020830152600160201b90046001600160a01b03166040820152600582018054606090920191610c74906158c9565b80601f0160208091040260200160405190810160405280929190818152602001828054610ca0906158c9565b8015610ced5780601f10610cc257610100808354040283529160200191610ced565b820191906000526020600020905b815481529060010190602001808311610cd057829003601f168201915b50505050508152602001600682018054610d06906158c9565b80601f0160208091040260200160405190810160405280929190818152602001828054610d32906158c9565b8015610d7f5780601f10610d5457610100808354040283529160200191610d7f565b820191906000526020600020905b815481529060010190602001808311610d6257829003601f168201915b5050509183525050600782015463ffffffff81166020830152600160201b900460ff1615156040820152600882018054606090920191610dbe906158c9565b80601f0160208091040260200160405190810160405280929190818152602001828054610dea906158c9565b8015610e375780601f10610e0c57610100808354040283529160200191610e37565b820191906000526020600020905b815481529060010190602001808311610e1a57829003601f168201915b50505050508152602001600982018054610e50906158c9565b80601f0160208091040260200160405190810160405280929190818152602001828054610e7c906158c9565b8015610ec95780601f10610e9e57610100808354040283529160200191610ec9565b820191906000526020600020905b815481529060010190602001808311610eac57829003601f168201915b50505050508152602001600a82018054610ee2906158c9565b80601f0160208091040260200160405190810160405280929190818152602001828054610f0e906158c9565b8015610f5b5780601f10610f3057610100808354040283529160200191610f5b565b820191906000526020600020905b815481529060010190602001808311610f3e57829003601f168201915b50505050508152602001600b82018054610f74906158c9565b80601f0160208091040260200160405190810160405280929190818152602001828054610fa0906158c9565b8015610fed5780601f10610fc257610100808354040283529160200191610fed565b820191906000526020600020905b815481529060010190602001808311610fd057829003601f168201915b50505050508152602001600c82018054611006906158c9565b80601f0160208091040260200160405190810160405280929190818152602001828054611032906158c9565b801561107f5780601f106110545761010080835404028352916020019161107f565b820191906000526020600020905b81548152906001019060200180831161106257829003601f168201915b5050509183525050600d82015463ffffffff8082166020840152600160201b909104166040820152600e820180546060909201916110bc906158c9565b80601f01602080910402602001604051908101604052809291908181526020018280546110e8906158c9565b80156111355780601f1061110a57610100808354040283529160200191611135565b820191906000526020600020905b81548152906001019060200180831161111857829003601f168201915b50505050508152602001600f8201805461114e906158c9565b80601f016020809104026020016040519081016040528092919081815260200182805461117a906158c9565b80156111c75780601f1061119c576101008083540402835291602001916111c7565b820191906000526020600020905b8154815290600101906020018083116111aa57829003601f168201915b505050505081526020016010820180546111e0906158c9565b80601f016020809104026020016040519081016040528092919081815260200182805461120c906158c9565b80156112595780601f1061122e57610100808354040283529160200191611259565b820191906000526020600020905b81548152906001019060200180831161123c57829003601f168201915b50505050508152602001601182018054611272906158c9565b80601f016020809104026020016040519081016040528092919081815260200182805461129e906158c9565b80156112eb5780601f106112c0576101008083540402835291602001916112eb565b820191906000526020600020905b8154815290600101906020018083116112ce57829003601f168201915b50505050508152602001601282018054611304906158c9565b80601f0160208091040260200160405190810160405280929190818152602001828054611330906158c9565b801561137d5780601f106113525761010080835404028352916020019161137d565b820191906000526020600020905b81548152906001019060200180831161136057829003601f168201915b505050918352505060138201546020808301919091526014909201546001600160a01b0381166040830152600160a01b900460ff1615156060909101529082526001929092019101610ad5565b505050509150509695505050505050565b6113ee8a348b8b8b8b8b8b8b8b8b61341e565b50505050505050505050565b6001600160a01b0381166000908152600260205260409020546004805460609291908290811061143a57634e487b7160e01b600052603260045260246000fd5b9060005260206000209060020201600101805480602002602001604051908101604052809291908181526020016000905b82821015611d60576000848152602090819020604080516103208101825260158602909201805463ffffffff168352600181015493830193909352600283018054929392918401916114bc906158c9565b80601f01602080910402602001604051908101604052809291908181526020018280546114e8906158c9565b80156115355780601f1061150a57610100808354040283529160200191611535565b820191906000526020600020905b81548152906001019060200180831161151857829003601f168201915b5050505050815260200160038201805461154e906158c9565b80601f016020809104026020016040519081016040528092919081815260200182805461157a906158c9565b80156115c75780601f1061159c576101008083540402835291602001916115c7565b820191906000526020600020905b8154815290600101906020018083116115aa57829003601f168201915b5050509183525050600482015463ffffffff81166020830152600160201b90046001600160a01b0316604082015260058201805460609092019161160a906158c9565b80601f0160208091040260200160405190810160405280929190818152602001828054611636906158c9565b80156116835780601f1061165857610100808354040283529160200191611683565b820191906000526020600020905b81548152906001019060200180831161166657829003601f168201915b5050505050815260200160068201805461169c906158c9565b80601f01602080910402602001604051908101604052809291908181526020018280546116c8906158c9565b80156117155780601f106116ea57610100808354040283529160200191611715565b820191906000526020600020905b8154815290600101906020018083116116f857829003601f168201915b5050509183525050600782015463ffffffff81166020830152600160201b900460ff1615156040820152600882018054606090920191611754906158c9565b80601f0160208091040260200160405190810160405280929190818152602001828054611780906158c9565b80156117cd5780601f106117a2576101008083540402835291602001916117cd565b820191906000526020600020905b8154815290600101906020018083116117b057829003601f168201915b505050505081526020016009820180546117e6906158c9565b80601f0160208091040260200160405190810160405280929190818152602001828054611812906158c9565b801561185f5780601f106118345761010080835404028352916020019161185f565b820191906000526020600020905b81548152906001019060200180831161184257829003601f168201915b50505050508152602001600a82018054611878906158c9565b80601f01602080910402602001604051908101604052809291908181526020018280546118a4906158c9565b80156118f15780601f106118c6576101008083540402835291602001916118f1565b820191906000526020600020905b8154815290600101906020018083116118d457829003601f168201915b50505050508152602001600b8201805461190a906158c9565b80601f0160208091040260200160405190810160405280929190818152602001828054611936906158c9565b80156119835780601f1061195857610100808354040283529160200191611983565b820191906000526020600020905b81548152906001019060200180831161196657829003601f168201915b50505050508152602001600c8201805461199c906158c9565b80601f01602080910402602001604051908101604052809291908181526020018280546119c8906158c9565b8015611a155780601f106119ea57610100808354040283529160200191611a15565b820191906000526020600020905b8154815290600101906020018083116119f857829003601f168201915b5050509183525050600d82015463ffffffff8082166020840152600160201b909104166040820152600e82018054606090920191611a52906158c9565b80601f0160208091040260200160405190810160405280929190818152602001828054611a7e906158c9565b8015611acb5780601f10611aa057610100808354040283529160200191611acb565b820191906000526020600020905b815481529060010190602001808311611aae57829003601f168201915b50505050508152602001600f82018054611ae4906158c9565b80601f0160208091040260200160405190810160405280929190818152602001828054611b10906158c9565b8015611b5d5780601f10611b3257610100808354040283529160200191611b5d565b820191906000526020600020905b815481529060010190602001808311611b4057829003601f168201915b50505050508152602001601082018054611b76906158c9565b80601f0160208091040260200160405190810160405280929190818152602001828054611ba2906158c9565b8015611bef5780601f10611bc457610100808354040283529160200191611bef565b820191906000526020600020905b815481529060010190602001808311611bd257829003601f168201915b50505050508152602001601182018054611c08906158c9565b80601f0160208091040260200160405190810160405280929190818152602001828054611c34906158c9565b8015611c815780601f10611c5657610100808354040283529160200191611c81565b820191906000526020600020905b815481529060010190602001808311611c6457829003601f168201915b50505050508152602001601282018054611c9a906158c9565b80601f0160208091040260200160405190810160405280929190818152602001828054611cc6906158c9565b8015611d135780601f10611ce857610100808354040283529160200191611d13565b820191906000526020600020905b815481529060010190602001808311611cf657829003601f168201915b505050918352505060138201546020808301919091526014909201546001600160a01b0381166040830152600160a01b900460ff161515606090910152908252600192909201910161146b565b505050509150505b919050565b604051339082156108fc029083906000818181858888f19350505050158015611d9a573d6000803e3d6000fd5b5050565b60606004805480602002602001604051908101604052809291908181526020016000905b8282101561272057600084815260208082206040805180820182526002870290920180546001600160a01b03168352600181018054835181870281018701909452808452939591948681019491929084015b82821015612709576000848152602090819020604080516103208101825260158602909201805463ffffffff16835260018101549383019390935260028301805492939291840191611e65906158c9565b80601f0160208091040260200160405190810160405280929190818152602001828054611e91906158c9565b8015611ede5780601f10611eb357610100808354040283529160200191611ede565b820191906000526020600020905b815481529060010190602001808311611ec157829003601f168201915b50505050508152602001600382018054611ef7906158c9565b80601f0160208091040260200160405190810160405280929190818152602001828054611f23906158c9565b8015611f705780601f10611f4557610100808354040283529160200191611f70565b820191906000526020600020905b815481529060010190602001808311611f5357829003601f168201915b5050509183525050600482015463ffffffff81166020830152600160201b90046001600160a01b03166040820152600582018054606090920191611fb3906158c9565b80601f0160208091040260200160405190810160405280929190818152602001828054611fdf906158c9565b801561202c5780601f106120015761010080835404028352916020019161202c565b820191906000526020600020905b81548152906001019060200180831161200f57829003601f168201915b50505050508152602001600682018054612045906158c9565b80601f0160208091040260200160405190810160405280929190818152602001828054612071906158c9565b80156120be5780601f10612093576101008083540402835291602001916120be565b820191906000526020600020905b8154815290600101906020018083116120a157829003601f168201915b5050509183525050600782015463ffffffff81166020830152600160201b900460ff16151560408201526008820180546060909201916120fd906158c9565b80601f0160208091040260200160405190810160405280929190818152602001828054612129906158c9565b80156121765780601f1061214b57610100808354040283529160200191612176565b820191906000526020600020905b81548152906001019060200180831161215957829003601f168201915b5050505050815260200160098201805461218f906158c9565b80601f01602080910402602001604051908101604052809291908181526020018280546121bb906158c9565b80156122085780601f106121dd57610100808354040283529160200191612208565b820191906000526020600020905b8154815290600101906020018083116121eb57829003601f168201915b50505050508152602001600a82018054612221906158c9565b80601f016020809104026020016040519081016040528092919081815260200182805461224d906158c9565b801561229a5780601f1061226f5761010080835404028352916020019161229a565b820191906000526020600020905b81548152906001019060200180831161227d57829003601f168201915b50505050508152602001600b820180546122b3906158c9565b80601f01602080910402602001604051908101604052809291908181526020018280546122df906158c9565b801561232c5780601f106123015761010080835404028352916020019161232c565b820191906000526020600020905b81548152906001019060200180831161230f57829003601f168201915b50505050508152602001600c82018054612345906158c9565b80601f0160208091040260200160405190810160405280929190818152602001828054612371906158c9565b80156123be5780601f10612393576101008083540402835291602001916123be565b820191906000526020600020905b8154815290600101906020018083116123a157829003601f168201915b5050509183525050600d82015463ffffffff8082166020840152600160201b909104166040820152600e820180546060909201916123fb906158c9565b80601f0160208091040260200160405190810160405280929190818152602001828054612427906158c9565b80156124745780601f1061244957610100808354040283529160200191612474565b820191906000526020600020905b81548152906001019060200180831161245757829003601f168201915b50505050508152602001600f8201805461248d906158c9565b80601f01602080910402602001604051908101604052809291908181526020018280546124b9906158c9565b80156125065780601f106124db57610100808354040283529160200191612506565b820191906000526020600020905b8154815290600101906020018083116124e957829003601f168201915b5050505050815260200160108201805461251f906158c9565b80601f016020809104026020016040519081016040528092919081815260200182805461254b906158c9565b80156125985780601f1061256d57610100808354040283529160200191612598565b820191906000526020600020905b81548152906001019060200180831161257b57829003601f168201915b505050505081526020016011820180546125b1906158c9565b80601f01602080910402602001604051908101604052809291908181526020018280546125dd906158c9565b801561262a5780601f106125ff5761010080835404028352916020019161262a565b820191906000526020600020905b81548152906001019060200180831161260d57829003601f168201915b50505050508152602001601282018054612643906158c9565b80601f016020809104026020016040519081016040528092919081815260200182805461266f906158c9565b80156126bc5780601f10612691576101008083540402835291602001916126bc565b820191906000526020600020905b81548152906001019060200180831161269f57829003601f168201915b505050918352505060138201546020808301919091526014909201546001600160a01b0381166040830152600160a01b900460ff1615156060909101529082526001929092019101611e14565b505050508152505081526020019060010190611dc2565b50505050905090565b6001600160a01b0382166000908152600260205260408120546004805460609391908390811061276957634e487b7160e01b600052603260045260246000fd5b90600052602060002090600202016001018463ffffffff168154811061279f57634e487b7160e01b600052603260045260246000fd5b90600052602060002090601502016001015490506000600483815481106127d657634e487b7160e01b600052603260045260246000fd5b90600052602060002090600202016001018563ffffffff168154811061280c57634e487b7160e01b600052603260045260246000fd5b9060005260206000209060150201600d0160049054906101000a900463ffffffff1663ffffffff16905060006004848154811061285957634e487b7160e01b600052603260045260246000fd5b90600052602060002090600202016001018663ffffffff168154811061288f57634e487b7160e01b600052603260045260246000fd5b6000918252602090912060159091020160040154600160201b90046001600160a01b03908116915087163314156129a0578160641415612905576040516001600160a01b0388169084156108fc029085906000818181858888f193505050501580156128ff573d6000803e3d6000fd5b5061299b565b816032141561294e576001600160a01b0387166108fc612926600286615873565b6040518115909202916000818181858888f193505050501580156128ff573d6000803e3d6000fd5b6001600160a01b0387166108fc60646129678587615893565b6129719190615873565b6040518115909202916000818181858888f19350505050158015612999573d6000803e3d6000fd5b505b612a2f565b336001600160a01b0382161415612a2f5781603214156129d2576001600160a01b0381166108fc612971600286615873565b60006129df8360646158b2565b90506001600160a01b0382166108fc60646129fa8488615893565b612a049190615873565b6040518115909202916000818181858888f19350505050158015612a2c573d6000803e3d6000fd5b50505b60048481548110612a5057634e487b7160e01b600052603260045260246000fd5b9060005260206000209060020201600101805480602002602001604051908101604052809291908181526020016000905b82821015613376576000848152602090819020604080516103208101825260158602909201805463ffffffff16835260018101549383019390935260028301805492939291840191612ad2906158c9565b80601f0160208091040260200160405190810160405280929190818152602001828054612afe906158c9565b8015612b4b5780601f10612b2057610100808354040283529160200191612b4b565b820191906000526020600020905b815481529060010190602001808311612b2e57829003601f168201915b50505050508152602001600382018054612b64906158c9565b80601f0160208091040260200160405190810160405280929190818152602001828054612b90906158c9565b8015612bdd5780601f10612bb257610100808354040283529160200191612bdd565b820191906000526020600020905b815481529060010190602001808311612bc057829003601f168201915b5050509183525050600482015463ffffffff81166020830152600160201b90046001600160a01b03166040820152600582018054606090920191612c20906158c9565b80601f0160208091040260200160405190810160405280929190818152602001828054612c4c906158c9565b8015612c995780601f10612c6e57610100808354040283529160200191612c99565b820191906000526020600020905b815481529060010190602001808311612c7c57829003601f168201915b50505050508152602001600682018054612cb2906158c9565b80601f0160208091040260200160405190810160405280929190818152602001828054612cde906158c9565b8015612d2b5780601f10612d0057610100808354040283529160200191612d2b565b820191906000526020600020905b815481529060010190602001808311612d0e57829003601f168201915b5050509183525050600782015463ffffffff81166020830152600160201b900460ff1615156040820152600882018054606090920191612d6a906158c9565b80601f0160208091040260200160405190810160405280929190818152602001828054612d96906158c9565b8015612de35780601f10612db857610100808354040283529160200191612de3565b820191906000526020600020905b815481529060010190602001808311612dc657829003601f168201915b50505050508152602001600982018054612dfc906158c9565b80601f0160208091040260200160405190810160405280929190818152602001828054612e28906158c9565b8015612e755780601f10612e4a57610100808354040283529160200191612e75565b820191906000526020600020905b815481529060010190602001808311612e5857829003601f168201915b50505050508152602001600a82018054612e8e906158c9565b80601f0160208091040260200160405190810160405280929190818152602001828054612eba906158c9565b8015612f075780601f10612edc57610100808354040283529160200191612f07565b820191906000526020600020905b815481529060010190602001808311612eea57829003601f168201915b50505050508152602001600b82018054612f20906158c9565b80601f0160208091040260200160405190810160405280929190818152602001828054612f4c906158c9565b8015612f995780601f10612f6e57610100808354040283529160200191612f99565b820191906000526020600020905b815481529060010190602001808311612f7c57829003601f168201915b50505050508152602001600c82018054612fb2906158c9565b80601f0160208091040260200160405190810160405280929190818152602001828054612fde906158c9565b801561302b5780601f106130005761010080835404028352916020019161302b565b820191906000526020600020905b81548152906001019060200180831161300e57829003601f168201915b5050509183525050600d82015463ffffffff8082166020840152600160201b909104166040820152600e82018054606090920191613068906158c9565b80601f0160208091040260200160405190810160405280929190818152602001828054613094906158c9565b80156130e15780601f106130b6576101008083540402835291602001916130e1565b820191906000526020600020905b8154815290600101906020018083116130c457829003601f168201915b50505050508152602001600f820180546130fa906158c9565b80601f0160208091040260200160405190810160405280929190818152602001828054613126906158c9565b80156131735780601f1061314857610100808354040283529160200191613173565b820191906000526020600020905b81548152906001019060200180831161315657829003601f168201915b5050505050815260200160108201805461318c906158c9565b80601f01602080910402602001604051908101604052809291908181526020018280546131b8906158c9565b80156132055780601f106131da57610100808354040283529160200191613205565b820191906000526020600020905b8154815290600101906020018083116131e857829003601f168201915b5050505050815260200160118201805461321e906158c9565b80601f016020809104026020016040519081016040528092919081815260200182805461324a906158c9565b80156132975780601f1061326c57610100808354040283529160200191613297565b820191906000526020600020905b81548152906001019060200180831161327a57829003601f168201915b505050505081526020016012820180546132b0906158c9565b80601f01602080910402602001604051908101604052809291908181526020018280546132dc906158c9565b80156133295780601f106132fe57610100808354040283529160200191613329565b820191906000526020600020905b81548152906001019060200180831161330c57829003601f168201915b505050918352505060138201546020808301919091526014909201546001600160a01b0381166040830152600160a01b900460ff1615156060909101529082526001929092019101612a81565b5050505094505050505092915050565b6001600160a01b03821660009081526002602052604090205460048054839190839081106133c457634e487b7160e01b600052603260045260246000fd5b90600052602060002090600202016001018563ffffffff16815481106133fa57634e487b7160e01b600052603260045260246000fd5b9060005260206000209060150201600801908051906020019061054e929190614b5c565b336000908152600260205260409020548061343f5761343c33614ade565b90505b6004818154811061346057634e487b7160e01b600052603260045260246000fd5b90600052602060002090600202016001016040518061032001604052808e63ffffffff1681526020018d81526020018c81526020018b81526020018a63ffffffff168152602001896001600160a01b031681526020018881526020018781526020018663ffffffff1681526020018515158152602001604051806020016040528060008152508152602001604051806020016040528060008152508152602001604051806020016040528060008152508152602001604051806020016040528060008152508152602001604051806020016040528060008152508152602001600063ffffffff168152602001600063ffffffff16815260200184815260200160405180602001604052806000815250815260200160405180602001604052806000815250815260200160405180602001604052806000815250815260200160405180602001604052806000815250815260200160008152602001732e50a8e498912ef9818f080a43f849c4a58c1a666001600160a01b0316815260200160001515815250908060018154018082558091505060019003906000526020600020906015020160009091909190915060008201518160000160006101000a81548163ffffffff021916908363ffffffff16021790555060208201518160010155604082015181600201908051906020019061365a929190614b5c565b5060608201518051613676916003840191602090910190614b5c565b50608082015160048201805460a08501516001600160a01b0316600160201b026001600160c01b031990911663ffffffff9093169290921791909117905560c082015180516136cf916005840191602090910190614b5c565b5060e082015180516136eb916006840191602090910190614b5c565b506101008201516007820180546101208501511515600160201b0264ffffffffff1990911663ffffffff90931692909217919091179055610140820151805161373e916008840191602090910190614b5c565b50610160820151805161375b916009840191602090910190614b5c565b50610180820151805161377891600a840191602090910190614b5c565b506101a0820151805161379591600b840191602090910190614b5c565b506101c082015180516137b291600c840191602090910190614b5c565b506101e0820151600d8201805461020085015163ffffffff908116600160201b0267ffffffffffffffff19909216931692909217919091179055610220820151805161380891600e840191602090910190614b5c565b50610240820151805161382591600f840191602090910190614b5c565b506102608201518051613842916010840191602090910190614b5c565b50610280820151805161385f916011840191602090910190614b5c565b506102a0820151805161387c916012840191602090910190614b5c565b506102c082015160138201556102e082015160149091018054610300909301511515600160a01b026001600160a81b03199093166001600160a01b0390921691909117919091179055505050505050505050505050565b6001600160a01b038416600090815260026020526040902054600480548591908390811061391157634e487b7160e01b600052603260045260246000fd5b90600052602060002090600202016001018763ffffffff168154811061394757634e487b7160e01b600052603260045260246000fd5b9060005260206000209060150201601201908051906020019061396b929190614b5c565b50826004828154811061398e57634e487b7160e01b600052603260045260246000fd5b90600052602060002090600202016001018763ffffffff16815481106139c457634e487b7160e01b600052603260045260246000fd5b90600052602060002090601502016013018190555081600482815481106139fb57634e487b7160e01b600052603260045260246000fd5b90600052602060002090600202016001018763ffffffff1681548110613a3157634e487b7160e01b600052603260045260246000fd5b906000526020600020906015020160140160006101000a8154816001600160a01b0302191690836001600160a01b03160217905550505050505050565b6001600160a01b038116600090815260026020526040902054600480546060929160019183908110613ab057634e487b7160e01b600052603260045260246000fd5b90600052602060002090600202016001018563ffffffff1681548110613ae657634e487b7160e01b600052603260045260246000fd5b906000526020600020906015020160070160046101000a81548160ff02191690831515021790555060048181548110613b2f57634e487b7160e01b600052603260045260246000fd5b9060005260206000209060020201600101805480602002602001604051908101604052809291908181526020016000905b82821015614455576000848152602090819020604080516103208101825260158602909201805463ffffffff16835260018101549383019390935260028301805492939291840191613bb1906158c9565b80601f0160208091040260200160405190810160405280929190818152602001828054613bdd906158c9565b8015613c2a5780601f10613bff57610100808354040283529160200191613c2a565b820191906000526020600020905b815481529060010190602001808311613c0d57829003601f168201915b50505050508152602001600382018054613c43906158c9565b80601f0160208091040260200160405190810160405280929190818152602001828054613c6f906158c9565b8015613cbc5780601f10613c9157610100808354040283529160200191613cbc565b820191906000526020600020905b815481529060010190602001808311613c9f57829003601f168201915b5050509183525050600482015463ffffffff81166020830152600160201b90046001600160a01b03166040820152600582018054606090920191613cff906158c9565b80601f0160208091040260200160405190810160405280929190818152602001828054613d2b906158c9565b8015613d785780601f10613d4d57610100808354040283529160200191613d78565b820191906000526020600020905b815481529060010190602001808311613d5b57829003601f168201915b50505050508152602001600682018054613d91906158c9565b80601f0160208091040260200160405190810160405280929190818152602001828054613dbd906158c9565b8015613e0a5780601f10613ddf57610100808354040283529160200191613e0a565b820191906000526020600020905b815481529060010190602001808311613ded57829003601f168201915b5050509183525050600782015463ffffffff81166020830152600160201b900460ff1615156040820152600882018054606090920191613e49906158c9565b80601f0160208091040260200160405190810160405280929190818152602001828054613e75906158c9565b8015613ec25780601f10613e9757610100808354040283529160200191613ec2565b820191906000526020600020905b815481529060010190602001808311613ea557829003601f168201915b50505050508152602001600982018054613edb906158c9565b80601f0160208091040260200160405190810160405280929190818152602001828054613f07906158c9565b8015613f545780601f10613f2957610100808354040283529160200191613f54565b820191906000526020600020905b815481529060010190602001808311613f3757829003601f168201915b50505050508152602001600a82018054613f6d906158c9565b80601f0160208091040260200160405190810160405280929190818152602001828054613f99906158c9565b8015613fe65780601f10613fbb57610100808354040283529160200191613fe6565b820191906000526020600020905b815481529060010190602001808311613fc957829003601f168201915b50505050508152602001600b82018054613fff906158c9565b80601f016020809104026020016040519081016040528092919081815260200182805461402b906158c9565b80156140785780601f1061404d57610100808354040283529160200191614078565b820191906000526020600020905b81548152906001019060200180831161405b57829003601f168201915b50505050508152602001600c82018054614091906158c9565b80601f01602080910402602001604051908101604052809291908181526020018280546140bd906158c9565b801561410a5780601f106140df5761010080835404028352916020019161410a565b820191906000526020600020905b8154815290600101906020018083116140ed57829003601f168201915b5050509183525050600d82015463ffffffff8082166020840152600160201b909104166040820152600e82018054606090920191614147906158c9565b80601f0160208091040260200160405190810160405280929190818152602001828054614173906158c9565b80156141c05780601f10614195576101008083540402835291602001916141c0565b820191906000526020600020905b8154815290600101906020018083116141a357829003601f168201915b50505050508152602001600f820180546141d9906158c9565b80601f0160208091040260200160405190810160405280929190818152602001828054614205906158c9565b80156142525780601f1061422757610100808354040283529160200191614252565b820191906000526020600020905b81548152906001019060200180831161423557829003601f168201915b5050505050815260200160108201805461426b906158c9565b80601f0160208091040260200160405190810160405280929190818152602001828054614297906158c9565b80156142e45780601f106142b9576101008083540402835291602001916142e4565b820191906000526020600020905b8154815290600101906020018083116142c757829003601f168201915b505050505081526020016011820180546142fd906158c9565b80601f0160208091040260200160405190810160405280929190818152602001828054614329906158c9565b80156143765780601f1061434b57610100808354040283529160200191614376565b820191906000526020600020905b81548152906001019060200180831161435957829003601f168201915b5050505050815260200160128201805461438f906158c9565b80601f01602080910402602001604051908101604052809291908181526020018280546143bb906158c9565b80156144085780601f106143dd57610100808354040283529160200191614408565b820191906000526020600020905b8154815290600101906020018083116143eb57829003601f168201915b505050918352505060138201546020808301919091526014909201546001600160a01b0381166040830152600160a01b900460ff1615156060909101529082526001929092019101613b60565b5050505091505092915050565b6001600160a01b03831660009081526002602052604090205460048054879190839081106144a057634e487b7160e01b600052603260045260246000fd5b90600052602060002090600202016001018463ffffffff16815481106144d657634e487b7160e01b600052603260045260246000fd5b9060005260206000209060150201600c0190805190602001906144fa929190614b5c565b50846004828154811061451d57634e487b7160e01b600052603260045260246000fd5b90600052602060002090600202016001018463ffffffff168154811061455357634e487b7160e01b600052603260045260246000fd5b9060005260206000209060150201600b019080519060200190614577929190614b5c565b50816004828154811061459a57634e487b7160e01b600052603260045260246000fd5b90600052602060002090600202016001018463ffffffff16815481106145d057634e487b7160e01b600052603260045260246000fd5b9060005260206000209060150201600d0160006101000a81548163ffffffff021916908363ffffffff16021790555060006004828154811061462257634e487b7160e01b600052603260045260246000fd5b90600052602060002090600202016001018463ffffffff168154811061465857634e487b7160e01b600052603260045260246000fd5b906000526020600020906015020160010154905060006004838154811061468f57634e487b7160e01b600052603260045260246000fd5b90600052602060002090600202016001018563ffffffff16815481106146c557634e487b7160e01b600052603260045260246000fd5b90600052602060002090601502016013015490506000600484815481106146fc57634e487b7160e01b600052603260045260246000fd5b90600052602060002090600202016001018663ffffffff168154811061473257634e487b7160e01b600052603260045260246000fd5b60009182526020822060146015909202010154600480546001600160a01b03909216935063ffffffff881692918790811061477d57634e487b7160e01b600052603260045260246000fd5b90600052602060002090600202016001018863ffffffff16815481106147b357634e487b7160e01b600052603260045260246000fd5b906000526020600020906015020160040160049054906101000a90046001600160a01b03169050816064141561481f576040516001600160a01b038a169086156108fc029087906000818181858888f19350505050158015614819573d6000803e3d6000fd5b50614952565b81603214156148a9576001600160a01b0389166108fc614840600288615873565b6040518115909202916000818181858888f19350505050158015614868573d6000803e3d6000fd5b506001600160a01b0381166108fc614881600288615873565b6040518115909202916000818181858888f19350505050158015614819573d6000803e3d6000fd5b60006148b68360646158b2565b90506001600160a01b038a166108fc60646148d1868a615893565b6148db9190615873565b6040518115909202916000818181858888f19350505050158015614903573d6000803e3d6000fd5b506001600160a01b0382166108fc606461491d848a615893565b6149279190615873565b6040518115909202916000818181858888f1935050505015801561494f573d6000803e3d6000fd5b50505b6040516001600160a01b0384169085156108fc029086906000818181858888f19350505050158015614988573d6000803e3d6000fd5b505050505050505050505050565b6001546040516370a0823160e01b815233600482015285916001600160a01b0316906370a082319060240160206040518083038186803b1580156149d957600080fd5b505afa1580156149ed573d6000803e3d6000fd5b505050506040513d601f19601f82011682018060405250810190614a119190614ebc565b1015614a1c57600080fd5b6001600160a01b0381166000908152600260205260409020546004805485919083908110614a5a57634e487b7160e01b600052603260045260246000fd5b90600052602060002090600202016001018463ffffffff1681548110614a9057634e487b7160e01b600052603260045260246000fd5b90600052602060002090601502016010019080519060200190610673929190614b5c565b60038181548110614ac457600080fd5b6000918252602090912001546001600160a01b0316905081565b60048054600190810180835560009283528291614afa916158b2565b90508260048281548110614b1e57634e487b7160e01b600052603260045260246000fd5b6000918252602080832060029283020180546001600160a01b0319166001600160a01b03958616179055959092168152935260409092208290555090565b828054614b68906158c9565b90600052602060002090601f016020900481019282614b8a5760008555614bd0565b82601f10614ba357805160ff1916838001178555614bd0565b82800160010185558215614bd0579182015b82811115614bd0578251825591602001919060010190614bb5565b50614bdc929150614be0565b5090565b5b80821115614bdc5760008155600101614be1565b80356001600160a01b0381168114611d6857600080fd5b8035611d6881615930565b600082601f830112614c27578081fd5b813567ffffffffffffffff80821115614c4257614c4261591a565b604051601f8301601f19908116603f01168101908282118183101715614c6a57614c6a61591a565b81604052838152866020858801011115614c82578485fd5b8360208701602083013792830160200193909352509392505050565b803563ffffffff81168114611d6857600080fd5b600060208284031215614cc3578081fd5b614ccc82614bf5565b9392505050565b600080600060608486031215614ce7578182fd5b614cf084614bf5565b925060208401359150614d0560408501614c9e565b90509250925092565b60008060408385031215614d20578182fd5b614d2983614bf5565b9150614d3760208401614c9e565b90509250929050565b600060208284031215614d51578081fd5b8151614ccc81615930565b600080600080600060a08688031215614d73578081fd5b853567ffffffffffffffff80821115614d8a578283fd5b614d9689838a01614c17565b96506020880135915080821115614dab578283fd5b50614db888828901614c17565b945050614dc760408701614bf5565b9250614dd560608701614c9e565b9150614de360808701614c9e565b90509295509295909350565b60008060008060008060c08789031215614e07578081fd5b863567ffffffffffffffff80821115614e1e578283fd5b614e2a8a838b01614c17565b97506020890135915080821115614e3f578283fd5b614e4b8a838b01614c17565b9650614e5960408a01614bf5565b9550614e6760608a01614c9e565b9450614e7560808a01614c9e565b935060a0890135915080821115614e8a578283fd5b50614e9789828a01614c17565b9150509295509295509295565b600060208284031215614eb5578081fd5b5035919050565b600060208284031215614ecd578081fd5b5051919050565b60008060008060808587031215614ee9578384fd5b84359350602085013567ffffffffffffffff811115614f06578384fd5b614f1287828801614c17565b935050614f2160408601614c9e565b9150614f2f60608601614bf5565b905092959194509250565b60008060408385031215614f4c578182fd5b614f5583614c9e565b9150614d3760208401614bf5565b600080600060608486031215614f77578283fd5b614f8084614c9e565b9250614f8e60208501614bf5565b9150604084013567ffffffffffffffff811115614fa9578182fd5b614fb586828701614c17565b9150509250925092565b600080600080600060a08688031215614fd6578081fd5b614fdf86614c9e565b9450614fed60208701614bf5565b9350604086013567ffffffffffffffff811115615008578182fd5b61501488828901614c17565b93505060608601359150614de360808701614bf5565b6000806000806000806000806000806101408b8d031215615049578788fd5b6150528b614c9e565b995060208b013567ffffffffffffffff8082111561506e57898afd5b61507a8e838f01614c17565b9a5060408d013591508082111561508f57898afd5b61509b8e838f01614c17565b99506150a960608e01614c9e565b98506150b760808e01614bf5565b975060a08d01359150808211156150cc578586fd5b6150d88e838f01614c17565b965060c08d01359150808211156150ed578586fd5b6150f98e838f01614c17565b955061510760e08e01614c9e565b94506151166101008e01614c0c565b93506101208d013591508082111561512c578283fd5b506151398d828e01614c17565b9150509295989b9194979a5092959850565b60008060008060008060008060008060006101608c8e03121561516c578485fd5b6151758c614c9e565b9a5060208c0135995067ffffffffffffffff8060408e01351115615197578586fd5b6151a78e60408f01358f01614c17565b99508060608e013511156151b9578586fd5b6151c98e60608f01358f01614c17565b98506151d760808e01614c9e565b97506151e560a08e01614bf5565b96508060c08e013511156151f7578586fd5b6152078e60c08f01358f01614c17565b95508060e08e01351115615219578182fd5b6152298e60e08f01358f01614c17565b94506152386101008e01614c9e565b93506152476101208e01614c0c565b9250806101408e0135111561525a578182fd5b5061526c8d6101408e01358e01614c17565b90509295989b509295989b9093969950565b60008151808452815b818110156152a357602081850181015186830182015201615287565b818111156152b45782602083870101525b50601f01601f19169290920160200192915050565b60006020808301818452808551808352604092508286019150828160051b870101848801865b8381101561556057888303603f190185528151805163ffffffff168452610320888201518986015287820151818987015261532c8287018261527e565b91505060608083015186830382880152615346838261527e565b925050506080808301516153618288018263ffffffff169052565b505060a0828101516001600160a01b03169086015260c0808301518683038288015261538d838261527e565b9250505060e080830151868303828801526153a8838261527e565b92505050610100808301516153c48288018263ffffffff169052565b50506101208281015115159086015261014080830151868303828801526153eb838261527e565b925050506101608083015186830382880152615407838261527e565b925050506101808083015186830382880152615423838261527e565b925050506101a0808301518683038288015261543f838261527e565b925050506101c0808301518683038288015261545b838261527e565b925050506101e0808301516154778288018263ffffffff169052565b50506102008281015163ffffffff169086015261022080830151868303828801526154a2838261527e565b9250505061024080830151868303828801526154be838261527e565b9250505061026080830151868303828801526154da838261527e565b9250505061028080830151868303828801526154f6838261527e565b925050506102a08083015186830382880152615512838261527e565b925050506102c08083015181870152506102e08083015161553d828801826001600160a01b03169052565b5050610300918201511515949091019390935293860193908601906001016152ef565b509098975050505050505050565b60006020808301818452808551808352604092508286019150828160051b870101848801865b8381101561556057888303603f19018552815180516001600160a01b0316845287015187840187905280518785018190529088019060609081860190600581901b870183018c5b8281101561584957888203605f190184528551805163ffffffff1683526103208e8201518f8501528d820151818f8601526156188286018261527e565b9150508682015184820388860152615630828261527e565b91505060808083015161564a8287018263ffffffff169052565b505060a0828101516001600160a01b03169085015260c08083015185830382870152615676838261527e565b9250505060e08083015185830382870152615691838261527e565b92505050610100808301516156ad8287018263ffffffff169052565b50506101208281015115159085015261014080830151858303828701526156d4838261527e565b9250505061016080830151858303828701526156f0838261527e565b92505050610180808301518583038287015261570c838261527e565b925050506101a08083015185830382870152615728838261527e565b925050506101c08083015185830382870152615744838261527e565b925050506101e0808301516157608287018263ffffffff169052565b50506102008281015163ffffffff1690850152610220808301518583038287015261578b838261527e565b9250505061024080830151858303828701526157a7838261527e565b9250505061026080830151858303828701526157c3838261527e565b9250505061028080830151858303828701526157df838261527e565b925050506102a080830151858303828701526157fb838261527e565b925050506102c08083015181860152506102e080830151615826828701826001600160a01b03169052565b50506103009182015115159390910192909252948c0194928c01926001016155db565b50988b019896505050928801925050600101615594565b600060208252614ccc602083018461527e565b60008261588e57634e487b7160e01b81526012600452602481fd5b500490565b60008160001904831182151516156158ad576158ad615904565b500290565b6000828210156158c4576158c4615904565b500390565b600181811c908216806158dd57607f821691505b602082108114156158fe57634e487b7160e01b600052602260045260246000fd5b50919050565b634e487b7160e01b600052601160045260246000fd5b634e487b7160e01b600052604160045260246000fd5b801515811461593e57600080fd5b5056fea2646970667358221220a542569c69137bc84f523e44003b0e0f2af588b8732fea65ed375894d0e55f6364736f6c63430008030033457468537761702046616972747261646572204d61696e204150702054657374696e67",
  "immutableReferences": {},
  "source": "// SPDX-License-Identifier: MIT\npragma solidity ^0.8.3;\n\nimport \"./Token.sol\";\n\ncontract BuyInvoicesMainAPp {\n    string public name = \"EthSwap Fairtrader Main APp Testing\";\n    Token public token;\n    //\n    mapping(address => uint256) public stakes;\n\n    address[] public stakers;\n    Stakeholder[] public stakeholders;\n\n    // event SmartContractOpenedBuyer(\n    //     uint32 _id,\n    //     string _termsAndCondition,\n    //     string _warrantyFile,\n    //     uint32 _apealTime,\n    //     string _sellerWalletAddress,\n    //     string _invoiceFile,\n    //     string _customerEmail,\n    //     uint32 _mediatorId,\n    //     bool _medAccepted,\n    //     string _friendsEmail\n    // );\n    // event ContractCompletedSeller(\n    //     address indexed user,\n    //     uint256 userIndex,\n    //     address sellerOrUser\n    // );\n\n    struct OrderData {\n        uint32 _orderId;\n        uint256 _amount;\n        string _termsAndCondition;\n        string _warrantyFile;\n        uint32 _apealTime;\n        address _sellerWalletAddress;\n        string _invoiceFile;\n        string _customerEmail;\n        uint32 _mediatorId;\n        bool _medAccepted;\n        string _superMedAcceptedEmail;\n        string _judgeReport;\n        string _judgeReportFile;\n        string _judgeReportFileSuperMed;\n        string _judgeReportSuperMed;\n        uint32 _buyerTakeAmountInPercentSuperMed;\n        uint32 _buyerTakeAmountInPercent;\n        string _friendsEmail;\n        string _appealTime;\n        string _whoCalledMed;\n        string _whoCalledSuperMed;\n        string _whoPaidMediatorFee;\n        uint256 _mediatorFee;\n        address _mediatorWalletAddress;\n        bool _buyerPaidWithoutMed;\n    }\n\n    struct Stakeholder {\n        address user;\n        OrderData[] address_stakes;\n    }\n\n    constructor(Token _token) public {\n        // constructor() public {\n        stakeholders.push();\n        token = _token;\n    }\n\n    function getBalance() external view returns (uint256) {\n        return address(this).balance;\n    }\n\n    function exchangeHistoryOfStake()\n        external\n        view\n        returns (Stakeholder[] memory)\n    {\n        return stakeholders;\n    }\n\n    function getAllOrdersOfOneUser(address _userAddress)\n        external\n        view\n        returns (OrderData[] memory)\n    {\n        // require(/* mediator is calling not any other person for security purpose*/);\n        uint256 index = stakes[_userAddress];\n        return stakeholders[index].address_stakes;\n    }\n\n    function medAcceptNewCases(uint32 _index, address buyerWalletAddress)\n        external\n        returns (OrderData[] memory)\n    {\n        // require(/* mediator is calling not any other person for security purpose*/);\n        uint256 index = stakes[buyerWalletAddress];\n        stakeholders[index].address_stakes[_index]._medAccepted = true;\n\n        return stakeholders[index].address_stakes;\n    }\n\n    function payMediatorFee(\n        uint32 _index,\n        address buyerWalletAddress,\n        string memory _whoPaidMediatorFee,\n        uint256 _mediatorFee,\n        address mediatorWalletAddress\n    ) public payable {\n        // returns (OrderData[] memory)\n        uint256 index = stakes[buyerWalletAddress];\n        stakeholders[index]\n            .address_stakes[_index]\n            ._whoPaidMediatorFee = _whoPaidMediatorFee;\n        stakeholders[index].address_stakes[_index]._mediatorFee = _mediatorFee;\n        stakeholders[index]\n            .address_stakes[_index]\n            ._mediatorWalletAddress = mediatorWalletAddress;\n        // return stakeholders[index].address_stakes;\n    }\n\n    function superMedAcceptNewCases(\n        uint32 _index,\n        address buyerWalletAddress,\n        string memory _superMediatorEmail\n    ) external {\n        // require(/* mediator is calling not any other person for security purpose*/);\n        uint256 index = stakes[buyerWalletAddress];\n        stakeholders[index]\n            .address_stakes[_index]\n            ._superMedAcceptedEmail = _superMediatorEmail;\n    }\n\n    function medJudgeCaseReportSuperMed(\n        string memory _judgeReport,\n        string memory _judgeReportFile,\n        address buyerWalletAddress,\n        uint32 _index,\n        uint32 _buyerTakeAmountInPercent\n    ) external {\n        // returns (OrderData[] memory)\n        // require(/* mediator is calling not any other person for security purpose*/);\n        uint256 index = stakes[buyerWalletAddress];\n        stakeholders[index]\n            .address_stakes[_index]\n            ._judgeReportSuperMed = _judgeReport;\n        stakeholders[index]\n            .address_stakes[_index]\n            ._judgeReportFileSuperMed = _judgeReportFile;\n        stakeholders[index]\n            .address_stakes[_index]\n            ._buyerTakeAmountInPercentSuperMed = _buyerTakeAmountInPercent;\n\n        uint256 amount = stakeholders[index].address_stakes[_index]._amount;\n        uint256 mediatorFee = stakeholders[index]\n            .address_stakes[_index]\n            ._mediatorFee;\n        address mediatorWalletAddress = stakeholders[index]\n            .address_stakes[_index]\n            ._mediatorWalletAddress;\n        uint256 buyerTakeAmountInPercent = _buyerTakeAmountInPercent;\n        address sellerWalletAddressOfContract = stakeholders[index]\n            .address_stakes[_index]\n            ._sellerWalletAddress;\n\n        // ADDING CHECK THAT ONLY SELLER ADDRESS IS SAME IN CONTRACT OR SOMEOEN ELSE IS TRYING\n        // string memory sellerAddress = stakeholders[index].address_stakes[_index]._sellerWalletAddress;\n        // require(string(sellerWalletAddress) == sellerAddress);\n\n        if (buyerTakeAmountInPercent == 100) {\n            payable(buyerWalletAddress).transfer(amount);\n        } else if (buyerTakeAmountInPercent == 50) {\n            payable(buyerWalletAddress).transfer(amount / 2);\n            payable(sellerWalletAddressOfContract).transfer(amount / 2);\n        } else {\n            uint256 sellerTakePercent = 100 - buyerTakeAmountInPercent;\n            payable(buyerWalletAddress).transfer(\n                (amount * buyerTakeAmountInPercent) / 100\n            );\n            payable(sellerWalletAddressOfContract).transfer(\n                (amount * sellerTakePercent) / 100\n            );\n        }\n        payable(mediatorWalletAddress).transfer(mediatorFee);\n\n        // return stakeholders[index].address_stakes;\n    }\n\n    function medJudgeCaseReport(\n        string memory _judgeReport,\n        string memory _judgeReportFile,\n        address buyerWalletAddress,\n        uint32 _index,\n        uint32 _buyerTakeAmountInPercent,\n        string memory _appealTime\n    ) external returns (OrderData[] memory) {\n        // require(/* mediator is calling not any other person for security purpose*/);\n        uint256 index = stakes[buyerWalletAddress];\n        stakeholders[index].address_stakes[_index]._judgeReport = _judgeReport;\n        stakeholders[index]\n            .address_stakes[_index]\n            ._judgeReportFile = _judgeReportFile;\n        stakeholders[index]\n            .address_stakes[_index]\n            ._buyerTakeAmountInPercent = _buyerTakeAmountInPercent;\n        stakeholders[index].address_stakes[_index]._appealTime = _appealTime;\n\n        return stakeholders[index].address_stakes;\n    }\n\n    function payFeeForSuperMediator(\n        uint256 _amount,\n        string memory _whoIsCalling,\n        uint32 _index,\n        address buyerWalletAddress\n    ) public {\n        // User can't sell more tokens than they have\n        require(token.balanceOf(msg.sender) >= _amount);\n\n        uint256 index = stakes[buyerWalletAddress];\n        stakeholders[index].address_stakes[_index]._whoCalledSuperMed = _whoIsCalling;\n\n        // Perform sale\n        token.transferFrom(msg.sender, address(this), _amount);\n    }\n\n    function payFeeForMediator(\n        uint256 _amount,\n        string memory _whoIsCalling,\n        uint32 _index,\n        address buyerWalletAddress\n    ) public {\n        // User can't sell more tokens than they have\n        require(token.balanceOf(msg.sender) >= _amount);\n\n        uint256 index = stakes[buyerWalletAddress];\n        stakeholders[index].address_stakes[_index]._whoCalledMed = _whoIsCalling;\n\n        // Perform sale\n        token.transferFrom(msg.sender, address(this), _amount);\n    }\n\n    function buyerPaySimple(address _sellerWalletAddress, uint256 _amount, uint32 _index)\n        external\n    {\n        uint256 index = stakes[msg.sender];\n        stakeholders[index].address_stakes[_index]._buyerPaidWithoutMed = true;\n\n        payable(_sellerWalletAddress).transfer(_amount);\n    }\n\n    function mediatorWithDrawFees(uint256 amount) external {\n        payable(msg.sender).transfer(amount);\n    }\n\n    function userWithdrawTheirDisputesOrdersCash(\n        address buyerWalletAddress,\n        uint32 _index\n    ) external returns (OrderData[] memory) {\n        // require(/* mediator is calling not any other person for security purpose*/);\n        uint256 index = stakes[buyerWalletAddress];\n\n        uint256 amount = stakeholders[index].address_stakes[_index]._amount;\n        uint256 buyerTakeAmountInPercent = stakeholders[index]\n            .address_stakes[_index]\n            ._buyerTakeAmountInPercent;\n        address sellerWalletAddressOfContract = stakeholders[index]\n            .address_stakes[_index]\n            ._sellerWalletAddress;\n\n        // ADDING CHECK THAT ONLY SELLER ADDRESS IS SAME IN CONTRACT OR SOMEOEN ELSE IS TRYING\n        // string memory sellerAddress = stakeholders[index].address_stakes[_index]._sellerWalletAddress;\n        // require(string(sellerWalletAddress) == sellerAddress);\n\n        if (msg.sender == buyerWalletAddress) {\n            if (buyerTakeAmountInPercent == 100) {\n                payable(buyerWalletAddress).transfer(amount);\n            } else if (buyerTakeAmountInPercent == 50) {\n                payable(buyerWalletAddress).transfer(amount / 2);\n            } else {\n                payable(buyerWalletAddress).transfer(\n                    (amount * buyerTakeAmountInPercent) / 100\n                );\n            }\n        } else if (msg.sender == sellerWalletAddressOfContract) {\n            if (buyerTakeAmountInPercent == 50) {\n                payable(sellerWalletAddressOfContract).transfer(amount / 2);\n            } else {\n                uint256 sellerTakePercent = 100 - buyerTakeAmountInPercent;\n                payable(sellerWalletAddressOfContract).transfer(\n                    (amount * sellerTakePercent) / 100\n                );\n            }\n        }\n\n        return stakeholders[index].address_stakes;\n    }\n\n    function _addStakeholder(address staker) internal returns (uint256) {\n        stakeholders.push();\n        uint256 userIndex = stakeholders.length - 1;\n        stakeholders[userIndex].user = staker;\n        stakes[staker] = userIndex;\n        return userIndex;\n    }\n\n    function _saveOrdersDataOfUser(\n        uint32 _orderId,\n        uint256 _amount,\n        string memory _termsAndCondition,\n        string memory _warrantyFile,\n        uint32 _apealTime,\n        address _sellerWalletAddress,\n        string memory _invoiceFile,\n        string memory _customerEmail,\n        uint32 _mediatorId,\n        bool _medAccepted,\n        string memory _friendsEmail\n    ) public {\n        // Check that the requested amount of tokens to sell is more than 0\n        // require(_sellerWalletAddress == '', \"seller Wallet Address Cannot nothing\");\n\n        uint256 index = stakes[msg.sender];\n        if (index == 0) {\n            index = _addStakeholder(msg.sender);\n        }\n\n        stakeholders[index].address_stakes.push(\n            OrderData(\n                _orderId,\n                _amount,\n                _termsAndCondition,\n                _warrantyFile,\n                _apealTime,\n                _sellerWalletAddress,\n                _invoiceFile,\n                _customerEmail,\n                _mediatorId,\n                _medAccepted,\n                \"\",\n                \"\",\n                \"\",\n                \"\",\n                \"\",\n                0,\n                0,\n                _friendsEmail,\n                \"\",\n                \"\",\n                \"\",\n                \"\",\n                0,\n                // dummy Address of mediator\n                0x2e50a8e498912EF9818F080A43f849C4a58c1A66,\n                false\n            )\n        );\n    }\n\n    function buyWithFTP(\n        uint32 _orderId,\n        uint256 _amount,\n        string memory _termsAndCondition,\n        string memory _warrantyFile,\n        uint32 _apealTime,\n        address _sellerWalletAddress,\n        string memory _invoiceFile,\n        string memory _customerEmail,\n        uint32 _mediatorId,\n        bool _medAccepted,\n        string memory _friendsEmail\n    ) public {\n        // User can't sell more tokens than they have\n        require(token.balanceOf(msg.sender) >= _amount);\n\n        // Perform sale\n        token.transferFrom(msg.sender, address(this), _amount);\n\n        _saveOrdersDataOfUser(\n            _orderId,\n            _amount,\n            _termsAndCondition,\n            _warrantyFile,\n            _apealTime,\n            _sellerWalletAddress,\n            _invoiceFile,\n            _customerEmail,\n            _mediatorId,\n            _medAccepted,\n            _friendsEmail\n        );\n    }\n\n    // function buyWithUsdt(\n    //     uint32 _orderId,\n    //     uint256 _amount,\n    //     string memory _termsAndCondition,\n    //     string memory _warrantyFile,\n    //     uint32 _apealTime,\n    //     address _sellerWalletAddress,\n    //     string memory _invoiceFile,\n    //     string memory _customerEmail,\n    // uint32 _mediatorId,\n    // bool _medAccepted,\n    //     string memory _friendsEmail\n    // ) public {\n    //     // User can't sell more tokens than they have\n    //     require(usdtToken.balanceOf(msg.sender) >= _amount);\n\n    //     // Perform sale\n    //     usdtToken.transferFrom(msg.sender, address(this), _amount);\n\n    //     _saveOrdersDataOfUser(\n    //         _orderId,\n    //          _amount,\n    //         _termsAndCondition,\n    //         _warrantyFile,\n    //         _apealTime,\n    //         _sellerWalletAddress,\n    //         _invoiceFile,\n    //         _customerEmail,\n    // _mediatorId,\n    // _medAccepted,\n    //         _friendsEmail\n    //     );\n    // }\n\n    function buyWithBNB(\n        uint32 _orderId,\n        string memory _termsAndCondition,\n        string memory _warrantyFile,\n        uint32 _apealTime,\n        address _sellerWalletAddress,\n        string memory _invoiceFile,\n        string memory _customerEmail,\n        uint32 _mediatorId,\n        bool _medAccepted,\n        string memory _friendsEmail\n    ) public payable {\n        // User can't sell more tokens than they have\n        // require(token.balanceOf(msg.sender) >= msg.value);\n\n        // Perform sale\n        // token.transferFrom(msg.sender, address(this), _amount);\n        // address(address(this).transfer(_amount));\n        // token.transfer(address(this), _amount);\n        // token.transferFrom(msg.sender, address(this), _amount);\n\n        _saveOrdersDataOfUser(\n            _orderId,\n            msg.value,\n            _termsAndCondition,\n            _warrantyFile,\n            _apealTime,\n            _sellerWalletAddress,\n            _invoiceFile,\n            _customerEmail,\n            _mediatorId,\n            _medAccepted,\n            _friendsEmail\n        );\n    }\n}\n",
  "sourcePath": "/home/abdullah/Desktop/Fairtrader/FairTrader Main App Smart_Contract/UPGRADECONTRACT...(buy Invoice Main APp)/contracts/BuyInvoicesMainAPp.sol",
  "compiler": {
    "name": "solc",
    "version": "0.8.3+commit.8d00100c.Emscripten.clang"
  },
  "schemaVersion": "3.4.10",
  "updatedAt": "2022-12-10T02:59:42.397Z",
  "networkType": "ethereum",
  "devdoc": {
    "kind": "dev",
    "methods": {},
    "version": 1
  },
  "userdoc": {
    "kind": "user",
    "methods": {},
    "version": 1
  }
}