{
  "contractName": "BuyInvoicesMainAPp",
  "abi": [
    {
      "inputs": [
        {
          "internalType": "contract Token",
          "name": "_token",
          "type": "address"
        }
      ],
      "stateMutability": "nonpayable",
      "type": "constructor"
    },
    {
      "inputs": [],
      "name": "name",
      "outputs": [
        {
          "internalType": "string",
          "name": "",
          "type": "string"
        }
      ],
      "stateMutability": "view",
      "type": "function",
      "constant": true
    },
    {
      "inputs": [
        {
          "internalType": "uint256",
          "name": "",
          "type": "uint256"
        }
      ],
      "name": "stakeholders",
      "outputs": [
        {
          "internalType": "address",
          "name": "user",
          "type": "address"
        }
      ],
      "stateMutability": "view",
      "type": "function",
      "constant": true
    },
    {
      "inputs": [
        {
          "internalType": "uint256",
          "name": "",
          "type": "uint256"
        }
      ],
      "name": "stakers",
      "outputs": [
        {
          "internalType": "address",
          "name": "",
          "type": "address"
        }
      ],
      "stateMutability": "view",
      "type": "function",
      "constant": true
    },
    {
      "inputs": [
        {
          "internalType": "address",
          "name": "",
          "type": "address"
        }
      ],
      "name": "stakes",
      "outputs": [
        {
          "internalType": "uint256",
          "name": "",
          "type": "uint256"
        }
      ],
      "stateMutability": "view",
      "type": "function",
      "constant": true
    },
    {
      "inputs": [],
      "name": "token",
      "outputs": [
        {
          "internalType": "contract Token",
          "name": "",
          "type": "address"
        }
      ],
      "stateMutability": "view",
      "type": "function",
      "constant": true
    },
    {
      "inputs": [],
      "name": "getBalance",
      "outputs": [
        {
          "internalType": "uint256",
          "name": "",
          "type": "uint256"
        }
      ],
      "stateMutability": "view",
      "type": "function",
      "constant": true
    },
    {
      "inputs": [],
      "name": "exchangeHistoryOfStake",
      "outputs": [
        {
          "components": [
            {
              "internalType": "address",
              "name": "user",
              "type": "address"
            },
            {
              "components": [
                {
                  "internalType": "uint32",
                  "name": "_orderId",
                  "type": "uint32"
                },
                {
                  "internalType": "uint256",
                  "name": "_amount",
                  "type": "uint256"
                },
                {
                  "internalType": "string",
                  "name": "_termsAndCondition",
                  "type": "string"
                },
                {
                  "internalType": "string",
                  "name": "_warrantyFile",
                  "type": "string"
                },
                {
                  "internalType": "uint32",
                  "name": "_apealTime",
                  "type": "uint32"
                },
                {
                  "internalType": "address",
                  "name": "_sellerWalletAddress",
                  "type": "address"
                },
                {
                  "internalType": "string",
                  "name": "_invoiceFile",
                  "type": "string"
                },
                {
                  "internalType": "string",
                  "name": "_customerEmail",
                  "type": "string"
                },
                {
                  "internalType": "uint32",
                  "name": "_mediatorId",
                  "type": "uint32"
                },
                {
                  "internalType": "bool",
                  "name": "_medAccepted",
                  "type": "bool"
                },
                {
                  "internalType": "string",
                  "name": "_superMedAcceptedEmail",
                  "type": "string"
                },
                {
                  "internalType": "string",
                  "name": "_judgeReport",
                  "type": "string"
                },
                {
                  "internalType": "string",
                  "name": "_judgeReportFile",
                  "type": "string"
                },
                {
                  "internalType": "string",
                  "name": "_judgeReportFileSuperMed",
                  "type": "string"
                },
                {
                  "internalType": "string",
                  "name": "_judgeReportSuperMed",
                  "type": "string"
                },
                {
                  "internalType": "uint32",
                  "name": "_buyerTakeAmountInPercentSuperMed",
                  "type": "uint32"
                },
                {
                  "internalType": "uint32",
                  "name": "_buyerTakeAmountInPercent",
                  "type": "uint32"
                },
                {
                  "internalType": "string",
                  "name": "_friendsEmail",
                  "type": "string"
                },
                {
                  "internalType": "string",
                  "name": "_appealTime",
                  "type": "string"
                },
                {
                  "internalType": "string",
                  "name": "_whoCalled",
                  "type": "string"
                },
                {
                  "internalType": "string",
                  "name": "_whoPaidMediatorFee",
                  "type": "string"
                },
                {
                  "internalType": "uint256",
                  "name": "_mediatorFee",
                  "type": "uint256"
                },
                {
                  "internalType": "address",
                  "name": "_mediatorWalletAddress",
                  "type": "address"
                }
              ],
              "internalType": "struct BuyInvoicesMainAPp.OrderData[]",
              "name": "address_stakes",
              "type": "tuple[]"
            }
          ],
          "internalType": "struct BuyInvoicesMainAPp.Stakeholder[]",
          "name": "",
          "type": "tuple[]"
        }
      ],
      "stateMutability": "view",
      "type": "function",
      "constant": true
    },
    {
      "inputs": [
        {
          "internalType": "address",
          "name": "_userAddress",
          "type": "address"
        }
      ],
      "name": "getAllOrdersOfOneUser",
      "outputs": [
        {
          "components": [
            {
              "internalType": "uint32",
              "name": "_orderId",
              "type": "uint32"
            },
            {
              "internalType": "uint256",
              "name": "_amount",
              "type": "uint256"
            },
            {
              "internalType": "string",
              "name": "_termsAndCondition",
              "type": "string"
            },
            {
              "internalType": "string",
              "name": "_warrantyFile",
              "type": "string"
            },
            {
              "internalType": "uint32",
              "name": "_apealTime",
              "type": "uint32"
            },
            {
              "internalType": "address",
              "name": "_sellerWalletAddress",
              "type": "address"
            },
            {
              "internalType": "string",
              "name": "_invoiceFile",
              "type": "string"
            },
            {
              "internalType": "string",
              "name": "_customerEmail",
              "type": "string"
            },
            {
              "internalType": "uint32",
              "name": "_mediatorId",
              "type": "uint32"
            },
            {
              "internalType": "bool",
              "name": "_medAccepted",
              "type": "bool"
            },
            {
              "internalType": "string",
              "name": "_superMedAcceptedEmail",
              "type": "string"
            },
            {
              "internalType": "string",
              "name": "_judgeReport",
              "type": "string"
            },
            {
              "internalType": "string",
              "name": "_judgeReportFile",
              "type": "string"
            },
            {
              "internalType": "string",
              "name": "_judgeReportFileSuperMed",
              "type": "string"
            },
            {
              "internalType": "string",
              "name": "_judgeReportSuperMed",
              "type": "string"
            },
            {
              "internalType": "uint32",
              "name": "_buyerTakeAmountInPercentSuperMed",
              "type": "uint32"
            },
            {
              "internalType": "uint32",
              "name": "_buyerTakeAmountInPercent",
              "type": "uint32"
            },
            {
              "internalType": "string",
              "name": "_friendsEmail",
              "type": "string"
            },
            {
              "internalType": "string",
              "name": "_appealTime",
              "type": "string"
            },
            {
              "internalType": "string",
              "name": "_whoCalled",
              "type": "string"
            },
            {
              "internalType": "string",
              "name": "_whoPaidMediatorFee",
              "type": "string"
            },
            {
              "internalType": "uint256",
              "name": "_mediatorFee",
              "type": "uint256"
            },
            {
              "internalType": "address",
              "name": "_mediatorWalletAddress",
              "type": "address"
            }
          ],
          "internalType": "struct BuyInvoicesMainAPp.OrderData[]",
          "name": "",
          "type": "tuple[]"
        }
      ],
      "stateMutability": "view",
      "type": "function",
      "constant": true
    },
    {
      "inputs": [
        {
          "internalType": "uint32",
          "name": "_index",
          "type": "uint32"
        },
        {
          "internalType": "address",
          "name": "buyerWalletAddress",
          "type": "address"
        }
      ],
      "name": "medAcceptNewCases",
      "outputs": [
        {
          "components": [
            {
              "internalType": "uint32",
              "name": "_orderId",
              "type": "uint32"
            },
            {
              "internalType": "uint256",
              "name": "_amount",
              "type": "uint256"
            },
            {
              "internalType": "string",
              "name": "_termsAndCondition",
              "type": "string"
            },
            {
              "internalType": "string",
              "name": "_warrantyFile",
              "type": "string"
            },
            {
              "internalType": "uint32",
              "name": "_apealTime",
              "type": "uint32"
            },
            {
              "internalType": "address",
              "name": "_sellerWalletAddress",
              "type": "address"
            },
            {
              "internalType": "string",
              "name": "_invoiceFile",
              "type": "string"
            },
            {
              "internalType": "string",
              "name": "_customerEmail",
              "type": "string"
            },
            {
              "internalType": "uint32",
              "name": "_mediatorId",
              "type": "uint32"
            },
            {
              "internalType": "bool",
              "name": "_medAccepted",
              "type": "bool"
            },
            {
              "internalType": "string",
              "name": "_superMedAcceptedEmail",
              "type": "string"
            },
            {
              "internalType": "string",
              "name": "_judgeReport",
              "type": "string"
            },
            {
              "internalType": "string",
              "name": "_judgeReportFile",
              "type": "string"
            },
            {
              "internalType": "string",
              "name": "_judgeReportFileSuperMed",
              "type": "string"
            },
            {
              "internalType": "string",
              "name": "_judgeReportSuperMed",
              "type": "string"
            },
            {
              "internalType": "uint32",
              "name": "_buyerTakeAmountInPercentSuperMed",
              "type": "uint32"
            },
            {
              "internalType": "uint32",
              "name": "_buyerTakeAmountInPercent",
              "type": "uint32"
            },
            {
              "internalType": "string",
              "name": "_friendsEmail",
              "type": "string"
            },
            {
              "internalType": "string",
              "name": "_appealTime",
              "type": "string"
            },
            {
              "internalType": "string",
              "name": "_whoCalled",
              "type": "string"
            },
            {
              "internalType": "string",
              "name": "_whoPaidMediatorFee",
              "type": "string"
            },
            {
              "internalType": "uint256",
              "name": "_mediatorFee",
              "type": "uint256"
            },
            {
              "internalType": "address",
              "name": "_mediatorWalletAddress",
              "type": "address"
            }
          ],
          "internalType": "struct BuyInvoicesMainAPp.OrderData[]",
          "name": "",
          "type": "tuple[]"
        }
      ],
      "stateMutability": "nonpayable",
      "type": "function"
    },
    {
      "inputs": [
        {
          "internalType": "uint32",
          "name": "_index",
          "type": "uint32"
        },
        {
          "internalType": "address",
          "name": "buyerWalletAddress",
          "type": "address"
        },
        {
          "internalType": "string",
          "name": "_whoPaidMediatorFee",
          "type": "string"
        },
        {
          "internalType": "uint256",
          "name": "_mediatorFee",
          "type": "uint256"
        },
        {
          "internalType": "address",
          "name": "mediatorWalletAddress",
          "type": "address"
        }
      ],
      "name": "payMediatorFee",
      "outputs": [],
      "stateMutability": "payable",
      "type": "function",
      "payable": true
    },
    {
      "inputs": [
        {
          "internalType": "uint32",
          "name": "_index",
          "type": "uint32"
        },
        {
          "internalType": "address",
          "name": "buyerWalletAddress",
          "type": "address"
        },
        {
          "internalType": "string",
          "name": "_superMediatorEmail",
          "type": "string"
        }
      ],
      "name": "superMedAcceptNewCases",
      "outputs": [],
      "stateMutability": "nonpayable",
      "type": "function"
    },
    {
      "inputs": [
        {
          "internalType": "string",
          "name": "_judgeReport",
          "type": "string"
        },
        {
          "internalType": "string",
          "name": "_judgeReportFile",
          "type": "string"
        },
        {
          "internalType": "address",
          "name": "buyerWalletAddress",
          "type": "address"
        },
        {
          "internalType": "uint32",
          "name": "_index",
          "type": "uint32"
        },
        {
          "internalType": "uint32",
          "name": "_buyerTakeAmountInPercent",
          "type": "uint32"
        }
      ],
      "name": "medJudgeCaseReportSuperMed",
      "outputs": [],
      "stateMutability": "nonpayable",
      "type": "function"
    },
    {
      "inputs": [
        {
          "internalType": "string",
          "name": "_judgeReport",
          "type": "string"
        },
        {
          "internalType": "string",
          "name": "_judgeReportFile",
          "type": "string"
        },
        {
          "internalType": "address",
          "name": "buyerWalletAddress",
          "type": "address"
        },
        {
          "internalType": "uint32",
          "name": "_index",
          "type": "uint32"
        },
        {
          "internalType": "uint32",
          "name": "_buyerTakeAmountInPercent",
          "type": "uint32"
        },
        {
          "internalType": "string",
          "name": "_appealTime",
          "type": "string"
        }
      ],
      "name": "medJudgeCaseReport",
      "outputs": [
        {
          "components": [
            {
              "internalType": "uint32",
              "name": "_orderId",
              "type": "uint32"
            },
            {
              "internalType": "uint256",
              "name": "_amount",
              "type": "uint256"
            },
            {
              "internalType": "string",
              "name": "_termsAndCondition",
              "type": "string"
            },
            {
              "internalType": "string",
              "name": "_warrantyFile",
              "type": "string"
            },
            {
              "internalType": "uint32",
              "name": "_apealTime",
              "type": "uint32"
            },
            {
              "internalType": "address",
              "name": "_sellerWalletAddress",
              "type": "address"
            },
            {
              "internalType": "string",
              "name": "_invoiceFile",
              "type": "string"
            },
            {
              "internalType": "string",
              "name": "_customerEmail",
              "type": "string"
            },
            {
              "internalType": "uint32",
              "name": "_mediatorId",
              "type": "uint32"
            },
            {
              "internalType": "bool",
              "name": "_medAccepted",
              "type": "bool"
            },
            {
              "internalType": "string",
              "name": "_superMedAcceptedEmail",
              "type": "string"
            },
            {
              "internalType": "string",
              "name": "_judgeReport",
              "type": "string"
            },
            {
              "internalType": "string",
              "name": "_judgeReportFile",
              "type": "string"
            },
            {
              "internalType": "string",
              "name": "_judgeReportFileSuperMed",
              "type": "string"
            },
            {
              "internalType": "string",
              "name": "_judgeReportSuperMed",
              "type": "string"
            },
            {
              "internalType": "uint32",
              "name": "_buyerTakeAmountInPercentSuperMed",
              "type": "uint32"
            },
            {
              "internalType": "uint32",
              "name": "_buyerTakeAmountInPercent",
              "type": "uint32"
            },
            {
              "internalType": "string",
              "name": "_friendsEmail",
              "type": "string"
            },
            {
              "internalType": "string",
              "name": "_appealTime",
              "type": "string"
            },
            {
              "internalType": "string",
              "name": "_whoCalled",
              "type": "string"
            },
            {
              "internalType": "string",
              "name": "_whoPaidMediatorFee",
              "type": "string"
            },
            {
              "internalType": "uint256",
              "name": "_mediatorFee",
              "type": "uint256"
            },
            {
              "internalType": "address",
              "name": "_mediatorWalletAddress",
              "type": "address"
            }
          ],
          "internalType": "struct BuyInvoicesMainAPp.OrderData[]",
          "name": "",
          "type": "tuple[]"
        }
      ],
      "stateMutability": "nonpayable",
      "type": "function"
    },
    {
      "inputs": [
        {
          "internalType": "uint256",
          "name": "_amount",
          "type": "uint256"
        },
        {
          "internalType": "string",
          "name": "_whoIsCalling",
          "type": "string"
        },
        {
          "internalType": "uint32",
          "name": "_index",
          "type": "uint32"
        },
        {
          "internalType": "address",
          "name": "buyerWalletAddress",
          "type": "address"
        }
      ],
      "name": "payFeeForSuperMediator",
      "outputs": [
        {
          "components": [
            {
              "internalType": "uint32",
              "name": "_orderId",
              "type": "uint32"
            },
            {
              "internalType": "uint256",
              "name": "_amount",
              "type": "uint256"
            },
            {
              "internalType": "string",
              "name": "_termsAndCondition",
              "type": "string"
            },
            {
              "internalType": "string",
              "name": "_warrantyFile",
              "type": "string"
            },
            {
              "internalType": "uint32",
              "name": "_apealTime",
              "type": "uint32"
            },
            {
              "internalType": "address",
              "name": "_sellerWalletAddress",
              "type": "address"
            },
            {
              "internalType": "string",
              "name": "_invoiceFile",
              "type": "string"
            },
            {
              "internalType": "string",
              "name": "_customerEmail",
              "type": "string"
            },
            {
              "internalType": "uint32",
              "name": "_mediatorId",
              "type": "uint32"
            },
            {
              "internalType": "bool",
              "name": "_medAccepted",
              "type": "bool"
            },
            {
              "internalType": "string",
              "name": "_superMedAcceptedEmail",
              "type": "string"
            },
            {
              "internalType": "string",
              "name": "_judgeReport",
              "type": "string"
            },
            {
              "internalType": "string",
              "name": "_judgeReportFile",
              "type": "string"
            },
            {
              "internalType": "string",
              "name": "_judgeReportFileSuperMed",
              "type": "string"
            },
            {
              "internalType": "string",
              "name": "_judgeReportSuperMed",
              "type": "string"
            },
            {
              "internalType": "uint32",
              "name": "_buyerTakeAmountInPercentSuperMed",
              "type": "uint32"
            },
            {
              "internalType": "uint32",
              "name": "_buyerTakeAmountInPercent",
              "type": "uint32"
            },
            {
              "internalType": "string",
              "name": "_friendsEmail",
              "type": "string"
            },
            {
              "internalType": "string",
              "name": "_appealTime",
              "type": "string"
            },
            {
              "internalType": "string",
              "name": "_whoCalled",
              "type": "string"
            },
            {
              "internalType": "string",
              "name": "_whoPaidMediatorFee",
              "type": "string"
            },
            {
              "internalType": "uint256",
              "name": "_mediatorFee",
              "type": "uint256"
            },
            {
              "internalType": "address",
              "name": "_mediatorWalletAddress",
              "type": "address"
            }
          ],
          "internalType": "struct BuyInvoicesMainAPp.OrderData[]",
          "name": "",
          "type": "tuple[]"
        }
      ],
      "stateMutability": "nonpayable",
      "type": "function"
    },
    {
      "inputs": [
        {
          "internalType": "uint256",
          "name": "_amount",
          "type": "uint256"
        }
      ],
      "name": "payFeeForSuperMediatorr",
      "outputs": [],
      "stateMutability": "nonpayable",
      "type": "function"
    },
    {
      "inputs": [
        {
          "internalType": "address",
          "name": "_sellerWalletAddress",
          "type": "address"
        },
        {
          "internalType": "uint256",
          "name": "_amount",
          "type": "uint256"
        }
      ],
      "name": "buyerPaySimple",
      "outputs": [],
      "stateMutability": "nonpayable",
      "type": "function"
    },
    {
      "inputs": [
        {
          "internalType": "uint256",
          "name": "amount",
          "type": "uint256"
        }
      ],
      "name": "mediatorWithDrawFees",
      "outputs": [],
      "stateMutability": "nonpayable",
      "type": "function"
    },
    {
      "inputs": [
        {
          "internalType": "address",
          "name": "buyerWalletAddress",
          "type": "address"
        },
        {
          "internalType": "uint32",
          "name": "_index",
          "type": "uint32"
        }
      ],
      "name": "userWithdrawTheirDisputesOrdersCash",
      "outputs": [
        {
          "components": [
            {
              "internalType": "uint32",
              "name": "_orderId",
              "type": "uint32"
            },
            {
              "internalType": "uint256",
              "name": "_amount",
              "type": "uint256"
            },
            {
              "internalType": "string",
              "name": "_termsAndCondition",
              "type": "string"
            },
            {
              "internalType": "string",
              "name": "_warrantyFile",
              "type": "string"
            },
            {
              "internalType": "uint32",
              "name": "_apealTime",
              "type": "uint32"
            },
            {
              "internalType": "address",
              "name": "_sellerWalletAddress",
              "type": "address"
            },
            {
              "internalType": "string",
              "name": "_invoiceFile",
              "type": "string"
            },
            {
              "internalType": "string",
              "name": "_customerEmail",
              "type": "string"
            },
            {
              "internalType": "uint32",
              "name": "_mediatorId",
              "type": "uint32"
            },
            {
              "internalType": "bool",
              "name": "_medAccepted",
              "type": "bool"
            },
            {
              "internalType": "string",
              "name": "_superMedAcceptedEmail",
              "type": "string"
            },
            {
              "internalType": "string",
              "name": "_judgeReport",
              "type": "string"
            },
            {
              "internalType": "string",
              "name": "_judgeReportFile",
              "type": "string"
            },
            {
              "internalType": "string",
              "name": "_judgeReportFileSuperMed",
              "type": "string"
            },
            {
              "internalType": "string",
              "name": "_judgeReportSuperMed",
              "type": "string"
            },
            {
              "internalType": "uint32",
              "name": "_buyerTakeAmountInPercentSuperMed",
              "type": "uint32"
            },
            {
              "internalType": "uint32",
              "name": "_buyerTakeAmountInPercent",
              "type": "uint32"
            },
            {
              "internalType": "string",
              "name": "_friendsEmail",
              "type": "string"
            },
            {
              "internalType": "string",
              "name": "_appealTime",
              "type": "string"
            },
            {
              "internalType": "string",
              "name": "_whoCalled",
              "type": "string"
            },
            {
              "internalType": "string",
              "name": "_whoPaidMediatorFee",
              "type": "string"
            },
            {
              "internalType": "uint256",
              "name": "_mediatorFee",
              "type": "uint256"
            },
            {
              "internalType": "address",
              "name": "_mediatorWalletAddress",
              "type": "address"
            }
          ],
          "internalType": "struct BuyInvoicesMainAPp.OrderData[]",
          "name": "",
          "type": "tuple[]"
        }
      ],
      "stateMutability": "nonpayable",
      "type": "function"
    },
    {
      "inputs": [
        {
          "internalType": "uint32",
          "name": "_orderId",
          "type": "uint32"
        },
        {
          "internalType": "uint256",
          "name": "_amount",
          "type": "uint256"
        },
        {
          "internalType": "string",
          "name": "_termsAndCondition",
          "type": "string"
        },
        {
          "internalType": "string",
          "name": "_warrantyFile",
          "type": "string"
        },
        {
          "internalType": "uint32",
          "name": "_apealTime",
          "type": "uint32"
        },
        {
          "internalType": "address",
          "name": "_sellerWalletAddress",
          "type": "address"
        },
        {
          "internalType": "string",
          "name": "_invoiceFile",
          "type": "string"
        },
        {
          "internalType": "string",
          "name": "_customerEmail",
          "type": "string"
        },
        {
          "internalType": "uint32",
          "name": "_mediatorId",
          "type": "uint32"
        },
        {
          "internalType": "bool",
          "name": "_medAccepted",
          "type": "bool"
        },
        {
          "internalType": "string",
          "name": "_friendsEmail",
          "type": "string"
        }
      ],
      "name": "_saveOrdersDataOfUser",
      "outputs": [],
      "stateMutability": "nonpayable",
      "type": "function"
    },
    {
      "inputs": [
        {
          "internalType": "uint32",
          "name": "_orderId",
          "type": "uint32"
        },
        {
          "internalType": "uint256",
          "name": "_amount",
          "type": "uint256"
        },
        {
          "internalType": "string",
          "name": "_termsAndCondition",
          "type": "string"
        },
        {
          "internalType": "string",
          "name": "_warrantyFile",
          "type": "string"
        },
        {
          "internalType": "uint32",
          "name": "_apealTime",
          "type": "uint32"
        },
        {
          "internalType": "address",
          "name": "_sellerWalletAddress",
          "type": "address"
        },
        {
          "internalType": "string",
          "name": "_invoiceFile",
          "type": "string"
        },
        {
          "internalType": "string",
          "name": "_customerEmail",
          "type": "string"
        },
        {
          "internalType": "uint32",
          "name": "_mediatorId",
          "type": "uint32"
        },
        {
          "internalType": "bool",
          "name": "_medAccepted",
          "type": "bool"
        },
        {
          "internalType": "string",
          "name": "_friendsEmail",
          "type": "string"
        }
      ],
      "name": "buyWithFTP",
      "outputs": [],
      "stateMutability": "nonpayable",
      "type": "function"
    },
    {
      "inputs": [
        {
          "internalType": "uint32",
          "name": "_orderId",
          "type": "uint32"
        },
        {
          "internalType": "string",
          "name": "_termsAndCondition",
          "type": "string"
        },
        {
          "internalType": "string",
          "name": "_warrantyFile",
          "type": "string"
        },
        {
          "internalType": "uint32",
          "name": "_apealTime",
          "type": "uint32"
        },
        {
          "internalType": "address",
          "name": "_sellerWalletAddress",
          "type": "address"
        },
        {
          "internalType": "string",
          "name": "_invoiceFile",
          "type": "string"
        },
        {
          "internalType": "string",
          "name": "_customerEmail",
          "type": "string"
        },
        {
          "internalType": "uint32",
          "name": "_mediatorId",
          "type": "uint32"
        },
        {
          "internalType": "bool",
          "name": "_medAccepted",
          "type": "bool"
        },
        {
          "internalType": "string",
          "name": "_friendsEmail",
          "type": "string"
        }
      ],
      "name": "buyWithBNB",
      "outputs": [],
      "stateMutability": "payable",
      "type": "function",
      "payable": true
    }
  ],
  "bytecode": "0x60e0604052602360808181529062005f5260a039805162000029916000916020909101906200008f565b503480156200003757600080fd5b5060405162005f7538038062005f758339810160408190526200005a9162000135565b600480546001908101825560009190915280546001600160a01b0319166001600160a01b0392909216919091179055620001a2565b8280546200009d9062000165565b90600052602060002090601f016020900481019282620000c157600085556200010c565b82601f10620000dc57805160ff19168380011785556200010c565b828001600101855582156200010c579182015b828111156200010c578251825591602001919060010190620000ef565b506200011a9291506200011e565b5090565b5b808211156200011a57600081556001016200011f565b60006020828403121562000147578081fd5b81516001600160a01b03811681146200015e578182fd5b9392505050565b600181811c908216806200017a57607f821691505b602082108114156200019c57634e487b7160e01b600052602260045260246000fd5b50919050565b615da080620001b26000396000f3fe60806040526004361061012a5760003560e01c80638cf04ae4116100ab578063be9cb51a1161006f578063be9cb51a14610340578063bea4e5b814610353578063cf591db514610373578063f2b8e5ba14610393578063fc0c546a146103b3578063fd5e6dd1146103d35761012a565b80638cf04ae41461029e5780639529441e146102be578063abf940c8146102e0578063b506c2a214610300578063b8e2de71146103205761012a565b806323954c89116100f257806323954c89146102095780632f3726c31461022b5780633b07c9871461024b57806342c518891461026b57806347f3d0c01461027e5761012a565b806306fdde031461012f57806312065fe01461015a57806316934fc4146101775780631d601be2146101a45780631d6b8b72146101d1575b600080fd5b34801561013b57600080fd5b506101446103f3565b6040516101519190615c89565b60405180910390f35b34801561016657600080fd5b50475b604051908152602001610151565b34801561018357600080fd5b5061016961019236600461513f565b60026020526000908152604090205481565b3480156101b057600080fd5b506101c46101bf36600461534f565b610481565b6040516101519190615744565b3480156101dd57600080fd5b506101f16101ec36600461531f565b610ee2565b6040516001600160a01b039091168152602001610151565b34801561021557600080fd5b50610229610224366004615160565b610f11565b005b34801561023757600080fd5b506102296102463660046155c6565b610f4c565b34801561025757600080fd5b506101c461026636600461526a565b61107d565b6102296102793660046154a5565b611b4e565b34801561028a57600080fd5b506101c461029936600461513f565b611b6d565b3480156102aa57600080fd5b506102296102b936600461531f565b61243c565b3480156102ca57600080fd5b506102d361246d565b60405161015191906159c0565b3480156102ec57600080fd5b506101c46102fb366004615189565b612d54565b34801561030c57600080fd5b5061022961031b3660046153de565b61390d565b34801561032c57600080fd5b5061022961033b3660046155c6565b6139ac565b61022961034e36600461543a565b613e12565b34801561035f57600080fd5b506101c461036e3660046153b5565b613fad565b34801561037f57600080fd5b5061022961038e3660046151d7565b6148fd565b34801561039f57600080fd5b506102296103ae36600461531f565b614e31565b3480156103bf57600080fd5b506001546101f1906001600160a01b031681565b3480156103df57600080fd5b506101f16103ee36600461531f565b614f41565b6000805461040090615cf2565b80601f016020809104026020016040519081016040528092919081815260200182805461042c90615cf2565b80156104795780601f1061044e57610100808354040283529160200191610479565b820191906000526020600020905b81548152906001019060200180831161045c57829003601f168201915b505050505081565b6001546040516370a0823160e01b815233600482015260609186916001600160a01b03909116906370a082319060240160206040518083038186803b1580156104c957600080fd5b505afa1580156104dd573d6000803e3d6000fd5b505050506040513d601f19601f820116820180604052508101906105019190615337565b101561050c57600080fd5b6001600160a01b038216600090815260026020526040902054600480548691908390811061054a57634e487b7160e01b600052603260045260246000fd5b90600052602060002090600202016001018563ffffffff168154811061058057634e487b7160e01b600052603260045260246000fd5b906000526020600020906014020160100190805190602001906105a4929190614fe9565b506001546040516323b872dd60e01b8152336004820152306024820152604481018890526001600160a01b03909116906323b872dd90606401602060405180830381600087803b1580156105f757600080fd5b505af115801561060b573d6000803e3d6000fd5b505050506040513d601f19601f8201168201806040525081019061062f91906151bb565b506004818154811061065157634e487b7160e01b600052603260045260246000fd5b9060005260206000209060020201600101805480602002602001604051908101604052809291908181526020016000905b82821015610ed3576000848152602090819020604080516102e08101825260148602909201805463ffffffff168352600181015493830193909352600283018054929392918401916106d390615cf2565b80601f01602080910402602001604051908101604052809291908181526020018280546106ff90615cf2565b801561074c5780601f106107215761010080835404028352916020019161074c565b820191906000526020600020905b81548152906001019060200180831161072f57829003601f168201915b5050505050815260200160038201805461076590615cf2565b80601f016020809104026020016040519081016040528092919081815260200182805461079190615cf2565b80156107de5780601f106107b3576101008083540402835291602001916107de565b820191906000526020600020905b8154815290600101906020018083116107c157829003601f168201915b5050509183525050600482015463ffffffff81166020830152600160201b90046001600160a01b0316604082015260058201805460609092019161082190615cf2565b80601f016020809104026020016040519081016040528092919081815260200182805461084d90615cf2565b801561089a5780601f1061086f5761010080835404028352916020019161089a565b820191906000526020600020905b81548152906001019060200180831161087d57829003601f168201915b505050505081526020016006820180546108b390615cf2565b80601f01602080910402602001604051908101604052809291908181526020018280546108df90615cf2565b801561092c5780601f106109015761010080835404028352916020019161092c565b820191906000526020600020905b81548152906001019060200180831161090f57829003601f168201915b5050509183525050600782015463ffffffff81166020830152600160201b900460ff161515604082015260088201805460609092019161096b90615cf2565b80601f016020809104026020016040519081016040528092919081815260200182805461099790615cf2565b80156109e45780601f106109b9576101008083540402835291602001916109e4565b820191906000526020600020905b8154815290600101906020018083116109c757829003601f168201915b505050505081526020016009820180546109fd90615cf2565b80601f0160208091040260200160405190810160405280929190818152602001828054610a2990615cf2565b8015610a765780601f10610a4b57610100808354040283529160200191610a76565b820191906000526020600020905b815481529060010190602001808311610a5957829003601f168201915b50505050508152602001600a82018054610a8f90615cf2565b80601f0160208091040260200160405190810160405280929190818152602001828054610abb90615cf2565b8015610b085780601f10610add57610100808354040283529160200191610b08565b820191906000526020600020905b815481529060010190602001808311610aeb57829003601f168201915b50505050508152602001600b82018054610b2190615cf2565b80601f0160208091040260200160405190810160405280929190818152602001828054610b4d90615cf2565b8015610b9a5780601f10610b6f57610100808354040283529160200191610b9a565b820191906000526020600020905b815481529060010190602001808311610b7d57829003601f168201915b50505050508152602001600c82018054610bb390615cf2565b80601f0160208091040260200160405190810160405280929190818152602001828054610bdf90615cf2565b8015610c2c5780601f10610c0157610100808354040283529160200191610c2c565b820191906000526020600020905b815481529060010190602001808311610c0f57829003601f168201915b5050509183525050600d82015463ffffffff8082166020840152600160201b909104166040820152600e82018054606090920191610c6990615cf2565b80601f0160208091040260200160405190810160405280929190818152602001828054610c9590615cf2565b8015610ce25780601f10610cb757610100808354040283529160200191610ce2565b820191906000526020600020905b815481529060010190602001808311610cc557829003601f168201915b50505050508152602001600f82018054610cfb90615cf2565b80601f0160208091040260200160405190810160405280929190818152602001828054610d2790615cf2565b8015610d745780601f10610d4957610100808354040283529160200191610d74565b820191906000526020600020905b815481529060010190602001808311610d5757829003601f168201915b50505050508152602001601082018054610d8d90615cf2565b80601f0160208091040260200160405190810160405280929190818152602001828054610db990615cf2565b8015610e065780601f10610ddb57610100808354040283529160200191610e06565b820191906000526020600020905b815481529060010190602001808311610de957829003601f168201915b50505050508152602001601182018054610e1f90615cf2565b80601f0160208091040260200160405190810160405280929190818152602001828054610e4b90615cf2565b8015610e985780601f10610e6d57610100808354040283529160200191610e98565b820191906000526020600020905b815481529060010190602001808311610e7b57829003601f168201915b505050918352505060128201546020808301919091526013909201546001600160a01b03166040909101529082526001929092019101610682565b50505050915050949350505050565b60048181548110610ef257600080fd5b60009182526020909120600290910201546001600160a01b0316905081565b6040516001600160a01b0383169082156108fc029083906000818181858888f19350505050158015610f47573d6000803e3d6000fd5b505050565b6001546040516370a0823160e01b81523360048201528b916001600160a01b0316906370a082319060240160206040518083038186803b158015610f8f57600080fd5b505afa158015610fa3573d6000803e3d6000fd5b505050506040513d601f19601f82011682018060405250810190610fc79190615337565b1015610fd257600080fd5b6001546040516323b872dd60e01b8152336004820152306024820152604481018c90526001600160a01b03909116906323b872dd90606401602060405180830381600087803b15801561102457600080fd5b505af1158015611038573d6000803e3d6000fd5b505050506040513d601f19601f8201168201806040525081019061105c91906151bb565b506110708b8b8b8b8b8b8b8b8b8b8b6139ac565b5050505050505050505050565b6001600160a01b03841660009081526002602052604090205460048054606092918991839081106110be57634e487b7160e01b600052603260045260246000fd5b90600052602060002090600202016001018663ffffffff16815481106110f457634e487b7160e01b600052603260045260246000fd5b90600052602060002090601402016009019080519060200190611118929190614fe9565b50866004828154811061113b57634e487b7160e01b600052603260045260246000fd5b90600052602060002090600202016001018663ffffffff168154811061117157634e487b7160e01b600052603260045260246000fd5b9060005260206000209060140201600a019080519060200190611195929190614fe9565b5083600482815481106111b857634e487b7160e01b600052603260045260246000fd5b90600052602060002090600202016001018663ffffffff16815481106111ee57634e487b7160e01b600052603260045260246000fd5b9060005260206000209060140201600d0160046101000a81548163ffffffff021916908363ffffffff160217905550826004828154811061123f57634e487b7160e01b600052603260045260246000fd5b90600052602060002090600202016001018663ffffffff168154811061127557634e487b7160e01b600052603260045260246000fd5b9060005260206000209060140201600f019080519060200190611299929190614fe9565b50600481815481106112bb57634e487b7160e01b600052603260045260246000fd5b9060005260206000209060020201600101805480602002602001604051908101604052809291908181526020016000905b82821015611b3d576000848152602090819020604080516102e08101825260148602909201805463ffffffff1683526001810154938301939093526002830180549293929184019161133d90615cf2565b80601f016020809104026020016040519081016040528092919081815260200182805461136990615cf2565b80156113b65780601f1061138b576101008083540402835291602001916113b6565b820191906000526020600020905b81548152906001019060200180831161139957829003601f168201915b505050505081526020016003820180546113cf90615cf2565b80601f01602080910402602001604051908101604052809291908181526020018280546113fb90615cf2565b80156114485780601f1061141d57610100808354040283529160200191611448565b820191906000526020600020905b81548152906001019060200180831161142b57829003601f168201915b5050509183525050600482015463ffffffff81166020830152600160201b90046001600160a01b0316604082015260058201805460609092019161148b90615cf2565b80601f01602080910402602001604051908101604052809291908181526020018280546114b790615cf2565b80156115045780601f106114d957610100808354040283529160200191611504565b820191906000526020600020905b8154815290600101906020018083116114e757829003601f168201915b5050505050815260200160068201805461151d90615cf2565b80601f016020809104026020016040519081016040528092919081815260200182805461154990615cf2565b80156115965780601f1061156b57610100808354040283529160200191611596565b820191906000526020600020905b81548152906001019060200180831161157957829003601f168201915b5050509183525050600782015463ffffffff81166020830152600160201b900460ff16151560408201526008820180546060909201916115d590615cf2565b80601f016020809104026020016040519081016040528092919081815260200182805461160190615cf2565b801561164e5780601f106116235761010080835404028352916020019161164e565b820191906000526020600020905b81548152906001019060200180831161163157829003601f168201915b5050505050815260200160098201805461166790615cf2565b80601f016020809104026020016040519081016040528092919081815260200182805461169390615cf2565b80156116e05780601f106116b5576101008083540402835291602001916116e0565b820191906000526020600020905b8154815290600101906020018083116116c357829003601f168201915b50505050508152602001600a820180546116f990615cf2565b80601f016020809104026020016040519081016040528092919081815260200182805461172590615cf2565b80156117725780601f1061174757610100808354040283529160200191611772565b820191906000526020600020905b81548152906001019060200180831161175557829003601f168201915b50505050508152602001600b8201805461178b90615cf2565b80601f01602080910402602001604051908101604052809291908181526020018280546117b790615cf2565b80156118045780601f106117d957610100808354040283529160200191611804565b820191906000526020600020905b8154815290600101906020018083116117e757829003601f168201915b50505050508152602001600c8201805461181d90615cf2565b80601f016020809104026020016040519081016040528092919081815260200182805461184990615cf2565b80156118965780601f1061186b57610100808354040283529160200191611896565b820191906000526020600020905b81548152906001019060200180831161187957829003601f168201915b5050509183525050600d82015463ffffffff8082166020840152600160201b909104166040820152600e820180546060909201916118d390615cf2565b80601f01602080910402602001604051908101604052809291908181526020018280546118ff90615cf2565b801561194c5780601f106119215761010080835404028352916020019161194c565b820191906000526020600020905b81548152906001019060200180831161192f57829003601f168201915b50505050508152602001600f8201805461196590615cf2565b80601f016020809104026020016040519081016040528092919081815260200182805461199190615cf2565b80156119de5780601f106119b3576101008083540402835291602001916119de565b820191906000526020600020905b8154815290600101906020018083116119c157829003601f168201915b505050505081526020016010820180546119f790615cf2565b80601f0160208091040260200160405190810160405280929190818152602001828054611a2390615cf2565b8015611a705780601f10611a4557610100808354040283529160200191611a70565b820191906000526020600020905b815481529060010190602001808311611a5357829003601f168201915b50505050508152602001601182018054611a8990615cf2565b80601f0160208091040260200160405190810160405280929190818152602001828054611ab590615cf2565b8015611b025780601f10611ad757610100808354040283529160200191611b02565b820191906000526020600020905b815481529060010190602001808311611ae557829003601f168201915b505050918352505060128201546020808301919091526013909201546001600160a01b031660409091015290825260019290920191016112ec565b505050509150509695505050505050565b611b618a348b8b8b8b8b8b8b8b8b6139ac565b50505050505050505050565b6001600160a01b03811660009081526002602052604090205460048054606092919082908110611bad57634e487b7160e01b600052603260045260246000fd5b9060005260206000209060020201600101805480602002602001604051908101604052809291908181526020016000905b8282101561242f576000848152602090819020604080516102e08101825260148602909201805463ffffffff16835260018101549383019390935260028301805492939291840191611c2f90615cf2565b80601f0160208091040260200160405190810160405280929190818152602001828054611c5b90615cf2565b8015611ca85780601f10611c7d57610100808354040283529160200191611ca8565b820191906000526020600020905b815481529060010190602001808311611c8b57829003601f168201915b50505050508152602001600382018054611cc190615cf2565b80601f0160208091040260200160405190810160405280929190818152602001828054611ced90615cf2565b8015611d3a5780601f10611d0f57610100808354040283529160200191611d3a565b820191906000526020600020905b815481529060010190602001808311611d1d57829003601f168201915b5050509183525050600482015463ffffffff81166020830152600160201b90046001600160a01b03166040820152600582018054606090920191611d7d90615cf2565b80601f0160208091040260200160405190810160405280929190818152602001828054611da990615cf2565b8015611df65780601f10611dcb57610100808354040283529160200191611df6565b820191906000526020600020905b815481529060010190602001808311611dd957829003601f168201915b50505050508152602001600682018054611e0f90615cf2565b80601f0160208091040260200160405190810160405280929190818152602001828054611e3b90615cf2565b8015611e885780601f10611e5d57610100808354040283529160200191611e88565b820191906000526020600020905b815481529060010190602001808311611e6b57829003601f168201915b5050509183525050600782015463ffffffff81166020830152600160201b900460ff1615156040820152600882018054606090920191611ec790615cf2565b80601f0160208091040260200160405190810160405280929190818152602001828054611ef390615cf2565b8015611f405780601f10611f1557610100808354040283529160200191611f40565b820191906000526020600020905b815481529060010190602001808311611f2357829003601f168201915b50505050508152602001600982018054611f5990615cf2565b80601f0160208091040260200160405190810160405280929190818152602001828054611f8590615cf2565b8015611fd25780601f10611fa757610100808354040283529160200191611fd2565b820191906000526020600020905b815481529060010190602001808311611fb557829003601f168201915b50505050508152602001600a82018054611feb90615cf2565b80601f016020809104026020016040519081016040528092919081815260200182805461201790615cf2565b80156120645780601f1061203957610100808354040283529160200191612064565b820191906000526020600020905b81548152906001019060200180831161204757829003601f168201915b50505050508152602001600b8201805461207d90615cf2565b80601f01602080910402602001604051908101604052809291908181526020018280546120a990615cf2565b80156120f65780601f106120cb576101008083540402835291602001916120f6565b820191906000526020600020905b8154815290600101906020018083116120d957829003601f168201915b50505050508152602001600c8201805461210f90615cf2565b80601f016020809104026020016040519081016040528092919081815260200182805461213b90615cf2565b80156121885780601f1061215d57610100808354040283529160200191612188565b820191906000526020600020905b81548152906001019060200180831161216b57829003601f168201915b5050509183525050600d82015463ffffffff8082166020840152600160201b909104166040820152600e820180546060909201916121c590615cf2565b80601f01602080910402602001604051908101604052809291908181526020018280546121f190615cf2565b801561223e5780601f106122135761010080835404028352916020019161223e565b820191906000526020600020905b81548152906001019060200180831161222157829003601f168201915b50505050508152602001600f8201805461225790615cf2565b80601f016020809104026020016040519081016040528092919081815260200182805461228390615cf2565b80156122d05780601f106122a5576101008083540402835291602001916122d0565b820191906000526020600020905b8154815290600101906020018083116122b357829003601f168201915b505050505081526020016010820180546122e990615cf2565b80601f016020809104026020016040519081016040528092919081815260200182805461231590615cf2565b80156123625780601f1061233757610100808354040283529160200191612362565b820191906000526020600020905b81548152906001019060200180831161234557829003601f168201915b5050505050815260200160118201805461237b90615cf2565b80601f01602080910402602001604051908101604052809291908181526020018280546123a790615cf2565b80156123f45780601f106123c9576101008083540402835291602001916123f4565b820191906000526020600020905b8154815290600101906020018083116123d757829003601f168201915b505050918352505060128201546020808301919091526013909201546001600160a01b03166040909101529082526001929092019101611bde565b505050509150505b919050565b604051339082156108fc029083906000818181858888f19350505050158015612469573d6000803e3d6000fd5b5050565b60606004805480602002602001604051908101604052809291908181526020016000905b82821015612d4b57600084815260208082206040805180820182526002870290920180546001600160a01b03168352600181018054835181870281018701909452808452939591948681019491929084015b82821015612d34576000848152602090819020604080516102e08101825260148602909201805463ffffffff1683526001810154938301939093526002830180549293929184019161253490615cf2565b80601f016020809104026020016040519081016040528092919081815260200182805461256090615cf2565b80156125ad5780601f10612582576101008083540402835291602001916125ad565b820191906000526020600020905b81548152906001019060200180831161259057829003601f168201915b505050505081526020016003820180546125c690615cf2565b80601f01602080910402602001604051908101604052809291908181526020018280546125f290615cf2565b801561263f5780601f106126145761010080835404028352916020019161263f565b820191906000526020600020905b81548152906001019060200180831161262257829003601f168201915b5050509183525050600482015463ffffffff81166020830152600160201b90046001600160a01b0316604082015260058201805460609092019161268290615cf2565b80601f01602080910402602001604051908101604052809291908181526020018280546126ae90615cf2565b80156126fb5780601f106126d0576101008083540402835291602001916126fb565b820191906000526020600020905b8154815290600101906020018083116126de57829003601f168201915b5050505050815260200160068201805461271490615cf2565b80601f016020809104026020016040519081016040528092919081815260200182805461274090615cf2565b801561278d5780601f106127625761010080835404028352916020019161278d565b820191906000526020600020905b81548152906001019060200180831161277057829003601f168201915b5050509183525050600782015463ffffffff81166020830152600160201b900460ff16151560408201526008820180546060909201916127cc90615cf2565b80601f01602080910402602001604051908101604052809291908181526020018280546127f890615cf2565b80156128455780601f1061281a57610100808354040283529160200191612845565b820191906000526020600020905b81548152906001019060200180831161282857829003601f168201915b5050505050815260200160098201805461285e90615cf2565b80601f016020809104026020016040519081016040528092919081815260200182805461288a90615cf2565b80156128d75780601f106128ac576101008083540402835291602001916128d7565b820191906000526020600020905b8154815290600101906020018083116128ba57829003601f168201915b50505050508152602001600a820180546128f090615cf2565b80601f016020809104026020016040519081016040528092919081815260200182805461291c90615cf2565b80156129695780601f1061293e57610100808354040283529160200191612969565b820191906000526020600020905b81548152906001019060200180831161294c57829003601f168201915b50505050508152602001600b8201805461298290615cf2565b80601f01602080910402602001604051908101604052809291908181526020018280546129ae90615cf2565b80156129fb5780601f106129d0576101008083540402835291602001916129fb565b820191906000526020600020905b8154815290600101906020018083116129de57829003601f168201915b50505050508152602001600c82018054612a1490615cf2565b80601f0160208091040260200160405190810160405280929190818152602001828054612a4090615cf2565b8015612a8d5780601f10612a6257610100808354040283529160200191612a8d565b820191906000526020600020905b815481529060010190602001808311612a7057829003601f168201915b5050509183525050600d82015463ffffffff8082166020840152600160201b909104166040820152600e82018054606090920191612aca90615cf2565b80601f0160208091040260200160405190810160405280929190818152602001828054612af690615cf2565b8015612b435780601f10612b1857610100808354040283529160200191612b43565b820191906000526020600020905b815481529060010190602001808311612b2657829003601f168201915b50505050508152602001600f82018054612b5c90615cf2565b80601f0160208091040260200160405190810160405280929190818152602001828054612b8890615cf2565b8015612bd55780601f10612baa57610100808354040283529160200191612bd5565b820191906000526020600020905b815481529060010190602001808311612bb857829003601f168201915b50505050508152602001601082018054612bee90615cf2565b80601f0160208091040260200160405190810160405280929190818152602001828054612c1a90615cf2565b8015612c675780601f10612c3c57610100808354040283529160200191612c67565b820191906000526020600020905b815481529060010190602001808311612c4a57829003601f168201915b50505050508152602001601182018054612c8090615cf2565b80601f0160208091040260200160405190810160405280929190818152602001828054612cac90615cf2565b8015612cf95780601f10612cce57610100808354040283529160200191612cf9565b820191906000526020600020905b815481529060010190602001808311612cdc57829003601f168201915b505050918352505060128201546020808301919091526013909201546001600160a01b031660409091015290825260019290920191016124e3565b505050508152505081526020019060010190612491565b50505050905090565b6001600160a01b03821660009081526002602052604081205460048054606093919083908110612d9457634e487b7160e01b600052603260045260246000fd5b90600052602060002090600202016001018463ffffffff1681548110612dca57634e487b7160e01b600052603260045260246000fd5b9060005260206000209060140201600101549050600060048381548110612e0157634e487b7160e01b600052603260045260246000fd5b90600052602060002090600202016001018563ffffffff1681548110612e3757634e487b7160e01b600052603260045260246000fd5b9060005260206000209060140201600d0160049054906101000a900463ffffffff1663ffffffff169050600060048481548110612e8457634e487b7160e01b600052603260045260246000fd5b90600052602060002090600202016001018663ffffffff1681548110612eba57634e487b7160e01b600052603260045260246000fd5b6000918252602090912060149091020160040154600160201b90046001600160a01b0390811691508716331415612fcb578160641415612f30576040516001600160a01b0388169084156108fc029085906000818181858888f19350505050158015612f2a573d6000803e3d6000fd5b50612fc6565b8160321415612f79576001600160a01b0387166108fc612f51600286615c9c565b6040518115909202916000818181858888f19350505050158015612f2a573d6000803e3d6000fd5b6001600160a01b0387166108fc6064612f928587615cbc565b612f9c9190615c9c565b6040518115909202916000818181858888f19350505050158015612fc4573d6000803e3d6000fd5b505b61305a565b336001600160a01b038216141561305a578160321415612ffd576001600160a01b0381166108fc612f9c600286615c9c565b600061300a836064615cdb565b90506001600160a01b0382166108fc60646130258488615cbc565b61302f9190615c9c565b6040518115909202916000818181858888f19350505050158015613057573d6000803e3d6000fd5b50505b6004848154811061307b57634e487b7160e01b600052603260045260246000fd5b9060005260206000209060020201600101805480602002602001604051908101604052809291908181526020016000905b828210156138fd576000848152602090819020604080516102e08101825260148602909201805463ffffffff168352600181015493830193909352600283018054929392918401916130fd90615cf2565b80601f016020809104026020016040519081016040528092919081815260200182805461312990615cf2565b80156131765780601f1061314b57610100808354040283529160200191613176565b820191906000526020600020905b81548152906001019060200180831161315957829003601f168201915b5050505050815260200160038201805461318f90615cf2565b80601f01602080910402602001604051908101604052809291908181526020018280546131bb90615cf2565b80156132085780601f106131dd57610100808354040283529160200191613208565b820191906000526020600020905b8154815290600101906020018083116131eb57829003601f168201915b5050509183525050600482015463ffffffff81166020830152600160201b90046001600160a01b0316604082015260058201805460609092019161324b90615cf2565b80601f016020809104026020016040519081016040528092919081815260200182805461327790615cf2565b80156132c45780601f10613299576101008083540402835291602001916132c4565b820191906000526020600020905b8154815290600101906020018083116132a757829003601f168201915b505050505081526020016006820180546132dd90615cf2565b80601f016020809104026020016040519081016040528092919081815260200182805461330990615cf2565b80156133565780601f1061332b57610100808354040283529160200191613356565b820191906000526020600020905b81548152906001019060200180831161333957829003601f168201915b5050509183525050600782015463ffffffff81166020830152600160201b900460ff161515604082015260088201805460609092019161339590615cf2565b80601f01602080910402602001604051908101604052809291908181526020018280546133c190615cf2565b801561340e5780601f106133e35761010080835404028352916020019161340e565b820191906000526020600020905b8154815290600101906020018083116133f157829003601f168201915b5050505050815260200160098201805461342790615cf2565b80601f016020809104026020016040519081016040528092919081815260200182805461345390615cf2565b80156134a05780601f10613475576101008083540402835291602001916134a0565b820191906000526020600020905b81548152906001019060200180831161348357829003601f168201915b50505050508152602001600a820180546134b990615cf2565b80601f01602080910402602001604051908101604052809291908181526020018280546134e590615cf2565b80156135325780601f1061350757610100808354040283529160200191613532565b820191906000526020600020905b81548152906001019060200180831161351557829003601f168201915b50505050508152602001600b8201805461354b90615cf2565b80601f016020809104026020016040519081016040528092919081815260200182805461357790615cf2565b80156135c45780601f10613599576101008083540402835291602001916135c4565b820191906000526020600020905b8154815290600101906020018083116135a757829003601f168201915b50505050508152602001600c820180546135dd90615cf2565b80601f016020809104026020016040519081016040528092919081815260200182805461360990615cf2565b80156136565780601f1061362b57610100808354040283529160200191613656565b820191906000526020600020905b81548152906001019060200180831161363957829003601f168201915b5050509183525050600d82015463ffffffff8082166020840152600160201b909104166040820152600e8201805460609092019161369390615cf2565b80601f01602080910402602001604051908101604052809291908181526020018280546136bf90615cf2565b801561370c5780601f106136e15761010080835404028352916020019161370c565b820191906000526020600020905b8154815290600101906020018083116136ef57829003601f168201915b50505050508152602001600f8201805461372590615cf2565b80601f016020809104026020016040519081016040528092919081815260200182805461375190615cf2565b801561379e5780601f106137735761010080835404028352916020019161379e565b820191906000526020600020905b81548152906001019060200180831161378157829003601f168201915b505050505081526020016010820180546137b790615cf2565b80601f01602080910402602001604051908101604052809291908181526020018280546137e390615cf2565b80156138305780601f1061380557610100808354040283529160200191613830565b820191906000526020600020905b81548152906001019060200180831161381357829003601f168201915b5050505050815260200160118201805461384990615cf2565b80601f016020809104026020016040519081016040528092919081815260200182805461387590615cf2565b80156138c25780601f10613897576101008083540402835291602001916138c2565b820191906000526020600020905b8154815290600101906020018083116138a557829003601f168201915b505050918352505060128201546020808301919091526013909201546001600160a01b031660409091015290825260019290920191016130ac565b5050505094505050505092915050565b6001600160a01b038216600090815260026020526040902054600480548391908390811061394b57634e487b7160e01b600052603260045260246000fd5b90600052602060002090600202016001018563ffffffff168154811061398157634e487b7160e01b600052603260045260246000fd5b906000526020600020906014020160080190805190602001906139a5929190614fe9565b5050505050565b33600090815260026020526040902054806139cd576139ca33614f6b565b90505b600481815481106139ee57634e487b7160e01b600052603260045260246000fd5b9060005260206000209060020201600101604051806102e001604052808e63ffffffff1681526020018d81526020018c81526020018b81526020018a63ffffffff168152602001896001600160a01b031681526020018881526020018781526020018663ffffffff1681526020018515158152602001604051806020016040528060008152508152602001604051806020016040528060008152508152602001604051806020016040528060008152508152602001604051806020016040528060008152508152602001604051806020016040528060008152508152602001600063ffffffff168152602001600063ffffffff16815260200184815260200160405180602001604052806000815250815260200160405180602001604052806000815250815260200160405180602001604052806000815250815260200160008152602001732e50a8e498912ef9818f080a43f849c4a58c1a666001600160a01b0316815250908060018154018082558091505060019003906000526020600020906014020160009091909190915060008201518160000160006101000a81548163ffffffff021916908363ffffffff160217905550602082015181600101556040820151816002019080519060200190613bca929190614fe9565b5060608201518051613be6916003840191602090910190614fe9565b50608082015160048201805460a08501516001600160a01b0316600160201b026001600160c01b031990911663ffffffff9093169290921791909117905560c08201518051613c3f916005840191602090910190614fe9565b5060e08201518051613c5b916006840191602090910190614fe9565b506101008201516007820180546101208501511515600160201b0264ffffffffff1990911663ffffffff909316929092179190911790556101408201518051613cae916008840191602090910190614fe9565b506101608201518051613ccb916009840191602090910190614fe9565b506101808201518051613ce891600a840191602090910190614fe9565b506101a08201518051613d0591600b840191602090910190614fe9565b506101c08201518051613d2291600c840191602090910190614fe9565b506101e0820151600d8201805461020085015163ffffffff908116600160201b0267ffffffffffffffff199092169316929092179190911790556102208201518051613d7891600e840191602090910190614fe9565b506102408201518051613d9591600f840191602090910190614fe9565b506102608201518051613db2916010840191602090910190614fe9565b506102808201518051613dcf916011840191602090910190614fe9565b506102a082015160128201556102c090910151601390910180546001600160a01b0319166001600160a01b03909216919091179055505050505050505050505050565b6001600160a01b0384166000908152600260205260409020546004805485919083908110613e5057634e487b7160e01b600052603260045260246000fd5b90600052602060002090600202016001018763ffffffff1681548110613e8657634e487b7160e01b600052603260045260246000fd5b90600052602060002090601402016011019080519060200190613eaa929190614fe9565b508260048281548110613ecd57634e487b7160e01b600052603260045260246000fd5b90600052602060002090600202016001018763ffffffff1681548110613f0357634e487b7160e01b600052603260045260246000fd5b9060005260206000209060140201601201819055508160048281548110613f3a57634e487b7160e01b600052603260045260246000fd5b90600052602060002090600202016001018763ffffffff1681548110613f7057634e487b7160e01b600052603260045260246000fd5b906000526020600020906014020160130160006101000a8154816001600160a01b0302191690836001600160a01b03160217905550505050505050565b6001600160a01b038116600090815260026020526040902054600480546060929160019183908110613fef57634e487b7160e01b600052603260045260246000fd5b90600052602060002090600202016001018563ffffffff168154811061402557634e487b7160e01b600052603260045260246000fd5b906000526020600020906014020160070160046101000a81548160ff0219169083151502179055506004818154811061406e57634e487b7160e01b600052603260045260246000fd5b9060005260206000209060020201600101805480602002602001604051908101604052809291908181526020016000905b828210156148f0576000848152602090819020604080516102e08101825260148602909201805463ffffffff168352600181015493830193909352600283018054929392918401916140f090615cf2565b80601f016020809104026020016040519081016040528092919081815260200182805461411c90615cf2565b80156141695780601f1061413e57610100808354040283529160200191614169565b820191906000526020600020905b81548152906001019060200180831161414c57829003601f168201915b5050505050815260200160038201805461418290615cf2565b80601f01602080910402602001604051908101604052809291908181526020018280546141ae90615cf2565b80156141fb5780601f106141d0576101008083540402835291602001916141fb565b820191906000526020600020905b8154815290600101906020018083116141de57829003601f168201915b5050509183525050600482015463ffffffff81166020830152600160201b90046001600160a01b0316604082015260058201805460609092019161423e90615cf2565b80601f016020809104026020016040519081016040528092919081815260200182805461426a90615cf2565b80156142b75780601f1061428c576101008083540402835291602001916142b7565b820191906000526020600020905b81548152906001019060200180831161429a57829003601f168201915b505050505081526020016006820180546142d090615cf2565b80601f01602080910402602001604051908101604052809291908181526020018280546142fc90615cf2565b80156143495780601f1061431e57610100808354040283529160200191614349565b820191906000526020600020905b81548152906001019060200180831161432c57829003601f168201915b5050509183525050600782015463ffffffff81166020830152600160201b900460ff161515604082015260088201805460609092019161438890615cf2565b80601f01602080910402602001604051908101604052809291908181526020018280546143b490615cf2565b80156144015780601f106143d657610100808354040283529160200191614401565b820191906000526020600020905b8154815290600101906020018083116143e457829003601f168201915b5050505050815260200160098201805461441a90615cf2565b80601f016020809104026020016040519081016040528092919081815260200182805461444690615cf2565b80156144935780601f1061446857610100808354040283529160200191614493565b820191906000526020600020905b81548152906001019060200180831161447657829003601f168201915b50505050508152602001600a820180546144ac90615cf2565b80601f01602080910402602001604051908101604052809291908181526020018280546144d890615cf2565b80156145255780601f106144fa57610100808354040283529160200191614525565b820191906000526020600020905b81548152906001019060200180831161450857829003601f168201915b50505050508152602001600b8201805461453e90615cf2565b80601f016020809104026020016040519081016040528092919081815260200182805461456a90615cf2565b80156145b75780601f1061458c576101008083540402835291602001916145b7565b820191906000526020600020905b81548152906001019060200180831161459a57829003601f168201915b50505050508152602001600c820180546145d090615cf2565b80601f01602080910402602001604051908101604052809291908181526020018280546145fc90615cf2565b80156146495780601f1061461e57610100808354040283529160200191614649565b820191906000526020600020905b81548152906001019060200180831161462c57829003601f168201915b5050509183525050600d82015463ffffffff8082166020840152600160201b909104166040820152600e8201805460609092019161468690615cf2565b80601f01602080910402602001604051908101604052809291908181526020018280546146b290615cf2565b80156146ff5780601f106146d4576101008083540402835291602001916146ff565b820191906000526020600020905b8154815290600101906020018083116146e257829003601f168201915b50505050508152602001600f8201805461471890615cf2565b80601f016020809104026020016040519081016040528092919081815260200182805461474490615cf2565b80156147915780601f1061476657610100808354040283529160200191614791565b820191906000526020600020905b81548152906001019060200180831161477457829003601f168201915b505050505081526020016010820180546147aa90615cf2565b80601f01602080910402602001604051908101604052809291908181526020018280546147d690615cf2565b80156148235780601f106147f857610100808354040283529160200191614823565b820191906000526020600020905b81548152906001019060200180831161480657829003601f168201915b5050505050815260200160118201805461483c90615cf2565b80601f016020809104026020016040519081016040528092919081815260200182805461486890615cf2565b80156148b55780601f1061488a576101008083540402835291602001916148b5565b820191906000526020600020905b81548152906001019060200180831161489857829003601f168201915b505050918352505060128201546020808301919091526013909201546001600160a01b0316604090910152908252600192909201910161409f565b5050505091505092915050565b6001600160a01b038316600090815260026020526040902054600480548791908390811061493b57634e487b7160e01b600052603260045260246000fd5b90600052602060002090600202016001018463ffffffff168154811061497157634e487b7160e01b600052603260045260246000fd5b9060005260206000209060140201600c019080519060200190614995929190614fe9565b5084600482815481106149b857634e487b7160e01b600052603260045260246000fd5b90600052602060002090600202016001018463ffffffff16815481106149ee57634e487b7160e01b600052603260045260246000fd5b9060005260206000209060140201600b019080519060200190614a12929190614fe9565b508160048281548110614a3557634e487b7160e01b600052603260045260246000fd5b90600052602060002090600202016001018463ffffffff1681548110614a6b57634e487b7160e01b600052603260045260246000fd5b9060005260206000209060140201600d0160006101000a81548163ffffffff021916908363ffffffff160217905550600060048281548110614abd57634e487b7160e01b600052603260045260246000fd5b90600052602060002090600202016001018463ffffffff1681548110614af357634e487b7160e01b600052603260045260246000fd5b9060005260206000209060140201600101549050600060048381548110614b2a57634e487b7160e01b600052603260045260246000fd5b90600052602060002090600202016001018563ffffffff1681548110614b6057634e487b7160e01b600052603260045260246000fd5b9060005260206000209060140201601201549050600060048481548110614b9757634e487b7160e01b600052603260045260246000fd5b90600052602060002090600202016001018663ffffffff1681548110614bcd57634e487b7160e01b600052603260045260246000fd5b60009182526020822060136014909202010154600480546001600160a01b03909216935063ffffffff8816929187908110614c1857634e487b7160e01b600052603260045260246000fd5b90600052602060002090600202016001018863ffffffff1681548110614c4e57634e487b7160e01b600052603260045260246000fd5b906000526020600020906014020160040160049054906101000a90046001600160a01b031690508160641415614cba576040516001600160a01b038a169086156108fc029087906000818181858888f19350505050158015614cb4573d6000803e3d6000fd5b50614ded565b8160321415614d44576001600160a01b0389166108fc614cdb600288615c9c565b6040518115909202916000818181858888f19350505050158015614d03573d6000803e3d6000fd5b506001600160a01b0381166108fc614d1c600288615c9c565b6040518115909202916000818181858888f19350505050158015614cb4573d6000803e3d6000fd5b6000614d51836064615cdb565b90506001600160a01b038a166108fc6064614d6c868a615cbc565b614d769190615c9c565b6040518115909202916000818181858888f19350505050158015614d9e573d6000803e3d6000fd5b506001600160a01b0382166108fc6064614db8848a615cbc565b614dc29190615c9c565b6040518115909202916000818181858888f19350505050158015614dea573d6000803e3d6000fd5b50505b6040516001600160a01b0384169085156108fc029086906000818181858888f19350505050158015614e23573d6000803e3d6000fd5b505050505050505050505050565b6001546040516370a0823160e01b815233600482015282916001600160a01b0316906370a082319060240160206040518083038186803b158015614e7457600080fd5b505afa158015614e88573d6000803e3d6000fd5b505050506040513d601f19601f82011682018060405250810190614eac9190615337565b1015614eb757600080fd5b6001546040516323b872dd60e01b8152336004820152306024820152604481018390526001600160a01b03909116906323b872dd90606401602060405180830381600087803b158015614f0957600080fd5b505af1158015614f1d573d6000803e3d6000fd5b505050506040513d601f19601f8201168201806040525081019061246991906151bb565b60038181548110614f5157600080fd5b6000918252602090912001546001600160a01b0316905081565b60048054600190810180835560009283528291614f8791615cdb565b90508260048281548110614fab57634e487b7160e01b600052603260045260246000fd5b6000918252602080832060029283020180546001600160a01b0319166001600160a01b03958616179055959092168152935260409092208290555090565b828054614ff590615cf2565b90600052602060002090601f016020900481019282615017576000855561505d565b82601f1061503057805160ff191683800117855561505d565b8280016001018555821561505d579182015b8281111561505d578251825591602001919060010190615042565b5061506992915061506d565b5090565b5b80821115615069576000815560010161506e565b80356001600160a01b038116811461243757600080fd5b803561243781615d59565b600082601f8301126150b4578081fd5b813567ffffffffffffffff808211156150cf576150cf615d43565b604051601f8301601f19908116603f011681019082821181831017156150f7576150f7615d43565b8160405283815286602085880101111561510f578485fd5b8360208701602083013792830160200193909352509392505050565b803563ffffffff8116811461243757600080fd5b600060208284031215615150578081fd5b61515982615082565b9392505050565b60008060408385031215615172578081fd5b61517b83615082565b946020939093013593505050565b6000806040838503121561519b578182fd5b6151a483615082565b91506151b26020840161512b565b90509250929050565b6000602082840312156151cc578081fd5b815161515981615d59565b600080600080600060a086880312156151ee578081fd5b853567ffffffffffffffff80821115615205578283fd5b61521189838a016150a4565b96506020880135915080821115615226578283fd5b50615233888289016150a4565b94505061524260408701615082565b92506152506060870161512b565b915061525e6080870161512b565b90509295509295909350565b60008060008060008060c08789031215615282578081fd5b863567ffffffffffffffff80821115615299578283fd5b6152a58a838b016150a4565b975060208901359150808211156152ba578283fd5b6152c68a838b016150a4565b96506152d460408a01615082565b95506152e260608a0161512b565b94506152f060808a0161512b565b935060a0890135915080821115615305578283fd5b5061531289828a016150a4565b9150509295509295509295565b600060208284031215615330578081fd5b5035919050565b600060208284031215615348578081fd5b5051919050565b60008060008060808587031215615364578384fd5b84359350602085013567ffffffffffffffff811115615381578384fd5b61538d878288016150a4565b93505061539c6040860161512b565b91506153aa60608601615082565b905092959194509250565b600080604083850312156153c7578182fd5b6153d08361512b565b91506151b260208401615082565b6000806000606084860312156153f2578283fd5b6153fb8461512b565b925061540960208501615082565b9150604084013567ffffffffffffffff811115615424578182fd5b615430868287016150a4565b9150509250925092565b600080600080600060a08688031215615451578081fd5b61545a8661512b565b945061546860208701615082565b9350604086013567ffffffffffffffff811115615483578182fd5b61548f888289016150a4565b9350506060860135915061525e60808701615082565b6000806000806000806000806000806101408b8d0312156154c4578788fd5b6154cd8b61512b565b995060208b013567ffffffffffffffff808211156154e957898afd5b6154f58e838f016150a4565b9a5060408d013591508082111561550a57898afd5b6155168e838f016150a4565b995061552460608e0161512b565b985061553260808e01615082565b975060a08d0135915080821115615547578586fd5b6155538e838f016150a4565b965060c08d0135915080821115615568578586fd5b6155748e838f016150a4565b955061558260e08e0161512b565b94506155916101008e01615099565b93506101208d01359150808211156155a7578283fd5b506155b48d828e016150a4565b9150509295989b9194979a5092959850565b60008060008060008060008060008060006101608c8e0312156155e7578485fd5b6155f08c61512b565b9a5060208c0135995067ffffffffffffffff8060408e01351115615612578586fd5b6156228e60408f01358f016150a4565b99508060608e01351115615634578586fd5b6156448e60608f01358f016150a4565b985061565260808e0161512b565b975061566060a08e01615082565b96508060c08e01351115615672578586fd5b6156828e60c08f01358f016150a4565b95508060e08e01351115615694578182fd5b6156a48e60e08f01358f016150a4565b94506156b36101008e0161512b565b93506156c26101208e01615099565b9250806101408e013511156156d5578182fd5b506156e78d6101408e01358e016150a4565b90509295989b509295989b9093969950565b60008151808452815b8181101561571e57602081850181015186830182015201615702565b8181111561572f5782602083870101525b50601f01601f19169290920160200192915050565b60006020808301818452808551808352604092508286019150828160051b870101848801865b838110156159b257888303603f190185528151805163ffffffff1684526102e088820151898601528782015181898701526157a7828701826156f9565b915050606080830151868303828801526157c183826156f9565b925050506080808301516157dc8288018263ffffffff169052565b505060a0828101516001600160a01b03169086015260c0808301518683038288015261580883826156f9565b9250505060e0808301518683038288015261582383826156f9565b925050506101008083015161583f8288018263ffffffff169052565b505061012082810151151590860152610140808301518683038288015261586683826156f9565b92505050610160808301518683038288015261588283826156f9565b92505050610180808301518683038288015261589e83826156f9565b925050506101a080830151868303828801526158ba83826156f9565b925050506101c080830151868303828801526158d683826156f9565b925050506101e0808301516158f28288018263ffffffff169052565b50506102008281015163ffffffff1690860152610220808301518683038288015261591d83826156f9565b92505050610240808301518683038288015261593983826156f9565b92505050610260808301518683038288015261595583826156f9565b92505050610280808301518683038288015261597183826156f9565b925050506102a08083015181870152506102c080830151925061599e818701846001600160a01b03169052565b50958801959350509086019060010161576a565b509098975050505050505050565b60006020808301818452808551808352604092508286019150828160051b870101848801865b838110156159b257888303603f19018552815180516001600160a01b0316845287015187840187905280518785018190529088019060609081860190600581901b870183018c5b82811015615c7257888203605f190184528551805163ffffffff1683526102e08e8201518f8501528d820151818f860152615a6a828601826156f9565b9150508682015184820388860152615a8282826156f9565b915050608080830151615a9c8287018263ffffffff169052565b505060a0828101516001600160a01b03169085015260c08083015185830382870152615ac883826156f9565b9250505060e08083015185830382870152615ae383826156f9565b9250505061010080830151615aff8287018263ffffffff169052565b5050610120828101511515908501526101408083015185830382870152615b2683826156f9565b925050506101608083015185830382870152615b4283826156f9565b925050506101808083015185830382870152615b5e83826156f9565b925050506101a08083015185830382870152615b7a83826156f9565b925050506101c08083015185830382870152615b9683826156f9565b925050506101e080830151615bb28287018263ffffffff169052565b50506102008281015163ffffffff16908501526102208083015185830382870152615bdd83826156f9565b925050506102408083015185830382870152615bf983826156f9565b925050506102608083015185830382870152615c1583826156f9565b925050506102808083015185830382870152615c3183826156f9565b925050506102a08083015181860152506102c0808301519250615c5e818601846001600160a01b03169052565b50968e0196948e0194925050600101615a2d565b50988b0198965050509288019250506001016159e6565b60006020825261515960208301846156f9565b600082615cb757634e487b7160e01b81526012600452602481fd5b500490565b6000816000190483118215151615615cd657615cd6615d2d565b500290565b600082821015615ced57615ced615d2d565b500390565b600181811c90821680615d0657607f821691505b60208210811415615d2757634e487b7160e01b600052602260045260246000fd5b50919050565b634e487b7160e01b600052601160045260246000fd5b634e487b7160e01b600052604160045260246000fd5b8015158114615d6757600080fd5b5056fea2646970667358221220b17b2731ff51d16862455545f4829a8d98e1a621de0fd18c2c7d2c771af95b9464736f6c63430008030033457468537761702046616972747261646572204d61696e204150702054657374696e67",
  "immutableReferences": {},
  "source": "// SPDX-License-Identifier: MIT\npragma solidity ^0.8.3;\n\nimport \"./Token.sol\";\n\ncontract BuyInvoicesMainAPp {\n    string public name = \"EthSwap Fairtrader Main APp Testing\";\n    Token public token;\n    //\n    mapping(address => uint256) public stakes;\n\n    address[] public stakers;\n    Stakeholder[] public stakeholders;\n\n    // event SmartContractOpenedBuyer(\n    //     uint32 _id,\n    //     string _termsAndCondition,\n    //     string _warrantyFile,\n    //     uint32 _apealTime,\n    //     string _sellerWalletAddress,\n    //     string _invoiceFile,\n    //     string _customerEmail,\n    //     uint32 _mediatorId,\n    //     bool _medAccepted,\n    //     string _friendsEmail\n    // );\n    // event ContractCompletedSeller(\n    //     address indexed user,\n    //     uint256 userIndex,\n    //     address sellerOrUser\n    // );\n\n    struct OrderData {\n        uint32 _orderId;\n        uint256 _amount;\n        string _termsAndCondition;\n        string _warrantyFile;\n        uint32 _apealTime;\n        address _sellerWalletAddress;\n        string _invoiceFile;\n        string _customerEmail;\n        uint32 _mediatorId;\n        bool _medAccepted;\n        string _superMedAcceptedEmail;\n        string _judgeReport;\n        string _judgeReportFile;\n        string _judgeReportFileSuperMed;\n        string _judgeReportSuperMed;\n        uint32 _buyerTakeAmountInPercentSuperMed;\n        uint32 _buyerTakeAmountInPercent;\n        string _friendsEmail;\n        string _appealTime;\n        string _whoCalled;\n        string _whoPaidMediatorFee;\n        uint256 _mediatorFee;\n        address _mediatorWalletAddress;\n    }\n\n    struct Stakeholder {\n        address user;\n        OrderData[] address_stakes;\n    }\n\n    constructor(Token _token) public {\n        // constructor() public {\n        stakeholders.push();\n        token = _token;\n    }\n\n    function getBalance() external view returns (uint256) {\n        return address(this).balance;\n    }\n\n    function exchangeHistoryOfStake()\n        external\n        view\n        returns (Stakeholder[] memory)\n    {\n        return stakeholders;\n    }\n\n    function getAllOrdersOfOneUser(address _userAddress)\n        external\n        view\n        returns (OrderData[] memory)\n    {\n        // require(/* mediator is calling not any other person for security purpose*/);\n        uint256 index = stakes[_userAddress];\n        return stakeholders[index].address_stakes;\n    }\n\n    function medAcceptNewCases(uint32 _index, address buyerWalletAddress)\n        external\n        returns (OrderData[] memory)\n    {\n        // require(/* mediator is calling not any other person for security purpose*/);\n        uint256 index = stakes[buyerWalletAddress];\n        stakeholders[index].address_stakes[_index]._medAccepted = true;\n\n        return stakeholders[index].address_stakes;\n    }\n\n    function payMediatorFee(\n        uint32 _index,\n        address buyerWalletAddress,\n        string memory _whoPaidMediatorFee,\n        uint256 _mediatorFee,\n        address mediatorWalletAddress\n    ) public payable {\n        // returns (OrderData[] memory)\n        uint256 index = stakes[buyerWalletAddress];\n        stakeholders[index]\n            .address_stakes[_index]\n            ._whoPaidMediatorFee = _whoPaidMediatorFee;\n        stakeholders[index].address_stakes[_index]._mediatorFee = _mediatorFee;\n        stakeholders[index].address_stakes[_index]._mediatorWalletAddress = mediatorWalletAddress;\n        // return stakeholders[index].address_stakes;\n    }\n\n    function superMedAcceptNewCases(\n        uint32 _index,\n        address buyerWalletAddress,\n        string memory _superMediatorEmail\n    ) external {\n        // require(/* mediator is calling not any other person for security purpose*/);\n        uint256 index = stakes[buyerWalletAddress];\n        stakeholders[index]\n            .address_stakes[_index]\n            ._superMedAcceptedEmail = _superMediatorEmail;\n    }\n\n    function medJudgeCaseReportSuperMed(\n        string memory _judgeReport,\n        string memory _judgeReportFile,\n        address buyerWalletAddress,\n        uint32 _index,\n        uint32 _buyerTakeAmountInPercent\n    ) external {\n        // returns (OrderData[] memory)\n        // require(/* mediator is calling not any other person for security purpose*/);\n        uint256 index = stakes[buyerWalletAddress];\n        stakeholders[index]\n            .address_stakes[_index]\n            ._judgeReportSuperMed = _judgeReport;\n        stakeholders[index]\n            .address_stakes[_index]\n            ._judgeReportFileSuperMed = _judgeReportFile;\n        stakeholders[index]\n            .address_stakes[_index]\n            ._buyerTakeAmountInPercentSuperMed = _buyerTakeAmountInPercent;\n\n        uint256 amount = stakeholders[index].address_stakes[_index]._amount;\n        uint256 mediatorFee = stakeholders[index].address_stakes[_index]._mediatorFee;\n        address mediatorWalletAddress = stakeholders[index].address_stakes[_index]._mediatorWalletAddress;\n        uint256 buyerTakeAmountInPercent = _buyerTakeAmountInPercent;\n        address sellerWalletAddressOfContract = stakeholders[index]\n            .address_stakes[_index]\n            ._sellerWalletAddress;\n\n        // ADDING CHECK THAT ONLY SELLER ADDRESS IS SAME IN CONTRACT OR SOMEOEN ELSE IS TRYING\n        // string memory sellerAddress = stakeholders[index].address_stakes[_index]._sellerWalletAddress;\n        // require(string(sellerWalletAddress) == sellerAddress);\n\n        if (buyerTakeAmountInPercent == 100) {\n            payable(buyerWalletAddress).transfer(amount);\n        } else if (buyerTakeAmountInPercent == 50) {\n            payable(buyerWalletAddress).transfer(amount / 2);\n            payable(sellerWalletAddressOfContract).transfer(amount / 2);\n        } else {\n            uint256 sellerTakePercent = 100 - buyerTakeAmountInPercent;\n            payable(buyerWalletAddress).transfer(\n                (amount * buyerTakeAmountInPercent) / 100\n            );\n            payable(sellerWalletAddressOfContract).transfer(\n                (amount * sellerTakePercent) / 100\n            );\n        }\n            payable(mediatorWalletAddress).transfer(mediatorFee);\n\n\n        // return stakeholders[index].address_stakes;\n    }\n\n    function medJudgeCaseReport(\n        string memory _judgeReport,\n        string memory _judgeReportFile,\n        address buyerWalletAddress,\n        uint32 _index,\n        uint32 _buyerTakeAmountInPercent,\n        string memory _appealTime\n    ) external returns (OrderData[] memory) {\n        // require(/* mediator is calling not any other person for security purpose*/);\n        uint256 index = stakes[buyerWalletAddress];\n        stakeholders[index].address_stakes[_index]._judgeReport = _judgeReport;\n        stakeholders[index]\n            .address_stakes[_index]\n            ._judgeReportFile = _judgeReportFile;\n        stakeholders[index]\n            .address_stakes[_index]\n            ._buyerTakeAmountInPercent = _buyerTakeAmountInPercent;\n        stakeholders[index].address_stakes[_index]._appealTime = _appealTime;\n\n        return stakeholders[index].address_stakes;\n    }\n\n    function payFeeForSuperMediator(\n        uint256 _amount,\n        string memory _whoIsCalling,\n        uint32 _index,\n        address buyerWalletAddress\n    ) public returns (OrderData[] memory) {\n        // User can't sell more tokens than they have\n        require(token.balanceOf(msg.sender) >= _amount);\n\n        uint256 index = stakes[buyerWalletAddress];\n        stakeholders[index].address_stakes[_index]._whoCalled = _whoIsCalling;\n\n        // Perform sale\n        token.transferFrom(msg.sender, address(this), _amount);\n\n        return stakeholders[index].address_stakes;\n    }\n\n    function payFeeForSuperMediatorr(uint256 _amount) public {\n        // User can't sell more tokens than they have\n        require(token.balanceOf(msg.sender) >= _amount);\n\n        // Perform sale\n        token.transferFrom(msg.sender, address(this), _amount);\n    }\n\n    function buyerPaySimple(address _sellerWalletAddress, uint256 _amount)\n        external\n    {\n        payable(_sellerWalletAddress).transfer(_amount);\n    }\n\n    function mediatorWithDrawFees(uint256 amount)\n        external\n    {\n        payable(msg.sender).transfer(amount);\n    }\n\n    function userWithdrawTheirDisputesOrdersCash(\n        address buyerWalletAddress,\n        uint32 _index\n    ) external returns (OrderData[] memory) {\n        // require(/* mediator is calling not any other person for security purpose*/);\n        uint256 index = stakes[buyerWalletAddress];\n\n        uint256 amount = stakeholders[index].address_stakes[_index]._amount;\n        uint256 buyerTakeAmountInPercent = stakeholders[index]\n            .address_stakes[_index]\n            ._buyerTakeAmountInPercent;\n        address sellerWalletAddressOfContract = stakeholders[index]\n            .address_stakes[_index]\n            ._sellerWalletAddress;\n\n        // ADDING CHECK THAT ONLY SELLER ADDRESS IS SAME IN CONTRACT OR SOMEOEN ELSE IS TRYING\n        // string memory sellerAddress = stakeholders[index].address_stakes[_index]._sellerWalletAddress;\n        // require(string(sellerWalletAddress) == sellerAddress);\n\n        if (msg.sender == buyerWalletAddress) {\n            if (buyerTakeAmountInPercent == 100) {\n                payable(buyerWalletAddress).transfer(amount);\n            } else if (buyerTakeAmountInPercent == 50) {\n                payable(buyerWalletAddress).transfer(amount / 2);\n            } else {\n                payable(buyerWalletAddress).transfer(\n                    (amount * buyerTakeAmountInPercent) / 100\n                );\n            }\n        } else if (msg.sender == sellerWalletAddressOfContract) {\n            if (buyerTakeAmountInPercent == 50) {\n                payable(sellerWalletAddressOfContract).transfer(amount / 2);\n            } else {\n                uint256 sellerTakePercent = 100 - buyerTakeAmountInPercent;\n                payable(sellerWalletAddressOfContract).transfer(\n                    (amount * sellerTakePercent) / 100\n                );\n            }\n        }\n\n        return stakeholders[index].address_stakes;\n    }\n\n    function _addStakeholder(address staker) internal returns (uint256) {\n        stakeholders.push();\n        uint256 userIndex = stakeholders.length - 1;\n        stakeholders[userIndex].user = staker;\n        stakes[staker] = userIndex;\n        return userIndex;\n    }\n\n    function _saveOrdersDataOfUser(\n        uint32 _orderId,\n        uint256 _amount,\n        string memory _termsAndCondition,\n        string memory _warrantyFile,\n        uint32 _apealTime,\n        address _sellerWalletAddress,\n        string memory _invoiceFile,\n        string memory _customerEmail,\n        uint32 _mediatorId,\n        bool _medAccepted,\n        string memory _friendsEmail\n    ) public {\n        // Check that the requested amount of tokens to sell is more than 0\n        // require(_sellerWalletAddress == '', \"seller Wallet Address Cannot nothing\");\n\n        uint256 index = stakes[msg.sender];\n        if (index == 0) {\n            index = _addStakeholder(msg.sender);\n        }\n\n        stakeholders[index].address_stakes.push(\n            OrderData(\n                _orderId,\n                _amount,\n                _termsAndCondition,\n                _warrantyFile,\n                _apealTime,\n                _sellerWalletAddress,\n                _invoiceFile,\n                _customerEmail,\n                _mediatorId,\n                _medAccepted,\n                \"\",\n                \"\",\n                \"\",\n                \"\",\n                \"\",\n                0,\n                0,\n                _friendsEmail,\n                \"\",\n                \"\",\n                \"\",\n                0,\n                // dummy Address of mediator\n                0x2e50a8e498912EF9818F080A43f849C4a58c1A66\n            )\n        );\n    }\n\n    function buyWithFTP(\n        uint32 _orderId,\n        uint256 _amount,\n        string memory _termsAndCondition,\n        string memory _warrantyFile,\n        uint32 _apealTime,\n        address _sellerWalletAddress,\n        string memory _invoiceFile,\n        string memory _customerEmail,\n        uint32 _mediatorId,\n        bool _medAccepted,\n        string memory _friendsEmail\n    ) public {\n        // User can't sell more tokens than they have\n        require(token.balanceOf(msg.sender) >= _amount);\n\n        // Perform sale\n        token.transferFrom(msg.sender, address(this), _amount);\n\n        _saveOrdersDataOfUser(\n            _orderId,\n            _amount,\n            _termsAndCondition,\n            _warrantyFile,\n            _apealTime,\n            _sellerWalletAddress,\n            _invoiceFile,\n            _customerEmail,\n            _mediatorId,\n            _medAccepted,\n            _friendsEmail\n        );\n    }\n\n    // function buyWithUsdt(\n    //     uint32 _orderId,\n    //     uint256 _amount,\n    //     string memory _termsAndCondition,\n    //     string memory _warrantyFile,\n    //     uint32 _apealTime,\n    //     address _sellerWalletAddress,\n    //     string memory _invoiceFile,\n    //     string memory _customerEmail,\n    // uint32 _mediatorId,\n    // bool _medAccepted,\n    //     string memory _friendsEmail\n    // ) public {\n    //     // User can't sell more tokens than they have\n    //     require(usdtToken.balanceOf(msg.sender) >= _amount);\n\n    //     // Perform sale\n    //     usdtToken.transferFrom(msg.sender, address(this), _amount);\n\n    //     _saveOrdersDataOfUser(\n    //         _orderId,\n    //          _amount,\n    //         _termsAndCondition,\n    //         _warrantyFile,\n    //         _apealTime,\n    //         _sellerWalletAddress,\n    //         _invoiceFile,\n    //         _customerEmail,\n    // _mediatorId,\n    // _medAccepted,\n    //         _friendsEmail\n    //     );\n    // }\n\n    function buyWithBNB(\n        uint32 _orderId,\n        string memory _termsAndCondition,\n        string memory _warrantyFile,\n        uint32 _apealTime,\n        address _sellerWalletAddress,\n        string memory _invoiceFile,\n        string memory _customerEmail,\n        uint32 _mediatorId,\n        bool _medAccepted,\n        string memory _friendsEmail\n    ) public payable {\n        // User can't sell more tokens than they have\n        // require(token.balanceOf(msg.sender) >= msg.value);\n\n        // Perform sale\n        // token.transferFrom(msg.sender, address(this), _amount);\n        // address(address(this).transfer(_amount));\n        // token.transfer(address(this), _amount);\n        // token.transferFrom(msg.sender, address(this), _amount);\n\n        _saveOrdersDataOfUser(\n            _orderId,\n            msg.value,\n            _termsAndCondition,\n            _warrantyFile,\n            _apealTime,\n            _sellerWalletAddress,\n            _invoiceFile,\n            _customerEmail,\n            _mediatorId,\n            _medAccepted,\n            _friendsEmail\n        );\n    }\n}\n",
  "sourcePath": "/home/abdullah/Desktop/Fairtrader/FairTrader Main App Smart_Contract/UPGRADECONTRACT...(buy Invoice Main APp)/contracts/BuyInvoicesMainAPp.sol",
  "compiler": {
    "name": "solc",
    "version": "0.8.3+commit.8d00100c.Emscripten.clang"
  },
  "schemaVersion": "3.4.10",
  "updatedAt": "2022-11-25T05:10:39.844Z",
  "networkType": "ethereum",
  "devdoc": {
    "kind": "dev",
    "methods": {},
    "version": 1
  },
  "userdoc": {
    "kind": "user",
    "methods": {},
    "version": 1
  }
}