{
  "contractName": "BuyInvoicesMainAPp",
  "abi": [
    {
      "inputs": [
        {
          "internalType": "contract Token",
          "name": "_token",
          "type": "address"
        }
      ],
      "stateMutability": "nonpayable",
      "type": "constructor"
    },
    {
      "anonymous": false,
      "inputs": [
        {
          "indexed": true,
          "internalType": "address",
          "name": "user",
          "type": "address"
        },
        {
          "indexed": false,
          "internalType": "uint256",
          "name": "userIndex",
          "type": "uint256"
        },
        {
          "indexed": false,
          "internalType": "address",
          "name": "sellerOrUser",
          "type": "address"
        }
      ],
      "name": "ContractCompletedSeller",
      "type": "event"
    },
    {
      "anonymous": false,
      "inputs": [
        {
          "indexed": false,
          "internalType": "uint32",
          "name": "_id",
          "type": "uint32"
        },
        {
          "indexed": false,
          "internalType": "string",
          "name": "_termsAndCondition",
          "type": "string"
        },
        {
          "indexed": false,
          "internalType": "string",
          "name": "_warrantyFile",
          "type": "string"
        },
        {
          "indexed": false,
          "internalType": "uint32",
          "name": "_apealTime",
          "type": "uint32"
        },
        {
          "indexed": false,
          "internalType": "string",
          "name": "_sellerWalletAddress",
          "type": "string"
        },
        {
          "indexed": false,
          "internalType": "string",
          "name": "_invoiceFile",
          "type": "string"
        },
        {
          "indexed": false,
          "internalType": "string",
          "name": "_customerEmail",
          "type": "string"
        },
        {
          "indexed": false,
          "internalType": "string",
          "name": "_friendsEmail",
          "type": "string"
        }
      ],
      "name": "SmartContractOpenedBuyer",
      "type": "event"
    },
    {
      "inputs": [],
      "name": "name",
      "outputs": [
        {
          "internalType": "string",
          "name": "",
          "type": "string"
        }
      ],
      "stateMutability": "view",
      "type": "function",
      "constant": true
    },
    {
      "inputs": [
        {
          "internalType": "uint256",
          "name": "",
          "type": "uint256"
        }
      ],
      "name": "stakeholders",
      "outputs": [
        {
          "internalType": "address",
          "name": "user",
          "type": "address"
        }
      ],
      "stateMutability": "view",
      "type": "function",
      "constant": true
    },
    {
      "inputs": [
        {
          "internalType": "uint256",
          "name": "",
          "type": "uint256"
        }
      ],
      "name": "stakers",
      "outputs": [
        {
          "internalType": "address",
          "name": "",
          "type": "address"
        }
      ],
      "stateMutability": "view",
      "type": "function",
      "constant": true
    },
    {
      "inputs": [
        {
          "internalType": "address",
          "name": "",
          "type": "address"
        }
      ],
      "name": "stakes",
      "outputs": [
        {
          "internalType": "uint256",
          "name": "",
          "type": "uint256"
        }
      ],
      "stateMutability": "view",
      "type": "function",
      "constant": true
    },
    {
      "inputs": [],
      "name": "token",
      "outputs": [
        {
          "internalType": "contract Token",
          "name": "",
          "type": "address"
        }
      ],
      "stateMutability": "view",
      "type": "function",
      "constant": true
    },
    {
      "inputs": [],
      "name": "getBalance",
      "outputs": [
        {
          "internalType": "uint256",
          "name": "",
          "type": "uint256"
        }
      ],
      "stateMutability": "view",
      "type": "function",
      "constant": true
    },
    {
      "inputs": [],
      "name": "exchangeHistoryOfStake",
      "outputs": [
        {
          "components": [
            {
              "internalType": "address",
              "name": "user",
              "type": "address"
            },
            {
              "components": [
                {
                  "internalType": "uint32",
                  "name": "_orderId",
                  "type": "uint32"
                },
                {
                  "internalType": "uint256",
                  "name": "_amount",
                  "type": "uint256"
                },
                {
                  "internalType": "uint32",
                  "name": "_id",
                  "type": "uint32"
                },
                {
                  "internalType": "string",
                  "name": "_termsAndCondition",
                  "type": "string"
                },
                {
                  "internalType": "string",
                  "name": "_warrantyFile",
                  "type": "string"
                },
                {
                  "internalType": "uint32",
                  "name": "_apealTime",
                  "type": "uint32"
                },
                {
                  "internalType": "string",
                  "name": "_sellerWalletAddress",
                  "type": "string"
                },
                {
                  "internalType": "string",
                  "name": "_invoiceFile",
                  "type": "string"
                },
                {
                  "internalType": "string",
                  "name": "_customerEmail",
                  "type": "string"
                },
                {
                  "internalType": "string",
                  "name": "_friendsEmail",
                  "type": "string"
                }
              ],
              "internalType": "struct BuyInvoicesMainAPp.OrderData[]",
              "name": "address_stakes",
              "type": "tuple[]"
            }
          ],
          "internalType": "struct BuyInvoicesMainAPp.Stakeholder[]",
          "name": "",
          "type": "tuple[]"
        }
      ],
      "stateMutability": "view",
      "type": "function",
      "constant": true
    },
    {
      "inputs": [
        {
          "internalType": "uint32",
          "name": "_orderId",
          "type": "uint32"
        },
        {
          "internalType": "uint256",
          "name": "_amount",
          "type": "uint256"
        },
        {
          "internalType": "uint32",
          "name": "_id",
          "type": "uint32"
        },
        {
          "internalType": "string",
          "name": "_termsAndCondition",
          "type": "string"
        },
        {
          "internalType": "string",
          "name": "_warrantyFile",
          "type": "string"
        },
        {
          "internalType": "uint32",
          "name": "_apealTime",
          "type": "uint32"
        },
        {
          "internalType": "string",
          "name": "_sellerWalletAddress",
          "type": "string"
        },
        {
          "internalType": "string",
          "name": "_invoiceFile",
          "type": "string"
        },
        {
          "internalType": "string",
          "name": "_customerEmail",
          "type": "string"
        },
        {
          "internalType": "string",
          "name": "_friendsEmail",
          "type": "string"
        }
      ],
      "name": "_saveOrdersDataOfUser",
      "outputs": [],
      "stateMutability": "nonpayable",
      "type": "function"
    },
    {
      "inputs": [
        {
          "internalType": "uint32",
          "name": "_orderId",
          "type": "uint32"
        },
        {
          "internalType": "uint256",
          "name": "_amount",
          "type": "uint256"
        },
        {
          "internalType": "uint32",
          "name": "_id",
          "type": "uint32"
        },
        {
          "internalType": "string",
          "name": "_termsAndCondition",
          "type": "string"
        },
        {
          "internalType": "string",
          "name": "_warrantyFile",
          "type": "string"
        },
        {
          "internalType": "uint32",
          "name": "_apealTime",
          "type": "uint32"
        },
        {
          "internalType": "string",
          "name": "_sellerWalletAddress",
          "type": "string"
        },
        {
          "internalType": "string",
          "name": "_invoiceFile",
          "type": "string"
        },
        {
          "internalType": "string",
          "name": "_customerEmail",
          "type": "string"
        },
        {
          "internalType": "string",
          "name": "_friendsEmail",
          "type": "string"
        }
      ],
      "name": "buyWithFTP",
      "outputs": [],
      "stateMutability": "nonpayable",
      "type": "function"
    },
    {
      "inputs": [
        {
          "internalType": "uint32",
          "name": "_orderId",
          "type": "uint32"
        },
        {
          "internalType": "uint32",
          "name": "_id",
          "type": "uint32"
        },
        {
          "internalType": "string",
          "name": "_termsAndCondition",
          "type": "string"
        },
        {
          "internalType": "string",
          "name": "_warrantyFile",
          "type": "string"
        },
        {
          "internalType": "uint32",
          "name": "_apealTime",
          "type": "uint32"
        },
        {
          "internalType": "string",
          "name": "_sellerWalletAddress",
          "type": "string"
        },
        {
          "internalType": "string",
          "name": "_invoiceFile",
          "type": "string"
        },
        {
          "internalType": "string",
          "name": "_customerEmail",
          "type": "string"
        },
        {
          "internalType": "string",
          "name": "_friendsEmail",
          "type": "string"
        }
      ],
      "name": "buyWithBNB",
      "outputs": [],
      "stateMutability": "payable",
      "type": "function",
      "payable": true
    }
  ],
  "bytecode": "0x608060405260405180606001604052806023815260200162001d60602391396000908051906020019062000035929190620000cf565b503480156200004357600080fd5b5060405162001d8338038062001d83833981810160405281019062000069919062000196565b60046001816001815401808255809150500390600052602060002090505080600160006101000a81548173ffffffffffffffffffffffffffffffffffffffff021916908373ffffffffffffffffffffffffffffffffffffffff1602179055505062000289565b828054620000dd906200020a565b90600052602060002090601f0160209004810192826200010157600085556200014d565b82601f106200011c57805160ff19168380011785556200014d565b828001600101855582156200014d579182015b828111156200014c5782518255916020019190600101906200012f565b5b5090506200015c919062000160565b5090565b5b808211156200017b57600081600090555060010162000161565b5090565b60008151905062000190816200026f565b92915050565b600060208284031215620001a957600080fd5b6000620001b9848285016200017f565b91505092915050565b6000620001cf82620001ea565b9050919050565b6000620001e382620001c2565b9050919050565b600073ffffffffffffffffffffffffffffffffffffffff82169050919050565b600060028204905060018216806200022357607f821691505b602082108114156200023a576200023962000240565b5b50919050565b7f4e487b7100000000000000000000000000000000000000000000000000000000600052602260045260246000fd5b6200027a81620001d6565b81146200028657600080fd5b50565b611ac780620002996000396000f3fe6080604052600436106100915760003560e01c80639529441e116100595780639529441e1461018f578063f16bc3a6146101ba578063fc0c546a146101e3578063fd5e6dd11461020e578063fdee44e11461024b57610091565b806306fdde031461009657806312065fe0146100c157806316934fc4146100ec5780631d6b8b721461012957806339adf4b914610166575b600080fd5b3480156100a257600080fd5b506100ab610267565b6040516100b89190611710565b60405180910390f35b3480156100cd57600080fd5b506100d66102f5565b6040516100e39190611732565b60405180910390f35b3480156100f857600080fd5b50610113600480360381019061010e9190611004565b6102fd565b6040516101209190611732565b60405180910390f35b34801561013557600080fd5b50610150600480360381019061014b9190611056565b610315565b60405161015d9190611681565b60405180910390f35b34801561017257600080fd5b5061018d600480360381019061018891906110a8565b610363565b005b34801561019b57600080fd5b506101a46104ea565b6040516101b191906116d3565b60405180910390f35b3480156101c657600080fd5b506101e160048036038101906101dc91906110a8565b6109e7565b005b3480156101ef57600080fd5b506101f8610c4a565b60405161020591906116f5565b60405180910390f35b34801561021a57600080fd5b5061023560048036038101906102309190611056565b610c70565b6040516102429190611681565b60405180910390f35b61026560048036038101906102609190611213565b610caf565b005b6000805461027490611934565b80601f01602080910402602001604051908101604052809291908181526020018280546102a090611934565b80156102ed5780601f106102c2576101008083540402835291602001916102ed565b820191906000526020600020905b8154815290600101906020018083116102d057829003601f168201915b505050505081565b600047905090565b60026020528060005260406000206000915090505481565b6004818154811061032557600080fd5b90600052602060002090600202016000915090508060000160009054906101000a900473ffffffffffffffffffffffffffffffffffffffff16905081565b88600160009054906101000a900473ffffffffffffffffffffffffffffffffffffffff1673ffffffffffffffffffffffffffffffffffffffff166370a08231336040518263ffffffff1660e01b81526004016103bf9190611681565b60206040518083038186803b1580156103d757600080fd5b505afa1580156103eb573d6000803e3d6000fd5b505050506040513d601f19601f8201168201806040525081019061040f919061107f565b101561041a57600080fd5b600160009054906101000a900473ffffffffffffffffffffffffffffffffffffffff1673ffffffffffffffffffffffffffffffffffffffff166323b872dd33308c6040518463ffffffff1660e01b81526004016104799392919061169c565b602060405180830381600087803b15801561049357600080fd5b505af11580156104a7573d6000803e3d6000fd5b505050506040513d601f19601f820116820180604052508101906104cb919061102d565b506104de8a8a8a8a8a8a8a8a8a8a6109e7565b50505050505050505050565b60606004805480602002602001604051908101604052809291908181526020016000905b828210156109de57838290600052602060002090600202016040518060400160405290816000820160009054906101000a900473ffffffffffffffffffffffffffffffffffffffff1673ffffffffffffffffffffffffffffffffffffffff1673ffffffffffffffffffffffffffffffffffffffff16815260200160018201805480602002602001604051908101604052809291908181526020016000905b828210156109c757838290600052602060002090600a0201604051806101400160405290816000820160009054906101000a900463ffffffff1663ffffffff1663ffffffff168152602001600182015481526020016002820160009054906101000a900463ffffffff1663ffffffff1663ffffffff16815260200160038201805461063690611934565b80601f016020809104026020016040519081016040528092919081815260200182805461066290611934565b80156106af5780601f10610684576101008083540402835291602001916106af565b820191906000526020600020905b81548152906001019060200180831161069257829003601f168201915b505050505081526020016004820180546106c890611934565b80601f01602080910402602001604051908101604052809291908181526020018280546106f490611934565b80156107415780601f1061071657610100808354040283529160200191610741565b820191906000526020600020905b81548152906001019060200180831161072457829003601f168201915b505050505081526020016005820160009054906101000a900463ffffffff1663ffffffff1663ffffffff16815260200160068201805461078090611934565b80601f01602080910402602001604051908101604052809291908181526020018280546107ac90611934565b80156107f95780601f106107ce576101008083540402835291602001916107f9565b820191906000526020600020905b8154815290600101906020018083116107dc57829003601f168201915b5050505050815260200160078201805461081290611934565b80601f016020809104026020016040519081016040528092919081815260200182805461083e90611934565b801561088b5780601f106108605761010080835404028352916020019161088b565b820191906000526020600020905b81548152906001019060200180831161086e57829003601f168201915b505050505081526020016008820180546108a490611934565b80601f01602080910402602001604051908101604052809291908181526020018280546108d090611934565b801561091d5780601f106108f25761010080835404028352916020019161091d565b820191906000526020600020905b81548152906001019060200180831161090057829003601f168201915b5050505050815260200160098201805461093690611934565b80601f016020809104026020016040519081016040528092919081815260200182805461096290611934565b80156109af5780601f10610984576101008083540402835291602001916109af565b820191906000526020600020905b81548152906001019060200180831161099257829003601f168201915b505050505081525050815260200190600101906105ac565b50505050815250508152602001906001019061050e565b50505050905090565b6000600260003373ffffffffffffffffffffffffffffffffffffffff1673ffffffffffffffffffffffffffffffffffffffff1681526020019081526020016000205490506000811415610a4057610a3d33610d83565b90505b60048181548110610a7a577f4e487b7100000000000000000000000000000000000000000000000000000000600052603260045260246000fd5b90600052602060002090600202016001016040518061014001604052808d63ffffffff1681526020018c81526020018b63ffffffff1681526020018a81526020018981526020018863ffffffff1681526020018781526020018681526020018581526020018481525090806001815401808255809150506001900390600052602060002090600a020160009091909190915060008201518160000160006101000a81548163ffffffff021916908363ffffffff1602179055506020820151816001015560408201518160020160006101000a81548163ffffffff021916908363ffffffff1602179055506060820151816003019080519060200190610b80929190610e90565b506080820151816004019080519060200190610b9d929190610e90565b5060a08201518160050160006101000a81548163ffffffff021916908363ffffffff16021790555060c0820151816006019080519060200190610be1929190610e90565b5060e0820151816007019080519060200190610bfe929190610e90565b50610100820151816008019080519060200190610c1c929190610e90565b50610120820151816009019080519060200190610c3a929190610e90565b5050505050505050505050505050565b600160009054906101000a900473ffffffffffffffffffffffffffffffffffffffff1681565b60038181548110610c8057600080fd5b906000526020600020016000915054906101000a900473ffffffffffffffffffffffffffffffffffffffff1681565b34600160009054906101000a900473ffffffffffffffffffffffffffffffffffffffff1673ffffffffffffffffffffffffffffffffffffffff166370a08231336040518263ffffffff1660e01b8152600401610d0b9190611681565b60206040518083038186803b158015610d2357600080fd5b505afa158015610d37573d6000803e3d6000fd5b505050506040513d601f19601f82011682018060405250810190610d5b919061107f565b1015610d6657600080fd5b610d7889348a8a8a8a8a8a8a8a6109e7565b505050505050505050565b600060046001816001815401808255809150500390600052602060002090505060006001600480549050610db79190611842565b90508260048281548110610df4577f4e487b7100000000000000000000000000000000000000000000000000000000600052603260045260246000fd5b906000526020600020906002020160000160006101000a81548173ffffffffffffffffffffffffffffffffffffffff021916908373ffffffffffffffffffffffffffffffffffffffff16021790555080600260008573ffffffffffffffffffffffffffffffffffffffff1673ffffffffffffffffffffffffffffffffffffffff1681526020019081526020016000208190555080915050919050565b828054610e9c90611934565b90600052602060002090601f016020900481019282610ebe5760008555610f05565b82601f10610ed757805160ff1916838001178555610f05565b82800160010185558215610f05579182015b82811115610f04578251825591602001919060010190610ee9565b5b509050610f129190610f16565b5090565b5b80821115610f2f576000816000905550600101610f17565b5090565b6000610f46610f4184611772565b61174d565b905082815260208101848484011115610f5e57600080fd5b610f698482856118f2565b509392505050565b600081359050610f8081611a35565b92915050565b600081519050610f9581611a4c565b92915050565b600082601f830112610fac57600080fd5b8135610fbc848260208601610f33565b91505092915050565b600081359050610fd481611a63565b92915050565b600081519050610fe981611a63565b92915050565b600081359050610ffe81611a7a565b92915050565b60006020828403121561101657600080fd5b600061102484828501610f71565b91505092915050565b60006020828403121561103f57600080fd5b600061104d84828501610f86565b91505092915050565b60006020828403121561106857600080fd5b600061107684828501610fc5565b91505092915050565b60006020828403121561109157600080fd5b600061109f84828501610fda565b91505092915050565b6000806000806000806000806000806101408b8d0312156110c857600080fd5b60006110d68d828e01610fef565b9a505060206110e78d828e01610fc5565b99505060406110f88d828e01610fef565b98505060608b013567ffffffffffffffff81111561111557600080fd5b6111218d828e01610f9b565b97505060808b013567ffffffffffffffff81111561113e57600080fd5b61114a8d828e01610f9b565b96505060a061115b8d828e01610fef565b95505060c08b013567ffffffffffffffff81111561117857600080fd5b6111848d828e01610f9b565b94505060e08b013567ffffffffffffffff8111156111a157600080fd5b6111ad8d828e01610f9b565b9350506101008b013567ffffffffffffffff8111156111cb57600080fd5b6111d78d828e01610f9b565b9250506101208b013567ffffffffffffffff8111156111f557600080fd5b6112018d828e01610f9b565b9150509295989b9194979a5092959850565b60008060008060008060008060006101208a8c03121561123257600080fd5b60006112408c828d01610fef565b99505060206112518c828d01610fef565b98505060408a013567ffffffffffffffff81111561126e57600080fd5b61127a8c828d01610f9b565b97505060608a013567ffffffffffffffff81111561129757600080fd5b6112a38c828d01610f9b565b96505060806112b48c828d01610fef565b95505060a08a013567ffffffffffffffff8111156112d157600080fd5b6112dd8c828d01610f9b565b94505060c08a013567ffffffffffffffff8111156112fa57600080fd5b6113068c828d01610f9b565b93505060e08a013567ffffffffffffffff81111561132357600080fd5b61132f8c828d01610f9b565b9250506101008a013567ffffffffffffffff81111561134d57600080fd5b6113598c828d01610f9b565b9150509295985092959850929598565b6000611375838361151a565b905092915050565b60006113898383611617565b905092915050565b61139a81611876565b82525050565b6113a981611876565b82525050565b60006113ba826117c3565b6113c481856117fe565b9350836020820285016113d6856117a3565b8060005b8581101561141257848403895281516113f38582611369565b94506113fe836117e4565b925060208a019950506001810190506113da565b50829750879550505050505092915050565b600061142f826117ce565b611439818561180f565b93508360208202850161144b856117b3565b8060005b858110156114875784840389528151611468858261137d565b9450611473836117f1565b925060208a0199505060018101905061144f565b50829750879550505050505092915050565b6114a2816118ce565b82525050565b60006114b3826117d9565b6114bd8185611820565b93506114cd818560208601611901565b6114d681611a24565b840191505092915050565b60006114ec826117d9565b6114f68185611831565b9350611506818560208601611901565b61150f81611a24565b840191505092915050565b6000610140830160008301516115336000860182611672565b5060208301516115466020860182611654565b5060408301516115596040860182611672565b506060830151848203606086015261157182826114a8565b9150506080830151848203608086015261158b82826114a8565b91505060a08301516115a060a0860182611672565b5060c083015184820360c08601526115b882826114a8565b91505060e083015184820360e08601526115d282826114a8565b9150506101008301518482036101008601526115ee82826114a8565b91505061012083015184820361012086015261160a82826114a8565b9150508091505092915050565b600060408301600083015161162f6000860182611391565b506020830151848203602086015261164782826113af565b9150508091505092915050565b61165d816118b4565b82525050565b61166c816118b4565b82525050565b61167b816118be565b82525050565b600060208201905061169660008301846113a0565b92915050565b60006060820190506116b160008301866113a0565b6116be60208301856113a0565b6116cb6040830184611663565b949350505050565b600060208201905081810360008301526116ed8184611424565b905092915050565b600060208201905061170a6000830184611499565b92915050565b6000602082019050818103600083015261172a81846114e1565b905092915050565b60006020820190506117476000830184611663565b92915050565b6000611757611768565b90506117638282611966565b919050565b6000604051905090565b600067ffffffffffffffff82111561178d5761178c6119f5565b5b61179682611a24565b9050602081019050919050565b6000819050602082019050919050565b6000819050602082019050919050565b600081519050919050565b600081519050919050565b600081519050919050565b6000602082019050919050565b6000602082019050919050565b600082825260208201905092915050565b600082825260208201905092915050565b600082825260208201905092915050565b600082825260208201905092915050565b600061184d826118b4565b9150611858836118b4565b92508282101561186b5761186a611997565b5b828203905092915050565b600061188182611894565b9050919050565b60008115159050919050565b600073ffffffffffffffffffffffffffffffffffffffff82169050919050565b6000819050919050565b600063ffffffff82169050919050565b60006118d9826118e0565b9050919050565b60006118eb82611894565b9050919050565b82818337600083830152505050565b60005b8381101561191f578082015181840152602081019050611904565b8381111561192e576000848401525b50505050565b6000600282049050600182168061194c57607f821691505b602082108114156119605761195f6119c6565b5b50919050565b61196f82611a24565b810181811067ffffffffffffffff8211171561198e5761198d6119f5565b5b80604052505050565b7f4e487b7100000000000000000000000000000000000000000000000000000000600052601160045260246000fd5b7f4e487b7100000000000000000000000000000000000000000000000000000000600052602260045260246000fd5b7f4e487b7100000000000000000000000000000000000000000000000000000000600052604160045260246000fd5b6000601f19601f8301169050919050565b611a3e81611876565b8114611a4957600080fd5b50565b611a5581611888565b8114611a6057600080fd5b50565b611a6c816118b4565b8114611a7757600080fd5b50565b611a83816118be565b8114611a8e57600080fd5b5056fea2646970667358221220ff8a17fac7bb0d664cb196a8b54b58ac521c8583459645d91a642914b4ea30b864736f6c63430008030033457468537761702046616972747261646572204d61696e204150702054657374696e67",
  "immutableReferences": {},
  "source": "// SPDX-License-Identifier: MIT\npragma solidity ^0.8.3;\n\nimport \"./Token.sol\";\n\ncontract BuyInvoicesMainAPp {\n    string public name = \"EthSwap Fairtrader Main APp Testing\";\n    Token public token;\n    //\n    mapping(address => uint256) public stakes;\n\n    address[] public stakers;\n    Stakeholder[] public stakeholders;\n\n    event SmartContractOpenedBuyer(\n        uint32 _id,\n        string _termsAndCondition,\n        string _warrantyFile,\n        uint32 _apealTime,\n        string _sellerWalletAddress,\n        string _invoiceFile,\n        string _customerEmail,\n        string _friendsEmail\n    );\n    event ContractCompletedSeller(\n        address indexed user,\n        uint256 userIndex,\n        address sellerOrUser\n    );\n\n    struct OrderData {\n        uint32 _orderId;\n        uint256 _amount;\n        uint32 _id;\n        string _termsAndCondition;\n        string _warrantyFile;\n        uint32 _apealTime;\n        string _sellerWalletAddress;\n        string _invoiceFile;\n        string _customerEmail;\n        string _friendsEmail;\n    }\n\n    struct Stakeholder {\n        address user;\n        OrderData[] address_stakes;\n    }\n\n    constructor(Token _token) public {\n        // constructor() public {\n        stakeholders.push();\n        token = _token;\n    }\n\n    function getBalance() external view returns (uint256) {\n        return address(this).balance;\n    }\n\n    function exchangeHistoryOfStake()\n        external\n        view\n        returns (Stakeholder[] memory)\n    {\n        return stakeholders;\n    }\n\n    function _addStakeholder(address staker) internal returns (uint256) {\n        stakeholders.push();\n        uint256 userIndex = stakeholders.length - 1;\n        stakeholders[userIndex].user = staker;\n        stakes[staker] = userIndex;\n        return userIndex;\n    }\n\n    function _saveOrdersDataOfUser(\n        uint32 _orderId,\n        uint256 _amount,\n        uint32 _id,\n        string memory _termsAndCondition,\n        string memory _warrantyFile,\n        uint32 _apealTime,\n        string memory _sellerWalletAddress,\n        string memory _invoiceFile,\n        string memory _customerEmail,\n        string memory _friendsEmail\n    ) public {\n        // Check that the requested amount of tokens to sell is more than 0\n        // require(_sellerWalletAddress == '', \"seller Wallet Address Cannot nothing\");\n\n        uint256 index = stakes[msg.sender];\n        if (index == 0) {\n            index = _addStakeholder(msg.sender);\n        }\n\n        stakeholders[index].address_stakes.push(\n            OrderData(\n                _orderId,\n                _amount,\n                _id,\n                _termsAndCondition,\n                _warrantyFile,\n                _apealTime,\n                _sellerWalletAddress,\n                _invoiceFile,\n                _customerEmail,\n                _friendsEmail\n            )\n        );\n    }\n\n    function buyWithFTP(\n        uint32 _orderId,\n        uint256 _amount,\n        uint32 _id,\n        string memory _termsAndCondition,\n        string memory _warrantyFile,\n        uint32 _apealTime,\n        string memory _sellerWalletAddress,\n        string memory _invoiceFile,\n        string memory _customerEmail,\n        string memory _friendsEmail\n    ) public {\n        // User can't sell more tokens than they have\n        require(token.balanceOf(msg.sender) >= _amount);\n\n        // Perform sale\n        token.transferFrom(msg.sender, address(this), _amount);\n\n        _saveOrdersDataOfUser(\n            _orderId,\n            _amount,\n            _id,\n            _termsAndCondition,\n            _warrantyFile,\n            _apealTime,\n            _sellerWalletAddress,\n            _invoiceFile,\n            _customerEmail,\n            _friendsEmail\n        );\n    }\n\n    // function buyWithUsdt(\n    //     uint32 _orderId,\n    //     uint256 _amount,\n    //     uint32 _id,\n    //     string memory _termsAndCondition,\n    //     string memory _warrantyFile,\n    //     uint32 _apealTime,\n    //     string memory _sellerWalletAddress,\n    //     string memory _invoiceFile,\n    //     string memory _customerEmail,\n    //     string memory _friendsEmail\n    // ) public {\n    //     // User can't sell more tokens than they have\n    //     require(usdtToken.balanceOf(msg.sender) >= _amount);\n\n    //     // Perform sale\n    //     usdtToken.transferFrom(msg.sender, address(this), _amount);\n\n    //     _saveOrdersDataOfUser(\n    //         _orderId,\n    // _amount,\n    //         _id,\n    //         _termsAndCondition,\n    //         _warrantyFile,\n    //         _apealTime,\n    //         _sellerWalletAddress,\n    //         _invoiceFile,\n    //         _customerEmail,\n    //         _friendsEmail\n    //     );\n    // }\n\n    function buyWithBNB(\n        uint32 _orderId,\n        uint32 _id,\n        string memory _termsAndCondition,\n        string memory _warrantyFile,\n        uint32 _apealTime,\n        string memory _sellerWalletAddress,\n        string memory _invoiceFile,\n        string memory _customerEmail,\n        string memory _friendsEmail\n    ) public payable {\n        // User can't sell more tokens than they have\n        require(token.balanceOf(msg.sender) >= msg.value);\n\n        // Perform sale\n        // token.transferFrom(msg.sender, address(this), _amount);\n        // address(address(this).transfer(_amount));\n        // token.transfer(address(this), _amount);\n        // token.transferFrom(msg.sender, address(this), _amount);\n\n        _saveOrdersDataOfUser(\n            _orderId,\n            msg.value,\n            _id,\n            _termsAndCondition,\n            _warrantyFile,\n            _apealTime,\n            _sellerWalletAddress,\n            _invoiceFile,\n            _customerEmail,\n            _friendsEmail\n        );\n    }\n}\n",
  "sourcePath": "/home/abdullah/Desktop/fairTrader/FairTrader Main App Smart_Contract/UPGRADECONTRACT...(buy Invoice Main APp)/contracts/BuyInvoicesMainAPp.sol",
  "compiler": {
    "name": "solc",
    "version": "0.8.3+commit.8d00100c.Emscripten.clang"
  },
  "schemaVersion": "3.4.7",
  "updatedAt": "2022-08-27T06:49:19.137Z",
  "networkType": "ethereum",
  "devdoc": {
    "kind": "dev",
    "methods": {},
    "version": 1
  },
  "userdoc": {
    "kind": "user",
    "methods": {},
    "version": 1
  }
}