{
  "contractName": "BuyInvoicesMainAPp",
  "abi": [
    {
      "inputs": [
        {
          "internalType": "contract Token",
          "name": "_token",
          "type": "address"
        }
      ],
      "stateMutability": "nonpayable",
      "type": "constructor"
    },
    {
      "inputs": [],
      "name": "name",
      "outputs": [
        {
          "internalType": "string",
          "name": "",
          "type": "string"
        }
      ],
      "stateMutability": "view",
      "type": "function",
      "constant": true
    },
    {
      "inputs": [
        {
          "internalType": "uint256",
          "name": "",
          "type": "uint256"
        }
      ],
      "name": "stakeholders",
      "outputs": [
        {
          "internalType": "address",
          "name": "user",
          "type": "address"
        }
      ],
      "stateMutability": "view",
      "type": "function",
      "constant": true
    },
    {
      "inputs": [
        {
          "internalType": "uint256",
          "name": "",
          "type": "uint256"
        }
      ],
      "name": "stakers",
      "outputs": [
        {
          "internalType": "address",
          "name": "",
          "type": "address"
        }
      ],
      "stateMutability": "view",
      "type": "function",
      "constant": true
    },
    {
      "inputs": [
        {
          "internalType": "address",
          "name": "",
          "type": "address"
        }
      ],
      "name": "stakes",
      "outputs": [
        {
          "internalType": "uint256",
          "name": "",
          "type": "uint256"
        }
      ],
      "stateMutability": "view",
      "type": "function",
      "constant": true
    },
    {
      "inputs": [],
      "name": "token",
      "outputs": [
        {
          "internalType": "contract Token",
          "name": "",
          "type": "address"
        }
      ],
      "stateMutability": "view",
      "type": "function",
      "constant": true
    },
    {
      "inputs": [],
      "name": "getBalance",
      "outputs": [
        {
          "internalType": "uint256",
          "name": "",
          "type": "uint256"
        }
      ],
      "stateMutability": "view",
      "type": "function",
      "constant": true
    },
    {
      "inputs": [],
      "name": "exchangeHistoryOfStake",
      "outputs": [
        {
          "components": [
            {
              "internalType": "address",
              "name": "user",
              "type": "address"
            },
            {
              "components": [
                {
                  "internalType": "uint32",
                  "name": "_orderId",
                  "type": "uint32"
                },
                {
                  "internalType": "uint256",
                  "name": "_amount",
                  "type": "uint256"
                },
                {
                  "internalType": "string",
                  "name": "_termsAndCondition",
                  "type": "string"
                },
                {
                  "internalType": "string",
                  "name": "_warrantyFile",
                  "type": "string"
                },
                {
                  "internalType": "uint32",
                  "name": "_apealTime",
                  "type": "uint32"
                },
                {
                  "internalType": "address",
                  "name": "_sellerWalletAddress",
                  "type": "address"
                },
                {
                  "internalType": "string",
                  "name": "_invoiceFile",
                  "type": "string"
                },
                {
                  "internalType": "string",
                  "name": "_customerEmail",
                  "type": "string"
                },
                {
                  "internalType": "uint32",
                  "name": "_mediatorId",
                  "type": "uint32"
                },
                {
                  "internalType": "bool",
                  "name": "_medAccepted",
                  "type": "bool"
                },
                {
                  "internalType": "string",
                  "name": "_superMedAcceptedEmail",
                  "type": "string"
                },
                {
                  "internalType": "string",
                  "name": "_judgeReport",
                  "type": "string"
                },
                {
                  "internalType": "string",
                  "name": "_judgeReportFile",
                  "type": "string"
                },
                {
                  "internalType": "string",
                  "name": "_judgeReportFileSuperMed",
                  "type": "string"
                },
                {
                  "internalType": "string",
                  "name": "_judgeReportSuperMed",
                  "type": "string"
                },
                {
                  "internalType": "uint32",
                  "name": "_buyerTakeAmountInPercentSuperMed",
                  "type": "uint32"
                },
                {
                  "internalType": "uint32",
                  "name": "_buyerTakeAmountInPercent",
                  "type": "uint32"
                },
                {
                  "internalType": "string",
                  "name": "_friendsEmail",
                  "type": "string"
                },
                {
                  "internalType": "string",
                  "name": "_appealTime",
                  "type": "string"
                },
                {
                  "internalType": "string",
                  "name": "_whoCalled",
                  "type": "string"
                }
              ],
              "internalType": "struct BuyInvoicesMainAPp.OrderData[]",
              "name": "address_stakes",
              "type": "tuple[]"
            }
          ],
          "internalType": "struct BuyInvoicesMainAPp.Stakeholder[]",
          "name": "",
          "type": "tuple[]"
        }
      ],
      "stateMutability": "view",
      "type": "function",
      "constant": true
    },
    {
      "inputs": [
        {
          "internalType": "address",
          "name": "_userAddress",
          "type": "address"
        }
      ],
      "name": "getAllOrdersOfOneUser",
      "outputs": [
        {
          "components": [
            {
              "internalType": "uint32",
              "name": "_orderId",
              "type": "uint32"
            },
            {
              "internalType": "uint256",
              "name": "_amount",
              "type": "uint256"
            },
            {
              "internalType": "string",
              "name": "_termsAndCondition",
              "type": "string"
            },
            {
              "internalType": "string",
              "name": "_warrantyFile",
              "type": "string"
            },
            {
              "internalType": "uint32",
              "name": "_apealTime",
              "type": "uint32"
            },
            {
              "internalType": "address",
              "name": "_sellerWalletAddress",
              "type": "address"
            },
            {
              "internalType": "string",
              "name": "_invoiceFile",
              "type": "string"
            },
            {
              "internalType": "string",
              "name": "_customerEmail",
              "type": "string"
            },
            {
              "internalType": "uint32",
              "name": "_mediatorId",
              "type": "uint32"
            },
            {
              "internalType": "bool",
              "name": "_medAccepted",
              "type": "bool"
            },
            {
              "internalType": "string",
              "name": "_superMedAcceptedEmail",
              "type": "string"
            },
            {
              "internalType": "string",
              "name": "_judgeReport",
              "type": "string"
            },
            {
              "internalType": "string",
              "name": "_judgeReportFile",
              "type": "string"
            },
            {
              "internalType": "string",
              "name": "_judgeReportFileSuperMed",
              "type": "string"
            },
            {
              "internalType": "string",
              "name": "_judgeReportSuperMed",
              "type": "string"
            },
            {
              "internalType": "uint32",
              "name": "_buyerTakeAmountInPercentSuperMed",
              "type": "uint32"
            },
            {
              "internalType": "uint32",
              "name": "_buyerTakeAmountInPercent",
              "type": "uint32"
            },
            {
              "internalType": "string",
              "name": "_friendsEmail",
              "type": "string"
            },
            {
              "internalType": "string",
              "name": "_appealTime",
              "type": "string"
            },
            {
              "internalType": "string",
              "name": "_whoCalled",
              "type": "string"
            }
          ],
          "internalType": "struct BuyInvoicesMainAPp.OrderData[]",
          "name": "",
          "type": "tuple[]"
        }
      ],
      "stateMutability": "view",
      "type": "function",
      "constant": true
    },
    {
      "inputs": [
        {
          "internalType": "uint32",
          "name": "_index",
          "type": "uint32"
        },
        {
          "internalType": "address",
          "name": "buyerWalletAddress",
          "type": "address"
        }
      ],
      "name": "medAcceptNewCases",
      "outputs": [
        {
          "components": [
            {
              "internalType": "uint32",
              "name": "_orderId",
              "type": "uint32"
            },
            {
              "internalType": "uint256",
              "name": "_amount",
              "type": "uint256"
            },
            {
              "internalType": "string",
              "name": "_termsAndCondition",
              "type": "string"
            },
            {
              "internalType": "string",
              "name": "_warrantyFile",
              "type": "string"
            },
            {
              "internalType": "uint32",
              "name": "_apealTime",
              "type": "uint32"
            },
            {
              "internalType": "address",
              "name": "_sellerWalletAddress",
              "type": "address"
            },
            {
              "internalType": "string",
              "name": "_invoiceFile",
              "type": "string"
            },
            {
              "internalType": "string",
              "name": "_customerEmail",
              "type": "string"
            },
            {
              "internalType": "uint32",
              "name": "_mediatorId",
              "type": "uint32"
            },
            {
              "internalType": "bool",
              "name": "_medAccepted",
              "type": "bool"
            },
            {
              "internalType": "string",
              "name": "_superMedAcceptedEmail",
              "type": "string"
            },
            {
              "internalType": "string",
              "name": "_judgeReport",
              "type": "string"
            },
            {
              "internalType": "string",
              "name": "_judgeReportFile",
              "type": "string"
            },
            {
              "internalType": "string",
              "name": "_judgeReportFileSuperMed",
              "type": "string"
            },
            {
              "internalType": "string",
              "name": "_judgeReportSuperMed",
              "type": "string"
            },
            {
              "internalType": "uint32",
              "name": "_buyerTakeAmountInPercentSuperMed",
              "type": "uint32"
            },
            {
              "internalType": "uint32",
              "name": "_buyerTakeAmountInPercent",
              "type": "uint32"
            },
            {
              "internalType": "string",
              "name": "_friendsEmail",
              "type": "string"
            },
            {
              "internalType": "string",
              "name": "_appealTime",
              "type": "string"
            },
            {
              "internalType": "string",
              "name": "_whoCalled",
              "type": "string"
            }
          ],
          "internalType": "struct BuyInvoicesMainAPp.OrderData[]",
          "name": "",
          "type": "tuple[]"
        }
      ],
      "stateMutability": "nonpayable",
      "type": "function"
    },
    {
      "inputs": [
        {
          "internalType": "uint32",
          "name": "_index",
          "type": "uint32"
        },
        {
          "internalType": "address",
          "name": "buyerWalletAddress",
          "type": "address"
        },
        {
          "internalType": "string",
          "name": "_superMediatorEmail",
          "type": "string"
        }
      ],
      "name": "superMedAcceptNewCases",
      "outputs": [],
      "stateMutability": "nonpayable",
      "type": "function"
    },
    {
      "inputs": [
        {
          "internalType": "string",
          "name": "_judgeReport",
          "type": "string"
        },
        {
          "internalType": "string",
          "name": "_judgeReportFile",
          "type": "string"
        },
        {
          "internalType": "address",
          "name": "buyerWalletAddress",
          "type": "address"
        },
        {
          "internalType": "uint32",
          "name": "_index",
          "type": "uint32"
        },
        {
          "internalType": "uint32",
          "name": "_buyerTakeAmountInPercent",
          "type": "uint32"
        }
      ],
      "name": "medJudgeCaseReportSuperMed",
      "outputs": [
        {
          "components": [
            {
              "internalType": "uint32",
              "name": "_orderId",
              "type": "uint32"
            },
            {
              "internalType": "uint256",
              "name": "_amount",
              "type": "uint256"
            },
            {
              "internalType": "string",
              "name": "_termsAndCondition",
              "type": "string"
            },
            {
              "internalType": "string",
              "name": "_warrantyFile",
              "type": "string"
            },
            {
              "internalType": "uint32",
              "name": "_apealTime",
              "type": "uint32"
            },
            {
              "internalType": "address",
              "name": "_sellerWalletAddress",
              "type": "address"
            },
            {
              "internalType": "string",
              "name": "_invoiceFile",
              "type": "string"
            },
            {
              "internalType": "string",
              "name": "_customerEmail",
              "type": "string"
            },
            {
              "internalType": "uint32",
              "name": "_mediatorId",
              "type": "uint32"
            },
            {
              "internalType": "bool",
              "name": "_medAccepted",
              "type": "bool"
            },
            {
              "internalType": "string",
              "name": "_superMedAcceptedEmail",
              "type": "string"
            },
            {
              "internalType": "string",
              "name": "_judgeReport",
              "type": "string"
            },
            {
              "internalType": "string",
              "name": "_judgeReportFile",
              "type": "string"
            },
            {
              "internalType": "string",
              "name": "_judgeReportFileSuperMed",
              "type": "string"
            },
            {
              "internalType": "string",
              "name": "_judgeReportSuperMed",
              "type": "string"
            },
            {
              "internalType": "uint32",
              "name": "_buyerTakeAmountInPercentSuperMed",
              "type": "uint32"
            },
            {
              "internalType": "uint32",
              "name": "_buyerTakeAmountInPercent",
              "type": "uint32"
            },
            {
              "internalType": "string",
              "name": "_friendsEmail",
              "type": "string"
            },
            {
              "internalType": "string",
              "name": "_appealTime",
              "type": "string"
            },
            {
              "internalType": "string",
              "name": "_whoCalled",
              "type": "string"
            }
          ],
          "internalType": "struct BuyInvoicesMainAPp.OrderData[]",
          "name": "",
          "type": "tuple[]"
        }
      ],
      "stateMutability": "nonpayable",
      "type": "function"
    },
    {
      "inputs": [
        {
          "internalType": "string",
          "name": "_judgeReport",
          "type": "string"
        },
        {
          "internalType": "string",
          "name": "_judgeReportFile",
          "type": "string"
        },
        {
          "internalType": "address",
          "name": "buyerWalletAddress",
          "type": "address"
        },
        {
          "internalType": "uint32",
          "name": "_index",
          "type": "uint32"
        },
        {
          "internalType": "uint32",
          "name": "_buyerTakeAmountInPercent",
          "type": "uint32"
        },
        {
          "internalType": "string",
          "name": "_appealTime",
          "type": "string"
        }
      ],
      "name": "medJudgeCaseReport",
      "outputs": [
        {
          "components": [
            {
              "internalType": "uint32",
              "name": "_orderId",
              "type": "uint32"
            },
            {
              "internalType": "uint256",
              "name": "_amount",
              "type": "uint256"
            },
            {
              "internalType": "string",
              "name": "_termsAndCondition",
              "type": "string"
            },
            {
              "internalType": "string",
              "name": "_warrantyFile",
              "type": "string"
            },
            {
              "internalType": "uint32",
              "name": "_apealTime",
              "type": "uint32"
            },
            {
              "internalType": "address",
              "name": "_sellerWalletAddress",
              "type": "address"
            },
            {
              "internalType": "string",
              "name": "_invoiceFile",
              "type": "string"
            },
            {
              "internalType": "string",
              "name": "_customerEmail",
              "type": "string"
            },
            {
              "internalType": "uint32",
              "name": "_mediatorId",
              "type": "uint32"
            },
            {
              "internalType": "bool",
              "name": "_medAccepted",
              "type": "bool"
            },
            {
              "internalType": "string",
              "name": "_superMedAcceptedEmail",
              "type": "string"
            },
            {
              "internalType": "string",
              "name": "_judgeReport",
              "type": "string"
            },
            {
              "internalType": "string",
              "name": "_judgeReportFile",
              "type": "string"
            },
            {
              "internalType": "string",
              "name": "_judgeReportFileSuperMed",
              "type": "string"
            },
            {
              "internalType": "string",
              "name": "_judgeReportSuperMed",
              "type": "string"
            },
            {
              "internalType": "uint32",
              "name": "_buyerTakeAmountInPercentSuperMed",
              "type": "uint32"
            },
            {
              "internalType": "uint32",
              "name": "_buyerTakeAmountInPercent",
              "type": "uint32"
            },
            {
              "internalType": "string",
              "name": "_friendsEmail",
              "type": "string"
            },
            {
              "internalType": "string",
              "name": "_appealTime",
              "type": "string"
            },
            {
              "internalType": "string",
              "name": "_whoCalled",
              "type": "string"
            }
          ],
          "internalType": "struct BuyInvoicesMainAPp.OrderData[]",
          "name": "",
          "type": "tuple[]"
        }
      ],
      "stateMutability": "nonpayable",
      "type": "function"
    },
    {
      "inputs": [
        {
          "internalType": "uint256",
          "name": "_amount",
          "type": "uint256"
        },
        {
          "internalType": "string",
          "name": "_whoIsCalling",
          "type": "string"
        },
        {
          "internalType": "uint32",
          "name": "_index",
          "type": "uint32"
        },
        {
          "internalType": "address",
          "name": "buyerWalletAddress",
          "type": "address"
        }
      ],
      "name": "payFeeForSuperMediator",
      "outputs": [
        {
          "components": [
            {
              "internalType": "uint32",
              "name": "_orderId",
              "type": "uint32"
            },
            {
              "internalType": "uint256",
              "name": "_amount",
              "type": "uint256"
            },
            {
              "internalType": "string",
              "name": "_termsAndCondition",
              "type": "string"
            },
            {
              "internalType": "string",
              "name": "_warrantyFile",
              "type": "string"
            },
            {
              "internalType": "uint32",
              "name": "_apealTime",
              "type": "uint32"
            },
            {
              "internalType": "address",
              "name": "_sellerWalletAddress",
              "type": "address"
            },
            {
              "internalType": "string",
              "name": "_invoiceFile",
              "type": "string"
            },
            {
              "internalType": "string",
              "name": "_customerEmail",
              "type": "string"
            },
            {
              "internalType": "uint32",
              "name": "_mediatorId",
              "type": "uint32"
            },
            {
              "internalType": "bool",
              "name": "_medAccepted",
              "type": "bool"
            },
            {
              "internalType": "string",
              "name": "_superMedAcceptedEmail",
              "type": "string"
            },
            {
              "internalType": "string",
              "name": "_judgeReport",
              "type": "string"
            },
            {
              "internalType": "string",
              "name": "_judgeReportFile",
              "type": "string"
            },
            {
              "internalType": "string",
              "name": "_judgeReportFileSuperMed",
              "type": "string"
            },
            {
              "internalType": "string",
              "name": "_judgeReportSuperMed",
              "type": "string"
            },
            {
              "internalType": "uint32",
              "name": "_buyerTakeAmountInPercentSuperMed",
              "type": "uint32"
            },
            {
              "internalType": "uint32",
              "name": "_buyerTakeAmountInPercent",
              "type": "uint32"
            },
            {
              "internalType": "string",
              "name": "_friendsEmail",
              "type": "string"
            },
            {
              "internalType": "string",
              "name": "_appealTime",
              "type": "string"
            },
            {
              "internalType": "string",
              "name": "_whoCalled",
              "type": "string"
            }
          ],
          "internalType": "struct BuyInvoicesMainAPp.OrderData[]",
          "name": "",
          "type": "tuple[]"
        }
      ],
      "stateMutability": "nonpayable",
      "type": "function"
    },
    {
      "inputs": [
        {
          "internalType": "uint256",
          "name": "_amount",
          "type": "uint256"
        }
      ],
      "name": "payFeeForSuperMediatorr",
      "outputs": [],
      "stateMutability": "nonpayable",
      "type": "function"
    },
    {
      "inputs": [
        {
          "internalType": "address",
          "name": "buyerWalletAddress",
          "type": "address"
        },
        {
          "internalType": "uint32",
          "name": "_index",
          "type": "uint32"
        }
      ],
      "name": "userWithdrawTheirDisputesOrdersCash",
      "outputs": [
        {
          "components": [
            {
              "internalType": "uint32",
              "name": "_orderId",
              "type": "uint32"
            },
            {
              "internalType": "uint256",
              "name": "_amount",
              "type": "uint256"
            },
            {
              "internalType": "string",
              "name": "_termsAndCondition",
              "type": "string"
            },
            {
              "internalType": "string",
              "name": "_warrantyFile",
              "type": "string"
            },
            {
              "internalType": "uint32",
              "name": "_apealTime",
              "type": "uint32"
            },
            {
              "internalType": "address",
              "name": "_sellerWalletAddress",
              "type": "address"
            },
            {
              "internalType": "string",
              "name": "_invoiceFile",
              "type": "string"
            },
            {
              "internalType": "string",
              "name": "_customerEmail",
              "type": "string"
            },
            {
              "internalType": "uint32",
              "name": "_mediatorId",
              "type": "uint32"
            },
            {
              "internalType": "bool",
              "name": "_medAccepted",
              "type": "bool"
            },
            {
              "internalType": "string",
              "name": "_superMedAcceptedEmail",
              "type": "string"
            },
            {
              "internalType": "string",
              "name": "_judgeReport",
              "type": "string"
            },
            {
              "internalType": "string",
              "name": "_judgeReportFile",
              "type": "string"
            },
            {
              "internalType": "string",
              "name": "_judgeReportFileSuperMed",
              "type": "string"
            },
            {
              "internalType": "string",
              "name": "_judgeReportSuperMed",
              "type": "string"
            },
            {
              "internalType": "uint32",
              "name": "_buyerTakeAmountInPercentSuperMed",
              "type": "uint32"
            },
            {
              "internalType": "uint32",
              "name": "_buyerTakeAmountInPercent",
              "type": "uint32"
            },
            {
              "internalType": "string",
              "name": "_friendsEmail",
              "type": "string"
            },
            {
              "internalType": "string",
              "name": "_appealTime",
              "type": "string"
            },
            {
              "internalType": "string",
              "name": "_whoCalled",
              "type": "string"
            }
          ],
          "internalType": "struct BuyInvoicesMainAPp.OrderData[]",
          "name": "",
          "type": "tuple[]"
        }
      ],
      "stateMutability": "nonpayable",
      "type": "function"
    },
    {
      "inputs": [
        {
          "internalType": "uint32",
          "name": "_orderId",
          "type": "uint32"
        },
        {
          "internalType": "uint256",
          "name": "_amount",
          "type": "uint256"
        },
        {
          "internalType": "string",
          "name": "_termsAndCondition",
          "type": "string"
        },
        {
          "internalType": "string",
          "name": "_warrantyFile",
          "type": "string"
        },
        {
          "internalType": "uint32",
          "name": "_apealTime",
          "type": "uint32"
        },
        {
          "internalType": "address",
          "name": "_sellerWalletAddress",
          "type": "address"
        },
        {
          "internalType": "string",
          "name": "_invoiceFile",
          "type": "string"
        },
        {
          "internalType": "string",
          "name": "_customerEmail",
          "type": "string"
        },
        {
          "internalType": "uint32",
          "name": "_mediatorId",
          "type": "uint32"
        },
        {
          "internalType": "bool",
          "name": "_medAccepted",
          "type": "bool"
        },
        {
          "internalType": "string",
          "name": "_friendsEmail",
          "type": "string"
        }
      ],
      "name": "_saveOrdersDataOfUser",
      "outputs": [],
      "stateMutability": "nonpayable",
      "type": "function"
    },
    {
      "inputs": [
        {
          "internalType": "uint32",
          "name": "_orderId",
          "type": "uint32"
        },
        {
          "internalType": "uint256",
          "name": "_amount",
          "type": "uint256"
        },
        {
          "internalType": "string",
          "name": "_termsAndCondition",
          "type": "string"
        },
        {
          "internalType": "string",
          "name": "_warrantyFile",
          "type": "string"
        },
        {
          "internalType": "uint32",
          "name": "_apealTime",
          "type": "uint32"
        },
        {
          "internalType": "address",
          "name": "_sellerWalletAddress",
          "type": "address"
        },
        {
          "internalType": "string",
          "name": "_invoiceFile",
          "type": "string"
        },
        {
          "internalType": "string",
          "name": "_customerEmail",
          "type": "string"
        },
        {
          "internalType": "uint32",
          "name": "_mediatorId",
          "type": "uint32"
        },
        {
          "internalType": "bool",
          "name": "_medAccepted",
          "type": "bool"
        },
        {
          "internalType": "string",
          "name": "_friendsEmail",
          "type": "string"
        }
      ],
      "name": "buyWithFTP",
      "outputs": [],
      "stateMutability": "nonpayable",
      "type": "function"
    },
    {
      "inputs": [
        {
          "internalType": "uint32",
          "name": "_orderId",
          "type": "uint32"
        },
        {
          "internalType": "string",
          "name": "_termsAndCondition",
          "type": "string"
        },
        {
          "internalType": "string",
          "name": "_warrantyFile",
          "type": "string"
        },
        {
          "internalType": "uint32",
          "name": "_apealTime",
          "type": "uint32"
        },
        {
          "internalType": "address",
          "name": "_sellerWalletAddress",
          "type": "address"
        },
        {
          "internalType": "string",
          "name": "_invoiceFile",
          "type": "string"
        },
        {
          "internalType": "string",
          "name": "_customerEmail",
          "type": "string"
        },
        {
          "internalType": "uint32",
          "name": "_mediatorId",
          "type": "uint32"
        },
        {
          "internalType": "bool",
          "name": "_medAccepted",
          "type": "bool"
        },
        {
          "internalType": "string",
          "name": "_friendsEmail",
          "type": "string"
        }
      ],
      "name": "buyWithBNB",
      "outputs": [],
      "stateMutability": "payable",
      "type": "function",
      "payable": true
    }
  ],
  "bytecode": "0x60e0604052602360808181529062005dcc60a039805162000029916000916020909101906200008f565b503480156200003757600080fd5b5060405162005def38038062005def8339810160408190526200005a9162000135565b600480546001908101825560009190915280546001600160a01b0319166001600160a01b0392909216919091179055620001a2565b8280546200009d9062000165565b90600052602060002090601f016020900481019282620000c157600085556200010c565b82601f10620000dc57805160ff19168380011785556200010c565b828001600101855582156200010c579182015b828111156200010c578251825591602001919060010190620000ef565b506200011a9291506200011e565b5090565b5b808211156200011a57600081556001016200011f565b60006020828403121562000147578081fd5b81516001600160a01b03811681146200015e578182fd5b9392505050565b600181811c908216806200017a57607f821691505b602082108114156200019c57634e487b7160e01b600052602260045260246000fd5b50919050565b615c1a80620001b26000396000f3fe6080604052600436106101095760003560e01c80639529441e11610095578063bea4e5b811610064578063bea4e5b8146102df578063cf591db5146102ff578063f2b8e5ba1461031f578063fc0c546a1461033f578063fd5e6dd11461035f57610109565b80639529441e1461025d578063abf940c81461027f578063b506c2a21461029f578063b8e2de71146102bf57610109565b80631d6b8b72116100dc5780631d6b8b72146101b05780632f3726c3146101e85780633b07c9871461020a57806342c518891461022a57806347f3d0c01461023d57610109565b806306fdde031461010e57806312065fe01461013957806316934fc4146101565780631d601be214610183575b600080fd5b34801561011a57600080fd5b5061012361037f565b6040516101309190615b03565b60405180910390f35b34801561014557600080fd5b50475b604051908152602001610130565b34801561016257600080fd5b506101486101713660046150d9565b60026020526000908152604090205481565b34801561018f57600080fd5b506101a361019e3660046152c0565b61040d565b604051610130919061564a565b3480156101bc57600080fd5b506101d06101cb366004615290565b610db9565b6040516001600160a01b039091168152602001610130565b3480156101f457600080fd5b506102086102033660046154cc565b610de8565b005b34801561021657600080fd5b506101a36102253660046151db565b610f19565b6102086102383660046153ab565b611935565b34801561024957600080fd5b506101a36102583660046150d9565b611954565b34801561026957600080fd5b5061027261216e565b6040516101309190615880565b34801561028b57600080fd5b506101a361029a3660046150fa565b6129a0565b3480156102ab57600080fd5b506102086102ba36600461534f565b6134a4565b3480156102cb57600080fd5b506102086102da3660046154cc565b613543565b3480156102eb57600080fd5b506101a36102fa366004615326565b61391b565b34801561030b57600080fd5b506101a361031a366004615148565b6141b6565b34801561032b57600080fd5b5061020861033a366004615290565b614dc7565b34801561034b57600080fd5b506001546101d0906001600160a01b031681565b34801561036b57600080fd5b506101d061037a366004615290565b614edb565b6000805461038c90615b6c565b80601f01602080910402602001604051908101604052809291908181526020018280546103b890615b6c565b80156104055780601f106103da57610100808354040283529160200191610405565b820191906000526020600020905b8154815290600101906020018083116103e857829003601f168201915b505050505081565b6001546040516370a0823160e01b815233600482015260609186916001600160a01b03909116906370a082319060240160206040518083038186803b15801561045557600080fd5b505afa158015610469573d6000803e3d6000fd5b505050506040513d601f19601f8201168201806040525081019061048d91906152a8565b101561049857600080fd5b6001600160a01b03821660009081526002602052604090205460048054869190839081106104d657634e487b7160e01b600052603260045260246000fd5b90600052602060002090600202016001018563ffffffff168154811061050c57634e487b7160e01b600052603260045260246000fd5b90600052602060002090601102016010019080519060200190610530929190614f83565b506001546040516323b872dd60e01b8152336004820152306024820152604481018890526001600160a01b03909116906323b872dd90606401602060405180830381600087803b15801561058357600080fd5b505af1158015610597573d6000803e3d6000fd5b505050506040513d601f19601f820116820180604052508101906105bb919061512c565b50600481815481106105dd57634e487b7160e01b600052603260045260246000fd5b9060005260206000209060020201600101805480602002602001604051908101604052809291908181526020016000905b82821015610daa576000848152602090819020604080516102808101825260118602909201805463ffffffff1683526001810154938301939093526002830180549293929184019161065f90615b6c565b80601f016020809104026020016040519081016040528092919081815260200182805461068b90615b6c565b80156106d85780601f106106ad576101008083540402835291602001916106d8565b820191906000526020600020905b8154815290600101906020018083116106bb57829003601f168201915b505050505081526020016003820180546106f190615b6c565b80601f016020809104026020016040519081016040528092919081815260200182805461071d90615b6c565b801561076a5780601f1061073f5761010080835404028352916020019161076a565b820191906000526020600020905b81548152906001019060200180831161074d57829003601f168201915b5050509183525050600482015463ffffffff81166020830152600160201b90046001600160a01b031660408201526005820180546060909201916107ad90615b6c565b80601f01602080910402602001604051908101604052809291908181526020018280546107d990615b6c565b80156108265780601f106107fb57610100808354040283529160200191610826565b820191906000526020600020905b81548152906001019060200180831161080957829003601f168201915b5050505050815260200160068201805461083f90615b6c565b80601f016020809104026020016040519081016040528092919081815260200182805461086b90615b6c565b80156108b85780601f1061088d576101008083540402835291602001916108b8565b820191906000526020600020905b81548152906001019060200180831161089b57829003601f168201915b5050509183525050600782015463ffffffff81166020830152600160201b900460ff16151560408201526008820180546060909201916108f790615b6c565b80601f016020809104026020016040519081016040528092919081815260200182805461092390615b6c565b80156109705780601f1061094557610100808354040283529160200191610970565b820191906000526020600020905b81548152906001019060200180831161095357829003601f168201915b5050505050815260200160098201805461098990615b6c565b80601f01602080910402602001604051908101604052809291908181526020018280546109b590615b6c565b8015610a025780601f106109d757610100808354040283529160200191610a02565b820191906000526020600020905b8154815290600101906020018083116109e557829003601f168201915b50505050508152602001600a82018054610a1b90615b6c565b80601f0160208091040260200160405190810160405280929190818152602001828054610a4790615b6c565b8015610a945780601f10610a6957610100808354040283529160200191610a94565b820191906000526020600020905b815481529060010190602001808311610a7757829003601f168201915b50505050508152602001600b82018054610aad90615b6c565b80601f0160208091040260200160405190810160405280929190818152602001828054610ad990615b6c565b8015610b265780601f10610afb57610100808354040283529160200191610b26565b820191906000526020600020905b815481529060010190602001808311610b0957829003601f168201915b50505050508152602001600c82018054610b3f90615b6c565b80601f0160208091040260200160405190810160405280929190818152602001828054610b6b90615b6c565b8015610bb85780601f10610b8d57610100808354040283529160200191610bb8565b820191906000526020600020905b815481529060010190602001808311610b9b57829003601f168201915b5050509183525050600d82015463ffffffff8082166020840152600160201b909104166040820152600e82018054606090920191610bf590615b6c565b80601f0160208091040260200160405190810160405280929190818152602001828054610c2190615b6c565b8015610c6e5780601f10610c4357610100808354040283529160200191610c6e565b820191906000526020600020905b815481529060010190602001808311610c5157829003601f168201915b50505050508152602001600f82018054610c8790615b6c565b80601f0160208091040260200160405190810160405280929190818152602001828054610cb390615b6c565b8015610d005780601f10610cd557610100808354040283529160200191610d00565b820191906000526020600020905b815481529060010190602001808311610ce357829003601f168201915b50505050508152602001601082018054610d1990615b6c565b80601f0160208091040260200160405190810160405280929190818152602001828054610d4590615b6c565b8015610d925780601f10610d6757610100808354040283529160200191610d92565b820191906000526020600020905b815481529060010190602001808311610d7557829003601f168201915b5050505050815250508152602001906001019061060e565b50505050915050949350505050565b60048181548110610dc957600080fd5b60009182526020909120600290910201546001600160a01b0316905081565b6001546040516370a0823160e01b81523360048201528b916001600160a01b0316906370a082319060240160206040518083038186803b158015610e2b57600080fd5b505afa158015610e3f573d6000803e3d6000fd5b505050506040513d601f19601f82011682018060405250810190610e6391906152a8565b1015610e6e57600080fd5b6001546040516323b872dd60e01b8152336004820152306024820152604481018c90526001600160a01b03909116906323b872dd90606401602060405180830381600087803b158015610ec057600080fd5b505af1158015610ed4573d6000803e3d6000fd5b505050506040513d601f19601f82011682018060405250810190610ef8919061512c565b50610f0c8b8b8b8b8b8b8b8b8b8b8b613543565b5050505050505050505050565b6001600160a01b0384166000908152600260205260409020546004805460609291899183908110610f5a57634e487b7160e01b600052603260045260246000fd5b90600052602060002090600202016001018663ffffffff1681548110610f9057634e487b7160e01b600052603260045260246000fd5b90600052602060002090601102016009019080519060200190610fb4929190614f83565b508660048281548110610fd757634e487b7160e01b600052603260045260246000fd5b90600052602060002090600202016001018663ffffffff168154811061100d57634e487b7160e01b600052603260045260246000fd5b9060005260206000209060110201600a019080519060200190611031929190614f83565b50836004828154811061105457634e487b7160e01b600052603260045260246000fd5b90600052602060002090600202016001018663ffffffff168154811061108a57634e487b7160e01b600052603260045260246000fd5b9060005260206000209060110201600d0160046101000a81548163ffffffff021916908363ffffffff16021790555082600482815481106110db57634e487b7160e01b600052603260045260246000fd5b90600052602060002090600202016001018663ffffffff168154811061111157634e487b7160e01b600052603260045260246000fd5b9060005260206000209060110201600f019080519060200190611135929190614f83565b506004818154811061115757634e487b7160e01b600052603260045260246000fd5b9060005260206000209060020201600101805480602002602001604051908101604052809291908181526020016000905b82821015611924576000848152602090819020604080516102808101825260118602909201805463ffffffff168352600181015493830193909352600283018054929392918401916111d990615b6c565b80601f016020809104026020016040519081016040528092919081815260200182805461120590615b6c565b80156112525780601f1061122757610100808354040283529160200191611252565b820191906000526020600020905b81548152906001019060200180831161123557829003601f168201915b5050505050815260200160038201805461126b90615b6c565b80601f016020809104026020016040519081016040528092919081815260200182805461129790615b6c565b80156112e45780601f106112b9576101008083540402835291602001916112e4565b820191906000526020600020905b8154815290600101906020018083116112c757829003601f168201915b5050509183525050600482015463ffffffff81166020830152600160201b90046001600160a01b0316604082015260058201805460609092019161132790615b6c565b80601f016020809104026020016040519081016040528092919081815260200182805461135390615b6c565b80156113a05780601f10611375576101008083540402835291602001916113a0565b820191906000526020600020905b81548152906001019060200180831161138357829003601f168201915b505050505081526020016006820180546113b990615b6c565b80601f01602080910402602001604051908101604052809291908181526020018280546113e590615b6c565b80156114325780601f1061140757610100808354040283529160200191611432565b820191906000526020600020905b81548152906001019060200180831161141557829003601f168201915b5050509183525050600782015463ffffffff81166020830152600160201b900460ff161515604082015260088201805460609092019161147190615b6c565b80601f016020809104026020016040519081016040528092919081815260200182805461149d90615b6c565b80156114ea5780601f106114bf576101008083540402835291602001916114ea565b820191906000526020600020905b8154815290600101906020018083116114cd57829003601f168201915b5050505050815260200160098201805461150390615b6c565b80601f016020809104026020016040519081016040528092919081815260200182805461152f90615b6c565b801561157c5780601f106115515761010080835404028352916020019161157c565b820191906000526020600020905b81548152906001019060200180831161155f57829003601f168201915b50505050508152602001600a8201805461159590615b6c565b80601f01602080910402602001604051908101604052809291908181526020018280546115c190615b6c565b801561160e5780601f106115e35761010080835404028352916020019161160e565b820191906000526020600020905b8154815290600101906020018083116115f157829003601f168201915b50505050508152602001600b8201805461162790615b6c565b80601f016020809104026020016040519081016040528092919081815260200182805461165390615b6c565b80156116a05780601f10611675576101008083540402835291602001916116a0565b820191906000526020600020905b81548152906001019060200180831161168357829003601f168201915b50505050508152602001600c820180546116b990615b6c565b80601f01602080910402602001604051908101604052809291908181526020018280546116e590615b6c565b80156117325780601f1061170757610100808354040283529160200191611732565b820191906000526020600020905b81548152906001019060200180831161171557829003601f168201915b5050509183525050600d82015463ffffffff8082166020840152600160201b909104166040820152600e8201805460609092019161176f90615b6c565b80601f016020809104026020016040519081016040528092919081815260200182805461179b90615b6c565b80156117e85780601f106117bd576101008083540402835291602001916117e8565b820191906000526020600020905b8154815290600101906020018083116117cb57829003601f168201915b50505050508152602001600f8201805461180190615b6c565b80601f016020809104026020016040519081016040528092919081815260200182805461182d90615b6c565b801561187a5780601f1061184f5761010080835404028352916020019161187a565b820191906000526020600020905b81548152906001019060200180831161185d57829003601f168201915b5050505050815260200160108201805461189390615b6c565b80601f01602080910402602001604051908101604052809291908181526020018280546118bf90615b6c565b801561190c5780601f106118e15761010080835404028352916020019161190c565b820191906000526020600020905b8154815290600101906020018083116118ef57829003601f168201915b50505050508152505081526020019060010190611188565b505050509150509695505050505050565b6119488a348b8b8b8b8b8b8b8b8b613543565b50505050505050505050565b6001600160a01b0381166000908152600260205260409020546004805460609291908290811061199457634e487b7160e01b600052603260045260246000fd5b9060005260206000209060020201600101805480602002602001604051908101604052809291908181526020016000905b82821015612161576000848152602090819020604080516102808101825260118602909201805463ffffffff16835260018101549383019390935260028301805492939291840191611a1690615b6c565b80601f0160208091040260200160405190810160405280929190818152602001828054611a4290615b6c565b8015611a8f5780601f10611a6457610100808354040283529160200191611a8f565b820191906000526020600020905b815481529060010190602001808311611a7257829003601f168201915b50505050508152602001600382018054611aa890615b6c565b80601f0160208091040260200160405190810160405280929190818152602001828054611ad490615b6c565b8015611b215780601f10611af657610100808354040283529160200191611b21565b820191906000526020600020905b815481529060010190602001808311611b0457829003601f168201915b5050509183525050600482015463ffffffff81166020830152600160201b90046001600160a01b03166040820152600582018054606090920191611b6490615b6c565b80601f0160208091040260200160405190810160405280929190818152602001828054611b9090615b6c565b8015611bdd5780601f10611bb257610100808354040283529160200191611bdd565b820191906000526020600020905b815481529060010190602001808311611bc057829003601f168201915b50505050508152602001600682018054611bf690615b6c565b80601f0160208091040260200160405190810160405280929190818152602001828054611c2290615b6c565b8015611c6f5780601f10611c4457610100808354040283529160200191611c6f565b820191906000526020600020905b815481529060010190602001808311611c5257829003601f168201915b5050509183525050600782015463ffffffff81166020830152600160201b900460ff1615156040820152600882018054606090920191611cae90615b6c565b80601f0160208091040260200160405190810160405280929190818152602001828054611cda90615b6c565b8015611d275780601f10611cfc57610100808354040283529160200191611d27565b820191906000526020600020905b815481529060010190602001808311611d0a57829003601f168201915b50505050508152602001600982018054611d4090615b6c565b80601f0160208091040260200160405190810160405280929190818152602001828054611d6c90615b6c565b8015611db95780601f10611d8e57610100808354040283529160200191611db9565b820191906000526020600020905b815481529060010190602001808311611d9c57829003601f168201915b50505050508152602001600a82018054611dd290615b6c565b80601f0160208091040260200160405190810160405280929190818152602001828054611dfe90615b6c565b8015611e4b5780601f10611e2057610100808354040283529160200191611e4b565b820191906000526020600020905b815481529060010190602001808311611e2e57829003601f168201915b50505050508152602001600b82018054611e6490615b6c565b80601f0160208091040260200160405190810160405280929190818152602001828054611e9090615b6c565b8015611edd5780601f10611eb257610100808354040283529160200191611edd565b820191906000526020600020905b815481529060010190602001808311611ec057829003601f168201915b50505050508152602001600c82018054611ef690615b6c565b80601f0160208091040260200160405190810160405280929190818152602001828054611f2290615b6c565b8015611f6f5780601f10611f4457610100808354040283529160200191611f6f565b820191906000526020600020905b815481529060010190602001808311611f5257829003601f168201915b5050509183525050600d82015463ffffffff8082166020840152600160201b909104166040820152600e82018054606090920191611fac90615b6c565b80601f0160208091040260200160405190810160405280929190818152602001828054611fd890615b6c565b80156120255780601f10611ffa57610100808354040283529160200191612025565b820191906000526020600020905b81548152906001019060200180831161200857829003601f168201915b50505050508152602001600f8201805461203e90615b6c565b80601f016020809104026020016040519081016040528092919081815260200182805461206a90615b6c565b80156120b75780601f1061208c576101008083540402835291602001916120b7565b820191906000526020600020905b81548152906001019060200180831161209a57829003601f168201915b505050505081526020016010820180546120d090615b6c565b80601f01602080910402602001604051908101604052809291908181526020018280546120fc90615b6c565b80156121495780601f1061211e57610100808354040283529160200191612149565b820191906000526020600020905b81548152906001019060200180831161212c57829003601f168201915b505050505081525050815260200190600101906119c5565b505050509150505b919050565b60606004805480602002602001604051908101604052809291908181526020016000905b8282101561299757600084815260208082206040805180820182526002870290920180546001600160a01b03168352600181018054835181870281018701909452808452939591948681019491929084015b82821015612980576000848152602090819020604080516102808101825260118602909201805463ffffffff1683526001810154938301939093526002830180549293929184019161223590615b6c565b80601f016020809104026020016040519081016040528092919081815260200182805461226190615b6c565b80156122ae5780601f10612283576101008083540402835291602001916122ae565b820191906000526020600020905b81548152906001019060200180831161229157829003601f168201915b505050505081526020016003820180546122c790615b6c565b80601f01602080910402602001604051908101604052809291908181526020018280546122f390615b6c565b80156123405780601f1061231557610100808354040283529160200191612340565b820191906000526020600020905b81548152906001019060200180831161232357829003601f168201915b5050509183525050600482015463ffffffff81166020830152600160201b90046001600160a01b0316604082015260058201805460609092019161238390615b6c565b80601f01602080910402602001604051908101604052809291908181526020018280546123af90615b6c565b80156123fc5780601f106123d1576101008083540402835291602001916123fc565b820191906000526020600020905b8154815290600101906020018083116123df57829003601f168201915b5050505050815260200160068201805461241590615b6c565b80601f016020809104026020016040519081016040528092919081815260200182805461244190615b6c565b801561248e5780601f106124635761010080835404028352916020019161248e565b820191906000526020600020905b81548152906001019060200180831161247157829003601f168201915b5050509183525050600782015463ffffffff81166020830152600160201b900460ff16151560408201526008820180546060909201916124cd90615b6c565b80601f01602080910402602001604051908101604052809291908181526020018280546124f990615b6c565b80156125465780601f1061251b57610100808354040283529160200191612546565b820191906000526020600020905b81548152906001019060200180831161252957829003601f168201915b5050505050815260200160098201805461255f90615b6c565b80601f016020809104026020016040519081016040528092919081815260200182805461258b90615b6c565b80156125d85780601f106125ad576101008083540402835291602001916125d8565b820191906000526020600020905b8154815290600101906020018083116125bb57829003601f168201915b50505050508152602001600a820180546125f190615b6c565b80601f016020809104026020016040519081016040528092919081815260200182805461261d90615b6c565b801561266a5780601f1061263f5761010080835404028352916020019161266a565b820191906000526020600020905b81548152906001019060200180831161264d57829003601f168201915b50505050508152602001600b8201805461268390615b6c565b80601f01602080910402602001604051908101604052809291908181526020018280546126af90615b6c565b80156126fc5780601f106126d1576101008083540402835291602001916126fc565b820191906000526020600020905b8154815290600101906020018083116126df57829003601f168201915b50505050508152602001600c8201805461271590615b6c565b80601f016020809104026020016040519081016040528092919081815260200182805461274190615b6c565b801561278e5780601f106127635761010080835404028352916020019161278e565b820191906000526020600020905b81548152906001019060200180831161277157829003601f168201915b5050509183525050600d82015463ffffffff8082166020840152600160201b909104166040820152600e820180546060909201916127cb90615b6c565b80601f01602080910402602001604051908101604052809291908181526020018280546127f790615b6c565b80156128445780601f1061281957610100808354040283529160200191612844565b820191906000526020600020905b81548152906001019060200180831161282757829003601f168201915b50505050508152602001600f8201805461285d90615b6c565b80601f016020809104026020016040519081016040528092919081815260200182805461288990615b6c565b80156128d65780601f106128ab576101008083540402835291602001916128d6565b820191906000526020600020905b8154815290600101906020018083116128b957829003601f168201915b505050505081526020016010820180546128ef90615b6c565b80601f016020809104026020016040519081016040528092919081815260200182805461291b90615b6c565b80156129685780601f1061293d57610100808354040283529160200191612968565b820191906000526020600020905b81548152906001019060200180831161294b57829003601f168201915b505050505081525050815260200190600101906121e4565b505050508152505081526020019060010190612192565b50505050905090565b6001600160a01b038216600090815260026020526040812054600480546060939190839081106129e057634e487b7160e01b600052603260045260246000fd5b90600052602060002090600202016001018463ffffffff1681548110612a1657634e487b7160e01b600052603260045260246000fd5b9060005260206000209060110201600101549050600060048381548110612a4d57634e487b7160e01b600052603260045260246000fd5b90600052602060002090600202016001018563ffffffff1681548110612a8357634e487b7160e01b600052603260045260246000fd5b9060005260206000209060110201600d0160049054906101000a900463ffffffff1663ffffffff169050600060048481548110612ad057634e487b7160e01b600052603260045260246000fd5b90600052602060002090600202016001018663ffffffff1681548110612b0657634e487b7160e01b600052603260045260246000fd5b6000918252602090912060119091020160040154600160201b90046001600160a01b0390811691508716331415612c17578160641415612b7c576040516001600160a01b0388169084156108fc029085906000818181858888f19350505050158015612b76573d6000803e3d6000fd5b50612c12565b8160321415612bc5576001600160a01b0387166108fc612b9d600286615b16565b6040518115909202916000818181858888f19350505050158015612b76573d6000803e3d6000fd5b6001600160a01b0387166108fc6064612bde8587615b36565b612be89190615b16565b6040518115909202916000818181858888f19350505050158015612c10573d6000803e3d6000fd5b505b612ca6565b336001600160a01b0382161415612ca6578160321415612c49576001600160a01b0381166108fc612be8600286615b16565b6000612c56836064615b55565b90506001600160a01b0382166108fc6064612c718488615b36565b612c7b9190615b16565b6040518115909202916000818181858888f19350505050158015612ca3573d6000803e3d6000fd5b50505b60048481548110612cc757634e487b7160e01b600052603260045260246000fd5b9060005260206000209060020201600101805480602002602001604051908101604052809291908181526020016000905b82821015613494576000848152602090819020604080516102808101825260118602909201805463ffffffff16835260018101549383019390935260028301805492939291840191612d4990615b6c565b80601f0160208091040260200160405190810160405280929190818152602001828054612d7590615b6c565b8015612dc25780601f10612d9757610100808354040283529160200191612dc2565b820191906000526020600020905b815481529060010190602001808311612da557829003601f168201915b50505050508152602001600382018054612ddb90615b6c565b80601f0160208091040260200160405190810160405280929190818152602001828054612e0790615b6c565b8015612e545780601f10612e2957610100808354040283529160200191612e54565b820191906000526020600020905b815481529060010190602001808311612e3757829003601f168201915b5050509183525050600482015463ffffffff81166020830152600160201b90046001600160a01b03166040820152600582018054606090920191612e9790615b6c565b80601f0160208091040260200160405190810160405280929190818152602001828054612ec390615b6c565b8015612f105780601f10612ee557610100808354040283529160200191612f10565b820191906000526020600020905b815481529060010190602001808311612ef357829003601f168201915b50505050508152602001600682018054612f2990615b6c565b80601f0160208091040260200160405190810160405280929190818152602001828054612f5590615b6c565b8015612fa25780601f10612f7757610100808354040283529160200191612fa2565b820191906000526020600020905b815481529060010190602001808311612f8557829003601f168201915b5050509183525050600782015463ffffffff81166020830152600160201b900460ff1615156040820152600882018054606090920191612fe190615b6c565b80601f016020809104026020016040519081016040528092919081815260200182805461300d90615b6c565b801561305a5780601f1061302f5761010080835404028352916020019161305a565b820191906000526020600020905b81548152906001019060200180831161303d57829003601f168201915b5050505050815260200160098201805461307390615b6c565b80601f016020809104026020016040519081016040528092919081815260200182805461309f90615b6c565b80156130ec5780601f106130c1576101008083540402835291602001916130ec565b820191906000526020600020905b8154815290600101906020018083116130cf57829003601f168201915b50505050508152602001600a8201805461310590615b6c565b80601f016020809104026020016040519081016040528092919081815260200182805461313190615b6c565b801561317e5780601f106131535761010080835404028352916020019161317e565b820191906000526020600020905b81548152906001019060200180831161316157829003601f168201915b50505050508152602001600b8201805461319790615b6c565b80601f01602080910402602001604051908101604052809291908181526020018280546131c390615b6c565b80156132105780601f106131e557610100808354040283529160200191613210565b820191906000526020600020905b8154815290600101906020018083116131f357829003601f168201915b50505050508152602001600c8201805461322990615b6c565b80601f016020809104026020016040519081016040528092919081815260200182805461325590615b6c565b80156132a25780601f10613277576101008083540402835291602001916132a2565b820191906000526020600020905b81548152906001019060200180831161328557829003601f168201915b5050509183525050600d82015463ffffffff8082166020840152600160201b909104166040820152600e820180546060909201916132df90615b6c565b80601f016020809104026020016040519081016040528092919081815260200182805461330b90615b6c565b80156133585780601f1061332d57610100808354040283529160200191613358565b820191906000526020600020905b81548152906001019060200180831161333b57829003601f168201915b50505050508152602001600f8201805461337190615b6c565b80601f016020809104026020016040519081016040528092919081815260200182805461339d90615b6c565b80156133ea5780601f106133bf576101008083540402835291602001916133ea565b820191906000526020600020905b8154815290600101906020018083116133cd57829003601f168201915b5050505050815260200160108201805461340390615b6c565b80601f016020809104026020016040519081016040528092919081815260200182805461342f90615b6c565b801561347c5780601f106134515761010080835404028352916020019161347c565b820191906000526020600020905b81548152906001019060200180831161345f57829003601f168201915b50505050508152505081526020019060010190612cf8565b5050505094505050505092915050565b6001600160a01b03821660009081526002602052604090205460048054839190839081106134e257634e487b7160e01b600052603260045260246000fd5b90600052602060002090600202016001018563ffffffff168154811061351857634e487b7160e01b600052603260045260246000fd5b9060005260206000209060110201600801908051906020019061353c929190614f83565b5050505050565b33600090815260026020526040902054806135645761356133614f05565b90505b6004818154811061358557634e487b7160e01b600052603260045260246000fd5b90600052602060002090600202016001016040518061028001604052808e63ffffffff1681526020018d81526020018c81526020018b81526020018a63ffffffff168152602001896001600160a01b031681526020018881526020018781526020018663ffffffff1681526020018515158152602001604051806020016040528060008152508152602001604051806020016040528060008152508152602001604051806020016040528060008152508152602001604051806020016040528060008152508152602001604051806020016040528060008152508152602001600063ffffffff168152602001600063ffffffff16815260200184815260200160405180602001604052806000815250815260200160405180602001604052806000815250815250908060018154018082558091505060019003906000526020600020906011020160009091909190915060008201518160000160006101000a81548163ffffffff021916908363ffffffff160217905550602082015181600101556040820151816002019080519060200190613722929190614f83565b506060820151805161373e916003840191602090910190614f83565b50608082015160048201805460a08501516001600160a01b0316600160201b026001600160c01b031990911663ffffffff9093169290921791909117905560c08201518051613797916005840191602090910190614f83565b5060e082015180516137b3916006840191602090910190614f83565b506101008201516007820180546101208501511515600160201b0264ffffffffff1990911663ffffffff909316929092179190911790556101408201518051613806916008840191602090910190614f83565b506101608201518051613823916009840191602090910190614f83565b50610180820151805161384091600a840191602090910190614f83565b506101a0820151805161385d91600b840191602090910190614f83565b506101c0820151805161387a91600c840191602090910190614f83565b506101e0820151600d8201805461020085015163ffffffff908116600160201b0267ffffffffffffffff1990921693169290921791909117905561022082015180516138d091600e840191602090910190614f83565b5061024082015180516138ed91600f840191602090910190614f83565b50610260820151805161390a916010840191602090910190614f83565b505050505050505050505050505050565b6001600160a01b03811660009081526002602052604090205460048054606092916001918390811061395d57634e487b7160e01b600052603260045260246000fd5b90600052602060002090600202016001018563ffffffff168154811061399357634e487b7160e01b600052603260045260246000fd5b906000526020600020906011020160070160046101000a81548160ff021916908315150217905550600481815481106139dc57634e487b7160e01b600052603260045260246000fd5b9060005260206000209060020201600101805480602002602001604051908101604052809291908181526020016000905b828210156141a9576000848152602090819020604080516102808101825260118602909201805463ffffffff16835260018101549383019390935260028301805492939291840191613a5e90615b6c565b80601f0160208091040260200160405190810160405280929190818152602001828054613a8a90615b6c565b8015613ad75780601f10613aac57610100808354040283529160200191613ad7565b820191906000526020600020905b815481529060010190602001808311613aba57829003601f168201915b50505050508152602001600382018054613af090615b6c565b80601f0160208091040260200160405190810160405280929190818152602001828054613b1c90615b6c565b8015613b695780601f10613b3e57610100808354040283529160200191613b69565b820191906000526020600020905b815481529060010190602001808311613b4c57829003601f168201915b5050509183525050600482015463ffffffff81166020830152600160201b90046001600160a01b03166040820152600582018054606090920191613bac90615b6c565b80601f0160208091040260200160405190810160405280929190818152602001828054613bd890615b6c565b8015613c255780601f10613bfa57610100808354040283529160200191613c25565b820191906000526020600020905b815481529060010190602001808311613c0857829003601f168201915b50505050508152602001600682018054613c3e90615b6c565b80601f0160208091040260200160405190810160405280929190818152602001828054613c6a90615b6c565b8015613cb75780601f10613c8c57610100808354040283529160200191613cb7565b820191906000526020600020905b815481529060010190602001808311613c9a57829003601f168201915b5050509183525050600782015463ffffffff81166020830152600160201b900460ff1615156040820152600882018054606090920191613cf690615b6c565b80601f0160208091040260200160405190810160405280929190818152602001828054613d2290615b6c565b8015613d6f5780601f10613d4457610100808354040283529160200191613d6f565b820191906000526020600020905b815481529060010190602001808311613d5257829003601f168201915b50505050508152602001600982018054613d8890615b6c565b80601f0160208091040260200160405190810160405280929190818152602001828054613db490615b6c565b8015613e015780601f10613dd657610100808354040283529160200191613e01565b820191906000526020600020905b815481529060010190602001808311613de457829003601f168201915b50505050508152602001600a82018054613e1a90615b6c565b80601f0160208091040260200160405190810160405280929190818152602001828054613e4690615b6c565b8015613e935780601f10613e6857610100808354040283529160200191613e93565b820191906000526020600020905b815481529060010190602001808311613e7657829003601f168201915b50505050508152602001600b82018054613eac90615b6c565b80601f0160208091040260200160405190810160405280929190818152602001828054613ed890615b6c565b8015613f255780601f10613efa57610100808354040283529160200191613f25565b820191906000526020600020905b815481529060010190602001808311613f0857829003601f168201915b50505050508152602001600c82018054613f3e90615b6c565b80601f0160208091040260200160405190810160405280929190818152602001828054613f6a90615b6c565b8015613fb75780601f10613f8c57610100808354040283529160200191613fb7565b820191906000526020600020905b815481529060010190602001808311613f9a57829003601f168201915b5050509183525050600d82015463ffffffff8082166020840152600160201b909104166040820152600e82018054606090920191613ff490615b6c565b80601f016020809104026020016040519081016040528092919081815260200182805461402090615b6c565b801561406d5780601f106140425761010080835404028352916020019161406d565b820191906000526020600020905b81548152906001019060200180831161405057829003601f168201915b50505050508152602001600f8201805461408690615b6c565b80601f01602080910402602001604051908101604052809291908181526020018280546140b290615b6c565b80156140ff5780601f106140d4576101008083540402835291602001916140ff565b820191906000526020600020905b8154815290600101906020018083116140e257829003601f168201915b5050505050815260200160108201805461411890615b6c565b80601f016020809104026020016040519081016040528092919081815260200182805461414490615b6c565b80156141915780601f1061416657610100808354040283529160200191614191565b820191906000526020600020905b81548152906001019060200180831161417457829003601f168201915b50505050508152505081526020019060010190613a0d565b5050505091505092915050565b6001600160a01b03831660009081526002602052604090205460048054606092918891839081106141f757634e487b7160e01b600052603260045260246000fd5b90600052602060002090600202016001018563ffffffff168154811061422d57634e487b7160e01b600052603260045260246000fd5b9060005260206000209060110201600c019080519060200190614251929190614f83565b50856004828154811061427457634e487b7160e01b600052603260045260246000fd5b90600052602060002090600202016001018563ffffffff16815481106142aa57634e487b7160e01b600052603260045260246000fd5b9060005260206000209060110201600b0190805190602001906142ce929190614f83565b5082600482815481106142f157634e487b7160e01b600052603260045260246000fd5b90600052602060002090600202016001018563ffffffff168154811061432757634e487b7160e01b600052603260045260246000fd5b9060005260206000209060110201600d0160006101000a81548163ffffffff021916908363ffffffff16021790555060006004828154811061437957634e487b7160e01b600052603260045260246000fd5b90600052602060002090600202016001018563ffffffff16815481106143af57634e487b7160e01b600052603260045260246000fd5b906000526020600020906011020160010154905060008463ffffffff1690506000600484815481106143f157634e487b7160e01b600052603260045260246000fd5b90600052602060002090600202016001018763ffffffff168154811061442757634e487b7160e01b600052603260045260246000fd5b906000526020600020906011020160040160049054906101000a90046001600160a01b031690508160641415614493576040516001600160a01b0389169084156108fc029085906000818181858888f1935050505015801561448d573d6000803e3d6000fd5b506145c6565b816032141561451d576001600160a01b0388166108fc6144b4600286615b16565b6040518115909202916000818181858888f193505050501580156144dc573d6000803e3d6000fd5b506001600160a01b0381166108fc6144f5600286615b16565b6040518115909202916000818181858888f1935050505015801561448d573d6000803e3d6000fd5b600061452a836064615b55565b90506001600160a01b0389166108fc60646145458688615b36565b61454f9190615b16565b6040518115909202916000818181858888f19350505050158015614577573d6000803e3d6000fd5b506001600160a01b0382166108fc60646145918488615b36565b61459b9190615b16565b6040518115909202916000818181858888f193505050501580156145c3573d6000803e3d6000fd5b50505b600484815481106145e757634e487b7160e01b600052603260045260246000fd5b9060005260206000209060020201600101805480602002602001604051908101604052809291908181526020016000905b82821015614db4576000848152602090819020604080516102808101825260118602909201805463ffffffff1683526001810154938301939093526002830180549293929184019161466990615b6c565b80601f016020809104026020016040519081016040528092919081815260200182805461469590615b6c565b80156146e25780601f106146b7576101008083540402835291602001916146e2565b820191906000526020600020905b8154815290600101906020018083116146c557829003601f168201915b505050505081526020016003820180546146fb90615b6c565b80601f016020809104026020016040519081016040528092919081815260200182805461472790615b6c565b80156147745780601f1061474957610100808354040283529160200191614774565b820191906000526020600020905b81548152906001019060200180831161475757829003601f168201915b5050509183525050600482015463ffffffff81166020830152600160201b90046001600160a01b031660408201526005820180546060909201916147b790615b6c565b80601f01602080910402602001604051908101604052809291908181526020018280546147e390615b6c565b80156148305780601f1061480557610100808354040283529160200191614830565b820191906000526020600020905b81548152906001019060200180831161481357829003601f168201915b5050505050815260200160068201805461484990615b6c565b80601f016020809104026020016040519081016040528092919081815260200182805461487590615b6c565b80156148c25780601f10614897576101008083540402835291602001916148c2565b820191906000526020600020905b8154815290600101906020018083116148a557829003601f168201915b5050509183525050600782015463ffffffff81166020830152600160201b900460ff161515604082015260088201805460609092019161490190615b6c565b80601f016020809104026020016040519081016040528092919081815260200182805461492d90615b6c565b801561497a5780601f1061494f5761010080835404028352916020019161497a565b820191906000526020600020905b81548152906001019060200180831161495d57829003601f168201915b5050505050815260200160098201805461499390615b6c565b80601f01602080910402602001604051908101604052809291908181526020018280546149bf90615b6c565b8015614a0c5780601f106149e157610100808354040283529160200191614a0c565b820191906000526020600020905b8154815290600101906020018083116149ef57829003601f168201915b50505050508152602001600a82018054614a2590615b6c565b80601f0160208091040260200160405190810160405280929190818152602001828054614a5190615b6c565b8015614a9e5780601f10614a7357610100808354040283529160200191614a9e565b820191906000526020600020905b815481529060010190602001808311614a8157829003601f168201915b50505050508152602001600b82018054614ab790615b6c565b80601f0160208091040260200160405190810160405280929190818152602001828054614ae390615b6c565b8015614b305780601f10614b0557610100808354040283529160200191614b30565b820191906000526020600020905b815481529060010190602001808311614b1357829003601f168201915b50505050508152602001600c82018054614b4990615b6c565b80601f0160208091040260200160405190810160405280929190818152602001828054614b7590615b6c565b8015614bc25780601f10614b9757610100808354040283529160200191614bc2565b820191906000526020600020905b815481529060010190602001808311614ba557829003601f168201915b5050509183525050600d82015463ffffffff8082166020840152600160201b909104166040820152600e82018054606090920191614bff90615b6c565b80601f0160208091040260200160405190810160405280929190818152602001828054614c2b90615b6c565b8015614c785780601f10614c4d57610100808354040283529160200191614c78565b820191906000526020600020905b815481529060010190602001808311614c5b57829003601f168201915b50505050508152602001600f82018054614c9190615b6c565b80601f0160208091040260200160405190810160405280929190818152602001828054614cbd90615b6c565b8015614d0a5780601f10614cdf57610100808354040283529160200191614d0a565b820191906000526020600020905b815481529060010190602001808311614ced57829003601f168201915b50505050508152602001601082018054614d2390615b6c565b80601f0160208091040260200160405190810160405280929190818152602001828054614d4f90615b6c565b8015614d9c5780601f10614d7157610100808354040283529160200191614d9c565b820191906000526020600020905b815481529060010190602001808311614d7f57829003601f168201915b50505050508152505081526020019060010190614618565b5050505094505050505095945050505050565b6001546040516370a0823160e01b815233600482015282916001600160a01b0316906370a082319060240160206040518083038186803b158015614e0a57600080fd5b505afa158015614e1e573d6000803e3d6000fd5b505050506040513d601f19601f82011682018060405250810190614e4291906152a8565b1015614e4d57600080fd5b6001546040516323b872dd60e01b8152336004820152306024820152604481018390526001600160a01b03909116906323b872dd90606401602060405180830381600087803b158015614e9f57600080fd5b505af1158015614eb3573d6000803e3d6000fd5b505050506040513d601f19601f82011682018060405250810190614ed7919061512c565b5050565b60038181548110614eeb57600080fd5b6000918252602090912001546001600160a01b0316905081565b60048054600190810180835560009283528291614f2191615b55565b90508260048281548110614f4557634e487b7160e01b600052603260045260246000fd5b6000918252602080832060029283020180546001600160a01b0319166001600160a01b03958616179055959092168152935260409092208290555090565b828054614f8f90615b6c565b90600052602060002090601f016020900481019282614fb15760008555614ff7565b82601f10614fca57805160ff1916838001178555614ff7565b82800160010185558215614ff7579182015b82811115614ff7578251825591602001919060010190614fdc565b50615003929150615007565b5090565b5b808211156150035760008155600101615008565b80356001600160a01b038116811461216957600080fd5b803561216981615bd3565b600082601f83011261504e578081fd5b813567ffffffffffffffff8082111561506957615069615bbd565b604051601f8301601f19908116603f0116810190828211818310171561509157615091615bbd565b816040528381528660208588010111156150a9578485fd5b8360208701602083013792830160200193909352509392505050565b803563ffffffff8116811461216957600080fd5b6000602082840312156150ea578081fd5b6150f38261501c565b9392505050565b6000806040838503121561510c578081fd5b6151158361501c565b9150615123602084016150c5565b90509250929050565b60006020828403121561513d578081fd5b81516150f381615bd3565b600080600080600060a0868803121561515f578081fd5b853567ffffffffffffffff80821115615176578283fd5b61518289838a0161503e565b96506020880135915080821115615197578283fd5b506151a48882890161503e565b9450506151b36040870161501c565b92506151c1606087016150c5565b91506151cf608087016150c5565b90509295509295909350565b60008060008060008060c087890312156151f3578081fd5b863567ffffffffffffffff8082111561520a578283fd5b6152168a838b0161503e565b9750602089013591508082111561522b578283fd5b6152378a838b0161503e565b965061524560408a0161501c565b955061525360608a016150c5565b945061526160808a016150c5565b935060a0890135915080821115615276578283fd5b5061528389828a0161503e565b9150509295509295509295565b6000602082840312156152a1578081fd5b5035919050565b6000602082840312156152b9578081fd5b5051919050565b600080600080608085870312156152d5578384fd5b84359350602085013567ffffffffffffffff8111156152f2578384fd5b6152fe8782880161503e565b93505061530d604086016150c5565b915061531b6060860161501c565b905092959194509250565b60008060408385031215615338578182fd5b615341836150c5565b91506151236020840161501c565b600080600060608486031215615363578283fd5b61536c846150c5565b925061537a6020850161501c565b9150604084013567ffffffffffffffff811115615395578182fd5b6153a18682870161503e565b9150509250925092565b6000806000806000806000806000806101408b8d0312156153ca578384fd5b6153d38b6150c5565b995060208b013567ffffffffffffffff808211156153ef578586fd5b6153fb8e838f0161503e565b9a5060408d0135915080821115615410578586fd5b61541c8e838f0161503e565b995061542a60608e016150c5565b985061543860808e0161501c565b975060a08d013591508082111561544d578586fd5b6154598e838f0161503e565b965060c08d013591508082111561546e578586fd5b61547a8e838f0161503e565b955061548860e08e016150c5565b94506154976101008e01615033565b93506101208d01359150808211156154ad578283fd5b506154ba8d828e0161503e565b9150509295989b9194979a5092959850565b60008060008060008060008060008060006101608c8e0312156154ed578485fd5b6154f68c6150c5565b9a5060208c0135995067ffffffffffffffff8060408e01351115615518578586fd5b6155288e60408f01358f0161503e565b99508060608e0135111561553a578586fd5b61554a8e60608f01358f0161503e565b985061555860808e016150c5565b975061556660a08e0161501c565b96508060c08e01351115615578578586fd5b6155888e60c08f01358f0161503e565b95508060e08e0135111561559a578182fd5b6155aa8e60e08f01358f0161503e565b94506155b96101008e016150c5565b93506155c86101208e01615033565b9250806101408e013511156155db578182fd5b506155ed8d6101408e01358e0161503e565b90509295989b509295989b9093969950565b60008151808452815b8181101561562457602081850181015186830182015201615608565b818111156156355782602083870101525b50601f01601f19169290920160200192915050565b60006020808301818452808551808352604092508286019150828160051b870101848801865b8381101561587257888303603f190185528151805163ffffffff16845261028088820151898601528782015181898701526156ad828701826155ff565b915050606080830151868303828801526156c783826155ff565b925050506080808301516156e28288018263ffffffff169052565b505060a0828101516001600160a01b03169086015260c0808301518683038288015261570e83826155ff565b9250505060e0808301518683038288015261572983826155ff565b92505050610100808301516157458288018263ffffffff169052565b505061012082810151151590860152610140808301518683038288015261576c83826155ff565b92505050610160808301518683038288015261578883826155ff565b9250505061018080830151868303828801526157a483826155ff565b925050506101a080830151868303828801526157c083826155ff565b925050506101c080830151868303828801526157dc83826155ff565b925050506101e0808301516157f88288018263ffffffff169052565b50506102008281015163ffffffff1690860152610220808301518683038288015261582383826155ff565b92505050610240808301518683038288015261583f83826155ff565b92505050610260808301519250858203818701525061585e81836155ff565b968901969450505090860190600101615670565b509098975050505050505050565b60006020808301818452808551808352604092508286019150828160051b870101848801865b8381101561587257888303603f19018552815180516001600160a01b0316845287015187840187905280518785018190529088019060609081860190600581901b870183018c5b82811015615aec57888203605f190184528551805163ffffffff1683526102808e8201518f8501528d820151818f86015261592a828601826155ff565b915050868201518482038886015261594282826155ff565b91505060808083015161595c8287018263ffffffff169052565b505060a0828101516001600160a01b03169085015260c0808301518583038287015261598883826155ff565b9250505060e080830151858303828701526159a383826155ff565b92505050610100808301516159bf8287018263ffffffff169052565b50506101208281015115159085015261014080830151858303828701526159e683826155ff565b925050506101608083015185830382870152615a0283826155ff565b925050506101808083015185830382870152615a1e83826155ff565b925050506101a08083015185830382870152615a3a83826155ff565b925050506101c08083015185830382870152615a5683826155ff565b925050506101e080830151615a728287018263ffffffff169052565b50506102008281015163ffffffff16908501526102208083015185830382870152615a9d83826155ff565b925050506102408083015185830382870152615ab983826155ff565b925050506102608083015192508482038186015250615ad881836155ff565b978f0197958f0195935050506001016158ed565b50988b0198965050509288019250506001016158a6565b6000602082526150f360208301846155ff565b600082615b3157634e487b7160e01b81526012600452602481fd5b500490565b6000816000190483118215151615615b5057615b50615ba7565b500290565b600082821015615b6757615b67615ba7565b500390565b600181811c90821680615b8057607f821691505b60208210811415615ba157634e487b7160e01b600052602260045260246000fd5b50919050565b634e487b7160e01b600052601160045260246000fd5b634e487b7160e01b600052604160045260246000fd5b8015158114615be157600080fd5b5056fea264697066735822122013e1176419903a1cf28488453900a2478607dcaed0bff6e2028b905cffda86aa64736f6c63430008030033457468537761702046616972747261646572204d61696e204150702054657374696e67",
  "immutableReferences": {},
  "source": "// SPDX-License-Identifier: MIT\npragma solidity ^0.8.3;\n\nimport \"./Token.sol\";\n\ncontract BuyInvoicesMainAPp {\n    string public name = \"EthSwap Fairtrader Main APp Testing\";\n    Token public token;\n    //\n    mapping(address => uint256) public stakes;\n\n    address[] public stakers;\n    Stakeholder[] public stakeholders;\n\n    // event SmartContractOpenedBuyer(\n    //     uint32 _id,\n    //     string _termsAndCondition,\n    //     string _warrantyFile,\n    //     uint32 _apealTime,\n    //     string _sellerWalletAddress,\n    //     string _invoiceFile,\n    //     string _customerEmail,\n    //     uint32 _mediatorId,\n    //     bool _medAccepted,\n    //     string _friendsEmail\n    // );\n    // event ContractCompletedSeller(\n    //     address indexed user,\n    //     uint256 userIndex,\n    //     address sellerOrUser\n    // );\n\n    struct OrderData {\n        uint32 _orderId;\n        uint256 _amount;\n        string _termsAndCondition;\n        string _warrantyFile;\n        uint32 _apealTime;\n        address _sellerWalletAddress;\n        string _invoiceFile;\n        string _customerEmail;\n        uint32 _mediatorId;\n        bool _medAccepted;\n        string _superMedAcceptedEmail;\n        string _judgeReport;\n        string _judgeReportFile;\n        string _judgeReportFileSuperMed;\n        string _judgeReportSuperMed;\n        uint32 _buyerTakeAmountInPercentSuperMed;\n        uint32 _buyerTakeAmountInPercent;\n        string _friendsEmail;\n        string _appealTime;\n        string _whoCalled;\n    }\n\n    struct Stakeholder {\n        address user;\n        OrderData[] address_stakes;\n    }\n\n    constructor(Token _token) public {\n        // constructor() public {\n        stakeholders.push();\n        token = _token;\n    }\n\n    function getBalance() external view returns (uint256) {\n        return address(this).balance;\n    }\n\n    function exchangeHistoryOfStake()\n        external\n        view\n        returns (Stakeholder[] memory)\n    {\n        return stakeholders;\n    }\n\n    function getAllOrdersOfOneUser(address _userAddress)\n        external\n        view\n        returns (OrderData[] memory)\n    {\n        // require(/* mediator is calling not any other person for security purpose*/);\n        uint256 index = stakes[_userAddress];\n        return stakeholders[index].address_stakes;\n    }\n\n    function medAcceptNewCases(uint32 _index, address buyerWalletAddress)\n        external\n        returns (OrderData[] memory)\n    {\n        // require(/* mediator is calling not any other person for security purpose*/);\n        uint256 index = stakes[buyerWalletAddress];\n        stakeholders[index].address_stakes[_index]._medAccepted = true;\n\n        return stakeholders[index].address_stakes;\n    }\n\n    function superMedAcceptNewCases(uint32 _index, address buyerWalletAddress, string memory _superMediatorEmail)\n        external\n    {\n        // require(/* mediator is calling not any other person for security purpose*/);\n        uint256 index = stakes[buyerWalletAddress];\n        stakeholders[index].address_stakes[_index]._superMedAcceptedEmail = _superMediatorEmail;\n\n    }\n    \n     function medJudgeCaseReportSuperMed(string memory _judgeReport, string memory _judgeReportFile, address buyerWalletAddress, uint32 _index, uint32 _buyerTakeAmountInPercent)\n        external\n        returns (OrderData[] memory)\n    {\n        // require(/* mediator is calling not any other person for security purpose*/);\n        uint256 index = stakes[buyerWalletAddress];\n        stakeholders[index].address_stakes[_index]._judgeReportSuperMed = _judgeReport;\n        stakeholders[index].address_stakes[_index]._judgeReportFileSuperMed = _judgeReportFile;\n        stakeholders[index].address_stakes[_index]._buyerTakeAmountInPercentSuperMed = _buyerTakeAmountInPercent;\n\n\n        uint amount =  stakeholders[index].address_stakes[_index]._amount;\n        uint buyerTakeAmountInPercent = _buyerTakeAmountInPercent;\n        address sellerWalletAddressOfContract = stakeholders[index].address_stakes[_index]._sellerWalletAddress;\n\n        // ADDING CHECK THAT ONLY SELLER ADDRESS IS SAME IN CONTRACT OR SOMEOEN ELSE IS TRYING\n        // string memory sellerAddress = stakeholders[index].address_stakes[_index]._sellerWalletAddress;\n        // require(string(sellerWalletAddress) == sellerAddress);\n\n\n       if (buyerTakeAmountInPercent == 100) {\n            payable(buyerWalletAddress).transfer(amount);\n        } else if (buyerTakeAmountInPercent == 50) {\n            payable(buyerWalletAddress).transfer(amount / 2);\n            payable(sellerWalletAddressOfContract).transfer(amount / 2);\n        }else {\n            uint256 sellerTakePercent = 100 - buyerTakeAmountInPercent;\n            payable(buyerWalletAddress).transfer(\n                (amount * buyerTakeAmountInPercent) / 100\n            );\n            payable(sellerWalletAddressOfContract).transfer(\n                (amount * sellerTakePercent) / 100\n            );\n        }\n\n\n        return stakeholders[index].address_stakes;\n    }\n    \n     function medJudgeCaseReport(string memory _judgeReport, string memory _judgeReportFile, address buyerWalletAddress, uint32 _index, uint32 _buyerTakeAmountInPercent, string memory _appealTime)\n        external\n        returns (OrderData[] memory)\n    {\n        // require(/* mediator is calling not any other person for security purpose*/);\n        uint256 index = stakes[buyerWalletAddress];\n        stakeholders[index].address_stakes[_index]._judgeReport = _judgeReport;\n        stakeholders[index].address_stakes[_index]._judgeReportFile = _judgeReportFile;\n        stakeholders[index].address_stakes[_index]._buyerTakeAmountInPercent = _buyerTakeAmountInPercent;\n        stakeholders[index].address_stakes[_index]._appealTime = _appealTime;\n\n        return stakeholders[index].address_stakes;\n    }\n    \n    function payFeeForSuperMediator(uint256 _amount, string memory _whoIsCalling, uint32 _index, address buyerWalletAddress) public\n        returns (OrderData[] memory)\n     {\n        // User can't sell more tokens than they have\n        require(token.balanceOf(msg.sender) >= _amount);\n\n        uint256 index = stakes[buyerWalletAddress];\n        stakeholders[index].address_stakes[_index]._whoCalled = _whoIsCalling;\n\n\n        // Perform sale\n        token.transferFrom(msg.sender, address(this), _amount);\n\n        return stakeholders[index].address_stakes;\n    }\n    \n    function payFeeForSuperMediatorr(uint256 _amount) public {\n        // User can't sell more tokens than they have\n        require(token.balanceOf(msg.sender) >= _amount);\n\n        // Perform sale\n        token.transferFrom(msg.sender, address(this), _amount);\n\n    }\n    \n\n\n  function userWithdrawTheirDisputesOrdersCash(address buyerWalletAddress, uint32 _index)\n        external\n        returns (OrderData[] memory)\n    {\n        // require(/* mediator is calling not any other person for security purpose*/);\n        uint256 index = stakes[buyerWalletAddress];\n\n        uint amount =  stakeholders[index].address_stakes[_index]._amount;\n        uint buyerTakeAmountInPercent = stakeholders[index].address_stakes[_index]._buyerTakeAmountInPercent;\n        address sellerWalletAddressOfContract = stakeholders[index].address_stakes[_index]._sellerWalletAddress;\n\n        // ADDING CHECK THAT ONLY SELLER ADDRESS IS SAME IN CONTRACT OR SOMEOEN ELSE IS TRYING\n        // string memory sellerAddress = stakeholders[index].address_stakes[_index]._sellerWalletAddress;\n        // require(string(sellerWalletAddress) == sellerAddress);\n\n        if(msg.sender == buyerWalletAddress) {\n            if (buyerTakeAmountInPercent == 100) {\n                payable(buyerWalletAddress).transfer(amount);\n                \n            } else if(buyerTakeAmountInPercent == 50) {\n                payable(buyerWalletAddress).transfer(amount / 2);\n            } else {\n                payable(buyerWalletAddress).transfer(amount * buyerTakeAmountInPercent / 100);\n            }\n        } else if (msg.sender == sellerWalletAddressOfContract) {\n            if(buyerTakeAmountInPercent == 50) {\n                payable(sellerWalletAddressOfContract).transfer(amount / 2);\n            } else {\n                uint256 sellerTakePercent = 100 - buyerTakeAmountInPercent;\n                payable(sellerWalletAddressOfContract).transfer(amount * sellerTakePercent / 100);\n            }\n        }\n\n        return stakeholders[index].address_stakes;\n    }\n\n    function _addStakeholder(address staker) internal returns (uint256) {\n        stakeholders.push();\n        uint256 userIndex = stakeholders.length - 1;\n        stakeholders[userIndex].user = staker;\n        stakes[staker] = userIndex;\n        return userIndex;\n    }\n\n    function _saveOrdersDataOfUser(\n        uint32 _orderId,\n        uint256 _amount,\n        string memory _termsAndCondition,\n        string memory _warrantyFile,\n        uint32 _apealTime,\n        address _sellerWalletAddress,\n        string memory _invoiceFile,\n        string memory _customerEmail,\n        uint32 _mediatorId,\n        bool _medAccepted,\n        string memory _friendsEmail\n    ) public {\n        // Check that the requested amount of tokens to sell is more than 0\n        // require(_sellerWalletAddress == '', \"seller Wallet Address Cannot nothing\");\n\n        uint256 index = stakes[msg.sender];\n        if (index == 0) {\n            index = _addStakeholder(msg.sender);\n        }\n\n        stakeholders[index].address_stakes.push(\n            OrderData(\n                _orderId,\n                _amount,\n                _termsAndCondition,\n                _warrantyFile,\n                _apealTime,\n                _sellerWalletAddress,\n                _invoiceFile,\n                _customerEmail,\n                _mediatorId,\n                _medAccepted,\n                \"\",\n                \"\",\n                \"\",\n                \"\",\n                \"\",\n                0,\n                0,\n                _friendsEmail,\n                \"\",\n                \"\"\n            )\n        );\n    }\n\n    function buyWithFTP(\n        uint32 _orderId,\n        uint256 _amount,\n        string memory _termsAndCondition,\n        string memory _warrantyFile,\n        uint32 _apealTime,\n        address _sellerWalletAddress,\n        string memory _invoiceFile,\n        string memory _customerEmail,\n        uint32 _mediatorId,\n        bool _medAccepted,\n        string memory _friendsEmail\n    ) public {\n        // User can't sell more tokens than they have\n        require(token.balanceOf(msg.sender) >= _amount);\n\n        // Perform sale\n        token.transferFrom(msg.sender, address(this), _amount);\n\n        _saveOrdersDataOfUser(\n            _orderId,\n            _amount,\n            _termsAndCondition,\n            _warrantyFile,\n            _apealTime,\n            _sellerWalletAddress,\n            _invoiceFile,\n            _customerEmail,\n            _mediatorId,\n            _medAccepted,\n            _friendsEmail\n        );\n    }\n\n    // function buyWithUsdt(\n    //     uint32 _orderId,\n    //     uint256 _amount,\n    //     string memory _termsAndCondition,\n    //     string memory _warrantyFile,\n    //     uint32 _apealTime,\n    //     address _sellerWalletAddress,\n    //     string memory _invoiceFile,\n    //     string memory _customerEmail,\n    // uint32 _mediatorId,\n    // bool _medAccepted,\n    //     string memory _friendsEmail\n    // ) public {\n    //     // User can't sell more tokens than they have\n    //     require(usdtToken.balanceOf(msg.sender) >= _amount);\n\n    //     // Perform sale\n    //     usdtToken.transferFrom(msg.sender, address(this), _amount);\n\n    //     _saveOrdersDataOfUser(\n    //         _orderId,\n    //          _amount,\n    //         _termsAndCondition,\n    //         _warrantyFile,\n    //         _apealTime,\n    //         _sellerWalletAddress,\n    //         _invoiceFile,\n    //         _customerEmail,\n    // _mediatorId,\n    // _medAccepted,\n    //         _friendsEmail\n    //     );\n    // }\n\n    function buyWithBNB(\n        uint32 _orderId,\n        string memory _termsAndCondition,\n        string memory _warrantyFile,\n        uint32 _apealTime,\n        address _sellerWalletAddress,\n        string memory _invoiceFile,\n        string memory _customerEmail,\n        uint32 _mediatorId,\n        bool _medAccepted,\n        string memory _friendsEmail\n    ) public payable {\n        // User can't sell more tokens than they have\n        // require(token.balanceOf(msg.sender) >= msg.value);\n\n        // Perform sale\n        // token.transferFrom(msg.sender, address(this), _amount);\n        // address(address(this).transfer(_amount));\n        // token.transfer(address(this), _amount);\n        // token.transferFrom(msg.sender, address(this), _amount);\n\n        _saveOrdersDataOfUser(\n            _orderId,\n            msg.value,\n            _termsAndCondition,\n            _warrantyFile,\n            _apealTime,\n            _sellerWalletAddress,\n            _invoiceFile,\n            _customerEmail,\n            _mediatorId,\n            _medAccepted,\n            _friendsEmail\n        );\n    }\n}\n",
  "sourcePath": "/home/abdullah/Desktop/Fairtrader/FairTrader Main App Smart_Contract/UPGRADECONTRACT...(buy Invoice Main APp)/contracts/BuyInvoicesMainAPp.sol",
  "compiler": {
    "name": "solc",
    "version": "0.8.3+commit.8d00100c.Emscripten.clang"
  },
  "schemaVersion": "3.4.10",
  "updatedAt": "2022-11-05T09:22:55.110Z",
  "networkType": "ethereum",
  "devdoc": {
    "kind": "dev",
    "methods": {},
    "version": 1
  },
  "userdoc": {
    "kind": "user",
    "methods": {},
    "version": 1
  }
}