{
  "contractName": "BuyInvoicesMainAPp",
  "abi": [
    {
      "inputs": [
        {
          "internalType": "contract Token",
          "name": "_token",
          "type": "address"
        }
      ],
      "stateMutability": "nonpayable",
      "type": "constructor"
    },
    {
      "inputs": [],
      "name": "name",
      "outputs": [
        {
          "internalType": "string",
          "name": "",
          "type": "string"
        }
      ],
      "stateMutability": "view",
      "type": "function",
      "constant": true
    },
    {
      "inputs": [
        {
          "internalType": "uint256",
          "name": "",
          "type": "uint256"
        }
      ],
      "name": "stakeholders",
      "outputs": [
        {
          "internalType": "address",
          "name": "user",
          "type": "address"
        }
      ],
      "stateMutability": "view",
      "type": "function",
      "constant": true
    },
    {
      "inputs": [
        {
          "internalType": "uint256",
          "name": "",
          "type": "uint256"
        }
      ],
      "name": "stakers",
      "outputs": [
        {
          "internalType": "address",
          "name": "",
          "type": "address"
        }
      ],
      "stateMutability": "view",
      "type": "function",
      "constant": true
    },
    {
      "inputs": [
        {
          "internalType": "address",
          "name": "",
          "type": "address"
        }
      ],
      "name": "stakes",
      "outputs": [
        {
          "internalType": "uint256",
          "name": "",
          "type": "uint256"
        }
      ],
      "stateMutability": "view",
      "type": "function",
      "constant": true
    },
    {
      "inputs": [],
      "name": "token",
      "outputs": [
        {
          "internalType": "contract Token",
          "name": "",
          "type": "address"
        }
      ],
      "stateMutability": "view",
      "type": "function",
      "constant": true
    },
    {
      "inputs": [],
      "name": "getBalance",
      "outputs": [
        {
          "internalType": "uint256",
          "name": "",
          "type": "uint256"
        }
      ],
      "stateMutability": "view",
      "type": "function",
      "constant": true
    },
    {
      "inputs": [],
      "name": "exchangeHistoryOfStake",
      "outputs": [
        {
          "components": [
            {
              "internalType": "address",
              "name": "user",
              "type": "address"
            },
            {
              "components": [
                {
                  "internalType": "uint32",
                  "name": "_orderId",
                  "type": "uint32"
                },
                {
                  "internalType": "uint256",
                  "name": "_amount",
                  "type": "uint256"
                },
                {
                  "internalType": "string",
                  "name": "_termsAndCondition",
                  "type": "string"
                },
                {
                  "internalType": "string",
                  "name": "_warrantyFile",
                  "type": "string"
                },
                {
                  "internalType": "uint32",
                  "name": "_apealTime",
                  "type": "uint32"
                },
                {
                  "internalType": "address",
                  "name": "_sellerWalletAddress",
                  "type": "address"
                },
                {
                  "internalType": "string",
                  "name": "_invoiceFile",
                  "type": "string"
                },
                {
                  "internalType": "string",
                  "name": "_customerEmail",
                  "type": "string"
                },
                {
                  "internalType": "uint32",
                  "name": "_mediatorId",
                  "type": "uint32"
                },
                {
                  "internalType": "bool",
                  "name": "_medAccepted",
                  "type": "bool"
                },
                {
                  "internalType": "string",
                  "name": "_judgeReport",
                  "type": "string"
                },
                {
                  "internalType": "string",
                  "name": "_judgeReportFile",
                  "type": "string"
                },
                {
                  "internalType": "string",
                  "name": "_judgeReportFileSuperMed",
                  "type": "string"
                },
                {
                  "internalType": "string",
                  "name": "_judgeReportSuperMed",
                  "type": "string"
                },
                {
                  "internalType": "uint32",
                  "name": "_buyerTakeAmountInPercentSuperMed",
                  "type": "uint32"
                },
                {
                  "internalType": "uint32",
                  "name": "_buyerTakeAmountInPercent",
                  "type": "uint32"
                },
                {
                  "internalType": "string",
                  "name": "_friendsEmail",
                  "type": "string"
                },
                {
                  "internalType": "string",
                  "name": "_appealTime",
                  "type": "string"
                },
                {
                  "internalType": "string",
                  "name": "_whoCalled",
                  "type": "string"
                }
              ],
              "internalType": "struct BuyInvoicesMainAPp.OrderData[]",
              "name": "address_stakes",
              "type": "tuple[]"
            }
          ],
          "internalType": "struct BuyInvoicesMainAPp.Stakeholder[]",
          "name": "",
          "type": "tuple[]"
        }
      ],
      "stateMutability": "view",
      "type": "function",
      "constant": true
    },
    {
      "inputs": [
        {
          "internalType": "address",
          "name": "_userAddress",
          "type": "address"
        }
      ],
      "name": "getAllOrdersOfOneUser",
      "outputs": [
        {
          "components": [
            {
              "internalType": "uint32",
              "name": "_orderId",
              "type": "uint32"
            },
            {
              "internalType": "uint256",
              "name": "_amount",
              "type": "uint256"
            },
            {
              "internalType": "string",
              "name": "_termsAndCondition",
              "type": "string"
            },
            {
              "internalType": "string",
              "name": "_warrantyFile",
              "type": "string"
            },
            {
              "internalType": "uint32",
              "name": "_apealTime",
              "type": "uint32"
            },
            {
              "internalType": "address",
              "name": "_sellerWalletAddress",
              "type": "address"
            },
            {
              "internalType": "string",
              "name": "_invoiceFile",
              "type": "string"
            },
            {
              "internalType": "string",
              "name": "_customerEmail",
              "type": "string"
            },
            {
              "internalType": "uint32",
              "name": "_mediatorId",
              "type": "uint32"
            },
            {
              "internalType": "bool",
              "name": "_medAccepted",
              "type": "bool"
            },
            {
              "internalType": "string",
              "name": "_judgeReport",
              "type": "string"
            },
            {
              "internalType": "string",
              "name": "_judgeReportFile",
              "type": "string"
            },
            {
              "internalType": "string",
              "name": "_judgeReportFileSuperMed",
              "type": "string"
            },
            {
              "internalType": "string",
              "name": "_judgeReportSuperMed",
              "type": "string"
            },
            {
              "internalType": "uint32",
              "name": "_buyerTakeAmountInPercentSuperMed",
              "type": "uint32"
            },
            {
              "internalType": "uint32",
              "name": "_buyerTakeAmountInPercent",
              "type": "uint32"
            },
            {
              "internalType": "string",
              "name": "_friendsEmail",
              "type": "string"
            },
            {
              "internalType": "string",
              "name": "_appealTime",
              "type": "string"
            },
            {
              "internalType": "string",
              "name": "_whoCalled",
              "type": "string"
            }
          ],
          "internalType": "struct BuyInvoicesMainAPp.OrderData[]",
          "name": "",
          "type": "tuple[]"
        }
      ],
      "stateMutability": "view",
      "type": "function",
      "constant": true
    },
    {
      "inputs": [
        {
          "internalType": "uint32",
          "name": "_index",
          "type": "uint32"
        },
        {
          "internalType": "address",
          "name": "buyerWalletAddress",
          "type": "address"
        }
      ],
      "name": "medAcceptNewCases",
      "outputs": [
        {
          "components": [
            {
              "internalType": "uint32",
              "name": "_orderId",
              "type": "uint32"
            },
            {
              "internalType": "uint256",
              "name": "_amount",
              "type": "uint256"
            },
            {
              "internalType": "string",
              "name": "_termsAndCondition",
              "type": "string"
            },
            {
              "internalType": "string",
              "name": "_warrantyFile",
              "type": "string"
            },
            {
              "internalType": "uint32",
              "name": "_apealTime",
              "type": "uint32"
            },
            {
              "internalType": "address",
              "name": "_sellerWalletAddress",
              "type": "address"
            },
            {
              "internalType": "string",
              "name": "_invoiceFile",
              "type": "string"
            },
            {
              "internalType": "string",
              "name": "_customerEmail",
              "type": "string"
            },
            {
              "internalType": "uint32",
              "name": "_mediatorId",
              "type": "uint32"
            },
            {
              "internalType": "bool",
              "name": "_medAccepted",
              "type": "bool"
            },
            {
              "internalType": "string",
              "name": "_judgeReport",
              "type": "string"
            },
            {
              "internalType": "string",
              "name": "_judgeReportFile",
              "type": "string"
            },
            {
              "internalType": "string",
              "name": "_judgeReportFileSuperMed",
              "type": "string"
            },
            {
              "internalType": "string",
              "name": "_judgeReportSuperMed",
              "type": "string"
            },
            {
              "internalType": "uint32",
              "name": "_buyerTakeAmountInPercentSuperMed",
              "type": "uint32"
            },
            {
              "internalType": "uint32",
              "name": "_buyerTakeAmountInPercent",
              "type": "uint32"
            },
            {
              "internalType": "string",
              "name": "_friendsEmail",
              "type": "string"
            },
            {
              "internalType": "string",
              "name": "_appealTime",
              "type": "string"
            },
            {
              "internalType": "string",
              "name": "_whoCalled",
              "type": "string"
            }
          ],
          "internalType": "struct BuyInvoicesMainAPp.OrderData[]",
          "name": "",
          "type": "tuple[]"
        }
      ],
      "stateMutability": "nonpayable",
      "type": "function"
    },
    {
      "inputs": [
        {
          "internalType": "string",
          "name": "_judgeReport",
          "type": "string"
        },
        {
          "internalType": "string",
          "name": "_judgeReportFile",
          "type": "string"
        },
        {
          "internalType": "address",
          "name": "buyerWalletAddress",
          "type": "address"
        },
        {
          "internalType": "uint32",
          "name": "_index",
          "type": "uint32"
        },
        {
          "internalType": "uint32",
          "name": "_buyerTakeAmountInPercent",
          "type": "uint32"
        }
      ],
      "name": "medJudgeCaseReportSuperMed",
      "outputs": [
        {
          "components": [
            {
              "internalType": "uint32",
              "name": "_orderId",
              "type": "uint32"
            },
            {
              "internalType": "uint256",
              "name": "_amount",
              "type": "uint256"
            },
            {
              "internalType": "string",
              "name": "_termsAndCondition",
              "type": "string"
            },
            {
              "internalType": "string",
              "name": "_warrantyFile",
              "type": "string"
            },
            {
              "internalType": "uint32",
              "name": "_apealTime",
              "type": "uint32"
            },
            {
              "internalType": "address",
              "name": "_sellerWalletAddress",
              "type": "address"
            },
            {
              "internalType": "string",
              "name": "_invoiceFile",
              "type": "string"
            },
            {
              "internalType": "string",
              "name": "_customerEmail",
              "type": "string"
            },
            {
              "internalType": "uint32",
              "name": "_mediatorId",
              "type": "uint32"
            },
            {
              "internalType": "bool",
              "name": "_medAccepted",
              "type": "bool"
            },
            {
              "internalType": "string",
              "name": "_judgeReport",
              "type": "string"
            },
            {
              "internalType": "string",
              "name": "_judgeReportFile",
              "type": "string"
            },
            {
              "internalType": "string",
              "name": "_judgeReportFileSuperMed",
              "type": "string"
            },
            {
              "internalType": "string",
              "name": "_judgeReportSuperMed",
              "type": "string"
            },
            {
              "internalType": "uint32",
              "name": "_buyerTakeAmountInPercentSuperMed",
              "type": "uint32"
            },
            {
              "internalType": "uint32",
              "name": "_buyerTakeAmountInPercent",
              "type": "uint32"
            },
            {
              "internalType": "string",
              "name": "_friendsEmail",
              "type": "string"
            },
            {
              "internalType": "string",
              "name": "_appealTime",
              "type": "string"
            },
            {
              "internalType": "string",
              "name": "_whoCalled",
              "type": "string"
            }
          ],
          "internalType": "struct BuyInvoicesMainAPp.OrderData[]",
          "name": "",
          "type": "tuple[]"
        }
      ],
      "stateMutability": "nonpayable",
      "type": "function"
    },
    {
      "inputs": [
        {
          "internalType": "string",
          "name": "_judgeReport",
          "type": "string"
        },
        {
          "internalType": "string",
          "name": "_judgeReportFile",
          "type": "string"
        },
        {
          "internalType": "address",
          "name": "buyerWalletAddress",
          "type": "address"
        },
        {
          "internalType": "uint32",
          "name": "_index",
          "type": "uint32"
        },
        {
          "internalType": "uint32",
          "name": "_buyerTakeAmountInPercent",
          "type": "uint32"
        },
        {
          "internalType": "string",
          "name": "_appealTime",
          "type": "string"
        }
      ],
      "name": "medJudgeCaseReport",
      "outputs": [
        {
          "components": [
            {
              "internalType": "uint32",
              "name": "_orderId",
              "type": "uint32"
            },
            {
              "internalType": "uint256",
              "name": "_amount",
              "type": "uint256"
            },
            {
              "internalType": "string",
              "name": "_termsAndCondition",
              "type": "string"
            },
            {
              "internalType": "string",
              "name": "_warrantyFile",
              "type": "string"
            },
            {
              "internalType": "uint32",
              "name": "_apealTime",
              "type": "uint32"
            },
            {
              "internalType": "address",
              "name": "_sellerWalletAddress",
              "type": "address"
            },
            {
              "internalType": "string",
              "name": "_invoiceFile",
              "type": "string"
            },
            {
              "internalType": "string",
              "name": "_customerEmail",
              "type": "string"
            },
            {
              "internalType": "uint32",
              "name": "_mediatorId",
              "type": "uint32"
            },
            {
              "internalType": "bool",
              "name": "_medAccepted",
              "type": "bool"
            },
            {
              "internalType": "string",
              "name": "_judgeReport",
              "type": "string"
            },
            {
              "internalType": "string",
              "name": "_judgeReportFile",
              "type": "string"
            },
            {
              "internalType": "string",
              "name": "_judgeReportFileSuperMed",
              "type": "string"
            },
            {
              "internalType": "string",
              "name": "_judgeReportSuperMed",
              "type": "string"
            },
            {
              "internalType": "uint32",
              "name": "_buyerTakeAmountInPercentSuperMed",
              "type": "uint32"
            },
            {
              "internalType": "uint32",
              "name": "_buyerTakeAmountInPercent",
              "type": "uint32"
            },
            {
              "internalType": "string",
              "name": "_friendsEmail",
              "type": "string"
            },
            {
              "internalType": "string",
              "name": "_appealTime",
              "type": "string"
            },
            {
              "internalType": "string",
              "name": "_whoCalled",
              "type": "string"
            }
          ],
          "internalType": "struct BuyInvoicesMainAPp.OrderData[]",
          "name": "",
          "type": "tuple[]"
        }
      ],
      "stateMutability": "nonpayable",
      "type": "function"
    },
    {
      "inputs": [
        {
          "internalType": "uint256",
          "name": "_amount",
          "type": "uint256"
        },
        {
          "internalType": "string",
          "name": "_whoIsCalling",
          "type": "string"
        },
        {
          "internalType": "uint32",
          "name": "_index",
          "type": "uint32"
        },
        {
          "internalType": "address",
          "name": "buyerWalletAddress",
          "type": "address"
        }
      ],
      "name": "payFeeForSuperMediator",
      "outputs": [
        {
          "components": [
            {
              "internalType": "uint32",
              "name": "_orderId",
              "type": "uint32"
            },
            {
              "internalType": "uint256",
              "name": "_amount",
              "type": "uint256"
            },
            {
              "internalType": "string",
              "name": "_termsAndCondition",
              "type": "string"
            },
            {
              "internalType": "string",
              "name": "_warrantyFile",
              "type": "string"
            },
            {
              "internalType": "uint32",
              "name": "_apealTime",
              "type": "uint32"
            },
            {
              "internalType": "address",
              "name": "_sellerWalletAddress",
              "type": "address"
            },
            {
              "internalType": "string",
              "name": "_invoiceFile",
              "type": "string"
            },
            {
              "internalType": "string",
              "name": "_customerEmail",
              "type": "string"
            },
            {
              "internalType": "uint32",
              "name": "_mediatorId",
              "type": "uint32"
            },
            {
              "internalType": "bool",
              "name": "_medAccepted",
              "type": "bool"
            },
            {
              "internalType": "string",
              "name": "_judgeReport",
              "type": "string"
            },
            {
              "internalType": "string",
              "name": "_judgeReportFile",
              "type": "string"
            },
            {
              "internalType": "string",
              "name": "_judgeReportFileSuperMed",
              "type": "string"
            },
            {
              "internalType": "string",
              "name": "_judgeReportSuperMed",
              "type": "string"
            },
            {
              "internalType": "uint32",
              "name": "_buyerTakeAmountInPercentSuperMed",
              "type": "uint32"
            },
            {
              "internalType": "uint32",
              "name": "_buyerTakeAmountInPercent",
              "type": "uint32"
            },
            {
              "internalType": "string",
              "name": "_friendsEmail",
              "type": "string"
            },
            {
              "internalType": "string",
              "name": "_appealTime",
              "type": "string"
            },
            {
              "internalType": "string",
              "name": "_whoCalled",
              "type": "string"
            }
          ],
          "internalType": "struct BuyInvoicesMainAPp.OrderData[]",
          "name": "",
          "type": "tuple[]"
        }
      ],
      "stateMutability": "nonpayable",
      "type": "function"
    },
    {
      "inputs": [
        {
          "internalType": "uint256",
          "name": "_amount",
          "type": "uint256"
        }
      ],
      "name": "payFeeForSuperMediatorr",
      "outputs": [],
      "stateMutability": "nonpayable",
      "type": "function"
    },
    {
      "inputs": [
        {
          "internalType": "address",
          "name": "buyerWalletAddress",
          "type": "address"
        },
        {
          "internalType": "uint32",
          "name": "_index",
          "type": "uint32"
        }
      ],
      "name": "userWithdrawTheirDisputesOrdersCash",
      "outputs": [
        {
          "components": [
            {
              "internalType": "uint32",
              "name": "_orderId",
              "type": "uint32"
            },
            {
              "internalType": "uint256",
              "name": "_amount",
              "type": "uint256"
            },
            {
              "internalType": "string",
              "name": "_termsAndCondition",
              "type": "string"
            },
            {
              "internalType": "string",
              "name": "_warrantyFile",
              "type": "string"
            },
            {
              "internalType": "uint32",
              "name": "_apealTime",
              "type": "uint32"
            },
            {
              "internalType": "address",
              "name": "_sellerWalletAddress",
              "type": "address"
            },
            {
              "internalType": "string",
              "name": "_invoiceFile",
              "type": "string"
            },
            {
              "internalType": "string",
              "name": "_customerEmail",
              "type": "string"
            },
            {
              "internalType": "uint32",
              "name": "_mediatorId",
              "type": "uint32"
            },
            {
              "internalType": "bool",
              "name": "_medAccepted",
              "type": "bool"
            },
            {
              "internalType": "string",
              "name": "_judgeReport",
              "type": "string"
            },
            {
              "internalType": "string",
              "name": "_judgeReportFile",
              "type": "string"
            },
            {
              "internalType": "string",
              "name": "_judgeReportFileSuperMed",
              "type": "string"
            },
            {
              "internalType": "string",
              "name": "_judgeReportSuperMed",
              "type": "string"
            },
            {
              "internalType": "uint32",
              "name": "_buyerTakeAmountInPercentSuperMed",
              "type": "uint32"
            },
            {
              "internalType": "uint32",
              "name": "_buyerTakeAmountInPercent",
              "type": "uint32"
            },
            {
              "internalType": "string",
              "name": "_friendsEmail",
              "type": "string"
            },
            {
              "internalType": "string",
              "name": "_appealTime",
              "type": "string"
            },
            {
              "internalType": "string",
              "name": "_whoCalled",
              "type": "string"
            }
          ],
          "internalType": "struct BuyInvoicesMainAPp.OrderData[]",
          "name": "",
          "type": "tuple[]"
        }
      ],
      "stateMutability": "nonpayable",
      "type": "function"
    },
    {
      "inputs": [
        {
          "internalType": "uint32",
          "name": "_orderId",
          "type": "uint32"
        },
        {
          "internalType": "uint256",
          "name": "_amount",
          "type": "uint256"
        },
        {
          "internalType": "string",
          "name": "_termsAndCondition",
          "type": "string"
        },
        {
          "internalType": "string",
          "name": "_warrantyFile",
          "type": "string"
        },
        {
          "internalType": "uint32",
          "name": "_apealTime",
          "type": "uint32"
        },
        {
          "internalType": "address",
          "name": "_sellerWalletAddress",
          "type": "address"
        },
        {
          "internalType": "string",
          "name": "_invoiceFile",
          "type": "string"
        },
        {
          "internalType": "string",
          "name": "_customerEmail",
          "type": "string"
        },
        {
          "internalType": "uint32",
          "name": "_mediatorId",
          "type": "uint32"
        },
        {
          "internalType": "bool",
          "name": "_medAccepted",
          "type": "bool"
        },
        {
          "internalType": "string",
          "name": "_friendsEmail",
          "type": "string"
        }
      ],
      "name": "_saveOrdersDataOfUser",
      "outputs": [],
      "stateMutability": "nonpayable",
      "type": "function"
    },
    {
      "inputs": [
        {
          "internalType": "uint32",
          "name": "_orderId",
          "type": "uint32"
        },
        {
          "internalType": "uint256",
          "name": "_amount",
          "type": "uint256"
        },
        {
          "internalType": "string",
          "name": "_termsAndCondition",
          "type": "string"
        },
        {
          "internalType": "string",
          "name": "_warrantyFile",
          "type": "string"
        },
        {
          "internalType": "uint32",
          "name": "_apealTime",
          "type": "uint32"
        },
        {
          "internalType": "address",
          "name": "_sellerWalletAddress",
          "type": "address"
        },
        {
          "internalType": "string",
          "name": "_invoiceFile",
          "type": "string"
        },
        {
          "internalType": "string",
          "name": "_customerEmail",
          "type": "string"
        },
        {
          "internalType": "uint32",
          "name": "_mediatorId",
          "type": "uint32"
        },
        {
          "internalType": "bool",
          "name": "_medAccepted",
          "type": "bool"
        },
        {
          "internalType": "string",
          "name": "_friendsEmail",
          "type": "string"
        }
      ],
      "name": "buyWithFTP",
      "outputs": [],
      "stateMutability": "nonpayable",
      "type": "function"
    },
    {
      "inputs": [
        {
          "internalType": "uint32",
          "name": "_orderId",
          "type": "uint32"
        },
        {
          "internalType": "string",
          "name": "_termsAndCondition",
          "type": "string"
        },
        {
          "internalType": "string",
          "name": "_warrantyFile",
          "type": "string"
        },
        {
          "internalType": "uint32",
          "name": "_apealTime",
          "type": "uint32"
        },
        {
          "internalType": "address",
          "name": "_sellerWalletAddress",
          "type": "address"
        },
        {
          "internalType": "string",
          "name": "_invoiceFile",
          "type": "string"
        },
        {
          "internalType": "string",
          "name": "_customerEmail",
          "type": "string"
        },
        {
          "internalType": "uint32",
          "name": "_mediatorId",
          "type": "uint32"
        },
        {
          "internalType": "bool",
          "name": "_medAccepted",
          "type": "bool"
        },
        {
          "internalType": "string",
          "name": "_friendsEmail",
          "type": "string"
        }
      ],
      "name": "buyWithBNB",
      "outputs": [],
      "stateMutability": "payable",
      "type": "function",
      "payable": true
    }
  ],
  "bytecode": "0x60e060405260236080818152906200583e60a039805162000029916000916020909101906200008f565b503480156200003757600080fd5b5060405162005861380380620058618339810160408190526200005a9162000135565b600480546001908101825560009190915280546001600160a01b0319166001600160a01b0392909216919091179055620001a2565b8280546200009d9062000165565b90600052602060002090601f016020900481019282620000c157600085556200010c565b82601f10620000dc57805160ff19168380011785556200010c565b828001600101855582156200010c579182015b828111156200010c578251825591602001919060010190620000ef565b506200011a9291506200011e565b5090565b5b808211156200011a57600081556001016200011f565b60006020828403121562000147578081fd5b81516001600160a01b03811681146200015e578182fd5b9392505050565b600181811c908216806200017a57607f821691505b602082108114156200019c57634e487b7160e01b600052602260045260246000fd5b50919050565b61568c80620001b26000396000f3fe6080604052600436106100fe5760003560e01c806347f3d0c011610095578063bea4e5b811610064578063bea4e5b8146102b4578063cf591db5146102d4578063f2b8e5ba146102f4578063fc0c546a14610314578063fd5e6dd114610334576100fe565b806347f3d0c0146102325780639529441e14610252578063abf940c814610274578063b8e2de7114610294576100fe565b80631d6b8b72116100d15780631d6b8b72146101a55780632f3726c3146101dd5780633b07c987146101ff57806342c518891461021f576100fe565b806306fdde031461010357806312065fe01461012e57806316934fc41461014b5780631d601be214610178575b600080fd5b34801561010f57600080fd5b50610118610354565b6040516101259190615575565b60405180910390f35b34801561013a57600080fd5b50475b604051908152602001610125565b34801561015757600080fd5b5061013d610166366004614bdf565b60026020526000908152604090205481565b34801561018457600080fd5b50610198610193366004614dc6565b6103e2565b60405161012591906150f4565b3480156101b157600080fd5b506101c56101c0366004614d96565b610cfc565b6040516001600160a01b039091168152602001610125565b3480156101e957600080fd5b506101fd6101f8366004614f76565b610d2b565b005b34801561020b57600080fd5b5061019861021a366004614ce1565b610e5c565b6101fd61022d366004614e55565b6117e6565b34801561023e57600080fd5b5061019861024d366004614bdf565b611805565b34801561025e57600080fd5b50610267611f8d565b604051610125919061530e565b34801561028057600080fd5b5061019861028f366004614c00565b61272d565b3480156102a057600080fd5b506101fd6102af366004614f76565b61319f565b3480156102c057600080fd5b506101986102cf366004614e2c565b613545565b3480156102e057600080fd5b506101986102ef366004614c4e565b613d4e565b34801561030057600080fd5b506101fd61030f366004614d96565b6148cd565b34801561032057600080fd5b506001546101c5906001600160a01b031681565b34801561034057600080fd5b506101c561034f366004614d96565b6149e1565b60008054610361906155de565b80601f016020809104026020016040519081016040528092919081815260200182805461038d906155de565b80156103da5780601f106103af576101008083540402835291602001916103da565b820191906000526020600020905b8154815290600101906020018083116103bd57829003601f168201915b505050505081565b6001546040516370a0823160e01b815233600482015260609186916001600160a01b03909116906370a082319060240160206040518083038186803b15801561042a57600080fd5b505afa15801561043e573d6000803e3d6000fd5b505050506040513d601f19601f820116820180604052508101906104629190614dae565b101561046d57600080fd5b6001600160a01b03821660009081526002602052604090205460048054869190839081106104ab57634e487b7160e01b600052603260045260246000fd5b90600052602060002090600202016001018563ffffffff16815481106104e157634e487b7160e01b600052603260045260246000fd5b9060005260206000209060100201600f019080519060200190610505929190614a89565b506001546040516323b872dd60e01b8152336004820152306024820152604481018890526001600160a01b03909116906323b872dd90606401602060405180830381600087803b15801561055857600080fd5b505af115801561056c573d6000803e3d6000fd5b505050506040513d601f19601f820116820180604052508101906105909190614c32565b50600481815481106105b257634e487b7160e01b600052603260045260246000fd5b9060005260206000209060020201600101805480602002602001604051908101604052809291908181526020016000905b82821015610ced576000848152602090819020604080516102608101825260108602909201805463ffffffff16835260018101549383019390935260028301805492939291840191610634906155de565b80601f0160208091040260200160405190810160405280929190818152602001828054610660906155de565b80156106ad5780601f10610682576101008083540402835291602001916106ad565b820191906000526020600020905b81548152906001019060200180831161069057829003601f168201915b505050505081526020016003820180546106c6906155de565b80601f01602080910402602001604051908101604052809291908181526020018280546106f2906155de565b801561073f5780601f106107145761010080835404028352916020019161073f565b820191906000526020600020905b81548152906001019060200180831161072257829003601f168201915b5050509183525050600482015463ffffffff81166020830152600160201b90046001600160a01b03166040820152600582018054606090920191610782906155de565b80601f01602080910402602001604051908101604052809291908181526020018280546107ae906155de565b80156107fb5780601f106107d0576101008083540402835291602001916107fb565b820191906000526020600020905b8154815290600101906020018083116107de57829003601f168201915b50505050508152602001600682018054610814906155de565b80601f0160208091040260200160405190810160405280929190818152602001828054610840906155de565b801561088d5780601f106108625761010080835404028352916020019161088d565b820191906000526020600020905b81548152906001019060200180831161087057829003601f168201915b5050509183525050600782015463ffffffff81166020830152600160201b900460ff16151560408201526008820180546060909201916108cc906155de565b80601f01602080910402602001604051908101604052809291908181526020018280546108f8906155de565b80156109455780601f1061091a57610100808354040283529160200191610945565b820191906000526020600020905b81548152906001019060200180831161092857829003601f168201915b5050505050815260200160098201805461095e906155de565b80601f016020809104026020016040519081016040528092919081815260200182805461098a906155de565b80156109d75780601f106109ac576101008083540402835291602001916109d7565b820191906000526020600020905b8154815290600101906020018083116109ba57829003601f168201915b50505050508152602001600a820180546109f0906155de565b80601f0160208091040260200160405190810160405280929190818152602001828054610a1c906155de565b8015610a695780601f10610a3e57610100808354040283529160200191610a69565b820191906000526020600020905b815481529060010190602001808311610a4c57829003601f168201915b50505050508152602001600b82018054610a82906155de565b80601f0160208091040260200160405190810160405280929190818152602001828054610aae906155de565b8015610afb5780601f10610ad057610100808354040283529160200191610afb565b820191906000526020600020905b815481529060010190602001808311610ade57829003601f168201915b5050509183525050600c82015463ffffffff8082166020840152600160201b909104166040820152600d82018054606090920191610b38906155de565b80601f0160208091040260200160405190810160405280929190818152602001828054610b64906155de565b8015610bb15780601f10610b8657610100808354040283529160200191610bb1565b820191906000526020600020905b815481529060010190602001808311610b9457829003601f168201915b50505050508152602001600e82018054610bca906155de565b80601f0160208091040260200160405190810160405280929190818152602001828054610bf6906155de565b8015610c435780601f10610c1857610100808354040283529160200191610c43565b820191906000526020600020905b815481529060010190602001808311610c2657829003601f168201915b50505050508152602001600f82018054610c5c906155de565b80601f0160208091040260200160405190810160405280929190818152602001828054610c88906155de565b8015610cd55780601f10610caa57610100808354040283529160200191610cd5565b820191906000526020600020905b815481529060010190602001808311610cb857829003601f168201915b505050505081525050815260200190600101906105e3565b50505050915050949350505050565b60048181548110610d0c57600080fd5b60009182526020909120600290910201546001600160a01b0316905081565b6001546040516370a0823160e01b81523360048201528b916001600160a01b0316906370a082319060240160206040518083038186803b158015610d6e57600080fd5b505afa158015610d82573d6000803e3d6000fd5b505050506040513d601f19601f82011682018060405250810190610da69190614dae565b1015610db157600080fd5b6001546040516323b872dd60e01b8152336004820152306024820152604481018c90526001600160a01b03909116906323b872dd90606401602060405180830381600087803b158015610e0357600080fd5b505af1158015610e17573d6000803e3d6000fd5b505050506040513d601f19601f82011682018060405250810190610e3b9190614c32565b50610e4f8b8b8b8b8b8b8b8b8b8b8b61319f565b5050505050505050505050565b6001600160a01b0384166000908152600260205260409020546004805460609291899183908110610e9d57634e487b7160e01b600052603260045260246000fd5b90600052602060002090600202016001018663ffffffff1681548110610ed357634e487b7160e01b600052603260045260246000fd5b90600052602060002090601002016008019080519060200190610ef7929190614a89565b508660048281548110610f1a57634e487b7160e01b600052603260045260246000fd5b90600052602060002090600202016001018663ffffffff1681548110610f5057634e487b7160e01b600052603260045260246000fd5b90600052602060002090601002016009019080519060200190610f74929190614a89565b508360048281548110610f9757634e487b7160e01b600052603260045260246000fd5b90600052602060002090600202016001018663ffffffff1681548110610fcd57634e487b7160e01b600052603260045260246000fd5b9060005260206000209060100201600c0160046101000a81548163ffffffff021916908363ffffffff160217905550826004828154811061101e57634e487b7160e01b600052603260045260246000fd5b90600052602060002090600202016001018663ffffffff168154811061105457634e487b7160e01b600052603260045260246000fd5b9060005260206000209060100201600e019080519060200190611078929190614a89565b506004818154811061109a57634e487b7160e01b600052603260045260246000fd5b9060005260206000209060020201600101805480602002602001604051908101604052809291908181526020016000905b828210156117d5576000848152602090819020604080516102608101825260108602909201805463ffffffff1683526001810154938301939093526002830180549293929184019161111c906155de565b80601f0160208091040260200160405190810160405280929190818152602001828054611148906155de565b80156111955780601f1061116a57610100808354040283529160200191611195565b820191906000526020600020905b81548152906001019060200180831161117857829003601f168201915b505050505081526020016003820180546111ae906155de565b80601f01602080910402602001604051908101604052809291908181526020018280546111da906155de565b80156112275780601f106111fc57610100808354040283529160200191611227565b820191906000526020600020905b81548152906001019060200180831161120a57829003601f168201915b5050509183525050600482015463ffffffff81166020830152600160201b90046001600160a01b0316604082015260058201805460609092019161126a906155de565b80601f0160208091040260200160405190810160405280929190818152602001828054611296906155de565b80156112e35780601f106112b8576101008083540402835291602001916112e3565b820191906000526020600020905b8154815290600101906020018083116112c657829003601f168201915b505050505081526020016006820180546112fc906155de565b80601f0160208091040260200160405190810160405280929190818152602001828054611328906155de565b80156113755780601f1061134a57610100808354040283529160200191611375565b820191906000526020600020905b81548152906001019060200180831161135857829003601f168201915b5050509183525050600782015463ffffffff81166020830152600160201b900460ff16151560408201526008820180546060909201916113b4906155de565b80601f01602080910402602001604051908101604052809291908181526020018280546113e0906155de565b801561142d5780601f106114025761010080835404028352916020019161142d565b820191906000526020600020905b81548152906001019060200180831161141057829003601f168201915b50505050508152602001600982018054611446906155de565b80601f0160208091040260200160405190810160405280929190818152602001828054611472906155de565b80156114bf5780601f10611494576101008083540402835291602001916114bf565b820191906000526020600020905b8154815290600101906020018083116114a257829003601f168201915b50505050508152602001600a820180546114d8906155de565b80601f0160208091040260200160405190810160405280929190818152602001828054611504906155de565b80156115515780601f1061152657610100808354040283529160200191611551565b820191906000526020600020905b81548152906001019060200180831161153457829003601f168201915b50505050508152602001600b8201805461156a906155de565b80601f0160208091040260200160405190810160405280929190818152602001828054611596906155de565b80156115e35780601f106115b8576101008083540402835291602001916115e3565b820191906000526020600020905b8154815290600101906020018083116115c657829003601f168201915b5050509183525050600c82015463ffffffff8082166020840152600160201b909104166040820152600d82018054606090920191611620906155de565b80601f016020809104026020016040519081016040528092919081815260200182805461164c906155de565b80156116995780601f1061166e57610100808354040283529160200191611699565b820191906000526020600020905b81548152906001019060200180831161167c57829003601f168201915b50505050508152602001600e820180546116b2906155de565b80601f01602080910402602001604051908101604052809291908181526020018280546116de906155de565b801561172b5780601f106117005761010080835404028352916020019161172b565b820191906000526020600020905b81548152906001019060200180831161170e57829003601f168201915b50505050508152602001600f82018054611744906155de565b80601f0160208091040260200160405190810160405280929190818152602001828054611770906155de565b80156117bd5780601f10611792576101008083540402835291602001916117bd565b820191906000526020600020905b8154815290600101906020018083116117a057829003601f168201915b505050505081525050815260200190600101906110cb565b505050509150509695505050505050565b6117f98a348b8b8b8b8b8b8b8b8b61319f565b50505050505050505050565b6001600160a01b0381166000908152600260205260409020546004805460609291908290811061184557634e487b7160e01b600052603260045260246000fd5b9060005260206000209060020201600101805480602002602001604051908101604052809291908181526020016000905b82821015611f80576000848152602090819020604080516102608101825260108602909201805463ffffffff168352600181015493830193909352600283018054929392918401916118c7906155de565b80601f01602080910402602001604051908101604052809291908181526020018280546118f3906155de565b80156119405780601f1061191557610100808354040283529160200191611940565b820191906000526020600020905b81548152906001019060200180831161192357829003601f168201915b50505050508152602001600382018054611959906155de565b80601f0160208091040260200160405190810160405280929190818152602001828054611985906155de565b80156119d25780601f106119a7576101008083540402835291602001916119d2565b820191906000526020600020905b8154815290600101906020018083116119b557829003601f168201915b5050509183525050600482015463ffffffff81166020830152600160201b90046001600160a01b03166040820152600582018054606090920191611a15906155de565b80601f0160208091040260200160405190810160405280929190818152602001828054611a41906155de565b8015611a8e5780601f10611a6357610100808354040283529160200191611a8e565b820191906000526020600020905b815481529060010190602001808311611a7157829003601f168201915b50505050508152602001600682018054611aa7906155de565b80601f0160208091040260200160405190810160405280929190818152602001828054611ad3906155de565b8015611b205780601f10611af557610100808354040283529160200191611b20565b820191906000526020600020905b815481529060010190602001808311611b0357829003601f168201915b5050509183525050600782015463ffffffff81166020830152600160201b900460ff1615156040820152600882018054606090920191611b5f906155de565b80601f0160208091040260200160405190810160405280929190818152602001828054611b8b906155de565b8015611bd85780601f10611bad57610100808354040283529160200191611bd8565b820191906000526020600020905b815481529060010190602001808311611bbb57829003601f168201915b50505050508152602001600982018054611bf1906155de565b80601f0160208091040260200160405190810160405280929190818152602001828054611c1d906155de565b8015611c6a5780601f10611c3f57610100808354040283529160200191611c6a565b820191906000526020600020905b815481529060010190602001808311611c4d57829003601f168201915b50505050508152602001600a82018054611c83906155de565b80601f0160208091040260200160405190810160405280929190818152602001828054611caf906155de565b8015611cfc5780601f10611cd157610100808354040283529160200191611cfc565b820191906000526020600020905b815481529060010190602001808311611cdf57829003601f168201915b50505050508152602001600b82018054611d15906155de565b80601f0160208091040260200160405190810160405280929190818152602001828054611d41906155de565b8015611d8e5780601f10611d6357610100808354040283529160200191611d8e565b820191906000526020600020905b815481529060010190602001808311611d7157829003601f168201915b5050509183525050600c82015463ffffffff8082166020840152600160201b909104166040820152600d82018054606090920191611dcb906155de565b80601f0160208091040260200160405190810160405280929190818152602001828054611df7906155de565b8015611e445780601f10611e1957610100808354040283529160200191611e44565b820191906000526020600020905b815481529060010190602001808311611e2757829003601f168201915b50505050508152602001600e82018054611e5d906155de565b80601f0160208091040260200160405190810160405280929190818152602001828054611e89906155de565b8015611ed65780601f10611eab57610100808354040283529160200191611ed6565b820191906000526020600020905b815481529060010190602001808311611eb957829003601f168201915b50505050508152602001600f82018054611eef906155de565b80601f0160208091040260200160405190810160405280929190818152602001828054611f1b906155de565b8015611f685780601f10611f3d57610100808354040283529160200191611f68565b820191906000526020600020905b815481529060010190602001808311611f4b57829003601f168201915b50505050508152505081526020019060010190611876565b505050509150505b919050565b60606004805480602002602001604051908101604052809291908181526020016000905b8282101561272457600084815260208082206040805180820182526002870290920180546001600160a01b03168352600181018054835181870281018701909452808452939591948681019491929084015b8282101561270d576000848152602090819020604080516102608101825260108602909201805463ffffffff16835260018101549383019390935260028301805492939291840191612054906155de565b80601f0160208091040260200160405190810160405280929190818152602001828054612080906155de565b80156120cd5780601f106120a2576101008083540402835291602001916120cd565b820191906000526020600020905b8154815290600101906020018083116120b057829003601f168201915b505050505081526020016003820180546120e6906155de565b80601f0160208091040260200160405190810160405280929190818152602001828054612112906155de565b801561215f5780601f106121345761010080835404028352916020019161215f565b820191906000526020600020905b81548152906001019060200180831161214257829003601f168201915b5050509183525050600482015463ffffffff81166020830152600160201b90046001600160a01b031660408201526005820180546060909201916121a2906155de565b80601f01602080910402602001604051908101604052809291908181526020018280546121ce906155de565b801561221b5780601f106121f05761010080835404028352916020019161221b565b820191906000526020600020905b8154815290600101906020018083116121fe57829003601f168201915b50505050508152602001600682018054612234906155de565b80601f0160208091040260200160405190810160405280929190818152602001828054612260906155de565b80156122ad5780601f10612282576101008083540402835291602001916122ad565b820191906000526020600020905b81548152906001019060200180831161229057829003601f168201915b5050509183525050600782015463ffffffff81166020830152600160201b900460ff16151560408201526008820180546060909201916122ec906155de565b80601f0160208091040260200160405190810160405280929190818152602001828054612318906155de565b80156123655780601f1061233a57610100808354040283529160200191612365565b820191906000526020600020905b81548152906001019060200180831161234857829003601f168201915b5050505050815260200160098201805461237e906155de565b80601f01602080910402602001604051908101604052809291908181526020018280546123aa906155de565b80156123f75780601f106123cc576101008083540402835291602001916123f7565b820191906000526020600020905b8154815290600101906020018083116123da57829003601f168201915b50505050508152602001600a82018054612410906155de565b80601f016020809104026020016040519081016040528092919081815260200182805461243c906155de565b80156124895780601f1061245e57610100808354040283529160200191612489565b820191906000526020600020905b81548152906001019060200180831161246c57829003601f168201915b50505050508152602001600b820180546124a2906155de565b80601f01602080910402602001604051908101604052809291908181526020018280546124ce906155de565b801561251b5780601f106124f05761010080835404028352916020019161251b565b820191906000526020600020905b8154815290600101906020018083116124fe57829003601f168201915b5050509183525050600c82015463ffffffff8082166020840152600160201b909104166040820152600d82018054606090920191612558906155de565b80601f0160208091040260200160405190810160405280929190818152602001828054612584906155de565b80156125d15780601f106125a6576101008083540402835291602001916125d1565b820191906000526020600020905b8154815290600101906020018083116125b457829003601f168201915b50505050508152602001600e820180546125ea906155de565b80601f0160208091040260200160405190810160405280929190818152602001828054612616906155de565b80156126635780601f1061263857610100808354040283529160200191612663565b820191906000526020600020905b81548152906001019060200180831161264657829003601f168201915b50505050508152602001600f8201805461267c906155de565b80601f01602080910402602001604051908101604052809291908181526020018280546126a8906155de565b80156126f55780601f106126ca576101008083540402835291602001916126f5565b820191906000526020600020905b8154815290600101906020018083116126d857829003601f168201915b50505050508152505081526020019060010190612003565b505050508152505081526020019060010190611fb1565b50505050905090565b6001600160a01b0382166000908152600260205260408120546004805460609391908390811061276d57634e487b7160e01b600052603260045260246000fd5b90600052602060002090600202016001018463ffffffff16815481106127a357634e487b7160e01b600052603260045260246000fd5b90600052602060002090601002016001015490506000600483815481106127da57634e487b7160e01b600052603260045260246000fd5b90600052602060002090600202016001018563ffffffff168154811061281057634e487b7160e01b600052603260045260246000fd5b9060005260206000209060100201600c0160049054906101000a900463ffffffff1663ffffffff16905060006004848154811061285d57634e487b7160e01b600052603260045260246000fd5b90600052602060002090600202016001018663ffffffff168154811061289357634e487b7160e01b600052603260045260246000fd5b6000918252602090912060109091020160040154600160201b90046001600160a01b03908116915087163314156129a4578160641415612909576040516001600160a01b0388169084156108fc029085906000818181858888f19350505050158015612903573d6000803e3d6000fd5b5061299f565b8160321415612952576001600160a01b0387166108fc61292a600286615588565b6040518115909202916000818181858888f19350505050158015612903573d6000803e3d6000fd5b6001600160a01b0387166108fc606461296b85876155a8565b6129759190615588565b6040518115909202916000818181858888f1935050505015801561299d573d6000803e3d6000fd5b505b612a33565b336001600160a01b0382161415612a335781603214156129d6576001600160a01b0381166108fc612975600286615588565b60006129e38360646155c7565b90506001600160a01b0382166108fc60646129fe84886155a8565b612a089190615588565b6040518115909202916000818181858888f19350505050158015612a30573d6000803e3d6000fd5b50505b60048481548110612a5457634e487b7160e01b600052603260045260246000fd5b9060005260206000209060020201600101805480602002602001604051908101604052809291908181526020016000905b8282101561318f576000848152602090819020604080516102608101825260108602909201805463ffffffff16835260018101549383019390935260028301805492939291840191612ad6906155de565b80601f0160208091040260200160405190810160405280929190818152602001828054612b02906155de565b8015612b4f5780601f10612b2457610100808354040283529160200191612b4f565b820191906000526020600020905b815481529060010190602001808311612b3257829003601f168201915b50505050508152602001600382018054612b68906155de565b80601f0160208091040260200160405190810160405280929190818152602001828054612b94906155de565b8015612be15780601f10612bb657610100808354040283529160200191612be1565b820191906000526020600020905b815481529060010190602001808311612bc457829003601f168201915b5050509183525050600482015463ffffffff81166020830152600160201b90046001600160a01b03166040820152600582018054606090920191612c24906155de565b80601f0160208091040260200160405190810160405280929190818152602001828054612c50906155de565b8015612c9d5780601f10612c7257610100808354040283529160200191612c9d565b820191906000526020600020905b815481529060010190602001808311612c8057829003601f168201915b50505050508152602001600682018054612cb6906155de565b80601f0160208091040260200160405190810160405280929190818152602001828054612ce2906155de565b8015612d2f5780601f10612d0457610100808354040283529160200191612d2f565b820191906000526020600020905b815481529060010190602001808311612d1257829003601f168201915b5050509183525050600782015463ffffffff81166020830152600160201b900460ff1615156040820152600882018054606090920191612d6e906155de565b80601f0160208091040260200160405190810160405280929190818152602001828054612d9a906155de565b8015612de75780601f10612dbc57610100808354040283529160200191612de7565b820191906000526020600020905b815481529060010190602001808311612dca57829003601f168201915b50505050508152602001600982018054612e00906155de565b80601f0160208091040260200160405190810160405280929190818152602001828054612e2c906155de565b8015612e795780601f10612e4e57610100808354040283529160200191612e79565b820191906000526020600020905b815481529060010190602001808311612e5c57829003601f168201915b50505050508152602001600a82018054612e92906155de565b80601f0160208091040260200160405190810160405280929190818152602001828054612ebe906155de565b8015612f0b5780601f10612ee057610100808354040283529160200191612f0b565b820191906000526020600020905b815481529060010190602001808311612eee57829003601f168201915b50505050508152602001600b82018054612f24906155de565b80601f0160208091040260200160405190810160405280929190818152602001828054612f50906155de565b8015612f9d5780601f10612f7257610100808354040283529160200191612f9d565b820191906000526020600020905b815481529060010190602001808311612f8057829003601f168201915b5050509183525050600c82015463ffffffff8082166020840152600160201b909104166040820152600d82018054606090920191612fda906155de565b80601f0160208091040260200160405190810160405280929190818152602001828054613006906155de565b80156130535780601f1061302857610100808354040283529160200191613053565b820191906000526020600020905b81548152906001019060200180831161303657829003601f168201915b50505050508152602001600e8201805461306c906155de565b80601f0160208091040260200160405190810160405280929190818152602001828054613098906155de565b80156130e55780601f106130ba576101008083540402835291602001916130e5565b820191906000526020600020905b8154815290600101906020018083116130c857829003601f168201915b50505050508152602001600f820180546130fe906155de565b80601f016020809104026020016040519081016040528092919081815260200182805461312a906155de565b80156131775780601f1061314c57610100808354040283529160200191613177565b820191906000526020600020905b81548152906001019060200180831161315a57829003601f168201915b50505050508152505081526020019060010190612a85565b5050505094505050505092915050565b33600090815260026020526040902054806131c0576131bd33614a0b565b90505b600481815481106131e157634e487b7160e01b600052603260045260246000fd5b90600052602060002090600202016001016040518061026001604052808e63ffffffff1681526020018d81526020018c81526020018b81526020018a63ffffffff168152602001896001600160a01b031681526020018881526020018781526020018663ffffffff1681526020018515158152602001604051806020016040528060008152508152602001604051806020016040528060008152508152602001604051806020016040528060008152508152602001604051806020016040528060008152508152602001600063ffffffff168152602001600063ffffffff16815260200184815260200160405180602001604052806000815250815260200160405180602001604052806000815250815250908060018154018082558091505060019003906000526020600020906010020160009091909190915060008201518160000160006101000a81548163ffffffff021916908363ffffffff160217905550602082015181600101556040820151816002019080519060200190613369929190614a89565b5060608201518051613385916003840191602090910190614a89565b50608082015160048201805460a08501516001600160a01b0316600160201b026001600160c01b031990911663ffffffff9093169290921791909117905560c082015180516133de916005840191602090910190614a89565b5060e082015180516133fa916006840191602090910190614a89565b506101008201516007820180546101208501511515600160201b0264ffffffffff1990911663ffffffff90931692909217919091179055610140820151805161344d916008840191602090910190614a89565b50610160820151805161346a916009840191602090910190614a89565b50610180820151805161348791600a840191602090910190614a89565b506101a082015180516134a491600b840191602090910190614a89565b506101c0820151600c820180546101e085015163ffffffff908116600160201b0267ffffffffffffffff1990921693169290921791909117905561020082015180516134fa91600d840191602090910190614a89565b50610220820151805161351791600e840191602090910190614a89565b50610240820151805161353491600f840191602090910190614a89565b505050505050505050505050505050565b6001600160a01b03811660009081526002602052604090205460048054606092916001918390811061358757634e487b7160e01b600052603260045260246000fd5b90600052602060002090600202016001018563ffffffff16815481106135bd57634e487b7160e01b600052603260045260246000fd5b906000526020600020906010020160070160046101000a81548160ff0219169083151502179055506004818154811061360657634e487b7160e01b600052603260045260246000fd5b9060005260206000209060020201600101805480602002602001604051908101604052809291908181526020016000905b82821015613d41576000848152602090819020604080516102608101825260108602909201805463ffffffff16835260018101549383019390935260028301805492939291840191613688906155de565b80601f01602080910402602001604051908101604052809291908181526020018280546136b4906155de565b80156137015780601f106136d657610100808354040283529160200191613701565b820191906000526020600020905b8154815290600101906020018083116136e457829003601f168201915b5050505050815260200160038201805461371a906155de565b80601f0160208091040260200160405190810160405280929190818152602001828054613746906155de565b80156137935780601f1061376857610100808354040283529160200191613793565b820191906000526020600020905b81548152906001019060200180831161377657829003601f168201915b5050509183525050600482015463ffffffff81166020830152600160201b90046001600160a01b031660408201526005820180546060909201916137d6906155de565b80601f0160208091040260200160405190810160405280929190818152602001828054613802906155de565b801561384f5780601f106138245761010080835404028352916020019161384f565b820191906000526020600020905b81548152906001019060200180831161383257829003601f168201915b50505050508152602001600682018054613868906155de565b80601f0160208091040260200160405190810160405280929190818152602001828054613894906155de565b80156138e15780601f106138b6576101008083540402835291602001916138e1565b820191906000526020600020905b8154815290600101906020018083116138c457829003601f168201915b5050509183525050600782015463ffffffff81166020830152600160201b900460ff1615156040820152600882018054606090920191613920906155de565b80601f016020809104026020016040519081016040528092919081815260200182805461394c906155de565b80156139995780601f1061396e57610100808354040283529160200191613999565b820191906000526020600020905b81548152906001019060200180831161397c57829003601f168201915b505050505081526020016009820180546139b2906155de565b80601f01602080910402602001604051908101604052809291908181526020018280546139de906155de565b8015613a2b5780601f10613a0057610100808354040283529160200191613a2b565b820191906000526020600020905b815481529060010190602001808311613a0e57829003601f168201915b50505050508152602001600a82018054613a44906155de565b80601f0160208091040260200160405190810160405280929190818152602001828054613a70906155de565b8015613abd5780601f10613a9257610100808354040283529160200191613abd565b820191906000526020600020905b815481529060010190602001808311613aa057829003601f168201915b50505050508152602001600b82018054613ad6906155de565b80601f0160208091040260200160405190810160405280929190818152602001828054613b02906155de565b8015613b4f5780601f10613b2457610100808354040283529160200191613b4f565b820191906000526020600020905b815481529060010190602001808311613b3257829003601f168201915b5050509183525050600c82015463ffffffff8082166020840152600160201b909104166040820152600d82018054606090920191613b8c906155de565b80601f0160208091040260200160405190810160405280929190818152602001828054613bb8906155de565b8015613c055780601f10613bda57610100808354040283529160200191613c05565b820191906000526020600020905b815481529060010190602001808311613be857829003601f168201915b50505050508152602001600e82018054613c1e906155de565b80601f0160208091040260200160405190810160405280929190818152602001828054613c4a906155de565b8015613c975780601f10613c6c57610100808354040283529160200191613c97565b820191906000526020600020905b815481529060010190602001808311613c7a57829003601f168201915b50505050508152602001600f82018054613cb0906155de565b80601f0160208091040260200160405190810160405280929190818152602001828054613cdc906155de565b8015613d295780601f10613cfe57610100808354040283529160200191613d29565b820191906000526020600020905b815481529060010190602001808311613d0c57829003601f168201915b50505050508152505081526020019060010190613637565b5050505091505092915050565b6001600160a01b0383166000908152600260205260409020546004805460609291889183908110613d8f57634e487b7160e01b600052603260045260246000fd5b90600052602060002090600202016001018563ffffffff1681548110613dc557634e487b7160e01b600052603260045260246000fd5b9060005260206000209060100201600b019080519060200190613de9929190614a89565b508560048281548110613e0c57634e487b7160e01b600052603260045260246000fd5b90600052602060002090600202016001018563ffffffff1681548110613e4257634e487b7160e01b600052603260045260246000fd5b9060005260206000209060100201600a019080519060200190613e66929190614a89565b508260048281548110613e8957634e487b7160e01b600052603260045260246000fd5b90600052602060002090600202016001018563ffffffff1681548110613ebf57634e487b7160e01b600052603260045260246000fd5b9060005260206000209060100201600c0160006101000a81548163ffffffff021916908363ffffffff160217905550600060048281548110613f1157634e487b7160e01b600052603260045260246000fd5b90600052602060002090600202016001018563ffffffff1681548110613f4757634e487b7160e01b600052603260045260246000fd5b906000526020600020906010020160010154905060008463ffffffff169050600060048481548110613f8957634e487b7160e01b600052603260045260246000fd5b90600052602060002090600202016001018763ffffffff1681548110613fbf57634e487b7160e01b600052603260045260246000fd5b906000526020600020906010020160040160049054906101000a90046001600160a01b03169050816064141561402b576040516001600160a01b0389169084156108fc029085906000818181858888f19350505050158015614025573d6000803e3d6000fd5b5061415e565b81603214156140b5576001600160a01b0388166108fc61404c600286615588565b6040518115909202916000818181858888f19350505050158015614074573d6000803e3d6000fd5b506001600160a01b0381166108fc61408d600286615588565b6040518115909202916000818181858888f19350505050158015614025573d6000803e3d6000fd5b60006140c28360646155c7565b90506001600160a01b0389166108fc60646140dd86886155a8565b6140e79190615588565b6040518115909202916000818181858888f1935050505015801561410f573d6000803e3d6000fd5b506001600160a01b0382166108fc606461412984886155a8565b6141339190615588565b6040518115909202916000818181858888f1935050505015801561415b573d6000803e3d6000fd5b50505b6004848154811061417f57634e487b7160e01b600052603260045260246000fd5b9060005260206000209060020201600101805480602002602001604051908101604052809291908181526020016000905b828210156148ba576000848152602090819020604080516102608101825260108602909201805463ffffffff16835260018101549383019390935260028301805492939291840191614201906155de565b80601f016020809104026020016040519081016040528092919081815260200182805461422d906155de565b801561427a5780601f1061424f5761010080835404028352916020019161427a565b820191906000526020600020905b81548152906001019060200180831161425d57829003601f168201915b50505050508152602001600382018054614293906155de565b80601f01602080910402602001604051908101604052809291908181526020018280546142bf906155de565b801561430c5780601f106142e15761010080835404028352916020019161430c565b820191906000526020600020905b8154815290600101906020018083116142ef57829003601f168201915b5050509183525050600482015463ffffffff81166020830152600160201b90046001600160a01b0316604082015260058201805460609092019161434f906155de565b80601f016020809104026020016040519081016040528092919081815260200182805461437b906155de565b80156143c85780601f1061439d576101008083540402835291602001916143c8565b820191906000526020600020905b8154815290600101906020018083116143ab57829003601f168201915b505050505081526020016006820180546143e1906155de565b80601f016020809104026020016040519081016040528092919081815260200182805461440d906155de565b801561445a5780601f1061442f5761010080835404028352916020019161445a565b820191906000526020600020905b81548152906001019060200180831161443d57829003601f168201915b5050509183525050600782015463ffffffff81166020830152600160201b900460ff1615156040820152600882018054606090920191614499906155de565b80601f01602080910402602001604051908101604052809291908181526020018280546144c5906155de565b80156145125780601f106144e757610100808354040283529160200191614512565b820191906000526020600020905b8154815290600101906020018083116144f557829003601f168201915b5050505050815260200160098201805461452b906155de565b80601f0160208091040260200160405190810160405280929190818152602001828054614557906155de565b80156145a45780601f10614579576101008083540402835291602001916145a4565b820191906000526020600020905b81548152906001019060200180831161458757829003601f168201915b50505050508152602001600a820180546145bd906155de565b80601f01602080910402602001604051908101604052809291908181526020018280546145e9906155de565b80156146365780601f1061460b57610100808354040283529160200191614636565b820191906000526020600020905b81548152906001019060200180831161461957829003601f168201915b50505050508152602001600b8201805461464f906155de565b80601f016020809104026020016040519081016040528092919081815260200182805461467b906155de565b80156146c85780601f1061469d576101008083540402835291602001916146c8565b820191906000526020600020905b8154815290600101906020018083116146ab57829003601f168201915b5050509183525050600c82015463ffffffff8082166020840152600160201b909104166040820152600d82018054606090920191614705906155de565b80601f0160208091040260200160405190810160405280929190818152602001828054614731906155de565b801561477e5780601f106147535761010080835404028352916020019161477e565b820191906000526020600020905b81548152906001019060200180831161476157829003601f168201915b50505050508152602001600e82018054614797906155de565b80601f01602080910402602001604051908101604052809291908181526020018280546147c3906155de565b80156148105780601f106147e557610100808354040283529160200191614810565b820191906000526020600020905b8154815290600101906020018083116147f357829003601f168201915b50505050508152602001600f82018054614829906155de565b80601f0160208091040260200160405190810160405280929190818152602001828054614855906155de565b80156148a25780601f10614877576101008083540402835291602001916148a2565b820191906000526020600020905b81548152906001019060200180831161488557829003601f168201915b505050505081525050815260200190600101906141b0565b5050505094505050505095945050505050565b6001546040516370a0823160e01b815233600482015282916001600160a01b0316906370a082319060240160206040518083038186803b15801561491057600080fd5b505afa158015614924573d6000803e3d6000fd5b505050506040513d601f19601f820116820180604052508101906149489190614dae565b101561495357600080fd5b6001546040516323b872dd60e01b8152336004820152306024820152604481018390526001600160a01b03909116906323b872dd90606401602060405180830381600087803b1580156149a557600080fd5b505af11580156149b9573d6000803e3d6000fd5b505050506040513d601f19601f820116820180604052508101906149dd9190614c32565b5050565b600381815481106149f157600080fd5b6000918252602090912001546001600160a01b0316905081565b60048054600190810180835560009283528291614a27916155c7565b90508260048281548110614a4b57634e487b7160e01b600052603260045260246000fd5b6000918252602080832060029283020180546001600160a01b0319166001600160a01b03958616179055959092168152935260409092208290555090565b828054614a95906155de565b90600052602060002090601f016020900481019282614ab75760008555614afd565b82601f10614ad057805160ff1916838001178555614afd565b82800160010185558215614afd579182015b82811115614afd578251825591602001919060010190614ae2565b50614b09929150614b0d565b5090565b5b80821115614b095760008155600101614b0e565b80356001600160a01b0381168114611f8857600080fd5b8035611f8881615645565b600082601f830112614b54578081fd5b813567ffffffffffffffff80821115614b6f57614b6f61562f565b604051601f8301601f19908116603f01168101908282118183101715614b9757614b9761562f565b81604052838152866020858801011115614baf578485fd5b8360208701602083013792830160200193909352509392505050565b803563ffffffff81168114611f8857600080fd5b600060208284031215614bf0578081fd5b614bf982614b22565b9392505050565b60008060408385031215614c12578081fd5b614c1b83614b22565b9150614c2960208401614bcb565b90509250929050565b600060208284031215614c43578081fd5b8151614bf981615645565b600080600080600060a08688031215614c65578081fd5b853567ffffffffffffffff80821115614c7c578283fd5b614c8889838a01614b44565b96506020880135915080821115614c9d578283fd5b50614caa88828901614b44565b945050614cb960408701614b22565b9250614cc760608701614bcb565b9150614cd560808701614bcb565b90509295509295909350565b60008060008060008060c08789031215614cf9578081fd5b863567ffffffffffffffff80821115614d10578283fd5b614d1c8a838b01614b44565b97506020890135915080821115614d31578283fd5b614d3d8a838b01614b44565b9650614d4b60408a01614b22565b9550614d5960608a01614bcb565b9450614d6760808a01614bcb565b935060a0890135915080821115614d7c578283fd5b50614d8989828a01614b44565b9150509295509295509295565b600060208284031215614da7578081fd5b5035919050565b600060208284031215614dbf578081fd5b5051919050565b60008060008060808587031215614ddb578384fd5b84359350602085013567ffffffffffffffff811115614df8578384fd5b614e0487828801614b44565b935050614e1360408601614bcb565b9150614e2160608601614b22565b905092959194509250565b60008060408385031215614e3e578182fd5b614e4783614bcb565b9150614c2960208401614b22565b6000806000806000806000806000806101408b8d031215614e74578384fd5b614e7d8b614bcb565b995060208b013567ffffffffffffffff80821115614e99578586fd5b614ea58e838f01614b44565b9a5060408d0135915080821115614eba578586fd5b614ec68e838f01614b44565b9950614ed460608e01614bcb565b9850614ee260808e01614b22565b975060a08d0135915080821115614ef7578586fd5b614f038e838f01614b44565b965060c08d0135915080821115614f18578586fd5b614f248e838f01614b44565b9550614f3260e08e01614bcb565b9450614f416101008e01614b39565b93506101208d0135915080821115614f57578283fd5b50614f648d828e01614b44565b9150509295989b9194979a5092959850565b60008060008060008060008060008060006101608c8e031215614f97578485fd5b614fa08c614bcb565b9a5060208c0135995067ffffffffffffffff8060408e01351115614fc2578586fd5b614fd28e60408f01358f01614b44565b99508060608e01351115614fe4578586fd5b614ff48e60608f01358f01614b44565b985061500260808e01614bcb565b975061501060a08e01614b22565b96508060c08e01351115615022578586fd5b6150328e60c08f01358f01614b44565b95508060e08e01351115615044578182fd5b6150548e60e08f01358f01614b44565b94506150636101008e01614bcb565b93506150726101208e01614b39565b9250806101408e01351115615085578182fd5b506150978d6101408e01358e01614b44565b90509295989b509295989b9093969950565b60008151808452815b818110156150ce576020818501810151868301820152016150b2565b818111156150df5782602083870101525b50601f01601f19169290920160200192915050565b60006020808301818452808551808352604092508286019150828160051b870101848801865b8381101561530057888303603f190185528151805163ffffffff1684526102608882015189860152878201518189870152615157828701826150a9565b9150506060808301518683038288015261517183826150a9565b9250505060808083015161518c8288018263ffffffff169052565b505060a0828101516001600160a01b03169086015260c080830151868303828801526151b883826150a9565b9250505060e080830151868303828801526151d383826150a9565b92505050610100808301516151ef8288018263ffffffff169052565b505061012082810151151590860152610140808301518683038288015261521683826150a9565b92505050610160808301518683038288015261523283826150a9565b92505050610180808301518683038288015261524e83826150a9565b925050506101a0808301518683038288015261526a83826150a9565b925050506101c0808301516152868288018263ffffffff169052565b50506101e08281015163ffffffff169086015261020080830151868303828801526152b183826150a9565b9250505061022080830151868303828801526152cd83826150a9565b9250505061024080830151925085820381870152506152ec81836150a9565b96890196945050509086019060010161511a565b509098975050505050505050565b60006020808301818452808551808352604092508286019150828160051b870101848801865b8381101561530057888303603f19018552815180516001600160a01b0316845287015187840187905280518785018190529088019060609081860190600581901b870183018c5b8281101561555e57888203605f190184528551805163ffffffff1683526102608e8201518f8501528d820151818f8601526153b8828601826150a9565b91505086820151848203888601526153d082826150a9565b9150506080808301516153ea8287018263ffffffff169052565b505060a0828101516001600160a01b03169085015260c0808301518583038287015261541683826150a9565b9250505060e0808301518583038287015261543183826150a9565b925050506101008083015161544d8287018263ffffffff169052565b505061012082810151151590850152610140808301518583038287015261547483826150a9565b92505050610160808301518583038287015261549083826150a9565b9250505061018080830151858303828701526154ac83826150a9565b925050506101a080830151858303828701526154c883826150a9565b925050506101c0808301516154e48287018263ffffffff169052565b50506101e08281015163ffffffff1690850152610200808301518583038287015261550f83826150a9565b92505050610220808301518583038287015261552b83826150a9565b92505050610240808301519250848203818601525061554a81836150a9565b978f0197958f01959350505060010161537b565b50988b019896505050928801925050600101615334565b600060208252614bf960208301846150a9565b6000826155a357634e487b7160e01b81526012600452602481fd5b500490565b60008160001904831182151516156155c2576155c2615619565b500290565b6000828210156155d9576155d9615619565b500390565b600181811c908216806155f257607f821691505b6020821081141561561357634e487b7160e01b600052602260045260246000fd5b50919050565b634e487b7160e01b600052601160045260246000fd5b634e487b7160e01b600052604160045260246000fd5b801515811461565357600080fd5b5056fea2646970667358221220fe008f4a50755eff408133e31e562f122e694ec793557ecd0488cde0446541a964736f6c63430008030033457468537761702046616972747261646572204d61696e204150702054657374696e67",
  "immutableReferences": {},
  "source": "// SPDX-License-Identifier: MIT\npragma solidity ^0.8.3;\n\nimport \"./Token.sol\";\n\ncontract BuyInvoicesMainAPp {\n    string public name = \"EthSwap Fairtrader Main APp Testing\";\n    Token public token;\n    //\n    mapping(address => uint256) public stakes;\n\n    address[] public stakers;\n    Stakeholder[] public stakeholders;\n\n    // event SmartContractOpenedBuyer(\n    //     uint32 _id,\n    //     string _termsAndCondition,\n    //     string _warrantyFile,\n    //     uint32 _apealTime,\n    //     string _sellerWalletAddress,\n    //     string _invoiceFile,\n    //     string _customerEmail,\n    //     uint32 _mediatorId,\n    //     bool _medAccepted,\n    //     string _friendsEmail\n    // );\n    // event ContractCompletedSeller(\n    //     address indexed user,\n    //     uint256 userIndex,\n    //     address sellerOrUser\n    // );\n\n    struct OrderData {\n        uint32 _orderId;\n        uint256 _amount;\n        string _termsAndCondition;\n        string _warrantyFile;\n        uint32 _apealTime;\n        address _sellerWalletAddress;\n        string _invoiceFile;\n        string _customerEmail;\n        uint32 _mediatorId;\n        bool _medAccepted;\n        string _judgeReport;\n        string _judgeReportFile;\n        string _judgeReportFileSuperMed;\n        string _judgeReportSuperMed;\n        uint32 _buyerTakeAmountInPercentSuperMed;\n        uint32 _buyerTakeAmountInPercent;\n        string _friendsEmail;\n        string _appealTime;\n        string _whoCalled;\n    }\n\n    struct Stakeholder {\n        address user;\n        OrderData[] address_stakes;\n    }\n\n    constructor(Token _token) public {\n        // constructor() public {\n        stakeholders.push();\n        token = _token;\n    }\n\n    function getBalance() external view returns (uint256) {\n        return address(this).balance;\n    }\n\n    function exchangeHistoryOfStake()\n        external\n        view\n        returns (Stakeholder[] memory)\n    {\n        return stakeholders;\n    }\n\n    function getAllOrdersOfOneUser(address _userAddress)\n        external\n        view\n        returns (OrderData[] memory)\n    {\n        // require(/* mediator is calling not any other person for security purpose*/);\n        uint256 index = stakes[_userAddress];\n        return stakeholders[index].address_stakes;\n    }\n\n    function medAcceptNewCases(uint32 _index, address buyerWalletAddress)\n        external\n        returns (OrderData[] memory)\n    {\n        // require(/* mediator is calling not any other person for security purpose*/);\n        uint256 index = stakes[buyerWalletAddress];\n        stakeholders[index].address_stakes[_index]._medAccepted = true;\n\n        return stakeholders[index].address_stakes;\n    }\n    \n     function medJudgeCaseReportSuperMed(string memory _judgeReport, string memory _judgeReportFile, address buyerWalletAddress, uint32 _index, uint32 _buyerTakeAmountInPercent)\n        external\n        returns (OrderData[] memory)\n    {\n        // require(/* mediator is calling not any other person for security purpose*/);\n        uint256 index = stakes[buyerWalletAddress];\n        stakeholders[index].address_stakes[_index]._judgeReportSuperMed = _judgeReport;\n        stakeholders[index].address_stakes[_index]._judgeReportFileSuperMed = _judgeReportFile;\n        stakeholders[index].address_stakes[_index]._buyerTakeAmountInPercentSuperMed = _buyerTakeAmountInPercent;\n\n\n        uint amount =  stakeholders[index].address_stakes[_index]._amount;\n        uint buyerTakeAmountInPercent = _buyerTakeAmountInPercent;\n        address sellerWalletAddressOfContract = stakeholders[index].address_stakes[_index]._sellerWalletAddress;\n\n        // ADDING CHECK THAT ONLY SELLER ADDRESS IS SAME IN CONTRACT OR SOMEOEN ELSE IS TRYING\n        // string memory sellerAddress = stakeholders[index].address_stakes[_index]._sellerWalletAddress;\n        // require(string(sellerWalletAddress) == sellerAddress);\n\n\n       if (buyerTakeAmountInPercent == 100) {\n            payable(buyerWalletAddress).transfer(amount);\n        } else if (buyerTakeAmountInPercent == 50) {\n            payable(buyerWalletAddress).transfer(amount / 2);\n            payable(sellerWalletAddressOfContract).transfer(amount / 2);\n        }else {\n            uint256 sellerTakePercent = 100 - buyerTakeAmountInPercent;\n            payable(buyerWalletAddress).transfer(\n                (amount * buyerTakeAmountInPercent) / 100\n            );\n            payable(sellerWalletAddressOfContract).transfer(\n                (amount * sellerTakePercent) / 100\n            );\n        }\n\n\n        return stakeholders[index].address_stakes;\n    }\n    \n     function medJudgeCaseReport(string memory _judgeReport, string memory _judgeReportFile, address buyerWalletAddress, uint32 _index, uint32 _buyerTakeAmountInPercent, string memory _appealTime)\n        external\n        returns (OrderData[] memory)\n    {\n        // require(/* mediator is calling not any other person for security purpose*/);\n        uint256 index = stakes[buyerWalletAddress];\n        stakeholders[index].address_stakes[_index]._judgeReport = _judgeReport;\n        stakeholders[index].address_stakes[_index]._judgeReportFile = _judgeReportFile;\n        stakeholders[index].address_stakes[_index]._buyerTakeAmountInPercent = _buyerTakeAmountInPercent;\n        stakeholders[index].address_stakes[_index]._appealTime = _appealTime;\n\n        return stakeholders[index].address_stakes;\n    }\n    \n    function payFeeForSuperMediator(uint256 _amount, string memory _whoIsCalling, uint32 _index, address buyerWalletAddress) public\n        returns (OrderData[] memory)\n     {\n        // User can't sell more tokens than they have\n        require(token.balanceOf(msg.sender) >= _amount);\n\n        uint256 index = stakes[buyerWalletAddress];\n        stakeholders[index].address_stakes[_index]._whoCalled = _whoIsCalling;\n\n\n        // Perform sale\n        token.transferFrom(msg.sender, address(this), _amount);\n\n        return stakeholders[index].address_stakes;\n    }\n    \n    function payFeeForSuperMediatorr(uint256 _amount) public {\n        // User can't sell more tokens than they have\n        require(token.balanceOf(msg.sender) >= _amount);\n\n        // Perform sale\n        token.transferFrom(msg.sender, address(this), _amount);\n\n    }\n    \n\n\n  function userWithdrawTheirDisputesOrdersCash(address buyerWalletAddress, uint32 _index)\n        external\n        returns (OrderData[] memory)\n    {\n        // require(/* mediator is calling not any other person for security purpose*/);\n        uint256 index = stakes[buyerWalletAddress];\n\n        uint amount =  stakeholders[index].address_stakes[_index]._amount;\n        uint buyerTakeAmountInPercent = stakeholders[index].address_stakes[_index]._buyerTakeAmountInPercent;\n        address sellerWalletAddressOfContract = stakeholders[index].address_stakes[_index]._sellerWalletAddress;\n\n        // ADDING CHECK THAT ONLY SELLER ADDRESS IS SAME IN CONTRACT OR SOMEOEN ELSE IS TRYING\n        // string memory sellerAddress = stakeholders[index].address_stakes[_index]._sellerWalletAddress;\n        // require(string(sellerWalletAddress) == sellerAddress);\n\n        if(msg.sender == buyerWalletAddress) {\n            if (buyerTakeAmountInPercent == 100) {\n                payable(buyerWalletAddress).transfer(amount);\n                \n            } else if(buyerTakeAmountInPercent == 50) {\n                payable(buyerWalletAddress).transfer(amount / 2);\n            } else {\n                payable(buyerWalletAddress).transfer(amount * buyerTakeAmountInPercent / 100);\n            }\n        } else if (msg.sender == sellerWalletAddressOfContract) {\n            if(buyerTakeAmountInPercent == 50) {\n                payable(sellerWalletAddressOfContract).transfer(amount / 2);\n            } else {\n                uint256 sellerTakePercent = 100 - buyerTakeAmountInPercent;\n                payable(sellerWalletAddressOfContract).transfer(amount * sellerTakePercent / 100);\n            }\n        }\n\n        return stakeholders[index].address_stakes;\n    }\n\n    function _addStakeholder(address staker) internal returns (uint256) {\n        stakeholders.push();\n        uint256 userIndex = stakeholders.length - 1;\n        stakeholders[userIndex].user = staker;\n        stakes[staker] = userIndex;\n        return userIndex;\n    }\n\n    function _saveOrdersDataOfUser(\n        uint32 _orderId,\n        uint256 _amount,\n        string memory _termsAndCondition,\n        string memory _warrantyFile,\n        uint32 _apealTime,\n        address _sellerWalletAddress,\n        string memory _invoiceFile,\n        string memory _customerEmail,\n        uint32 _mediatorId,\n        bool _medAccepted,\n        string memory _friendsEmail\n    ) public {\n        // Check that the requested amount of tokens to sell is more than 0\n        // require(_sellerWalletAddress == '', \"seller Wallet Address Cannot nothing\");\n\n        uint256 index = stakes[msg.sender];\n        if (index == 0) {\n            index = _addStakeholder(msg.sender);\n        }\n\n        stakeholders[index].address_stakes.push(\n            OrderData(\n                _orderId,\n                _amount,\n                _termsAndCondition,\n                _warrantyFile,\n                _apealTime,\n                _sellerWalletAddress,\n                _invoiceFile,\n                _customerEmail,\n                _mediatorId,\n                _medAccepted,\n                \"\",\n                \"\",\n                \"\",\n                \"\",\n                0,\n                0,\n                _friendsEmail,\n                \"\",\n                \"\"\n            )\n        );\n    }\n\n    function buyWithFTP(\n        uint32 _orderId,\n        uint256 _amount,\n        string memory _termsAndCondition,\n        string memory _warrantyFile,\n        uint32 _apealTime,\n        address _sellerWalletAddress,\n        string memory _invoiceFile,\n        string memory _customerEmail,\n        uint32 _mediatorId,\n        bool _medAccepted,\n        string memory _friendsEmail\n    ) public {\n        // User can't sell more tokens than they have\n        require(token.balanceOf(msg.sender) >= _amount);\n\n        // Perform sale\n        token.transferFrom(msg.sender, address(this), _amount);\n\n        _saveOrdersDataOfUser(\n            _orderId,\n            _amount,\n            _termsAndCondition,\n            _warrantyFile,\n            _apealTime,\n            _sellerWalletAddress,\n            _invoiceFile,\n            _customerEmail,\n            _mediatorId,\n            _medAccepted,\n            _friendsEmail\n        );\n    }\n\n    // function buyWithUsdt(\n    //     uint32 _orderId,\n    //     uint256 _amount,\n    //     string memory _termsAndCondition,\n    //     string memory _warrantyFile,\n    //     uint32 _apealTime,\n    //     address _sellerWalletAddress,\n    //     string memory _invoiceFile,\n    //     string memory _customerEmail,\n    // uint32 _mediatorId,\n    // bool _medAccepted,\n    //     string memory _friendsEmail\n    // ) public {\n    //     // User can't sell more tokens than they have\n    //     require(usdtToken.balanceOf(msg.sender) >= _amount);\n\n    //     // Perform sale\n    //     usdtToken.transferFrom(msg.sender, address(this), _amount);\n\n    //     _saveOrdersDataOfUser(\n    //         _orderId,\n    //          _amount,\n    //         _termsAndCondition,\n    //         _warrantyFile,\n    //         _apealTime,\n    //         _sellerWalletAddress,\n    //         _invoiceFile,\n    //         _customerEmail,\n    // _mediatorId,\n    // _medAccepted,\n    //         _friendsEmail\n    //     );\n    // }\n\n    function buyWithBNB(\n        uint32 _orderId,\n        string memory _termsAndCondition,\n        string memory _warrantyFile,\n        uint32 _apealTime,\n        address _sellerWalletAddress,\n        string memory _invoiceFile,\n        string memory _customerEmail,\n        uint32 _mediatorId,\n        bool _medAccepted,\n        string memory _friendsEmail\n    ) public payable {\n        // User can't sell more tokens than they have\n        // require(token.balanceOf(msg.sender) >= msg.value);\n\n        // Perform sale\n        // token.transferFrom(msg.sender, address(this), _amount);\n        // address(address(this).transfer(_amount));\n        // token.transfer(address(this), _amount);\n        // token.transferFrom(msg.sender, address(this), _amount);\n\n        _saveOrdersDataOfUser(\n            _orderId,\n            msg.value,\n            _termsAndCondition,\n            _warrantyFile,\n            _apealTime,\n            _sellerWalletAddress,\n            _invoiceFile,\n            _customerEmail,\n            _mediatorId,\n            _medAccepted,\n            _friendsEmail\n        );\n    }\n}\n",
  "sourcePath": "/home/abdullah/Desktop/Fairtrader/FairTrader Main App Smart_Contract/UPGRADECONTRACT...(buy Invoice Main APp)/contracts/BuyInvoicesMainAPp.sol",
  "compiler": {
    "name": "solc",
    "version": "0.8.3+commit.8d00100c.Emscripten.clang"
  },
  "schemaVersion": "3.4.10",
  "updatedAt": "2022-11-04T07:40:39.669Z",
  "networkType": "ethereum",
  "devdoc": {
    "kind": "dev",
    "methods": {},
    "version": 1
  },
  "userdoc": {
    "kind": "user",
    "methods": {},
    "version": 1
  }
}