{
  "contractName": "BuyInvoicesMainAPp",
  "abi": [
    {
      "inputs": [
        {
          "internalType": "contract Token",
          "name": "_token",
          "type": "address"
        }
      ],
      "stateMutability": "nonpayable",
      "type": "constructor"
    },
    {
      "inputs": [],
      "name": "name",
      "outputs": [
        {
          "internalType": "string",
          "name": "",
          "type": "string"
        }
      ],
      "stateMutability": "view",
      "type": "function",
      "constant": true
    },
    {
      "inputs": [
        {
          "internalType": "uint256",
          "name": "",
          "type": "uint256"
        }
      ],
      "name": "stakeholders",
      "outputs": [
        {
          "internalType": "address",
          "name": "user",
          "type": "address"
        }
      ],
      "stateMutability": "view",
      "type": "function",
      "constant": true
    },
    {
      "inputs": [
        {
          "internalType": "uint256",
          "name": "",
          "type": "uint256"
        }
      ],
      "name": "stakers",
      "outputs": [
        {
          "internalType": "address",
          "name": "",
          "type": "address"
        }
      ],
      "stateMutability": "view",
      "type": "function",
      "constant": true
    },
    {
      "inputs": [
        {
          "internalType": "address",
          "name": "",
          "type": "address"
        }
      ],
      "name": "stakes",
      "outputs": [
        {
          "internalType": "uint256",
          "name": "",
          "type": "uint256"
        }
      ],
      "stateMutability": "view",
      "type": "function",
      "constant": true
    },
    {
      "inputs": [],
      "name": "token",
      "outputs": [
        {
          "internalType": "contract Token",
          "name": "",
          "type": "address"
        }
      ],
      "stateMutability": "view",
      "type": "function",
      "constant": true
    },
    {
      "inputs": [],
      "name": "getBalance",
      "outputs": [
        {
          "internalType": "uint256",
          "name": "",
          "type": "uint256"
        }
      ],
      "stateMutability": "view",
      "type": "function",
      "constant": true
    },
    {
      "inputs": [],
      "name": "exchangeHistoryOfStake",
      "outputs": [
        {
          "components": [
            {
              "internalType": "address",
              "name": "user",
              "type": "address"
            },
            {
              "components": [
                {
                  "internalType": "uint32",
                  "name": "_orderId",
                  "type": "uint32"
                },
                {
                  "internalType": "uint256",
                  "name": "_amount",
                  "type": "uint256"
                },
                {
                  "internalType": "string",
                  "name": "_termsAndCondition",
                  "type": "string"
                },
                {
                  "internalType": "string",
                  "name": "_warrantyFile",
                  "type": "string"
                },
                {
                  "internalType": "uint32",
                  "name": "_apealTime",
                  "type": "uint32"
                },
                {
                  "internalType": "address",
                  "name": "_sellerWalletAddress",
                  "type": "address"
                },
                {
                  "internalType": "string",
                  "name": "_invoiceFile",
                  "type": "string"
                },
                {
                  "internalType": "string",
                  "name": "_customerEmail",
                  "type": "string"
                },
                {
                  "internalType": "uint32",
                  "name": "_mediatorId",
                  "type": "uint32"
                },
                {
                  "internalType": "bool",
                  "name": "_medAccepted",
                  "type": "bool"
                },
                {
                  "internalType": "string",
                  "name": "_judgeReport",
                  "type": "string"
                },
                {
                  "internalType": "string",
                  "name": "_judgeReportFile",
                  "type": "string"
                },
                {
                  "internalType": "uint32",
                  "name": "_buyerTakeAmountInPercent",
                  "type": "uint32"
                },
                {
                  "internalType": "string",
                  "name": "_friendsEmail",
                  "type": "string"
                },
                {
                  "internalType": "string",
                  "name": "_appealTime",
                  "type": "string"
                },
                {
                  "internalType": "string",
                  "name": "_whoCalled",
                  "type": "string"
                }
              ],
              "internalType": "struct BuyInvoicesMainAPp.OrderData[]",
              "name": "address_stakes",
              "type": "tuple[]"
            }
          ],
          "internalType": "struct BuyInvoicesMainAPp.Stakeholder[]",
          "name": "",
          "type": "tuple[]"
        }
      ],
      "stateMutability": "view",
      "type": "function",
      "constant": true
    },
    {
      "inputs": [
        {
          "internalType": "address",
          "name": "_userAddress",
          "type": "address"
        }
      ],
      "name": "getAllOrdersOfOneUser",
      "outputs": [
        {
          "components": [
            {
              "internalType": "uint32",
              "name": "_orderId",
              "type": "uint32"
            },
            {
              "internalType": "uint256",
              "name": "_amount",
              "type": "uint256"
            },
            {
              "internalType": "string",
              "name": "_termsAndCondition",
              "type": "string"
            },
            {
              "internalType": "string",
              "name": "_warrantyFile",
              "type": "string"
            },
            {
              "internalType": "uint32",
              "name": "_apealTime",
              "type": "uint32"
            },
            {
              "internalType": "address",
              "name": "_sellerWalletAddress",
              "type": "address"
            },
            {
              "internalType": "string",
              "name": "_invoiceFile",
              "type": "string"
            },
            {
              "internalType": "string",
              "name": "_customerEmail",
              "type": "string"
            },
            {
              "internalType": "uint32",
              "name": "_mediatorId",
              "type": "uint32"
            },
            {
              "internalType": "bool",
              "name": "_medAccepted",
              "type": "bool"
            },
            {
              "internalType": "string",
              "name": "_judgeReport",
              "type": "string"
            },
            {
              "internalType": "string",
              "name": "_judgeReportFile",
              "type": "string"
            },
            {
              "internalType": "uint32",
              "name": "_buyerTakeAmountInPercent",
              "type": "uint32"
            },
            {
              "internalType": "string",
              "name": "_friendsEmail",
              "type": "string"
            },
            {
              "internalType": "string",
              "name": "_appealTime",
              "type": "string"
            },
            {
              "internalType": "string",
              "name": "_whoCalled",
              "type": "string"
            }
          ],
          "internalType": "struct BuyInvoicesMainAPp.OrderData[]",
          "name": "",
          "type": "tuple[]"
        }
      ],
      "stateMutability": "view",
      "type": "function",
      "constant": true
    },
    {
      "inputs": [
        {
          "internalType": "uint32",
          "name": "_index",
          "type": "uint32"
        },
        {
          "internalType": "address",
          "name": "buyerWalletAddress",
          "type": "address"
        }
      ],
      "name": "medAcceptNewCases",
      "outputs": [
        {
          "components": [
            {
              "internalType": "uint32",
              "name": "_orderId",
              "type": "uint32"
            },
            {
              "internalType": "uint256",
              "name": "_amount",
              "type": "uint256"
            },
            {
              "internalType": "string",
              "name": "_termsAndCondition",
              "type": "string"
            },
            {
              "internalType": "string",
              "name": "_warrantyFile",
              "type": "string"
            },
            {
              "internalType": "uint32",
              "name": "_apealTime",
              "type": "uint32"
            },
            {
              "internalType": "address",
              "name": "_sellerWalletAddress",
              "type": "address"
            },
            {
              "internalType": "string",
              "name": "_invoiceFile",
              "type": "string"
            },
            {
              "internalType": "string",
              "name": "_customerEmail",
              "type": "string"
            },
            {
              "internalType": "uint32",
              "name": "_mediatorId",
              "type": "uint32"
            },
            {
              "internalType": "bool",
              "name": "_medAccepted",
              "type": "bool"
            },
            {
              "internalType": "string",
              "name": "_judgeReport",
              "type": "string"
            },
            {
              "internalType": "string",
              "name": "_judgeReportFile",
              "type": "string"
            },
            {
              "internalType": "uint32",
              "name": "_buyerTakeAmountInPercent",
              "type": "uint32"
            },
            {
              "internalType": "string",
              "name": "_friendsEmail",
              "type": "string"
            },
            {
              "internalType": "string",
              "name": "_appealTime",
              "type": "string"
            },
            {
              "internalType": "string",
              "name": "_whoCalled",
              "type": "string"
            }
          ],
          "internalType": "struct BuyInvoicesMainAPp.OrderData[]",
          "name": "",
          "type": "tuple[]"
        }
      ],
      "stateMutability": "nonpayable",
      "type": "function"
    },
    {
      "inputs": [
        {
          "internalType": "string",
          "name": "_judgeReport",
          "type": "string"
        },
        {
          "internalType": "string",
          "name": "_judgeReportFile",
          "type": "string"
        },
        {
          "internalType": "address",
          "name": "buyerWalletAddress",
          "type": "address"
        },
        {
          "internalType": "uint32",
          "name": "_index",
          "type": "uint32"
        },
        {
          "internalType": "uint32",
          "name": "_buyerTakeAmountInPercent",
          "type": "uint32"
        },
        {
          "internalType": "string",
          "name": "_appealTime",
          "type": "string"
        }
      ],
      "name": "medJudgeCaseReport",
      "outputs": [
        {
          "components": [
            {
              "internalType": "uint32",
              "name": "_orderId",
              "type": "uint32"
            },
            {
              "internalType": "uint256",
              "name": "_amount",
              "type": "uint256"
            },
            {
              "internalType": "string",
              "name": "_termsAndCondition",
              "type": "string"
            },
            {
              "internalType": "string",
              "name": "_warrantyFile",
              "type": "string"
            },
            {
              "internalType": "uint32",
              "name": "_apealTime",
              "type": "uint32"
            },
            {
              "internalType": "address",
              "name": "_sellerWalletAddress",
              "type": "address"
            },
            {
              "internalType": "string",
              "name": "_invoiceFile",
              "type": "string"
            },
            {
              "internalType": "string",
              "name": "_customerEmail",
              "type": "string"
            },
            {
              "internalType": "uint32",
              "name": "_mediatorId",
              "type": "uint32"
            },
            {
              "internalType": "bool",
              "name": "_medAccepted",
              "type": "bool"
            },
            {
              "internalType": "string",
              "name": "_judgeReport",
              "type": "string"
            },
            {
              "internalType": "string",
              "name": "_judgeReportFile",
              "type": "string"
            },
            {
              "internalType": "uint32",
              "name": "_buyerTakeAmountInPercent",
              "type": "uint32"
            },
            {
              "internalType": "string",
              "name": "_friendsEmail",
              "type": "string"
            },
            {
              "internalType": "string",
              "name": "_appealTime",
              "type": "string"
            },
            {
              "internalType": "string",
              "name": "_whoCalled",
              "type": "string"
            }
          ],
          "internalType": "struct BuyInvoicesMainAPp.OrderData[]",
          "name": "",
          "type": "tuple[]"
        }
      ],
      "stateMutability": "nonpayable",
      "type": "function"
    },
    {
      "inputs": [
        {
          "internalType": "uint256",
          "name": "_amount",
          "type": "uint256"
        },
        {
          "internalType": "string",
          "name": "_whoIsCalling",
          "type": "string"
        },
        {
          "internalType": "uint32",
          "name": "_index",
          "type": "uint32"
        },
        {
          "internalType": "address",
          "name": "buyerWalletAddress",
          "type": "address"
        }
      ],
      "name": "payFeeForSuperMediator",
      "outputs": [
        {
          "components": [
            {
              "internalType": "uint32",
              "name": "_orderId",
              "type": "uint32"
            },
            {
              "internalType": "uint256",
              "name": "_amount",
              "type": "uint256"
            },
            {
              "internalType": "string",
              "name": "_termsAndCondition",
              "type": "string"
            },
            {
              "internalType": "string",
              "name": "_warrantyFile",
              "type": "string"
            },
            {
              "internalType": "uint32",
              "name": "_apealTime",
              "type": "uint32"
            },
            {
              "internalType": "address",
              "name": "_sellerWalletAddress",
              "type": "address"
            },
            {
              "internalType": "string",
              "name": "_invoiceFile",
              "type": "string"
            },
            {
              "internalType": "string",
              "name": "_customerEmail",
              "type": "string"
            },
            {
              "internalType": "uint32",
              "name": "_mediatorId",
              "type": "uint32"
            },
            {
              "internalType": "bool",
              "name": "_medAccepted",
              "type": "bool"
            },
            {
              "internalType": "string",
              "name": "_judgeReport",
              "type": "string"
            },
            {
              "internalType": "string",
              "name": "_judgeReportFile",
              "type": "string"
            },
            {
              "internalType": "uint32",
              "name": "_buyerTakeAmountInPercent",
              "type": "uint32"
            },
            {
              "internalType": "string",
              "name": "_friendsEmail",
              "type": "string"
            },
            {
              "internalType": "string",
              "name": "_appealTime",
              "type": "string"
            },
            {
              "internalType": "string",
              "name": "_whoCalled",
              "type": "string"
            }
          ],
          "internalType": "struct BuyInvoicesMainAPp.OrderData[]",
          "name": "",
          "type": "tuple[]"
        }
      ],
      "stateMutability": "nonpayable",
      "type": "function"
    },
    {
      "inputs": [
        {
          "internalType": "uint256",
          "name": "_amount",
          "type": "uint256"
        }
      ],
      "name": "payFeeForSuperMediatorr",
      "outputs": [],
      "stateMutability": "nonpayable",
      "type": "function"
    },
    {
      "inputs": [
        {
          "internalType": "address",
          "name": "buyerWalletAddress",
          "type": "address"
        },
        {
          "internalType": "uint32",
          "name": "_index",
          "type": "uint32"
        }
      ],
      "name": "userWithdrawTheirDisputesOrdersCash",
      "outputs": [
        {
          "components": [
            {
              "internalType": "uint32",
              "name": "_orderId",
              "type": "uint32"
            },
            {
              "internalType": "uint256",
              "name": "_amount",
              "type": "uint256"
            },
            {
              "internalType": "string",
              "name": "_termsAndCondition",
              "type": "string"
            },
            {
              "internalType": "string",
              "name": "_warrantyFile",
              "type": "string"
            },
            {
              "internalType": "uint32",
              "name": "_apealTime",
              "type": "uint32"
            },
            {
              "internalType": "address",
              "name": "_sellerWalletAddress",
              "type": "address"
            },
            {
              "internalType": "string",
              "name": "_invoiceFile",
              "type": "string"
            },
            {
              "internalType": "string",
              "name": "_customerEmail",
              "type": "string"
            },
            {
              "internalType": "uint32",
              "name": "_mediatorId",
              "type": "uint32"
            },
            {
              "internalType": "bool",
              "name": "_medAccepted",
              "type": "bool"
            },
            {
              "internalType": "string",
              "name": "_judgeReport",
              "type": "string"
            },
            {
              "internalType": "string",
              "name": "_judgeReportFile",
              "type": "string"
            },
            {
              "internalType": "uint32",
              "name": "_buyerTakeAmountInPercent",
              "type": "uint32"
            },
            {
              "internalType": "string",
              "name": "_friendsEmail",
              "type": "string"
            },
            {
              "internalType": "string",
              "name": "_appealTime",
              "type": "string"
            },
            {
              "internalType": "string",
              "name": "_whoCalled",
              "type": "string"
            }
          ],
          "internalType": "struct BuyInvoicesMainAPp.OrderData[]",
          "name": "",
          "type": "tuple[]"
        }
      ],
      "stateMutability": "nonpayable",
      "type": "function"
    },
    {
      "inputs": [
        {
          "internalType": "uint32",
          "name": "_orderId",
          "type": "uint32"
        },
        {
          "internalType": "uint256",
          "name": "_amount",
          "type": "uint256"
        },
        {
          "internalType": "string",
          "name": "_termsAndCondition",
          "type": "string"
        },
        {
          "internalType": "string",
          "name": "_warrantyFile",
          "type": "string"
        },
        {
          "internalType": "uint32",
          "name": "_apealTime",
          "type": "uint32"
        },
        {
          "internalType": "address",
          "name": "_sellerWalletAddress",
          "type": "address"
        },
        {
          "internalType": "string",
          "name": "_invoiceFile",
          "type": "string"
        },
        {
          "internalType": "string",
          "name": "_customerEmail",
          "type": "string"
        },
        {
          "internalType": "uint32",
          "name": "_mediatorId",
          "type": "uint32"
        },
        {
          "internalType": "bool",
          "name": "_medAccepted",
          "type": "bool"
        },
        {
          "internalType": "string",
          "name": "_friendsEmail",
          "type": "string"
        }
      ],
      "name": "_saveOrdersDataOfUser",
      "outputs": [],
      "stateMutability": "nonpayable",
      "type": "function"
    },
    {
      "inputs": [
        {
          "internalType": "uint32",
          "name": "_orderId",
          "type": "uint32"
        },
        {
          "internalType": "uint256",
          "name": "_amount",
          "type": "uint256"
        },
        {
          "internalType": "string",
          "name": "_termsAndCondition",
          "type": "string"
        },
        {
          "internalType": "string",
          "name": "_warrantyFile",
          "type": "string"
        },
        {
          "internalType": "uint32",
          "name": "_apealTime",
          "type": "uint32"
        },
        {
          "internalType": "address",
          "name": "_sellerWalletAddress",
          "type": "address"
        },
        {
          "internalType": "string",
          "name": "_invoiceFile",
          "type": "string"
        },
        {
          "internalType": "string",
          "name": "_customerEmail",
          "type": "string"
        },
        {
          "internalType": "uint32",
          "name": "_mediatorId",
          "type": "uint32"
        },
        {
          "internalType": "bool",
          "name": "_medAccepted",
          "type": "bool"
        },
        {
          "internalType": "string",
          "name": "_friendsEmail",
          "type": "string"
        }
      ],
      "name": "buyWithFTP",
      "outputs": [],
      "stateMutability": "nonpayable",
      "type": "function"
    },
    {
      "inputs": [
        {
          "internalType": "uint32",
          "name": "_orderId",
          "type": "uint32"
        },
        {
          "internalType": "string",
          "name": "_termsAndCondition",
          "type": "string"
        },
        {
          "internalType": "string",
          "name": "_warrantyFile",
          "type": "string"
        },
        {
          "internalType": "uint32",
          "name": "_apealTime",
          "type": "uint32"
        },
        {
          "internalType": "address",
          "name": "_sellerWalletAddress",
          "type": "address"
        },
        {
          "internalType": "string",
          "name": "_invoiceFile",
          "type": "string"
        },
        {
          "internalType": "string",
          "name": "_customerEmail",
          "type": "string"
        },
        {
          "internalType": "uint32",
          "name": "_mediatorId",
          "type": "uint32"
        },
        {
          "internalType": "bool",
          "name": "_medAccepted",
          "type": "bool"
        },
        {
          "internalType": "string",
          "name": "_friendsEmail",
          "type": "string"
        }
      ],
      "name": "buyWithBNB",
      "outputs": [],
      "stateMutability": "payable",
      "type": "function",
      "payable": true
    }
  ],
  "bytecode": "0x608060405260405180606001604052806023815260200162005525602391396000908051906020019062000035929190620000cf565b503480156200004357600080fd5b506040516200554838038062005548833981810160405281019062000069919062000196565b60046001816001815401808255809150500390600052602060002090505080600160006101000a81548173ffffffffffffffffffffffffffffffffffffffff021916908373ffffffffffffffffffffffffffffffffffffffff1602179055505062000289565b828054620000dd906200020a565b90600052602060002090601f0160209004810192826200010157600085556200014d565b82601f106200011c57805160ff19168380011785556200014d565b828001600101855582156200014d579182015b828111156200014c5782518255916020019190600101906200012f565b5b5090506200015c919062000160565b5090565b5b808211156200017b57600081600090555060010162000161565b5090565b60008151905062000190816200026f565b92915050565b600060208284031215620001a957600080fd5b6000620001b9848285016200017f565b91505092915050565b6000620001cf82620001ea565b9050919050565b6000620001e382620001c2565b9050919050565b600073ffffffffffffffffffffffffffffffffffffffff82169050919050565b600060028204905060018216806200022357607f821691505b602082108114156200023a576200023962000240565b5b50919050565b7f4e487b7100000000000000000000000000000000000000000000000000000000600052602260045260246000fd5b6200027a81620001d6565b81146200028657600080fd5b50565b61528c80620002996000396000f3fe6080604052600436106100f35760003560e01c806347f3d0c01161008a578063bea4e5b811610059578063bea4e5b814610355578063f2b8e5ba14610392578063fc0c546a146103bb578063fd5e6dd1146103e6576100f3565b806347f3d0c0146102875780639529441e146102c4578063abf940c8146102ef578063b8e2de711461032c576100f3565b80631d6b8b72116100c65780631d6b8b72146101c85780632f3726c3146102055780633b07c9871461022e57806342c518891461026b576100f3565b806306fdde03146100f857806312065fe01461012357806316934fc41461014e5780631d601be21461018b575b600080fd5b34801561010457600080fd5b5061010d610423565b60405161011a9190614e0a565b60405180910390f35b34801561012f57600080fd5b506101386104b1565b6040516101459190614e2c565b60405180910390f35b34801561015a57600080fd5b5061017560048036038101906101709190614407565b6104b9565b6040516101829190614e2c565b60405180910390f35b34801561019757600080fd5b506101b260048036038101906101ad91906145b8565b6104d1565b6040516101bf9190614dab565b60405180910390f35b3480156101d457600080fd5b506101ef60048036038101906101ea9190614566565b610e11565b6040516101fc9190614d59565b60405180910390f35b34801561021157600080fd5b5061022c600480360381019061022791906147c2565b610e5f565b005b34801561023a57600080fd5b5061025560048036038101906102509190614495565b610fe8565b6040516102629190614dab565b60405180910390f35b6102856004803603810190610280919061466f565b6119d8565b005b34801561029357600080fd5b506102ae60048036038101906102a99190614407565b6119f7565b6040516102bb9190614dab565b60405180910390f35b3480156102d057600080fd5b506102d961211c565b6040516102e69190614dcd565b60405180910390f35b3480156102fb57600080fd5b5061031660048036038101906103119190614430565b612866565b6040516103239190614dab565b60405180910390f35b34801561033857600080fd5b50610353600480360381019061034e91906147c2565b6133f9565b005b34801561036157600080fd5b5061037c60048036038101906103779190614633565b6137c7565b6040516103899190614dab565b60405180910390f35b34801561039e57600080fd5b506103b960048036038101906103b49190614566565b613fa0565b005b3480156103c757600080fd5b506103d061410c565b6040516103dd9190614def565b60405180910390f35b3480156103f257600080fd5b5061040d60048036038101906104089190614566565b614132565b60405161041a9190614d59565b60405180910390f35b60008054610430906150ca565b80601f016020809104026020016040519081016040528092919081815260200182805461045c906150ca565b80156104a95780601f1061047e576101008083540402835291602001916104a9565b820191906000526020600020905b81548152906001019060200180831161048c57829003601f168201915b505050505081565b600047905090565b60026020528060005260406000206000915090505481565b606084600160009054906101000a900473ffffffffffffffffffffffffffffffffffffffff1673ffffffffffffffffffffffffffffffffffffffff166370a08231336040518263ffffffff1660e01b815260040161052f9190614d59565b60206040518083038186803b15801561054757600080fd5b505afa15801561055b573d6000803e3d6000fd5b505050506040513d601f19601f8201168201806040525081019061057f919061458f565b101561058a57600080fd5b6000600260008473ffffffffffffffffffffffffffffffffffffffff1673ffffffffffffffffffffffffffffffffffffffff1681526020019081526020016000205490508460048281548110610609577f4e487b7100000000000000000000000000000000000000000000000000000000600052603260045260246000fd5b90600052602060002090600202016001018563ffffffff1681548110610658577f4e487b7100000000000000000000000000000000000000000000000000000000600052603260045260246000fd5b90600052602060002090600e0201600d01908051906020019061067c92919061427e565b50600160009054906101000a900473ffffffffffffffffffffffffffffffffffffffff1673ffffffffffffffffffffffffffffffffffffffff166323b872dd3330896040518463ffffffff1660e01b81526004016106dc93929190614d74565b602060405180830381600087803b1580156106f657600080fd5b505af115801561070a573d6000803e3d6000fd5b505050506040513d601f19601f8201168201806040525081019061072e919061446c565b5060048181548110610769577f4e487b7100000000000000000000000000000000000000000000000000000000600052603260045260246000fd5b9060005260206000209060020201600101805480602002602001604051908101604052809291908181526020016000905b82821015610e0257838290600052602060002090600e0201604051806102000160405290816000820160009054906101000a900463ffffffff1663ffffffff1663ffffffff168152602001600182015481526020016002820180546107fe906150ca565b80601f016020809104026020016040519081016040528092919081815260200182805461082a906150ca565b80156108775780601f1061084c57610100808354040283529160200191610877565b820191906000526020600020905b81548152906001019060200180831161085a57829003601f168201915b50505050508152602001600382018054610890906150ca565b80601f01602080910402602001604051908101604052809291908181526020018280546108bc906150ca565b80156109095780601f106108de57610100808354040283529160200191610909565b820191906000526020600020905b8154815290600101906020018083116108ec57829003601f168201915b505050505081526020016004820160009054906101000a900463ffffffff1663ffffffff1663ffffffff1681526020016004820160049054906101000a900473ffffffffffffffffffffffffffffffffffffffff1673ffffffffffffffffffffffffffffffffffffffff1673ffffffffffffffffffffffffffffffffffffffff16815260200160058201805461099e906150ca565b80601f01602080910402602001604051908101604052809291908181526020018280546109ca906150ca565b8015610a175780601f106109ec57610100808354040283529160200191610a17565b820191906000526020600020905b8154815290600101906020018083116109fa57829003601f168201915b50505050508152602001600682018054610a30906150ca565b80601f0160208091040260200160405190810160405280929190818152602001828054610a5c906150ca565b8015610aa95780601f10610a7e57610100808354040283529160200191610aa9565b820191906000526020600020905b815481529060010190602001808311610a8c57829003601f168201915b505050505081526020016007820160009054906101000a900463ffffffff1663ffffffff1663ffffffff1681526020016007820160049054906101000a900460ff16151515158152602001600882018054610b03906150ca565b80601f0160208091040260200160405190810160405280929190818152602001828054610b2f906150ca565b8015610b7c5780601f10610b5157610100808354040283529160200191610b7c565b820191906000526020600020905b815481529060010190602001808311610b5f57829003601f168201915b50505050508152602001600982018054610b95906150ca565b80601f0160208091040260200160405190810160405280929190818152602001828054610bc1906150ca565b8015610c0e5780601f10610be357610100808354040283529160200191610c0e565b820191906000526020600020905b815481529060010190602001808311610bf157829003601f168201915b50505050508152602001600a820160009054906101000a900463ffffffff1663ffffffff1663ffffffff168152602001600b82018054610c4d906150ca565b80601f0160208091040260200160405190810160405280929190818152602001828054610c79906150ca565b8015610cc65780601f10610c9b57610100808354040283529160200191610cc6565b820191906000526020600020905b815481529060010190602001808311610ca957829003601f168201915b50505050508152602001600c82018054610cdf906150ca565b80601f0160208091040260200160405190810160405280929190818152602001828054610d0b906150ca565b8015610d585780601f10610d2d57610100808354040283529160200191610d58565b820191906000526020600020905b815481529060010190602001808311610d3b57829003601f168201915b50505050508152602001600d82018054610d71906150ca565b80601f0160208091040260200160405190810160405280929190818152602001828054610d9d906150ca565b8015610dea5780601f10610dbf57610100808354040283529160200191610dea565b820191906000526020600020905b815481529060010190602001808311610dcd57829003601f168201915b5050505050815250508152602001906001019061079a565b50505050915050949350505050565b60048181548110610e2157600080fd5b90600052602060002090600202016000915090508060000160009054906101000a900473ffffffffffffffffffffffffffffffffffffffff16905081565b89600160009054906101000a900473ffffffffffffffffffffffffffffffffffffffff1673ffffffffffffffffffffffffffffffffffffffff166370a08231336040518263ffffffff1660e01b8152600401610ebb9190614d59565b60206040518083038186803b158015610ed357600080fd5b505afa158015610ee7573d6000803e3d6000fd5b505050506040513d601f19601f82011682018060405250810190610f0b919061458f565b1015610f1657600080fd5b600160009054906101000a900473ffffffffffffffffffffffffffffffffffffffff1673ffffffffffffffffffffffffffffffffffffffff166323b872dd33308d6040518463ffffffff1660e01b8152600401610f7593929190614d74565b602060405180830381600087803b158015610f8f57600080fd5b505af1158015610fa3573d6000803e3d6000fd5b505050506040513d601f19601f82011682018060405250810190610fc7919061446c565b50610fdb8b8b8b8b8b8b8b8b8b8b8b6133f9565b5050505050505050505050565b60606000600260008773ffffffffffffffffffffffffffffffffffffffff1673ffffffffffffffffffffffffffffffffffffffff1681526020019081526020016000205490508760048281548110611069577f4e487b7100000000000000000000000000000000000000000000000000000000600052603260045260246000fd5b90600052602060002090600202016001018663ffffffff16815481106110b8577f4e487b7100000000000000000000000000000000000000000000000000000000600052603260045260246000fd5b90600052602060002090600e020160080190805190602001906110dc92919061427e565b508660048281548110611118577f4e487b7100000000000000000000000000000000000000000000000000000000600052603260045260246000fd5b90600052602060002090600202016001018663ffffffff1681548110611167577f4e487b7100000000000000000000000000000000000000000000000000000000600052603260045260246000fd5b90600052602060002090600e0201600901908051906020019061118b92919061427e565b5083600482815481106111c7577f4e487b7100000000000000000000000000000000000000000000000000000000600052603260045260246000fd5b90600052602060002090600202016001018663ffffffff1681548110611216577f4e487b7100000000000000000000000000000000000000000000000000000000600052603260045260246000fd5b90600052602060002090600e0201600a0160006101000a81548163ffffffff021916908363ffffffff1602179055508260048281548110611280577f4e487b7100000000000000000000000000000000000000000000000000000000600052603260045260246000fd5b90600052602060002090600202016001018663ffffffff16815481106112cf577f4e487b7100000000000000000000000000000000000000000000000000000000600052603260045260246000fd5b90600052602060002090600e0201600c0190805190602001906112f392919061427e565b506004818154811061132e577f4e487b7100000000000000000000000000000000000000000000000000000000600052603260045260246000fd5b9060005260206000209060020201600101805480602002602001604051908101604052809291908181526020016000905b828210156119c757838290600052602060002090600e0201604051806102000160405290816000820160009054906101000a900463ffffffff1663ffffffff1663ffffffff168152602001600182015481526020016002820180546113c3906150ca565b80601f01602080910402602001604051908101604052809291908181526020018280546113ef906150ca565b801561143c5780601f106114115761010080835404028352916020019161143c565b820191906000526020600020905b81548152906001019060200180831161141f57829003601f168201915b50505050508152602001600382018054611455906150ca565b80601f0160208091040260200160405190810160405280929190818152602001828054611481906150ca565b80156114ce5780601f106114a3576101008083540402835291602001916114ce565b820191906000526020600020905b8154815290600101906020018083116114b157829003601f168201915b505050505081526020016004820160009054906101000a900463ffffffff1663ffffffff1663ffffffff1681526020016004820160049054906101000a900473ffffffffffffffffffffffffffffffffffffffff1673ffffffffffffffffffffffffffffffffffffffff1673ffffffffffffffffffffffffffffffffffffffff168152602001600582018054611563906150ca565b80601f016020809104026020016040519081016040528092919081815260200182805461158f906150ca565b80156115dc5780601f106115b1576101008083540402835291602001916115dc565b820191906000526020600020905b8154815290600101906020018083116115bf57829003601f168201915b505050505081526020016006820180546115f5906150ca565b80601f0160208091040260200160405190810160405280929190818152602001828054611621906150ca565b801561166e5780601f106116435761010080835404028352916020019161166e565b820191906000526020600020905b81548152906001019060200180831161165157829003601f168201915b505050505081526020016007820160009054906101000a900463ffffffff1663ffffffff1663ffffffff1681526020016007820160049054906101000a900460ff161515151581526020016008820180546116c8906150ca565b80601f01602080910402602001604051908101604052809291908181526020018280546116f4906150ca565b80156117415780601f1061171657610100808354040283529160200191611741565b820191906000526020600020905b81548152906001019060200180831161172457829003601f168201915b5050505050815260200160098201805461175a906150ca565b80601f0160208091040260200160405190810160405280929190818152602001828054611786906150ca565b80156117d35780601f106117a8576101008083540402835291602001916117d3565b820191906000526020600020905b8154815290600101906020018083116117b657829003601f168201915b50505050508152602001600a820160009054906101000a900463ffffffff1663ffffffff1663ffffffff168152602001600b82018054611812906150ca565b80601f016020809104026020016040519081016040528092919081815260200182805461183e906150ca565b801561188b5780601f106118605761010080835404028352916020019161188b565b820191906000526020600020905b81548152906001019060200180831161186e57829003601f168201915b50505050508152602001600c820180546118a4906150ca565b80601f01602080910402602001604051908101604052809291908181526020018280546118d0906150ca565b801561191d5780601f106118f25761010080835404028352916020019161191d565b820191906000526020600020905b81548152906001019060200180831161190057829003601f168201915b50505050508152602001600d82018054611936906150ca565b80601f0160208091040260200160405190810160405280929190818152602001828054611962906150ca565b80156119af5780601f10611984576101008083540402835291602001916119af565b820191906000526020600020905b81548152906001019060200180831161199257829003601f168201915b5050505050815250508152602001906001019061135f565b505050509150509695505050505050565b6119eb8a348b8b8b8b8b8b8b8b8b6133f9565b50505050505050505050565b60606000600260008473ffffffffffffffffffffffffffffffffffffffff1673ffffffffffffffffffffffffffffffffffffffff16815260200190815260200160002054905060048181548110611a77577f4e487b7100000000000000000000000000000000000000000000000000000000600052603260045260246000fd5b9060005260206000209060020201600101805480602002602001604051908101604052809291908181526020016000905b8282101561211057838290600052602060002090600e0201604051806102000160405290816000820160009054906101000a900463ffffffff1663ffffffff1663ffffffff16815260200160018201548152602001600282018054611b0c906150ca565b80601f0160208091040260200160405190810160405280929190818152602001828054611b38906150ca565b8015611b855780601f10611b5a57610100808354040283529160200191611b85565b820191906000526020600020905b815481529060010190602001808311611b6857829003601f168201915b50505050508152602001600382018054611b9e906150ca565b80601f0160208091040260200160405190810160405280929190818152602001828054611bca906150ca565b8015611c175780601f10611bec57610100808354040283529160200191611c17565b820191906000526020600020905b815481529060010190602001808311611bfa57829003601f168201915b505050505081526020016004820160009054906101000a900463ffffffff1663ffffffff1663ffffffff1681526020016004820160049054906101000a900473ffffffffffffffffffffffffffffffffffffffff1673ffffffffffffffffffffffffffffffffffffffff1673ffffffffffffffffffffffffffffffffffffffff168152602001600582018054611cac906150ca565b80601f0160208091040260200160405190810160405280929190818152602001828054611cd8906150ca565b8015611d255780601f10611cfa57610100808354040283529160200191611d25565b820191906000526020600020905b815481529060010190602001808311611d0857829003601f168201915b50505050508152602001600682018054611d3e906150ca565b80601f0160208091040260200160405190810160405280929190818152602001828054611d6a906150ca565b8015611db75780601f10611d8c57610100808354040283529160200191611db7565b820191906000526020600020905b815481529060010190602001808311611d9a57829003601f168201915b505050505081526020016007820160009054906101000a900463ffffffff1663ffffffff1663ffffffff1681526020016007820160049054906101000a900460ff16151515158152602001600882018054611e11906150ca565b80601f0160208091040260200160405190810160405280929190818152602001828054611e3d906150ca565b8015611e8a5780601f10611e5f57610100808354040283529160200191611e8a565b820191906000526020600020905b815481529060010190602001808311611e6d57829003601f168201915b50505050508152602001600982018054611ea3906150ca565b80601f0160208091040260200160405190810160405280929190818152602001828054611ecf906150ca565b8015611f1c5780601f10611ef157610100808354040283529160200191611f1c565b820191906000526020600020905b815481529060010190602001808311611eff57829003601f168201915b50505050508152602001600a820160009054906101000a900463ffffffff1663ffffffff1663ffffffff168152602001600b82018054611f5b906150ca565b80601f0160208091040260200160405190810160405280929190818152602001828054611f87906150ca565b8015611fd45780601f10611fa957610100808354040283529160200191611fd4565b820191906000526020600020905b815481529060010190602001808311611fb757829003601f168201915b50505050508152602001600c82018054611fed906150ca565b80601f0160208091040260200160405190810160405280929190818152602001828054612019906150ca565b80156120665780601f1061203b57610100808354040283529160200191612066565b820191906000526020600020905b81548152906001019060200180831161204957829003601f168201915b50505050508152602001600d8201805461207f906150ca565b80601f01602080910402602001604051908101604052809291908181526020018280546120ab906150ca565b80156120f85780601f106120cd576101008083540402835291602001916120f8565b820191906000526020600020905b8154815290600101906020018083116120db57829003601f168201915b50505050508152505081526020019060010190611aa8565b50505050915050919050565b60606004805480602002602001604051908101604052809291908181526020016000905b8282101561285d57838290600052602060002090600202016040518060400160405290816000820160009054906101000a900473ffffffffffffffffffffffffffffffffffffffff1673ffffffffffffffffffffffffffffffffffffffff1673ffffffffffffffffffffffffffffffffffffffff16815260200160018201805480602002602001604051908101604052809291908181526020016000905b8282101561284657838290600052602060002090600e0201604051806102000160405290816000820160009054906101000a900463ffffffff1663ffffffff1663ffffffff16815260200160018201548152602001600282018054612242906150ca565b80601f016020809104026020016040519081016040528092919081815260200182805461226e906150ca565b80156122bb5780601f10612290576101008083540402835291602001916122bb565b820191906000526020600020905b81548152906001019060200180831161229e57829003601f168201915b505050505081526020016003820180546122d4906150ca565b80601f0160208091040260200160405190810160405280929190818152602001828054612300906150ca565b801561234d5780601f106123225761010080835404028352916020019161234d565b820191906000526020600020905b81548152906001019060200180831161233057829003601f168201915b505050505081526020016004820160009054906101000a900463ffffffff1663ffffffff1663ffffffff1681526020016004820160049054906101000a900473ffffffffffffffffffffffffffffffffffffffff1673ffffffffffffffffffffffffffffffffffffffff1673ffffffffffffffffffffffffffffffffffffffff1681526020016005820180546123e2906150ca565b80601f016020809104026020016040519081016040528092919081815260200182805461240e906150ca565b801561245b5780601f106124305761010080835404028352916020019161245b565b820191906000526020600020905b81548152906001019060200180831161243e57829003601f168201915b50505050508152602001600682018054612474906150ca565b80601f01602080910402602001604051908101604052809291908181526020018280546124a0906150ca565b80156124ed5780601f106124c2576101008083540402835291602001916124ed565b820191906000526020600020905b8154815290600101906020018083116124d057829003601f168201915b505050505081526020016007820160009054906101000a900463ffffffff1663ffffffff1663ffffffff1681526020016007820160049054906101000a900460ff16151515158152602001600882018054612547906150ca565b80601f0160208091040260200160405190810160405280929190818152602001828054612573906150ca565b80156125c05780601f10612595576101008083540402835291602001916125c0565b820191906000526020600020905b8154815290600101906020018083116125a357829003601f168201915b505050505081526020016009820180546125d9906150ca565b80601f0160208091040260200160405190810160405280929190818152602001828054612605906150ca565b80156126525780601f1061262757610100808354040283529160200191612652565b820191906000526020600020905b81548152906001019060200180831161263557829003601f168201915b50505050508152602001600a820160009054906101000a900463ffffffff1663ffffffff1663ffffffff168152602001600b82018054612691906150ca565b80601f01602080910402602001604051908101604052809291908181526020018280546126bd906150ca565b801561270a5780601f106126df5761010080835404028352916020019161270a565b820191906000526020600020905b8154815290600101906020018083116126ed57829003601f168201915b50505050508152602001600c82018054612723906150ca565b80601f016020809104026020016040519081016040528092919081815260200182805461274f906150ca565b801561279c5780601f106127715761010080835404028352916020019161279c565b820191906000526020600020905b81548152906001019060200180831161277f57829003601f168201915b50505050508152602001600d820180546127b5906150ca565b80601f01602080910402602001604051908101604052809291908181526020018280546127e1906150ca565b801561282e5780601f106128035761010080835404028352916020019161282e565b820191906000526020600020905b81548152906001019060200180831161281157829003601f168201915b505050505081525050815260200190600101906121de565b505050508152505081526020019060010190612140565b50505050905090565b60606000600260008573ffffffffffffffffffffffffffffffffffffffff1673ffffffffffffffffffffffffffffffffffffffff1681526020019081526020016000205490506000600482815481106128e8577f4e487b7100000000000000000000000000000000000000000000000000000000600052603260045260246000fd5b90600052602060002090600202016001018463ffffffff1681548110612937577f4e487b7100000000000000000000000000000000000000000000000000000000600052603260045260246000fd5b90600052602060002090600e0201600101549050600060048381548110612987577f4e487b7100000000000000000000000000000000000000000000000000000000600052603260045260246000fd5b90600052602060002090600202016001018563ffffffff16815481106129d6577f4e487b7100000000000000000000000000000000000000000000000000000000600052603260045260246000fd5b90600052602060002090600e0201600a0160009054906101000a900463ffffffff1663ffffffff169050600060048481548110612a3c577f4e487b7100000000000000000000000000000000000000000000000000000000600052603260045260246000fd5b90600052602060002090600202016001018663ffffffff1681548110612a8b577f4e487b7100000000000000000000000000000000000000000000000000000000600052603260045260246000fd5b90600052602060002090600e020160040160049054906101000a900473ffffffffffffffffffffffffffffffffffffffff1690508673ffffffffffffffffffffffffffffffffffffffff163373ffffffffffffffffffffffffffffffffffffffff161415612c0e576064821415612b48578673ffffffffffffffffffffffffffffffffffffffff166108fc849081150290604051600060405180830381858888f19350505050158015612b42573d6000803e3d6000fd5b50612c09565b6032821415612ba9578673ffffffffffffffffffffffffffffffffffffffff166108fc600285612b789190614f4d565b9081150290604051600060405180830381858888f19350505050158015612ba3573d6000803e3d6000fd5b50612c08565b8673ffffffffffffffffffffffffffffffffffffffff166108fc60648486612bd19190614f7e565b612bdb9190614f4d565b9081150290604051600060405180830381858888f19350505050158015612c06573d6000803e3d6000fd5b505b5b612d16565b8073ffffffffffffffffffffffffffffffffffffffff163373ffffffffffffffffffffffffffffffffffffffff161415612d15576032821415612ca3578073ffffffffffffffffffffffffffffffffffffffff166108fc600285612c729190614f4d565b9081150290604051600060405180830381858888f19350505050158015612c9d573d6000803e3d6000fd5b50612d14565b6000826064612cb29190614fd8565b90508173ffffffffffffffffffffffffffffffffffffffff166108fc60648387612cdc9190614f7e565b612ce69190614f4d565b9081150290604051600060405180830381858888f19350505050158015612d11573d6000803e3d6000fd5b50505b5b5b60048481548110612d50577f4e487b7100000000000000000000000000000000000000000000000000000000600052603260045260246000fd5b9060005260206000209060020201600101805480602002602001604051908101604052809291908181526020016000905b828210156133e957838290600052602060002090600e0201604051806102000160405290816000820160009054906101000a900463ffffffff1663ffffffff1663ffffffff16815260200160018201548152602001600282018054612de5906150ca565b80601f0160208091040260200160405190810160405280929190818152602001828054612e11906150ca565b8015612e5e5780601f10612e3357610100808354040283529160200191612e5e565b820191906000526020600020905b815481529060010190602001808311612e4157829003601f168201915b50505050508152602001600382018054612e77906150ca565b80601f0160208091040260200160405190810160405280929190818152602001828054612ea3906150ca565b8015612ef05780601f10612ec557610100808354040283529160200191612ef0565b820191906000526020600020905b815481529060010190602001808311612ed357829003601f168201915b505050505081526020016004820160009054906101000a900463ffffffff1663ffffffff1663ffffffff1681526020016004820160049054906101000a900473ffffffffffffffffffffffffffffffffffffffff1673ffffffffffffffffffffffffffffffffffffffff1673ffffffffffffffffffffffffffffffffffffffff168152602001600582018054612f85906150ca565b80601f0160208091040260200160405190810160405280929190818152602001828054612fb1906150ca565b8015612ffe5780601f10612fd357610100808354040283529160200191612ffe565b820191906000526020600020905b815481529060010190602001808311612fe157829003601f168201915b50505050508152602001600682018054613017906150ca565b80601f0160208091040260200160405190810160405280929190818152602001828054613043906150ca565b80156130905780601f1061306557610100808354040283529160200191613090565b820191906000526020600020905b81548152906001019060200180831161307357829003601f168201915b505050505081526020016007820160009054906101000a900463ffffffff1663ffffffff1663ffffffff1681526020016007820160049054906101000a900460ff161515151581526020016008820180546130ea906150ca565b80601f0160208091040260200160405190810160405280929190818152602001828054613116906150ca565b80156131635780601f1061313857610100808354040283529160200191613163565b820191906000526020600020905b81548152906001019060200180831161314657829003601f168201915b5050505050815260200160098201805461317c906150ca565b80601f01602080910402602001604051908101604052809291908181526020018280546131a8906150ca565b80156131f55780601f106131ca576101008083540402835291602001916131f5565b820191906000526020600020905b8154815290600101906020018083116131d857829003601f168201915b50505050508152602001600a820160009054906101000a900463ffffffff1663ffffffff1663ffffffff168152602001600b82018054613234906150ca565b80601f0160208091040260200160405190810160405280929190818152602001828054613260906150ca565b80156132ad5780601f10613282576101008083540402835291602001916132ad565b820191906000526020600020905b81548152906001019060200180831161329057829003601f168201915b50505050508152602001600c820180546132c6906150ca565b80601f01602080910402602001604051908101604052809291908181526020018280546132f2906150ca565b801561333f5780601f106133145761010080835404028352916020019161333f565b820191906000526020600020905b81548152906001019060200180831161332257829003601f168201915b50505050508152602001600d82018054613358906150ca565b80601f0160208091040260200160405190810160405280929190818152602001828054613384906150ca565b80156133d15780601f106133a6576101008083540402835291602001916133d1565b820191906000526020600020905b8154815290600101906020018083116133b457829003601f168201915b50505050508152505081526020019060010190612d81565b5050505094505050505092915050565b6000600260003373ffffffffffffffffffffffffffffffffffffffff1673ffffffffffffffffffffffffffffffffffffffff16815260200190815260200160002054905060008114156134525761344f33614171565b90505b6004818154811061348c577f4e487b7100000000000000000000000000000000000000000000000000000000600052603260045260246000fd5b90600052602060002090600202016001016040518061020001604052808e63ffffffff1681526020018d81526020018c81526020018b81526020018a63ffffffff1681526020018973ffffffffffffffffffffffffffffffffffffffff1681526020018881526020018781526020018663ffffffff1681526020018515158152602001604051806020016040528060008152508152602001604051806020016040528060008152508152602001600063ffffffff1681526020018481526020016040518060200160405280600081525081526020016040518060200160405280600081525081525090806001815401808255809150506001900390600052602060002090600e020160009091909190915060008201518160000160006101000a81548163ffffffff021916908363ffffffff1602179055506020820151816001015560408201518160020190805190602001906135ea92919061427e565b50606082015181600301908051906020019061360792919061427e565b5060808201518160040160006101000a81548163ffffffff021916908363ffffffff16021790555060a08201518160040160046101000a81548173ffffffffffffffffffffffffffffffffffffffff021916908373ffffffffffffffffffffffffffffffffffffffff16021790555060c082015181600501908051906020019061369292919061427e565b5060e08201518160060190805190602001906136af92919061427e565b506101008201518160070160006101000a81548163ffffffff021916908363ffffffff1602179055506101208201518160070160046101000a81548160ff02191690831515021790555061014082015181600801908051906020019061371692919061427e565b5061016082015181600901908051906020019061373492919061427e565b5061018082015181600a0160006101000a81548163ffffffff021916908363ffffffff1602179055506101a082015181600b01908051906020019061377a92919061427e565b506101c082015181600c01908051906020019061379892919061427e565b506101e082015181600d0190805190602001906137b692919061427e565b505050505050505050505050505050565b60606000600260008473ffffffffffffffffffffffffffffffffffffffff1673ffffffffffffffffffffffffffffffffffffffff168152602001908152602001600020549050600160048281548110613849577f4e487b7100000000000000000000000000000000000000000000000000000000600052603260045260246000fd5b90600052602060002090600202016001018563ffffffff1681548110613898577f4e487b7100000000000000000000000000000000000000000000000000000000600052603260045260246000fd5b90600052602060002090600e020160070160046101000a81548160ff021916908315150217905550600481815481106138fa577f4e487b7100000000000000000000000000000000000000000000000000000000600052603260045260246000fd5b9060005260206000209060020201600101805480602002602001604051908101604052809291908181526020016000905b82821015613f9357838290600052602060002090600e0201604051806102000160405290816000820160009054906101000a900463ffffffff1663ffffffff1663ffffffff1681526020016001820154815260200160028201805461398f906150ca565b80601f01602080910402602001604051908101604052809291908181526020018280546139bb906150ca565b8015613a085780601f106139dd57610100808354040283529160200191613a08565b820191906000526020600020905b8154815290600101906020018083116139eb57829003601f168201915b50505050508152602001600382018054613a21906150ca565b80601f0160208091040260200160405190810160405280929190818152602001828054613a4d906150ca565b8015613a9a5780601f10613a6f57610100808354040283529160200191613a9a565b820191906000526020600020905b815481529060010190602001808311613a7d57829003601f168201915b505050505081526020016004820160009054906101000a900463ffffffff1663ffffffff1663ffffffff1681526020016004820160049054906101000a900473ffffffffffffffffffffffffffffffffffffffff1673ffffffffffffffffffffffffffffffffffffffff1673ffffffffffffffffffffffffffffffffffffffff168152602001600582018054613b2f906150ca565b80601f0160208091040260200160405190810160405280929190818152602001828054613b5b906150ca565b8015613ba85780601f10613b7d57610100808354040283529160200191613ba8565b820191906000526020600020905b815481529060010190602001808311613b8b57829003601f168201915b50505050508152602001600682018054613bc1906150ca565b80601f0160208091040260200160405190810160405280929190818152602001828054613bed906150ca565b8015613c3a5780601f10613c0f57610100808354040283529160200191613c3a565b820191906000526020600020905b815481529060010190602001808311613c1d57829003601f168201915b505050505081526020016007820160009054906101000a900463ffffffff1663ffffffff1663ffffffff1681526020016007820160049054906101000a900460ff16151515158152602001600882018054613c94906150ca565b80601f0160208091040260200160405190810160405280929190818152602001828054613cc0906150ca565b8015613d0d5780601f10613ce257610100808354040283529160200191613d0d565b820191906000526020600020905b815481529060010190602001808311613cf057829003601f168201915b50505050508152602001600982018054613d26906150ca565b80601f0160208091040260200160405190810160405280929190818152602001828054613d52906150ca565b8015613d9f5780601f10613d7457610100808354040283529160200191613d9f565b820191906000526020600020905b815481529060010190602001808311613d8257829003601f168201915b50505050508152602001600a820160009054906101000a900463ffffffff1663ffffffff1663ffffffff168152602001600b82018054613dde906150ca565b80601f0160208091040260200160405190810160405280929190818152602001828054613e0a906150ca565b8015613e575780601f10613e2c57610100808354040283529160200191613e57565b820191906000526020600020905b815481529060010190602001808311613e3a57829003601f168201915b50505050508152602001600c82018054613e70906150ca565b80601f0160208091040260200160405190810160405280929190818152602001828054613e9c906150ca565b8015613ee95780601f10613ebe57610100808354040283529160200191613ee9565b820191906000526020600020905b815481529060010190602001808311613ecc57829003601f168201915b50505050508152602001600d82018054613f02906150ca565b80601f0160208091040260200160405190810160405280929190818152602001828054613f2e906150ca565b8015613f7b5780601f10613f5057610100808354040283529160200191613f7b565b820191906000526020600020905b815481529060010190602001808311613f5e57829003601f168201915b5050505050815250508152602001906001019061392b565b5050505091505092915050565b80600160009054906101000a900473ffffffffffffffffffffffffffffffffffffffff1673ffffffffffffffffffffffffffffffffffffffff166370a08231336040518263ffffffff1660e01b8152600401613ffc9190614d59565b60206040518083038186803b15801561401457600080fd5b505afa158015614028573d6000803e3d6000fd5b505050506040513d601f19601f8201168201806040525081019061404c919061458f565b101561405757600080fd5b600160009054906101000a900473ffffffffffffffffffffffffffffffffffffffff1673ffffffffffffffffffffffffffffffffffffffff166323b872dd3330846040518463ffffffff1660e01b81526004016140b693929190614d74565b602060405180830381600087803b1580156140d057600080fd5b505af11580156140e4573d6000803e3d6000fd5b505050506040513d601f19601f82011682018060405250810190614108919061446c565b5050565b600160009054906101000a900473ffffffffffffffffffffffffffffffffffffffff1681565b6003818154811061414257600080fd5b906000526020600020016000915054906101000a900473ffffffffffffffffffffffffffffffffffffffff1681565b6000600460018160018154018082558091505003906000526020600020905050600060016004805490506141a59190614fd8565b905082600482815481106141e2577f4e487b7100000000000000000000000000000000000000000000000000000000600052603260045260246000fd5b906000526020600020906002020160000160006101000a81548173ffffffffffffffffffffffffffffffffffffffff021916908373ffffffffffffffffffffffffffffffffffffffff16021790555080600260008573ffffffffffffffffffffffffffffffffffffffff1673ffffffffffffffffffffffffffffffffffffffff1681526020019081526020016000208190555080915050919050565b82805461428a906150ca565b90600052602060002090601f0160209004810192826142ac57600085556142f3565b82601f106142c557805160ff19168380011785556142f3565b828001600101855582156142f3579182015b828111156142f25782518255916020019190600101906142d7565b5b5090506143009190614304565b5090565b5b8082111561431d576000816000905550600101614305565b5090565b600061433461432f84614e6c565b614e47565b90508281526020810184848401111561434c57600080fd5b614357848285615088565b509392505050565b60008135905061436e816151fa565b92915050565b60008135905061438381615211565b92915050565b60008151905061439881615211565b92915050565b600082601f8301126143af57600080fd5b81356143bf848260208601614321565b91505092915050565b6000813590506143d781615228565b92915050565b6000815190506143ec81615228565b92915050565b6000813590506144018161523f565b92915050565b60006020828403121561441957600080fd5b60006144278482850161435f565b91505092915050565b6000806040838503121561444357600080fd5b60006144518582860161435f565b9250506020614462858286016143f2565b9150509250929050565b60006020828403121561447e57600080fd5b600061448c84828501614389565b91505092915050565b60008060008060008060c087890312156144ae57600080fd5b600087013567ffffffffffffffff8111156144c857600080fd5b6144d489828a0161439e565b965050602087013567ffffffffffffffff8111156144f157600080fd5b6144fd89828a0161439e565b955050604061450e89828a0161435f565b945050606061451f89828a016143f2565b935050608061453089828a016143f2565b92505060a087013567ffffffffffffffff81111561454d57600080fd5b61455989828a0161439e565b9150509295509295509295565b60006020828403121561457857600080fd5b6000614586848285016143c8565b91505092915050565b6000602082840312156145a157600080fd5b60006145af848285016143dd565b91505092915050565b600080600080608085870312156145ce57600080fd5b60006145dc878288016143c8565b945050602085013567ffffffffffffffff8111156145f957600080fd5b6146058782880161439e565b9350506040614616878288016143f2565b92505060606146278782880161435f565b91505092959194509250565b6000806040838503121561464657600080fd5b6000614654858286016143f2565b92505060206146658582860161435f565b9150509250929050565b6000806000806000806000806000806101408b8d03121561468f57600080fd5b600061469d8d828e016143f2565b9a505060208b013567ffffffffffffffff8111156146ba57600080fd5b6146c68d828e0161439e565b99505060408b013567ffffffffffffffff8111156146e357600080fd5b6146ef8d828e0161439e565b98505060606147008d828e016143f2565b97505060806147118d828e0161435f565b96505060a08b013567ffffffffffffffff81111561472e57600080fd5b61473a8d828e0161439e565b95505060c08b013567ffffffffffffffff81111561475757600080fd5b6147638d828e0161439e565b94505060e06147748d828e016143f2565b9350506101006147868d828e01614374565b9250506101208b013567ffffffffffffffff8111156147a457600080fd5b6147b08d828e0161439e565b9150509295989b9194979a5092959850565b60008060008060008060008060008060006101608c8e0312156147e457600080fd5b60006147f28e828f016143f2565b9b505060206148038e828f016143c8565b9a505060408c013567ffffffffffffffff81111561482057600080fd5b61482c8e828f0161439e565b99505060608c013567ffffffffffffffff81111561484957600080fd5b6148558e828f0161439e565b98505060806148668e828f016143f2565b97505060a06148778e828f0161435f565b96505060c08c013567ffffffffffffffff81111561489457600080fd5b6148a08e828f0161439e565b95505060e08c013567ffffffffffffffff8111156148bd57600080fd5b6148c98e828f0161439e565b9450506101006148db8e828f016143f2565b9350506101206148ed8e828f01614374565b9250506101408c013567ffffffffffffffff81111561490b57600080fd5b6149178e828f0161439e565b9150509295989b509295989b9093969950565b60006149368383614b5f565b905092915050565b600061494a8383614cef565b905092915050565b61495b8161500c565b82525050565b61496a8161500c565b82525050565b600061497b82614ebd565b6149858185614ef8565b93508360208202850161499785614e9d565b8060005b858110156149d357848403895281516149b4858261492a565b94506149bf83614ede565b925060208a0199505060018101905061499b565b50829750879550505050505092915050565b60006149f082614ebd565b6149fa8185614f09565b935083602082028501614a0c85614e9d565b8060005b85811015614a485784840389528151614a29858261492a565b9450614a3483614ede565b925060208a01995050600181019050614a10565b50829750879550505050505092915050565b6000614a6582614ec8565b614a6f8185614f1a565b935083602082028501614a8185614ead565b8060005b85811015614abd5784840389528151614a9e858261493e565b9450614aa983614eeb565b925060208a01995050600181019050614a85565b50829750879550505050505092915050565b614ad88161501e565b82525050565b614ae781615064565b82525050565b6000614af882614ed3565b614b028185614f2b565b9350614b12818560208601615097565b614b1b816151e9565b840191505092915050565b6000614b3182614ed3565b614b3b8185614f3c565b9350614b4b818560208601615097565b614b54816151e9565b840191505092915050565b600061020083016000830151614b786000860182614d4a565b506020830151614b8b6020860182614d2c565b5060408301518482036040860152614ba38282614aed565b91505060608301518482036060860152614bbd8282614aed565b9150506080830151614bd26080860182614d4a565b5060a0830151614be560a0860182614952565b5060c083015184820360c0860152614bfd8282614aed565b91505060e083015184820360e0860152614c178282614aed565b915050610100830151614c2e610100860182614d4a565b50610120830151614c43610120860182614acf565b50610140830151848203610140860152614c5d8282614aed565b915050610160830151848203610160860152614c798282614aed565b915050610180830151614c90610180860182614d4a565b506101a08301518482036101a0860152614caa8282614aed565b9150506101c08301518482036101c0860152614cc68282614aed565b9150506101e08301518482036101e0860152614ce28282614aed565b9150508091505092915050565b6000604083016000830151614d076000860182614952565b5060208301518482036020860152614d1f8282614970565b9150508091505092915050565b614d358161504a565b82525050565b614d448161504a565b82525050565b614d5381615054565b82525050565b6000602082019050614d6e6000830184614961565b92915050565b6000606082019050614d896000830186614961565b614d966020830185614961565b614da36040830184614d3b565b949350505050565b60006020820190508181036000830152614dc581846149e5565b905092915050565b60006020820190508181036000830152614de78184614a5a565b905092915050565b6000602082019050614e046000830184614ade565b92915050565b60006020820190508181036000830152614e248184614b26565b905092915050565b6000602082019050614e416000830184614d3b565b92915050565b6000614e51614e62565b9050614e5d82826150fc565b919050565b6000604051905090565b600067ffffffffffffffff821115614e8757614e866151ba565b5b614e90826151e9565b9050602081019050919050565b6000819050602082019050919050565b6000819050602082019050919050565b600081519050919050565b600081519050919050565b600081519050919050565b6000602082019050919050565b6000602082019050919050565b600082825260208201905092915050565b600082825260208201905092915050565b600082825260208201905092915050565b600082825260208201905092915050565b600082825260208201905092915050565b6000614f588261504a565b9150614f638361504a565b925082614f7357614f7261515c565b5b828204905092915050565b6000614f898261504a565b9150614f948361504a565b9250817fffffffffffffffffffffffffffffffffffffffffffffffffffffffffffffffff0483118215151615614fcd57614fcc61512d565b5b828202905092915050565b6000614fe38261504a565b9150614fee8361504a565b9250828210156150015761500061512d565b5b828203905092915050565b60006150178261502a565b9050919050565b60008115159050919050565b600073ffffffffffffffffffffffffffffffffffffffff82169050919050565b6000819050919050565b600063ffffffff82169050919050565b600061506f82615076565b9050919050565b60006150818261502a565b9050919050565b82818337600083830152505050565b60005b838110156150b557808201518184015260208101905061509a565b838111156150c4576000848401525b50505050565b600060028204905060018216806150e257607f821691505b602082108114156150f6576150f561518b565b5b50919050565b615105826151e9565b810181811067ffffffffffffffff82111715615124576151236151ba565b5b80604052505050565b7f4e487b7100000000000000000000000000000000000000000000000000000000600052601160045260246000fd5b7f4e487b7100000000000000000000000000000000000000000000000000000000600052601260045260246000fd5b7f4e487b7100000000000000000000000000000000000000000000000000000000600052602260045260246000fd5b7f4e487b7100000000000000000000000000000000000000000000000000000000600052604160045260246000fd5b6000601f19601f8301169050919050565b6152038161500c565b811461520e57600080fd5b50565b61521a8161501e565b811461522557600080fd5b50565b6152318161504a565b811461523c57600080fd5b50565b61524881615054565b811461525357600080fd5b5056fea26469706673582212200c40a002a6e284ed1a7942e62c31c0891076eed4784adc00828ee9a230a6b06564736f6c63430008030033457468537761702046616972747261646572204d61696e204150702054657374696e67",
  "immutableReferences": {},
  "source": "// SPDX-License-Identifier: MIT\npragma solidity ^0.8.3;\n\nimport \"./Token.sol\";\n\ncontract BuyInvoicesMainAPp {\n    string public name = \"EthSwap Fairtrader Main APp Testing\";\n    Token public token;\n    //\n    mapping(address => uint256) public stakes;\n\n    address[] public stakers;\n    Stakeholder[] public stakeholders;\n\n    // event SmartContractOpenedBuyer(\n    //     uint32 _id,\n    //     string _termsAndCondition,\n    //     string _warrantyFile,\n    //     uint32 _apealTime,\n    //     string _sellerWalletAddress,\n    //     string _invoiceFile,\n    //     string _customerEmail,\n    //     uint32 _mediatorId,\n    //     bool _medAccepted,\n    //     string _friendsEmail\n    // );\n    // event ContractCompletedSeller(\n    //     address indexed user,\n    //     uint256 userIndex,\n    //     address sellerOrUser\n    // );\n\n    struct OrderData {\n        uint32 _orderId;\n        uint256 _amount;\n        string _termsAndCondition;\n        string _warrantyFile;\n        uint32 _apealTime;\n        address _sellerWalletAddress;\n        string _invoiceFile;\n        string _customerEmail;\n        uint32 _mediatorId;\n        bool _medAccepted;\n        string _judgeReport;\n        string _judgeReportFile;\n        uint32 _buyerTakeAmountInPercent;\n        string _friendsEmail;\n        string _appealTime;\n        string _whoCalled;\n    }\n\n    struct Stakeholder {\n        address user;\n        OrderData[] address_stakes;\n    }\n\n    constructor(Token _token) public {\n        // constructor() public {\n        stakeholders.push();\n        token = _token;\n    }\n\n    function getBalance() external view returns (uint256) {\n        return address(this).balance;\n    }\n\n    function exchangeHistoryOfStake()\n        external\n        view\n        returns (Stakeholder[] memory)\n    {\n        return stakeholders;\n    }\n\n    function getAllOrdersOfOneUser(address _userAddress)\n        external\n        view\n        returns (OrderData[] memory)\n    {\n        // require(/* mediator is calling not any other person for security purpose*/);\n        uint256 index = stakes[_userAddress];\n        return stakeholders[index].address_stakes;\n    }\n\n    function medAcceptNewCases(uint32 _index, address buyerWalletAddress)\n        external\n        returns (OrderData[] memory)\n    {\n        // require(/* mediator is calling not any other person for security purpose*/);\n        uint256 index = stakes[buyerWalletAddress];\n        stakeholders[index].address_stakes[_index]._medAccepted = true;\n\n        return stakeholders[index].address_stakes;\n    }\n    \n     function medJudgeCaseReport(string memory _judgeReport, string memory _judgeReportFile, address buyerWalletAddress, uint32 _index, uint32 _buyerTakeAmountInPercent, string memory _appealTime)\n        external\n        returns (OrderData[] memory)\n    {\n        // require(/* mediator is calling not any other person for security purpose*/);\n        uint256 index = stakes[buyerWalletAddress];\n        stakeholders[index].address_stakes[_index]._judgeReport = _judgeReport;\n        stakeholders[index].address_stakes[_index]._judgeReportFile = _judgeReportFile;\n        stakeholders[index].address_stakes[_index]._buyerTakeAmountInPercent = _buyerTakeAmountInPercent;\n        stakeholders[index].address_stakes[_index]._appealTime = _appealTime;\n\n        return stakeholders[index].address_stakes;\n    }\n    \n    function payFeeForSuperMediator(uint256 _amount, string memory _whoIsCalling, uint32 _index, address buyerWalletAddress) public\n        returns (OrderData[] memory)\n     {\n        // User can't sell more tokens than they have\n        require(token.balanceOf(msg.sender) >= _amount);\n\n        uint256 index = stakes[buyerWalletAddress];\n        stakeholders[index].address_stakes[_index]._whoCalled = _whoIsCalling;\n\n\n        // Perform sale\n        token.transferFrom(msg.sender, address(this), _amount);\n\n        return stakeholders[index].address_stakes;\n    }\n    \n    function payFeeForSuperMediatorr(uint256 _amount) public {\n        // User can't sell more tokens than they have\n        require(token.balanceOf(msg.sender) >= _amount);\n\n        // Perform sale\n        token.transferFrom(msg.sender, address(this), _amount);\n\n    }\n    \n\n\n  function userWithdrawTheirDisputesOrdersCash(address buyerWalletAddress, uint32 _index)\n        external\n        returns (OrderData[] memory)\n    {\n        // require(/* mediator is calling not any other person for security purpose*/);\n        uint256 index = stakes[buyerWalletAddress];\n\n        uint amount =  stakeholders[index].address_stakes[_index]._amount;\n        uint buyerTakeAmountInPercent = stakeholders[index].address_stakes[_index]._buyerTakeAmountInPercent;\n        address sellerWalletAddressOfContract = stakeholders[index].address_stakes[_index]._sellerWalletAddress;\n\n        // ADDING CHECK THAT ONLY SELLER ADDRESS IS SAME IN CONTRACT OR SOMEOEN ELSE IS TRYING\n        // string memory sellerAddress = stakeholders[index].address_stakes[_index]._sellerWalletAddress;\n        // require(string(sellerWalletAddress) == sellerAddress);\n\n        if(msg.sender == buyerWalletAddress) {\n            if (buyerTakeAmountInPercent == 100) {\n                payable(buyerWalletAddress).transfer(amount);\n                \n            } else if(buyerTakeAmountInPercent == 50) {\n                payable(buyerWalletAddress).transfer(amount / 2);\n            } else {\n                payable(buyerWalletAddress).transfer(amount * buyerTakeAmountInPercent / 100);\n            }\n        } else if (msg.sender == sellerWalletAddressOfContract) {\n            if(buyerTakeAmountInPercent == 50) {\n                payable(sellerWalletAddressOfContract).transfer(amount / 2);\n            } else {\n                uint256 sellerTakePercent = 100 - buyerTakeAmountInPercent;\n                payable(sellerWalletAddressOfContract).transfer(amount * sellerTakePercent / 100);\n            }\n        }\n\n        return stakeholders[index].address_stakes;\n    }\n\n    function _addStakeholder(address staker) internal returns (uint256) {\n        stakeholders.push();\n        uint256 userIndex = stakeholders.length - 1;\n        stakeholders[userIndex].user = staker;\n        stakes[staker] = userIndex;\n        return userIndex;\n    }\n\n    function _saveOrdersDataOfUser(\n        uint32 _orderId,\n        uint256 _amount,\n        string memory _termsAndCondition,\n        string memory _warrantyFile,\n        uint32 _apealTime,\n        address _sellerWalletAddress,\n        string memory _invoiceFile,\n        string memory _customerEmail,\n        uint32 _mediatorId,\n        bool _medAccepted,\n        string memory _friendsEmail\n    ) public {\n        // Check that the requested amount of tokens to sell is more than 0\n        // require(_sellerWalletAddress == '', \"seller Wallet Address Cannot nothing\");\n\n        uint256 index = stakes[msg.sender];\n        if (index == 0) {\n            index = _addStakeholder(msg.sender);\n        }\n\n        stakeholders[index].address_stakes.push(\n            OrderData(\n                _orderId,\n                _amount,\n                _termsAndCondition,\n                _warrantyFile,\n                _apealTime,\n                _sellerWalletAddress,\n                _invoiceFile,\n                _customerEmail,\n                _mediatorId,\n                _medAccepted,\n                \"\",\n                \"\",\n                0,\n                _friendsEmail,\n                \"\",\n                \"\"\n            )\n        );\n    }\n\n    function buyWithFTP(\n        uint32 _orderId,\n        uint256 _amount,\n        string memory _termsAndCondition,\n        string memory _warrantyFile,\n        uint32 _apealTime,\n        address _sellerWalletAddress,\n        string memory _invoiceFile,\n        string memory _customerEmail,\n        uint32 _mediatorId,\n        bool _medAccepted,\n        string memory _friendsEmail\n    ) public {\n        // User can't sell more tokens than they have\n        require(token.balanceOf(msg.sender) >= _amount);\n\n        // Perform sale\n        token.transferFrom(msg.sender, address(this), _amount);\n\n        _saveOrdersDataOfUser(\n            _orderId,\n            _amount,\n            _termsAndCondition,\n            _warrantyFile,\n            _apealTime,\n            _sellerWalletAddress,\n            _invoiceFile,\n            _customerEmail,\n            _mediatorId,\n            _medAccepted,\n            _friendsEmail\n        );\n    }\n\n    // function buyWithUsdt(\n    //     uint32 _orderId,\n    //     uint256 _amount,\n    //     string memory _termsAndCondition,\n    //     string memory _warrantyFile,\n    //     uint32 _apealTime,\n    //     address _sellerWalletAddress,\n    //     string memory _invoiceFile,\n    //     string memory _customerEmail,\n    // uint32 _mediatorId,\n    // bool _medAccepted,\n    //     string memory _friendsEmail\n    // ) public {\n    //     // User can't sell more tokens than they have\n    //     require(usdtToken.balanceOf(msg.sender) >= _amount);\n\n    //     // Perform sale\n    //     usdtToken.transferFrom(msg.sender, address(this), _amount);\n\n    //     _saveOrdersDataOfUser(\n    //         _orderId,\n    //          _amount,\n    //         _termsAndCondition,\n    //         _warrantyFile,\n    //         _apealTime,\n    //         _sellerWalletAddress,\n    //         _invoiceFile,\n    //         _customerEmail,\n    // _mediatorId,\n    // _medAccepted,\n    //         _friendsEmail\n    //     );\n    // }\n\n    function buyWithBNB(\n        uint32 _orderId,\n        string memory _termsAndCondition,\n        string memory _warrantyFile,\n        uint32 _apealTime,\n        address _sellerWalletAddress,\n        string memory _invoiceFile,\n        string memory _customerEmail,\n        uint32 _mediatorId,\n        bool _medAccepted,\n        string memory _friendsEmail\n    ) public payable {\n        // User can't sell more tokens than they have\n        // require(token.balanceOf(msg.sender) >= msg.value);\n\n        // Perform sale\n        // token.transferFrom(msg.sender, address(this), _amount);\n        // address(address(this).transfer(_amount));\n        // token.transfer(address(this), _amount);\n        // token.transferFrom(msg.sender, address(this), _amount);\n\n        _saveOrdersDataOfUser(\n            _orderId,\n            msg.value,\n            _termsAndCondition,\n            _warrantyFile,\n            _apealTime,\n            _sellerWalletAddress,\n            _invoiceFile,\n            _customerEmail,\n            _mediatorId,\n            _medAccepted,\n            _friendsEmail\n        );\n    }\n}\n",
  "sourcePath": "/home/abdullah/Desktop/Fairtrader/FairTrader Main App Smart_Contract/UPGRADECONTRACT...(buy Invoice Main APp)/contracts/BuyInvoicesMainAPp.sol",
  "compiler": {
    "name": "solc",
    "version": "0.8.3+commit.8d00100c.Emscripten.clang"
  },
  "schemaVersion": "3.4.10",
  "updatedAt": "2022-11-01T13:37:53.929Z",
  "networkType": "ethereum",
  "devdoc": {
    "kind": "dev",
    "methods": {},
    "version": 1
  },
  "userdoc": {
    "kind": "user",
    "methods": {},
    "version": 1
  }
}